:100000000C94C4000C94EC000C94EC000C94B5051A
:100010000C94D9050C94FD050C94EC000C94EC00A8
:100020000C94EC000C94EC000C94EC000C949422D6
:100030000C94EC000C94EC000C94EC000C94EC0090
:100040000C94CB220C94EC000C94AF250C94E1257D
:100050000C94EC000C94EC000C94EC000C94EC0070
:100060000C94EC000C94EC005A21632166216D2164
:100070007021732176218921B02193219521972127
:1000800099219D21A021A321A621A92100C201001F
:100090000100110011000C0000E100000A00250021
:1000A00025002100009600001900390039003600B3
:1000B000127A00001F0046004600440080700000D5
:1000C00022004D004D004A00004B00003600750034
:1000D00075007200403800004A009C009C009900A6
:1000E000802500007200EC00EC00E900C012000066
:1000F000E900DA01DA01D70160090000D701B6038F
:10010000B603B303B0040000B3036E076E076B07BA
:10011000580200006E07DC0EDC0ED80E2C01000029
:10012000DC0EC11DC11DBE1D000000080002010043
:1001300000030407000000000000000001020408A2
:100140001020408001020408102001020408102041
:10015000040404040404040402020202020203036D
:100160000303030300000000230026002900000011
:100170000000250028002B000000000024002700BC
:100180002A0019041126430411241FBECFEFD8E022
:10019000DEBFCDBF13E0A0E0B1E0E6E1F2E602C0D1
:1001A00005900D92A033B107D9F725E0A0E3B3E0A5
:1001B00001C01D92AA3EB207E1F711E0C6E8D1E006
:1001C00004C02297FE010E944C2DC238D107C9F706
:1001D0000E9455260C94FE300C940000809136034A
:1001E000909137034E979093370380933603089589
:1001F000089508956091360370913703625E7F4FD2
:100200007093370360933603882777FD8095982F86
:100210000E947C2B20E030E048EC52E40E94DD2A72
:10022000AB01BC0122E030E088E495E00C949D280D
:1002300080E393E00E94F6288FE194E00E94F62884
:1002400085E294E00E94F6288BE294E00C94740717
:100250008F929F92AF92BF92CF92DF92EF92FF92D6
:10026000CF93DF9300D000D000D0CDB7DEB740ED04
:1002700057E060E070E084EB94E00E94A60720E085
:100280003BE440E050E068E475E084EB94E00E94D9
:10029000B90784EB94E00E94A3076AE171E08091C2
:1002A000E5049091E6040E94B0266AE070E080E0E8
:1002B00090E00E94442341E060E084EB94E00E94DF
:1002C000240840E05BE460E070E08BE294E00E9490
:1002D000A30626E040E05BE460E070E088E495E09F
:1002E0000E944D2541E050E062E070E087E494E038
:1002F0000E9466088AEF90E0909364048093630400
:1003000088EF90E0909368048093670489EF90E011
:1003100090936A04809369048EEE90E09093660453
:100320008093650482E3C82ED12CE12CF12C98EE49
:10033000892E93E0992EA12CB12C82E00E943F24BB
:10034000892BB1F548EE53E06CEB72E080E094E06D
:100350000E946E1EC701B6010E9444230E94B6216E
:10036000C501B4016C197D098E099F090E944423BF
:1003700082E3C80ED11CE11CF11C86E2C81682E0A3
:10038000D806E104F104C9F680E094E00E948620DA
:1003900080E094E00E94862080E094E00E94862025
:1003A00080E094E00E94862085EE93E00E94DB0AC4
:1003B00080E896EEA5ECB7E480936B0490936C0410
:1003C000A0936D04B0936E0489E393E00E94081437
:1003D00085EE93E00E943D0B6CE271E0CE01019648
:1003E0000E946429BE016F5F7F4F85EE93E00E94FB
:1003F000980BCE0101960E94F62882E890E0909337
:10040000F9038093F80361E080E094E00E945820B3
:1004100088E29AE090931D0480931C048AE0809304
:100420001E048AEF90E090930F0180930E012696B0
:100430000FB6F894DEBF0FBECDBFDF91CF91FF9016
:10044000EF90DF90CF90BF90AF909F908F900895E6
:10045000CF92DF92EF92FF920F931F93CF93DF9390
:10046000EC017B0100E010E0C12CD12CF70184816C
:1004700095810817190750F4B801C7010E94F129A6
:10048000FC018081C8260F5F1F4FF0CF62E471E04E
:10049000CE010E94B026B701CE010E94A22660E4E0
:1004A00071E0CE010E94B02640E150E0B601CE01DD
:1004B000DF91CF911F910F91FF90EF90DF90CF9040
:1004C0000C949C27CF93DF9300D000D000D0CDB701
:1004D000DEB765EB71E0CE0101960E94642964E409
:1004E00071E0CE0101960E949A29BE016F5F7F4F95
:1004F0008BE294E00E94280262E771E0CE0101964F
:100500000E949A29BE016F5F7F4F8BE294E00E94A8
:100510002802CE0101960E94F62826960FB6F8947E
:10052000DEBF0FBECDBFDF91CF9108951F93CF9354
:10053000DF9300D000D000D0CDB7DEB781E080934C
:10054000E40365EB71E0CE0101960E9464296EE739
:1005500071E0CE0101960E949A29BE016F5F7F4F24
:100560008BE294E00E94280211E060E0812F0E945B
:10057000D02360E0812F0E9409241F5F1431A9F766
:1005800060E08DE00E94092483B7816083BF83B758
:10059000817F846083BF80917A0010927A00F89402
:1005A000E89A85B7982F90668F7D806495BF85BF48
:1005B00078948895CE0101960E94F62826960FB66B
:1005C000F894DEBF0FBECDBFDF91CF911F9108958C
:1005D000CF93DF9300D000D000D0CDB7DEB7E0914D
:1005E0004805F09149050480F581E02D88E495E007
:1005F0000995181619068CF5E0914805F091490502
:100600000680F781E02D88E495E009958A32E9F4C7
:100610006AE28FE194E00E94DE296FE174E0CE018E
:1006200001960E949129BE016F5F7F4F85EE93E096
:100630000E94980BCE0101960E94F62865EB71E0AE
:100640008FE194E00E949A29CACF8A3041F2682F44
:100650008FE194E00E94DE29C2CF26960FB6F8946F
:10066000DEBF0FBECDBFDF91CF9108950E941F2A3C
:10067000892F8095881F8827881F0895CF92DF9241
:10068000EF92FF9289E393E00E94CE1480914E0393
:10069000882361F120913D0330913E0340913F0357
:1006A0005091400360914103709142038091430354
:1006B000909144030E94762B6B017C0120E030E591
:1006C00043EC57E40E947A2C181684F420E030E4BE
:1006D0004CE156E4C701B6010E94DD2A60936B0429
:1006E00070936C0480936D0490936E04FF90EF9070
:1006F000DF90CF9008950F931F93CF93DF9300D097
:1007000000D000D0CDB7DEB780913803811111C081
:100710000E94152320910E0130910F01890122279B
:1007200017FD2095322F061717072807390708F4F9
:1007300040C00E94E80280913803882359F140911B
:10074000360350913703662757FD6095762F80E07A
:1007500094E00E946C1E0E943E030E9415230091AB
:100760000A0110910B0120910C0130910D01601BC9
:10077000710B820B930B653F71408105910550F021
:100780000E94152360930A0170930B0180930C0162
:1007900090930D0187E494E00E94720826960FB6AC
:1007A000F894DEBF0FBECDBFDF91CF911F910F91A7
:1007B00008958BE294E00E94450740E855E260E02E
:1007C00070E08BE294E00E94A30665EB71E0CE013D
:1007D00001960E94642968E871E0CE0101960E94AA
:1007E0009A29BE016F5F7F4F8BE294E00E9428023E
:1007F00040E05BE460E070E08BE294E00E94A306DE
:100800000E94620226E040E05BE460E070E088E481
:1008100095E00E944D2581E08093380368E475E0FF
:1008200085EE93E00E94E809CE0101960E94F62829
:1008300080CF87E494E00E943F0820E048E067E032
:100840008BE294E00E94730665EB71E085E294E030
:100850000E94642965EB71E08FE194E00E946429B5
:1008600080E094E00E940C1B85EE93E00E949409C6
:1008700067E789E393E00E94EE1365EB71E080E3A4
:1008800093E00C9464290C941801CB010C94B130C2
:10089000CB01642F0C94B9302091B2043091B30491
:1008A00028173907B9F49091700480917104981752
:1008B00089F0E0917004F0E0EE58FB4F80812091C8
:1008C000700430E02F5F3F4F2F7333272093700465
:1008D00090E008958FEF9FEF08952091B20430913A
:1008E000B3042817390781F4909170048091710442
:1008F000981751F0E0917004F0E0EE58FB4F8081C2
:10090000992787FD909508958FEF9FEF0895209187
:10091000B2043091B3042817390771F4809171043F
:100920002091700490E0805C9F4F821B910960E4ED
:1009300070E00E94F52C089580E090E008952091E9
:10094000B2043091B3042817390739F48FB7F894FB
:1009500010927104109270048FBF0895DC015196BB
:10096000ED91FC915297208150968C918095822335
:100970008083089520E001972FEF8F3F9207D9F7EA
:1009800008952091B2043091B3042817390789F0F3
:10099000FC01238D2E7F238F2FB7F89410927104C2
:1009A000109270049093B3048093B2042FBF81E03F
:1009B000089580E00895EF92FF920F931F93CF93D5
:1009C000DF93EC018B8DEE85FF859D8581FF04C053
:1009D0008081892329F445C08081892309F041C0A1
:1009E0008B899C890E94BA0408E010E0EE24E3940D
:1009F000F12C8D899E890E94BA04EE85FF85808145
:100A00009D85892311F0FE2803C08E2D8095F82244
:100A1000EE0C0150110969F78F89988D0E94BA0474
:100A20008B8D81FDF094809171042091700490E091
:100A300001968F73992730E08217930779F0E09140
:100A40007104F0E0EE58FB4FF0828091710490E069
:100A500001968F7399278093710403C08B8D8160F9
:100A60008B8FDF91CF911F910F91FF90EF900895A1
:100A7000611102C00C94AE04DC015196ED91FC9121
:100A80005297208150968C91282B20830895DF92D5
:100A9000EF92FF920F931F93CF93DF93EC01E62E1B
:100AA000898D9A8D892B39F481E090E09B838A832C
:100AB00080E090E049C0DFB6F8946B8D6695617078
:100AC000CE010E943805898D9A8D05960E94BA0440
:100AD0008B8D08E010E0FF24F39481FF17C08F2D69
:100AE0008E2121F0CE010E94AE0404C061E0CE014F
:100AF0000E943805898D9A8D0E94BA04FF0C01501E
:100B0000110969F7CE010E94AE0417C08F2D8E2106
:100B100029F061E0CE010E94380503C0CE010E9499
:100B2000AE04898D9A8D0E94BA04FF0C0150110900
:100B300069F761E0CE010E943805DFBE898D9A8D8C
:100B40000E94BA0481E090E0DF91CF911F910F9154
:100B5000FF90EF90DF9008958091B2049091B304DC
:100B6000009711F00C94DB0408951F920F920FB6BA
:100B70000F9211242F933F934F935F936F937F9323
:100B80008F939F93AF93BF93EF93FF930E94AC0516
:100B9000FF91EF91BF91AF919F918F917F916F9155
:100BA0005F914F913F912F910F900FBE0F901F902B
:100BB00018951F920F920FB60F9211242F933F9307
:100BC0004F935F936F937F938F939F93AF93BF9355
:100BD000EF93FF930E94AC05FF91EF91BF91AF910E
:100BE0009F918F917F916F915F914F913F912F9145
:100BF0000F900FBE0F901F9018951F920F920FB677
:100C00000F9211242F933F934F935F936F937F9392
:100C10008F939F93AF93BF93EF93FF930E94AC0585
:100C2000FF91EF91BF91AF919F918F917F916F91C4
:100C30005F914F913F912F910F900FBE0F901F909A
:100C400018951F93CF93DF93EC01162F61E0812F4E
:100C50000E94D0236B8D6695617081E06827812F9B
:100C60000E940924812F90E0FC01E45CFE4FE49196
:100C7000E88BFC01E05BFE4FE491F0E0EE0FFF1F1C
:100C8000E259FE4F859194919A8B898BDF91CF9198
:100C90001F9108951F93CF93DF93EC01162F60E00F
:100CA000812F0E94D0238B8D81FD04C061E0812FB4
:100CB0000E9409241C87812F90E0FC01E45CFE4F18
:100CC000E491ED87FC01E05BFE4FE491F0E0EE0F74
:100CD000FF1FEC59FE4F859194919F878E87DF917E
:100CE000CF911F910895FF920F931F93CF93DF939E
:100CF000EC01F62E522F1B821A8208EE13E020E040
:100D000030E00C831D832E833F838AE991E0998331
:100D100088831C8A1B8A1E8A1D8A188E1F8A1A8E37
:100D2000198E8B8D8E7F50FB81F98B8F642FCE01B6
:100D30000E9421066F2DCE01DF91CF911F910F915F
:100D4000FF900C944A060F931F93CF93DF93EC010F
:100D50001A8E198E188E1F8A1E8A1D8AACE8B0E082
:100D600080E090E0FD0105911591259134910417E3
:100D700015072607370709F031C02CE0289FF0013E
:100D8000299FF00D1124E057FF4F259134913C8BA2
:100D90002B8B2CE0289FF001299FF00D1124EE569B
:100DA000FF4F259134913E8B2D8B2CE0289FF00135
:100DB000299FF00D1124EC56FF4F25913491388F67
:100DC0002F8B2CE0289FF001299FF00D1124EA566B
:100DD000FF4F859194919A8F898F08C001961C9638
:100DE0008D30910509F0BECF1C8A1B8A8F89988DA2
:100DF000892B09F443C08C858631E0F52091680089
:100E0000883050F091E08E3008F490E081E001C02D
:100E1000880F9A95EAF701C084E0822B80936800DE
:100E20002C85283038F02E3040F0263148F0E0E0B4
:100E3000F0E008C0EDE6F0E005C0EBE6F0E002C04F
:100E4000ECE6F0E03081283030F481E001C0880F1A
:100E50002A95EAF70DC0822F90E02E3010F4089703
:100E600001C00E9791E001C0990F8A95EAF7892F8A
:100E7000832B8083898D9A8D0E94BA04CE01DF91E5
:100E8000CF911F910F910C94C104FC014485463110
:100E900050F5483028F04E3030F4EBE6F0E005C075
:100EA000EDE6F0E002C0ECE6F0E05081483040F4BE
:100EB00081E090E0042E01C0880F0A94EAF710C088
:100EC000242F30E04E3018F42850310902C02E5043
:100ED000310981E090E0022E01C0880F0A94EAF700
:100EE00080958523808308952AE931E0FC013183D0
:100EF00020830C9445070F931F93CF93DF93EC014E
:100F0000662359F00E94152369837A838B839C831F
:100F1000DF91CF911F910F9108950E9415230981B0
:100F20001A812B813C81601B710B820B930B623306
:100F300071058105910530F763E070E080E090E095
:100F40000E944423EACF60E00C947B07FC0113AAC3
:100F500014AA15AA16AA11821282138214824115AC
:100F600051056105710521F0CB01BA010C944423B0
:100F70000895FB01BA01A901DC01D296FC93EE931E
:100F8000D19726E0CF010C944D251F93CF93DF938B
:100F9000EC01162F66EA71E089A99AA90E94B02691
:100FA0004AE050E0612F89A99AA90E9495276DEA2D
:100FB00071E089A99AA90E94B02662E370E080E0FE
:100FC00090E0DF91CF911F910C9444231F93CF9316
:100FD000DF93EC01162F8D81882389F189A99AA9C5
:100FE000DC01ED91FC910480F581E02D0995892BC0
:100FF000A9F307C02637310519F12835310509F461
:101000001D8289A99AA9DC01ED91FC910480F581EA
:10101000E02D09951816190694F489A99AA9DC01FE
:10102000ED91FC910680F781E02D09959C01332715
:1010300023363105F9F6612FCE010E94C50783E6FC
:10104000DF91CF911F9108950F931F93CF93DF935B
:101050001F92CDB7DEB78C01662349F081E0F8011D
:10106000858360E0C80149830E94E6074981F80151
:1010700045830F90DF91CF911F910F910895FC014F
:1010800084E190E0948383838AEF90E09683858364
:1010900088EE93E09087878380EA9FE0928781873C
:1010A00081E0838784871586168617864FEF5FEF6A
:1010B000BA01408B518B628B738B448B558B668B43
:1010C000778B108E118E128E138E0895FC01862F51
:1010D0006083718391E0452B09F490E0928362E094
:1010E0000C94D023CF92DF92EF92FF920F931F9335
:1010F000CF93DF93EC010E9415236B017C01888163
:101100000E943F24E1E0019709F0E0E0EB878A814B
:10111000FC85E817C1F1F81362C08C899D89AE89FE
:10112000BF89B701A601481B590B6A0B7B0B8B814A
:101130009C81AA2797FDA095BA2F84179507A6072B
:10114000B7070CF04CC0C88AD98AEA8AFB8A188E85
:10115000198E21E02F871A8E1B8E8D819E81AA27E2
:1011600097FDA095BA2F481759076A077B0744F4E3
:101170008E85811105C08D85882311F02E8701C0D1
:101180001E861D862CC0FE1709F470C088899989B7
:10119000AA89BB89B701A601481B590B6A0B7B0BB7
:1011A0008B819C81AA2797FDA095BA2F841795075C
:1011B000A607B7070CF05AC0888D811157C0CC8A9A
:1011C000DD8AEE8AFF8A8E85811103C081E08D87DA
:1011D0004DC01E861D861F8682E090E049C088892A
:1011E0009989AA89BB89C81AD90AEA0AFB0A89859A
:1011F0009A85AA2797FDA095BA2FC816D906EA06A0
:10120000FB0664F08A8D811109C081E0898F888F87
:101210001E861D868A8F84E090E002C080E090E008
:10122000EC878130910519F4EC8DFD8D11C0823071
:10123000910519F4EE8DFF8D0BC08330910519F4E3
:10124000E8A1F9A105C0049709F065C0EAA1FBA1D6
:10125000309709F460C088819981DF91CF911F9107
:101260000F91FF90EF90DF90CF90099480E090E095
:101270004C895D896E897F8997018601041B150B56
:10128000260B370B4D815E81662757FD6095762FC3
:1012900004171507260737077CF02D85222361F0F8
:1012A0002E85211109C02F85222331F0823091052E
:1012B00019F01D8681E090E0FE1709F4B1CF48894E
:1012C00059896A897B89C41AD50AE60AF70A4F81C7
:1012D0005885662757FD6095762FC416D506E60615
:1012E000F7060CF49DCF49855A85662757FD609512
:1012F000762FC416D506E606F7060CF091CF2A8D98
:1013000021118ECF81E0898F888F1E861D868A8F5E
:1013100083E090E085CFDF91CF911F910F91FF90F7
:10132000EF90DF90CF9008950895CF92DF92EF92E3
:10133000FF920F931F93CF93DF9300D000D000D084
:10134000CDB7DEB77B016EEF71E0CE0101960E9452
:101350006429BE016F5F7F4FC7010E941F2A6C0185
:10136000CE0101960E94F62860E471E0CE0101965C
:101370000E946429BE016F5F7F4FC7010E941F2A30
:101380008C01CE0101960E94F628A6014F5F5F4FA7
:101390009801B701CE0101960E94232ACE01019641
:1013A0000E94682A6B017C01CE0101960E94F628FA
:1013B000C60126960FB6F894DEBF0FBECDBFDF91F3
:1013C000CF911F910F91FF90EF90DF90CF900895F4
:1013D0000F931F93CF93DF938C01EB0160E072E0DA
:1013E000CE010E94B026F801608171814AE050E090
:1013F000CE010E94702768E072E0CE010E94B02604
:10140000F801628173814AE050E0CE010E947027AA
:101410006EE072E0CE010E94B026F801668570E0B1
:101420004AE050E0CE010E9470276AE172E0CE01EE
:101430000E94B026F801678570894AE050E0CE012D
:101440000E94702767E172E0CE010E94B026F80189
:10145000618972894AE050E0CE010E94702764E2FF
:1014600072E0CE010E94B026F801628573854AE0E1
:1014700050E0CE010E9470276CE272E0CE010E9423
:10148000B026F801608571854AE050E0CE010E94E7
:10149000702764E372E0CE010E94B026F8016481F7
:1014A00075814AE050E0CE010E94702762E472E04C
:1014B000CE010E94B026F801668177814AE050E0B3
:1014C000CE010E94702760E572E0CE010E94B02636
:1014D000F801638974894AE050E0CE010E947027C8
:1014E0006AE572E0CE010E94B026F801618D728D2E
:1014F0004AE050E0CE010E94702767E672E0CE011C
:101500000E94B026F801658976894AE050E0CE0154
:101510000E9470276AE772E0CE010E94B026F801AF
:101520006789708D4AE050E0CE01DF91CF911F9125
:101530000F910C947027EF92FF920F931F93CF930C
:10154000DF93EB017C012BE1E20EF11C49918C0150
:101550000F5F1F4FBC018FE694E00E9448040E15F8
:101560001F0511F0C801F2CF8BE190E0DF91CF9120
:101570001F910F91FF90EF900895BC0180E090E0E3
:101580000C949B0ACF93DF93EC01611103C01B8283
:101590001A8208C081E090E09B838A8380E094E017
:1015A0000E94862080E094E00E948620CE01DF9198
:1015B000CF910C94BD0AFC0180EE97E0918380836B
:1015C0001382128281E0868788E29AE0908B878777
:1015D00084EF91E0928B818B89E090E09387828702
:1015E0002AE030E0358724872FE030E035832483FC
:1015F00026E03FEF378326839187808784E690E05B
:10160000948B838B8FE590E0968B858B108E178A59
:1016100081E490E0928F818FBF0180E090E00C9494
:101620009B0AEF92FF920F931F93CF93DF938C014E
:101630007C01C0E0D0E0BE018FE694E00E9445044A
:10164000F70181937F012196CB31D105A1F7F801F4
:1016500080819181803E974049F0C801DF91CF9110
:101660001F910F91FF90EF900C94DB0ADF91CF91C7
:101670001F910F91FF90EF900895AF92BF92CF927C
:10168000DF92EF92FF920F931F93CF93DF93EC01C2
:101690000E94110B698D7A8D882777FD8095982F90
:1016A0001F921F921F922CE82F932EE1A22EB12C95
:1016B000C12CD12C14E6E12EF12C00E010E020E04A
:1016C00030E0A9010E94AF2870935F0360935E032E
:1016D0000E811F81222717FD2095322F4C815D81BD
:1016E000662757FD6095762F80E094E00E94271BC7
:1016F0008E8580931B04888580931E040F900F9025
:101700000F900F908A3030F489899A8990931D0444
:1017100080931C0460E0CE01DF91CF911F910F9167
:10172000FF90EF90DF90CF90BF90AF900C94C20AE3
:101730002F923F924F925F926F927F928F929F92E1
:10174000AF92BF92CF92DF92EF92FF920F931F93CF
:10175000CF93DF93CDB7DEB765970FB6F894DEBFB2
:101760000FBECDBF7C018B016DE872E0CE0101960A
:101770000E946429B801CE0107960E949129BE01FA
:101780006F5F7F4FCE0107960E943603D82ECE01A1
:1017900007960E94F628CE0101960E94F628DD20C9
:1017A00051F0C7010E94BD0A63E070E080E094E060
:1017B0000E940921B6C464E972E0CE0101960E943C
:1017C0006429B801CE0107960E949129BE016F5F7E
:1017D0007F4FCE0107960E943603D82ECE01079682
:1017E0000E94F628CE0101960E94F628DD20B9F06D
:1017F000C7010E94DB0AC7010E94BD0A80E094E095
:101800000E94862080E094E00E94862080E094E0A0
:101810000E94862080E094E00E94862082C46CE9C9
:1018200072E0CE0101960E946429B801CE010796AC
:101830000E949129BE016F5F7F4FCE0107960E94E3
:101840003603D82ECE0107960E94F628CE010196C7
:101850000E94F628DD2001F1B801CE0101960E9418
:101860009129BE016F5F7F4FC7010E9495098C01CE
:10187000CE0101960E94F628A80117FF03C05195DA
:1018800041955109F7015583448306811781222729
:1018900017FD2095322F40C061EA72E0CE0101961B
:1018A0000E946429B801CE0107960E949129BE01C9
:1018B0006F5F7F4FCE0107960E943603D82ECE0170
:1018C00007960E94F628CE0101960E94F628DD2098
:1018D00061F1B801CE0101960E949129BE016F5FAE
:1018E0007F4FC7010E9495098C01CE0101960E948D
:1018F000F628980117FF03C031952195310900277B
:101900001127021B130BF70117830683222717FDEC
:101910002095322F44815581662757FD6095762F9B
:1019200080E094E00E94271BFCC366EA72E0CE01CF
:1019300001960E946429B801CE0107960E94912960
:10194000BE016F5F7F4FCE0107960E943603D82EEF
:10195000CE0107960E94F628CE0101960E94F62835
:10196000DD2011F1B801CE0101960E949129BE013E
:101970006F5F7F4FC7010E9495098C01CE010196D0
:101980000E94F6280E35F1E01F0744F0C801093B1C
:101990002BE012072CF088EB9BE002C08EE591E073
:1019A000F701908B87873EC06BEA72E0CE0101960B
:1019B0000E946429B801CE0107960E949129BE01B8
:1019C0006F5F7F4FCE0107960E943603D82ECE015F
:1019D00007960E94F628CE0101960E94F628DD2087
:1019E00031F1B801CE0101960E949129BE016F5FCD
:1019F0007F4FC7010E9495098C01CE0101960E947C
:101A0000F6280E35F1E01F0744F0C801093B2BE032
:101A100012072CF088EB9BE002C08EE591E0F70105
:101A2000928B818B90931D0480931C047AC361EB8D
:101A300072E0CE0101960E946429B801CE0107969A
:101A40000E949129BE016F5F7F4FCE0107960E94D1
:101A50003603D82ECE0107960E94F628CE010196B5
:101A60000E94F628DD2001F1B801CE0101960E9406
:101A70009129BE016F5F7F4FC7010E9495098C01BC
:101A8000CE0101960E94F628101611063CF4C801FA
:101A90000A3011052CF089E090E002C081E090E06E
:101AA000F701938782873DC366EB72E0CE01019612
:101AB0000E946429B801CE0107960E949129BE01B7
:101AC0006F5F7F4FCE0107960E943603D82ECE015E
:101AD00007960E94F628CE0101960E94F628DD2086
:101AE00001F1B801CE0101960E949129BE016F5FFC
:101AF0007F4FC7010E9495098C01CE0101960E947B
:101B0000F628093011053CF0C8010B3011052CF006
:101B10008AE090E002C089E090E0F7019587848731
:101B200000C36BEB72E0CE0101960E946429B801FC
:101B3000CE0107960E949129BE016F5F7F4FCE01B3
:101B400007960E943603D82ECE0107960E94F628EB
:101B5000CE0101960E94F628DD2001F1B801CE01E8
:101B600001960E949129BE016F5F7F4FC7010E94BD
:101B700095098C01CE0101960E94F62806341105C4
:101B80003CF0C801033811052CF082E890E002C057
:101B900086E490E0F701948B838BC3C260EC72E023
:101BA000CE0101960E946429B801CE0107960E94D9
:101BB0009129BE016F5F7F4FCE0107960E943603C9
:101BC000D82ECE0107960E94F628CE0101960E94DB
:101BD000F628DD20F1F1B801CE0101960E9491298D
:101BE000BE016F5F7F4FC7010E9495098C01CE0136
:101BF00001960E94F628B8010536110514F064E636
:101C000070E077FF02C060E070E0F701728F618FD3
:101C1000882777FD8095982F1F921F921F922CE89E
:101C20002F934EE1A42EB12CC12CD12C14E6E12E21
:101C3000F12C00E010E020E030E0A9010E94AF2884
:101C400070935F0360935E030F900F900F900F905F
:101C500068C266EC72E0CE0101960E946429B80168
:101C6000CE0107960E949129BE016F5F7F4FCE0182
:101C700007960E943603D82ECE0107960E94F628BA
:101C8000CE0101960E94F628DD2019F00E949602EE
:101C900048C26CEC72E0CE0101960E946429B80142
:101CA000CE0107960E949129BE016F5F7F4FCE0142
:101CB00007960E943603D82ECE0107960E94F6287A
:101CC000CE0101960E94F628DD20A1F0B801CE01D8
:101CD00001960E949129BE016F5F7F4FC7010E944C
:101CE00095098C01CE0101960E94F628F701168B0A
:101CF000058B17C262ED72E0CE0101960E94642945
:101D0000B801CE0107960E949129BE016F5F7F4FF7
:101D1000CE0107960E943603D82ECE0107960E9468
:101D2000F628CE0101960E94F628DD20A1F0B80128
:101D3000CE0101960E949129BE016F5F7F4FC701BE
:101D40000E9495098C01CE0101960E94F628F701A8
:101D5000108F078BE6C168ED72E0CE0101960E94FC
:101D60006429B801CE0107960E949129BE016F5FD8
:101D70007F4FCE0107960E943603D82ECE010796DC
:101D80000E94F628CE0101960E94F628DD2009F473
:101D90008FC1F0911E04FD87F701848580931E0496
:101DA0006EEF71E0CE0101960E946429BE016F5F63
:101DB0007F4FC8010E941F2A6C01CE0101960E942C
:101DC000F62884EB94E00E94A3076DED72E0809109
:101DD000E5049091E6040E94B02665EE72E08091E1
:101DE000E5049091E6040E94B02665E070E080E092
:101DF00090E00E9444236AE070E080E090E00E945E
:101E0000442365E084EB94E00E94E6077601FFEF4F
:101E1000EF1AFF0A6EEF71E0CE0101960E9464296D
:101E2000A701BE016F5F7F4FC8010E94032A4C01CA
:101E3000CE0101960E94F62894012C193D092150EB
:101E40003109A701B801CE0101960E94232ACE01D3
:101E500001960E94682A6E877F87888B998BCE01B6
:101E600001960E94F62884EB94E00E94A3076EEE90
:101E700072E08091E5049091E6040E94B02665EE40
:101E800072E08091E5049091E6040E94B02665E03E
:101E900070E080E090E00E9444236AE070E080E01F
:101EA00090E00E94442361E084EB94E00E94E60706
:101EB00034012FEF621A720A6EEF71E0CE010196C3
:101EC0000E946429A301BE016F5F7F4FC8010E9479
:101ED000032A5C01CE0101960E94F628950128197B
:101EE000390921503109A301B801CE0101960E94A0
:101EF000232ACE0101960E94682A2B013C01CE01C3
:101F000001960E94F62884EB94E00E94A30766EFF6
:101F100072E08091E5049091E6040E94B02665EE9F
:101F200072E08091E5049091E6040E94B02665E09D
:101F300070E080E090E00E9444236AE070E080E07E
:101F400090E00E94442364E084EB94E00E94E60762
:101F500045018FEF881A980A6EEF71E0CE01019665
:101F60000E946429A401BE016F5F7F4FC8010E94D7
:101F7000032A7C01CE0101960E94F62897012A19B6
:101F80003B0921503109A401B801CE0101960E94FC
:101F9000232ACE0101960E94682A4B015C01CE01E2
:101FA00001960E94F62884EB94E00E94A3076EEF4E
:101FB00072E08091E5049091E6040E94B02665EEFF
:101FC00072E08091E5049091E6040E94B02665E0FD
:101FD00070E080E090E00E9444236AE070E080E0DE
:101FE00090E00E94442362E084EB94E00E94E607C4
:101FF0001701EFEF2E1A3E0A60E471E0CE01019660
:102000000E946429A101BE016F5F7F4FC8010E9439
:10201000032A6C01CE0101960E94F62896012E1922
:102020003F0921503109A101B801CE0101960E945A
:10203000232ACE0101960E94682A6A8B7B8B8C8BA7
:102040009D8BCE0101960E94F62884EB94E00E94BD
:10205000A30766E073E08091E5049091E6040E9496
:10206000B02665EE72E08091E5049091E6040E944E
:10207000B02665E070E080E090E00E9444236AE0D2
:1020800070E080E090E00E94442363E084EB94E001
:102090000E94E6070A891B899401A2016E857F854B
:1020A00080E094E00E948F1EFD85F0931E0439C0ED
:1020B0006EE073E0CE0101960E946429B801CE0162
:1020C00007960E949129BE016F5F7F4FCE01079650
:1020D0000E943603D82ECE0107960E94F628CE0124
:1020E00001960E94F628DD20E1F0D0901E04F70151
:1020F000848580931E04B801CE0101960E94912927
:10210000BE016F5F7F4FC7010E949509BC0180E04F
:1021100094E00E944E21CE0101960E94F628D092B2
:102120001E0465960FB6F894DEBF0FBECDBFDF91DB
:10213000CF911F910F91FF90EF90DF90CF90BF90C4
:10214000AF909F908F907F906F905F904F903F9057
:102150002F900895449A459AE9EBF0E080818E7FB4
:10216000808380818D7F808388E48093B80084E4BD
:102170008093BC00089570930F0560930E05089539
:102180003091120520911005231B20931105311168
:1021900004C01092110580E008953150309312056B
:1021A000FC01E20FF11D83810895CF92DF92EF923F
:1021B000FF920F931F930E9415236B017C0184EA09
:1021C0008093BC0080910E0590910F052091BC007A
:1021D00027FD1BC00097D1F30E9415236C197D09C0
:1021E0008E099F0940910E0550910F058A0120E04C
:1021F00030E0601771078207930720F31092BC004C
:1022000084E48093BC0081E01CC08091B900887F89
:10221000883029F08091B900887F803111F480E006
:1022200010C08091B900887F883341F48091B90053
:102230001092BC0094E49093BC0002C08091B9005D
:10224000887F1F910F91FF90EF90DF90CF900895BE
:10225000CF92DF92EF92FF920F931F93CF93C62FEF
:102260000E9415236B017C01CC2311F084EC01C08A
:1022700084E88093BC0080910E0590910F05209119
:10228000BC0027FD1BC00097D1F30E9415236C19D9
:102290007D098E099F0940910E0550910F058A0115
:1022A00020E030E0601771078207930720F3109257
:1022B000BC0084E48093BC0081E010C08091B90030
:1022C000887F883341F48091B9001092BC0094E477
:1022D0009093BC0002C08091B900887FCF911F917C
:1022E0000F91FF90EF90DF90CF900895CF92DF9203
:1022F000EF92FF920F931F930E9415236B017C01B5
:1023000084E98093BC0080910E0590910F05209187
:10231000BC0024FF1BC00097D1F30E9415236C1949
:102320007D098E099F0940910E0550910F058A0184
:1023300020E030E0601771078207930720F31092C6
:10234000BC0084E48093BC0081E001C080E01F9168
:102350000F91FF90EF90DF90CF900895CF92DF9292
:10236000EF92FF920F931F93CF93DF93EC01609353
:10237000BB000E9415236B017C0184E88093BC00A4
:1023800080910E0590910F052091BC0027FD1BC088
:102390000097D1F30E9415236C197D098E099F09BE
:1023A00020910E0530910F05890120E030E0601783
:1023B00071078207930720F31092BC0084E4809396
:1023C000BC0081E024C08091B900887F883129F069
:1023D0008091B900887F803411F480E018C010919A
:1023E000B900187F8091B900887F803229F08091F0
:1023F000B900887F883429F4CE010E947611812F9C
:1024000006C01092BC0084E48093BC00F8CFDF913A
:10241000CF911F910F91FF90EF90DF90CF90089593
:10242000CF92DF92EF92FF920F931F93CF93DF93A0
:10243000EC016093BB000E9415236B017C0184E8D2
:102440008093BC0080910E0590910F052091BC00F7
:1024500027FD1BC00097D1F30E9415236C197D093D
:102460008E099F0920910E0530910F05890120E00A
:1024700030E0601771078207930720F31092BC00C9
:1024800084E48093BC0081E019C08091B900887F0A
:10249000883299F01091B900187F8091B900887F37
:1024A000803321F4CE010E94761105C01092BC0049
:1024B00084E48093BC00812F01C080E0DF91CF9144
:1024C0001F910F91FF90EF90DF90CF900895EF92C2
:1024D000FF921F93CF93DF931F92CDB7DEB77C019E
:1024E000142FFC01118269830E94D510F7018183AA
:1024F0006981811124C0660FC7010E94AE11F701E6
:102500008183882321F08130D1F482E018C0612FCB
:10251000C7010E941012F7018183882321F08130C6
:1025200071F483E00CC0C7010E947611F70181832A
:10253000882321F0813019F487E001C080E00F90FA
:10254000DF91CF911F91FF90EF900895EF92FF924E
:102550000F931F93CF93DF93EC01162F042FF22ECE
:102560001092120510921105211102C0FF24F3945C
:102570008FEF8F0D8A831982CE010E94D510898337
:10258000811167C0110F612FCE010E94AE118983A6
:10259000882329F0813009F05CC082E05AC0602FA6
:1025A000CE010E9410128983882329F0813009F01E
:1025B00050C083E04EC0CE010E94D510898388238D
:1025C00029F0813009F045C084E043C061E0610F2B
:1025D000CE010E94AE118983811103C000E010E09A
:1025E0001DC08130B1F585E034C08A81E8121AC07F
:1025F00060E0CE010E94281189838130D1F08835B6
:1026000041F58091BB00FE01E00FF11F8383E3944D
:10261000E0921205E09210050F5F1F4FE02E0F159C
:1026200020F30CC061E0CE010E9428118983813023
:1026300011F486E00EC0803521F30BC0CE010E945C
:1026400076118983882321F0813019F487E001C055
:1026500080E0DF91CF911F910F91FF90EF9008954F
:102660000F931F93FC014083518362837383048320
:1026700015832683378340E050E060E87FE340879E
:1026800051876287738740E050E060E87FEB4487C2
:1026900055876687778781E0848B1F910F91089516
:1026A000FC014CEA55EC67E277E340835183628397
:1026B00073834AE057ED63E27CE34483558366838A
:1026C000778340E050E060E87FE34087518762878E
:1026D000738740E050E060E87FEB4487558766876A
:1026E000778781E0848B0895CF92DF92EF92FF92FB
:1026F000CF93DF93EC01CC80DD80EE80FF802881DA
:1027000039814A815B81688579858A859B850E94AC
:10271000752AA70196010E94752A9B01AC01C70189
:10272000B6010E94DD2A9B01AC0160E070E080E808
:102730009FE30E94742A9B01AC01688B798B8A8B82
:102740009B8BC701B6010E947E2C688779878A8798
:102750009B87DF91CF91FF90EF90DF90CF9008950E
:102760008F929F92AF92BF92CF92DF92EF92FF92A1
:10277000CF93DF93EC016A017B018C89882311F0F0
:102780001C8A1BC0CE010E9474138C849D84AE846D
:10279000BF84A5019401C701B6010E94742A28894B
:1027A00039894A895B890E947E2C9B01AC01C50155
:1027B000B4010E94752A6B017C01CC86DD86EE8611
:1027C000FF86C701B601DF91CF91FF90EF90DF90B8
:1027D000CF90BF90AF909F908F9008950F931F93CD
:1027E000CF93DF931F92CDB7DEB78C018B966983B1
:1027F0000E945013F801EC5BFF4F69816083D801A0
:102800001C961C920F90DF91CF911F910F9108950C
:102810002F923F924F925F926F927F928F929F92F0
:10282000AF92BF92CF92DF92EF92FF920F931F93DE
:10283000CF93DF93CDB7DEB765970FB6F894DEBFC1
:102840000FBECDBF3C010DEC1CEC2CE43DE347E199
:1028500057EB61E579E3CE0101960E94301385E1E3
:10286000FE013196D3019B9601900D928A95E1F776
:102870008AE590E0D30196969C938E939597559612
:102880001C92559793961C9280E090E4ACE9B6E4D4
:10289000F301878B908FA18FB28F8BEE94E00E9413
:1028A000AA1060E570E08BEE94E00E94BB1053012B
:1028B000F4E4AF0EB11C4EE1D5016C918BEE94E0C7
:1028C0000E9467124301B3E58B0E911CF4018083D3
:1028D0007301F4E5EF0EF11CD7011C92882319F067
:1028E00081E08C9342C064E670E080E090E00E945A
:1028F0004423830182EA282EB7E56B0E711C280160
:10290000E5E54E0E511C3324339422E0422DD501CF
:102910006C918BEE94E00E94A612F40180838823D0
:1029200019F0D7013C921AC08BEE94E00E94C010BF
:1029300090E0F301918380838BEE94E00E94C010BD
:1029400090E0D2018D939C93F801E95BFF4FD30196
:10295000DC90C12C8C299D2991838083239423941E
:102960000E5F1F4FBEEA2B12D0CF65960FB6F894BC
:10297000DEBF0FBECDBFDF91CF911F910F91FF90B2
:10298000EF90DF90CF90BF90AF909F908F907F900F
:102990006F905F904F903F902F9008952F923F92AD
:1029A0004F925F926F927F928F929F92AF92BF925F
:1029B000CF92DF92EF92FF920F931F93CF93DF930B
:1029C000CDB7DEB762970FB6F894DEBF0FBECDBFAE
:1029D0009A8B898BDC011C968C91813009F0A0C008
:1029E0000E9421239695879577956795E989FA89BD
:1029F000EF56FF4F6083718382839383A989BA89DD
:102A000097960D911D912D913C919A9760177107A2
:102A10008207930738F4DC01CB01B068808391838F
:102A2000A283B3830C561E4E2F4F3F4F808191815E
:102A3000A281B381081719072A073B0708F0F2C0E3
:102A400009891A89005C1F4FF801108211821282D5
:102A50001382E988FA88F4E4EF0EF11C23E040E0E9
:102A6000D7016C918BEE94E00E94A612E989FA8955
:102A7000E75AFF4F6F01811139C08BEE94E00E943D
:102A8000C01090E0A0E0B0E0BA2FA92F982F8827BF
:102A9000F80180839183A283B3838BEE94E00E943C
:102AA000C010D8014D915D916D917C91482B762F8E
:102AB000652F542F4427F801408351836283738329
:102AC0008BEE94E00E94C010D8014D915D916D9104
:102AD0007C91482BF8014083518362837383D60134
:102AE0004D935D936D937C93139704C01082118274
:102AF0001282138248E5D7016C918BEE94E00E941C
:102B000067120E9421239695879577956795E989A5
:102B1000FA8967A370A781A792A782E0848782C001
:102B2000823009F07FC00E94212396958795779582
:102B30006795E989FA89EF56FF4F60837183828335
:102B40009383A989BA8997960D911D912D913C91F6
:102B50009A97601771078207930738F4DC01CB015D
:102B6000B06880839183A283B3830C561E4E2F4F8F
:102B70003F4F80819181A281B381081719072A07ED
:102B80003B0708F04FC023E040E0E989FA89EC5B9D
:102B9000FF4F60818BEE94E00E94A61281113EC02F
:102BA0008BEE94E00E94C01009891A89005C1F4FC7
:102BB00090E0A0E0B0E0BA2FA92F982F8827F80165
:102BC00080839183A283B3838BEE94E00E94C01034
:102BD000D8014D915D916D917C91482B762F652F99
:102BE000542F4427F80140835183628373838BEE13
:102BF00094E00E94C010D8014D915D916D917C913F
:102C0000482BF8014083518362837383E989FA89F1
:102C1000E35AFF4F4083518362837383A989BA8942
:102C20001C961C92E989FA8984858111DCC448E4E8
:102C3000EC5BFF4F60818BEE94E00E946712098984
:102C40001A890B561F4FF80180819181A281B381AF
:102C5000E989FA89E756FF4F80839183A283B38382
:102C60000E942123D8016D937D938D939C9313979C
:102C7000DC01CB01B695A79597958795E989FA89E7
:102C800087A390A7A1A7B2A781E08487E75AFF4F47
:102C9000FA83E98311E080819181A281B3811816C2
:102CA00019061A061B060CF010E00E941523693E57
:102CB00073408105910508F496C4112309F493C467
:102CC00009891A890F591F4FF80180819181A281CA
:102CD000B38129893A89235A3F4F892B8A2B8B2B21
:102CE00051F4F90180819181A281B381F80180833F
:102CF0009183A283B383D901CD90DD90ED90FC90B8
:102D0000F80160817181828193816C0D7D1D8E1D22
:102D10009F1D22E030E040E050E00E942B2DE98929
:102D2000FA89EB59FF4F2083318342835383D801C3
:102D3000CD92DD92ED92FC921397E989FA89E15BDD
:102D4000FF4F80819181A0E0B0E0BA2FA92F982F8A
:102D5000882729013A01481A590A6A0A7B0AD301CD
:102D6000C201BB0F880B982FDC01E989FA89E7596A
:102D7000FF4F40825182628273828483858386837F
:102D80008783E989FA89EF5AFF4F2081318140E03A
:102D900050E0C301B2010E94B42D07E10E94072E4A
:102DA0002053384F4F4F5F4F6F4F7F4F8F4F9F4F85
:102DB0000E94762B0E94452BE989FA89EF58FF4F34
:102DC0006083718382839383E989FA896083718345
:102DD00082839383E35BFF4F0190F081E02DA9890B
:102DE000BA89A75BBF4F8D909C90940140E050E062
:102DF00060E070E080E090E000E10E94EE2D69016B
:102E00007A011B014C019F0140E050E0C301B20177
:102E10000E94B42D07E00E94072E5901B42FA52F60
:102E2000F62FE72F8C019601A701B101C401CB2E2B
:102E3000DA2EEF2EFE2E0E94252E922E3B834F83FC
:102E400058876987272E382E892EE989FA89EB5809
:102E5000FF4F20833183428353836483758386834A
:102E60009783E989FA89E55BFF4F0190F081E02DB6
:102E7000A989BA89A95BBF4F8D919C919C0140E0C3
:102E800050E060E070E080E090E00FE00E94EE2D06
:102E900069017A01162F7A878B879C879F0140E012
:102EA00050E0C301B2010E94B42D08E00E94072E39
:102EB0005901742EB52FA62F672E082F592E960173
:102EC000A701612F7A858B859C85C72CDB2EEA2E86
:102ED000F62C152D0E94252E8C01E989FA89E358DC
:102EE000FF4F2083318342835383648375838683BA
:102EF0001783E981FA8180819181A281B3812C01BC
:102F00003D01770C4408542C320159016A017B01C0
:102F10009C01AD01642D742D842D942D0E945B2D98
:102F200005E10E94072EA92CBB80CF80D884E984BC
:102F3000F22C032D182D0E942E2E39014A01B62F96
:102F4000A72FF82FE92F06E00E94EE2D5301640110
:102F5000EB2EFA2E0F2F1E2F0E942E2E01E00E9424
:102F6000EE2D0F2F0E942E2E39014A01B62FA72FCA
:102F7000F82FE92F02E00E94EE2D59016A017B0132
:102F80008C019301A4016B2F7A2F8F2F9E2F0E940B
:102F9000252E04E00E94EE2D0FE00E94072E59011D
:102FA0006A017B018C01A989BA8914962C93149724
:102FB0001596BC92159716964C9316971796DC9219
:102FC000179718966C9318971996FC9219971A965A
:102FD0008C931A971B961C9320353143464E5843C9
:102FE0006105710581059105A1F09CF020ED37EF99
:102FF00044E65CE360E070E080E090E00E942E2E0A
:103000000E94762B25EF3FE94EEA5DE30E947E2C7D
:103010004BC09501A601B701C80120343D4F41497D
:1030200055436105710581059105C1F0BCF020E5AE
:1030300031E346EE58E360E070E080E090E00E940B
:103040002E2E0E94762B27E239E547EB5DE30E94A6
:103050007E2C20E836E948E95AE423C19501A6010F
:10306000B701C8012036314A4C465243610571050B
:103070008105910511F10CF120E43DEF41E955E3A3
:1030800060E070E080E090E00E942E2E0E94762B9F
:103090002CE433E042EC5DE30E947E2C20E836E92C
:1030A00048E15BE40E94752A0E94452BE989FA8970
:1030B000658776878787908B00C19501A601B70148
:1030C000C801203A3E4642465F42610571058105CE
:1030D0009105C1F0BCF020E631EA4CE652E360E035
:1030E00070E080E090E00E942E2E0E94762B29EC6A
:1030F00038EC48EC5DE30E947E2C20EC31EE44E697
:103100005BE4CFC09501A601B701C801203E3D4256
:1031100044485C426105710581059105C1F0BCF030
:1031200020EA3EE642E65FE260E070E080E090E0A8
:103130000E942E2E0E94762B24E23DEC44ED5DE3AE
:103140000E947E2C20E836E948E95BE4ABCF95018C
:10315000A601B701C80121153E434A4C59426105F9
:10316000710581059105C1F0BCF020EE3DE244E817
:103170005CE260E070E080E090E00E942E2E0E9411
:10318000762B23EC3FED4FED5DE30E947E2C20E299
:103190003CEB4EEB5BE485C09501A601B701C8018D
:1031A0002038364643435742610571058105910534
:1031B000C1F0BCF020E03EE34AEC59E260E070E090
:1031C00080E090E00E942E2E0E94762B29E33AEBBD
:1031D0004BEE5DE30E947E2C20EC31EE44EE5BE48E
:1031E00061CF9501A601B701C801203D37444E4B80
:1031F00054426105710581059105C1F0BCF020E8DC
:1032000036E643E357E260E070E080E090E00E9441
:103210002E2E0E94762B23EE3CE548EF5DE30E94C4
:103220007E2C20EB33E845E05CE43BC09501A60131
:10323000B701C80120353B45494652426105710539
:1032400081059105C1F0BCF020ED37E44EEB54E26E
:1032500060E070E080E090E00E942E2E0E94762BCD
:103260002DE131EE42E05EE30E947E2C20E836E95B
:1032700048E15CE417CF20E53BE549E652E260E037
:1032800070E080E090E00E942E2E0E94762B20E7D6
:1032900034E14AE05EE30E947E2C20E539EA4BE20D
:1032A0005CE40E94752A0E94452BA989BA891D9663
:1032B0006D937D938D939C93509709891A890B5731
:1032C0001F4FF80180819181A281B38129893A89B8
:1032D00027563F4F3A832983E989FA89C584D684E2
:1032E000E784F088E357FF4F1F01892B8A2B8B2B34
:1032F00019F5D801CD92DD92ED92FC921397C08220
:10330000D182E282F382E989FA89E757FF4FC082CE
:10331000D182E282F382F90180819181A281B3811D
:1033200080529E44A109B109E989FA89E356FF4F09
:1033300080839183A283B383D8014D905D906D907B
:103340007C90C301B2010E947C2B4B015C01C70140
:10335000B60164197509860997090E947C2B2AE039
:1033600037ED43E25DE30E947E2C9B01AC01C50179
:10337000B4010E94752A0E94452BF8016083718375
:103380008283938381E0A989BA8956968C93569754
:10339000A757BF4FBC83AB834D905D906D907C90E1
:1033A000C301B2010E947C2B4B015C01C701B60135
:1033B00064197509860997090E947C2B2BE734E173
:1033C0004EEA5DE30E947E2C9B01AC01C501B40175
:1033D0000E94752A0E94452B4B015C01EB81FC8108
:1033E0006083718382839383D1014D905D906D9052
:1033F0007C90C301B2010E947C2B6B837C838D8304
:103400009E83C701B60164197509860997090E9450
:103410007C2B2DEC3CEC4CEC5DE30E947E2C9B0164
:10342000AC016B817C818D819E810E94752A0E94F6
:10343000452B6B017C01F10160837183828393834F
:10344000A981BA812D913D914D915C912D873E8747
:103450004F87588BE989FA89E356FF4FFC83EB834A
:1034600080819181A281B38182179307A407B50758
:1034700030F5E989FA894788508C618C728C281B59
:10348000390B4A0B5B0BCA01B9010E947A2BA301CD
:1034900092010E94742A2DEC3CEC4CEC5DE30E94FE
:1034A0007E2C9B01AC01C301B2010E94752AA9893F
:1034B000BA8957966D937D938D939C935A97C701C4
:1034C000B601681979098A099B090E947C2B2BE7B0
:1034D00035E141EB55E40E947E2CE989FA89278980
:1034E000308D418D528D0E94DD2A4B015C01E989AE
:1034F000FA89EF55FF4F6083718382839383298814
:103500003A88F5EA2F0E311CD101CD90DD90ED9077
:10351000FC90E989FA8985A196A1BC01882777FDED
:103520008095982F0E947C2B2B013C01A7019601CE
:10353000C501B4010E94742A9B01AC01C301B20110
:103540000E947E2C2FE632E143E85AE30E947E2C53
:103550009B01AC01C701B6010E94752A6B017C0179
:10356000D1016D937D938D939C9313970E94452B6E
:10357000E989FA89638F748F858F968FB701A601C9
:10358000CF018B960E94B0130E94452BA989BA895E
:103590005F966D937D938D939C939297FF24F39404
:1035A0009396FC92F801608171818281938124E677
:1035B00030E040E050E00E942B2DA989BA89519655
:1035C0002D933D934D935C9354975596FC92E981CE
:1035D000FA8180819181A281B381EB81FC8180831A
:1035E0009183A283B38362960FB6F894DEBF0FBEB9
:1035F000CDBFDF91CF911F910F91FF90EF90DF90A2
:10360000CF90BF90AF909F908F907F906F905F9082
:103610004F903F902F900895FC0181E0838F8AE0C6
:10362000868F4FE050E060E070E046875787608B00
:10363000718B46E05FEF6FEF7FEF428B538B648BB4
:10364000758B88E29AE0958F848F128E0895CF92C1
:10365000DF92EF92FF920F931F93FC016A017B01AF
:1036600046875787608B718B028B138B248B358B2E
:1036700066897789808D918DA70196010E94E52C3E
:103680009B01AC01C701B6010E94E52C668B778BCC
:10369000808F918F1F910F91FF90EF90DF90CF90CF
:1036A00008954F925F926F927F92AF92BF92CF92A6
:1036B000DF92EF92FF920F931F93CF93DF93CDB7DB
:1036C000DEB728970FB6F894DEBF0FBECDBF7C01E2
:1036D0002A013B018091270581111BC06091F803ED
:1036E0007091F903882777FD8095982F0E947C2B95
:1036F00020E030E048EC52E40E94DD2A60931B0594
:1037000070931C0580931D0590931E0581E08093A6
:10371000270580E9481681E05806610471040CF021
:103720004AC080911B0590911C05A0911D05B09188
:103730001E0589839A83AB83BC8320E030E04FE28F
:1037400054E4BC01CD010E947E2C0E94452B5B01FC
:103750006C01D7011E968D919D910D90BC91A02D6D
:103760008D839E83AF83B88720E030E04CED52E438
:1037700069817A818B819C810E947E2C0E94452BDD
:103780009F938F937F936F9310E9E12EFF24F3941F
:1037900000E010E02D813E814F815885C301B201C8
:1037A0000E94AF2870931A05609319050F900F902F
:1037B0000F900F9033C020E030E04CED52E4609168
:1037C0001B0570911C0580911D0590911E050E949E
:1037D0007E2C0E94452B1F921F921F9224E12F9353
:1037E0005B016C0110E2E12E13E0F12E00E010E02D
:1037F00020E931E040E050E0C301B2010E94AF286F
:1038000070931A05609319050F900F900F900F9009
:10381000643171051CF484E190E001C0CB0128966D
:103820000FB6F894DEBF0FBECDBFDF91CF911F91D1
:103830000F91FF90EF90DF90CF90BF90AF907F906F
:103840006F905F904F9008954F925F926F927F922A
:10385000AF92BF92CF92DF92EF92FF920F931F939E
:10386000CF93DF93EC012A013B0180911F05811169
:103870001BC06091F8037091F903882777FD80954C
:10388000982F0E947C2B20E030E048EC52E40E940C
:10389000DD2A6093150570931605809317059093A4
:1038A000180581E080931F0580E9481681E05806DD
:1038B0006104710474F520E030E04AEF53E4609154
:1038C00015057091160580911705909118050E94B5
:1038D0007E2C0E94452B2E853F85488959891F9251
:1038E0001F921F92E6E4EF935B016C0110E9E12E59
:1038F000FF24F39400E010E0C301B2010E94AF285E
:1039000070931405609313050F900F900F900F9014
:1039100033C020E030E04CE852E46091150570912E
:10392000160580911705909118050E947E2C0E9423
:10393000452B1F921F921F922FE02F935B016C016A
:1039400010E2E12E13E0F12E00E010E020E931E07A
:1039500040E050E0C301B2010E94AF28709314050B
:10396000609313050F900F900F900F906F307105BB
:103970001CF48FE090E001C0CB01DF91CF911F914B
:103980000F91FF90EF90DF90CF90BF90AF907F901E
:103990006F905F904F9008954F925F926F927F92D9
:1039A0008F929F92AF92BF92CF92DF92EF92FF924F
:1039B0000F931F93CF93DF9300D000D0CDB7DEB726
:1039C0004C012A013B010E941523D4016D937D9384
:1039D0008D939C93139716960D911D912D913C916B
:1039E00019976B017C01C01AD10AE20AF30A1A96F0
:1039F0000D911D912D913C911D970C151D052E05C6
:103A00003F0508F053C05B962C91222309F44EC069
:103A1000F40166837783808791874685578560891F
:103A2000718944165506660677060CF43FC010925D
:103A30003705109238051092390510923A054CE975
:103A40005FEF6FEF7FEF4093330550933405609342
:103A5000350570933605B301A201C4010E94511BC4
:103A6000AC01662757FD6095762FD4011A964D93C9
:103A70005D936D937C931D970E9415236B017C01D0
:103A8000B301A201C4010E94241CAC01662757FDAA
:103A90006095762F4C0D5D1D6E1D7F1D40932F058B
:103AA000509330056093310570933205F401838D96
:103AB000882309F4FCC042895389648975894415B7
:103AC00055056605770574F1E684F7840089118948
:103AD0001F921F921F928CED8F93ECE3AE2EB12CB0
:103AE000C12CD12C20EE3CEF4FEF5FEFC301B201B0
:103AF0000E94AF28D40115967C936E931497882763
:103B000077FD8095982FEE24E39408EE13E020E0F3
:103B100030E05E964C910E94C4210F900F900F9060
:103B20000F90C5C00E94152300912F0510913005FC
:103B30002091310530913205601771078207930794
:103B400080F4D4011E968D919D910D90BC91A02D75
:103B500089839A83AB83BC83481659066A067B0621
:103B6000B4F40F900F900F900F90DF91CF911F91B1
:103B70000F91FF90EF90DF90CF90BF90AF909F900C
:103B80008F907F906F905F904F900C94B621F4E6E9
:103B90004F16510461047104CCF580913705909162
:103BA0003805A0913905B0913A058A3F9105A105E4
:103BB000B10560F5BC01CD016F5F7F4F8F4F9F4F07
:103BC00060933705709338058093390590933A05D3
:103BD0002EE130E040E050E00E94092D672B682B79
:103BE000692BA1F44091330550913405609135055E
:103BF000709136054F5F5F4F6F4F7F4F4093330596
:103C0000509334056093350570933605F401448D67
:103C1000558D5A01CC24B7FCC094DC2C485A5D4F1A
:103C2000662757FD6095762F7F936F935F934F9331
:103C300010E2E12E13E0F12E00E010E029813A813C
:103C40004B815C81C301B2010E94AF280F900F909D
:103C50000F900F90683C710564F0D4015C962D9133
:103C60003C915D9724543D4F2617370724F4B90142
:103C700002C068EC70E0F40175836483882777FDE7
:103C80008095982F009133051091340520913505CA
:103C900030913605600F711F821F931FEE24E3944D
:103CA00008E813E120E030E0468D0E94C4210F9027
:103CB0000F900F900F90DF91CF911F910F91FF9078
:103CC000EF90DF90CF90BF90AF909F908F907F90BC
:103CD0006F905F904F9008950C94CC1C8F929F92A0
:103CE000AF92BF92EF920F931F938A01222717FD85
:103CF0002095322F4B01AA2497FCA094BA2CEE24D5
:103D0000E394FC01468DC501B4010E94C4211F91BA
:103D10000F91EF90BF90AF909F908F9008952F924A
:103D20003F924F925F926F927F928F929F92AF924B
:103D3000BF92CF92DF92EF92FF920F931F93CF9398
:103D4000DF9300D000D01F92CDB7DEB76C01121602
:103D5000130654F43D832C83253631054CF084E65C
:103D600090E09D838C8304C0E1E0F0E0FD83EC8370
:103D7000CA01493EF3E05F0714F088EE93E0AA27FA
:103D800097FDA095BA2F141615062CF4582F292E3E
:103D90003A2E4B2E04C051E0212C312C412CC8016D
:103DA0000D3221E0120714F08CE291E0AA2797FD72
:103DB000A095BA2F17FD05C0582EF92EA983BA83F6
:103DC00004C0512CF12C19821A8266246394712C40
:103DD0004B01AA2497FCA094BA2CE12C052F122D9C
:103DE000232D342DF601468DC501B4015B830E945D
:103DF000C421652D7F2D89819A810E944423FFEF84
:103E00006F1A7F0A5B818C819D81861597052CF73F
:103E10000F900F900F900F900F90DF91CF911F9107
:103E20000F91FF90EF90DF90CF90BF90AF909F9059
:103E30008F907F906F905F904F903F902F9008955C
:103E40002F923F924F925F926F927F928F929F92AA
:103E5000AF92BF92CF92DF92EF920F931F93CF93C7
:103E6000DF93CDB7DEB72C970FB6F894DEBF0FBE49
:103E7000CDBF9A8789877C876B876A011901641790
:103E80007507DCF088279927821B930B9C01442738
:103E900037FD4095542F2D833E834F83588780E014
:103EA00090E0DC014601AA2497FCA094BA2C2801DA
:103EB000662457FC6094762C5DC0C901AA2797FD43
:103EC000A095BA2F89839A83AB83BC83812C912CD4
:103ED00054012B853C85442737FD4095542F2D8375
:103EE0003E834F8358872801662457FC6094762CC4
:103EF0006D817E818F819885680D791D8A1D9B1D3E
:103F0000EE24E39408E813E120E030E0A985BA85C7
:103F10005E964C910E94C421C301B2010E944423C9
:103F2000EB85FC85E20DF31DFC87EB8729813A8147
:103F30004B815C81820E931EA41EB51ECE16DF0639
:103F4000BCF62C960FB6F894DEBF0FBECDBFDF9146
:103F5000CF911F910F91EF90DF90CF90BF90AF90D6
:103F60009F908F907F906F905F904F903F902F9099
:103F70000C94B6212D813E814F815885280F391F21
:103F80004A1F5B1F29833A834B835C834B855C8587
:103F9000C416D506B4F2BC01CD01680D791D8A1D89
:103FA0009B1DEE24E39408E813E120E030E0A985AE
:103FB000BA855E964C910E94C421C301B2010E9451
:103FC0004423C218D30889819A81AB81BC81D2CFA6
:103FD0008F929F92AF92BF92EF920F931F93CF93C6
:103FE000DF93EC01A8EE8A2EA3E09A2EA12CB12C2F
:103FF000EE24E3940CE310E020E030E04E8DC501A8
:10400000B4010E94C42164E070E080E090E00E946E
:10401000442389E1880E911CA11CB11C81ED8816F6
:104020008BE09806A104B10419F7DF91CF911F919D
:104030000F91EF90BF90AF909F908F900C94B6210E
:104040008F929F92AF92BF92EF920F931F93CF9355
:10405000DF93EC01B8EB8B2EBBE09B2EA12CB12C97
:10406000EE24E3940CE310E020E030E04E8DC50137
:10407000B4010E94C42164E070E080E090E00E94FE
:10408000442389E1881A9108A108B1088FEC8816A9
:1040900083E09806A104B10419F7DF91CF911F9135
:1040A0000F91EF90BF90AF909F908F900C94B6219E
:1040B000FC01638F61110C94E81F0C9420208F92F7
:1040C0009F92AF92BF92EF920F931F934B01AA243E
:1040D00097FCA094BA2CEE24E39409E110E020E0D0
:1040E00030E0FC01468DC501B4010E94C42169E1A4
:1040F00070E080E090E00E9444231F910F91EF90C8
:10410000BF90AF909F908F900C94B6218F929F920A
:10411000AF92BF92EF920F931F93CF93DF93EC0177
:1041200018EE812E13E0912EA12CB12CEE24E394F5
:104130000CE310E020E030E04E8DC501B4010E9498
:10414000C42164E070E080E090E00E94442380E5B8
:10415000880E911CA11CB11C88E588168CE098067D
:10416000A104B10419F7DF91CF911F910F91EF9046
:10417000BF90AF909F908F900C94B6216F927F92DA
:104180008F929F92AF92BF92CF92DF92EF920F9356
:104190001F93CF93DF93EC01612C712CC62ED12C91
:1041A0006C147D043CF580ED882E87E0982EA12CC0
:1041B000B12CEE24E3940CE310E020E030E04E8DCF
:1041C000C501B4010E94C4216FE070E080E090E07E
:1041D0000E94442384E6880E911CA11CB11C80EF30
:1041E00088168AE09806A104B10419F78FEF681ABF
:1041F000780AD6CFDF91CF911F910F91EF90DF908A
:10420000CF90BF90AF909F908F907F906F900C94C5
:10421000B621AF92BF92CF92DF92EF920F931F938E
:10422000CF93DF93EC015B0180E5869F6001879F60
:10423000D00C112480EAC81A86EFD80AB601882764
:1042400077FD8095982FEE24E39404E610E020E0BB
:1042500030E04E8D0E94C4218FE08A9DB0018B9D7D
:10426000700D1124605B7F4F882777FD8095982F14
:104270000E94442301E010E02FE030E040EA5FE0DC
:10428000B601CE010E94201FDF91CF911F910F91A7
:10429000EF90DF90CF90BF90AF900895CF93DF93D2
:1042A000EC016231710508F05BC0FB01EC5CFF4F73
:1042B0000C944A2D0E948620CE010E948620CE01B9
:1042C0000E9486201EC068EC70E002C06AEF70E0B9
:1042D000CE01DF91CF910C945F206CE271E0F8CFBA
:1042E00060E971E0F5CF64EF71E0F2CF0E94E81F62
:1042F000CE010E942020CE010E94E81FCE010E9424
:10430000202068EE73E080E090E0DF91CF910C9484
:1043100044230E94E81FCE010E94202060E273E047
:1043200080E090E0F2CF62E01CC064E01AC065E07B
:1043300018C0DF91CF910C94862061E070E00BC033
:1043400062E070E008C063E070E005C064E070E027
:1043500002C065E070E0CE01DF91CF910C9409219D
:1043600061E0CE01DF91CF910C94BE20EFE6F0E04A
:1043700080818D7F808382E08093810081E08093C3
:10438000800029982A9808954F925F926F927F92A9
:104390008F929F92AF92BF92CF92DF92EF92FF9255
:1043A0000F931F93CF93DF9300D000D0CDB7DEB72C
:1043B0002B013C01480159010E2D61157105810544
:1043C000910509F486C0442309F483C0142F4B30AF
:1043D00008F01AE084B1866084B960E072E18AE78F
:1043E00090E0A30192010E94092D69017A0181E008
:1043F000C81AD108E108F108C114D104E1E0EE06C1
:10440000F10460F0CD2CDE2CEF2CFF24F1E0CF1A6C
:10441000D108E108F10894E0792E02C07724739462
:10442000E12FF0E0E15FFE4F208130E040E050E01E
:10443000C701B6010E94092D81149104A104B104A1
:10444000D9F00023C9F029833A834B835C830E940F
:104450001523680D791D8A1D9B1D60933B05709384
:104460003C0580933D0590933E0580916F008260EE
:1044700080936F003A812981D0928700C092860094
:104480008091840090918500A0E0B0E0C816D90624
:10449000EA06FB0620F4D0928500C0928400872DA6
:1044A00080618093810030938B0020938A00309349
:1044B00089002093880080EB809380008114910410
:1044C000A104B104E1F001111AC0C501B4010E94B8
:1044D00044230F900F900F900F90DF91CF911F9179
:1044E0000F91FF90EF90DF90CF90BF90AF909F9093
:1044F0008F907F906F905F904F900C94B6210F90AB
:104500000F900F900F90DF91CF911F910F91FF901F
:10451000EF90DF90CF90BF90AF909F908F907F9063
:104520006F905F904F9008951F920F920FB60F9269
:1045300011240F931F932F933F934F935F936F9388
:104540007F938F939F93AF93BF93EF93FF930E94BB
:10455000152300913B0510913C0520913D053091BC
:104560003E05601771078207930710F00E94B6217D
:10457000FF91EF91BF91AF919F918F917F916F913B
:104580005F914F913F912F911F910F910F900FBE0F
:104590000F901F9018951F920F920FB60F92112433
:1045A0002F933F938F939F93AF93BF938091400539
:1045B00090914105A0914205B091430530913F058E
:1045C00023E0230F2D3720F40196A11DB11D05C056
:1045D00026E8230F0296A11DB11D20933F0580936D
:1045E000400590934105A0934205B0934305809107
:1045F000440590914505A0914605B0914705019667
:10460000A11DB11D8093440590934505A0934605D7
:10461000B0934705BF91AF919F918F913F912F919B
:104620000F900FBE0F901F9018952FB7F8946091C0
:1046300040057091410580914205909143052FBF3F
:1046400008953FB7F8948091440590914505A09155
:104650004605B091470526B5A89B05C02F3F19F028
:104660000196A11DB11D3FBF6627782F892F9A2F74
:10467000620F711D811D911D42E0660F771F881F1B
:10468000991F4A95D1F70895CF92DF92EF92FF924A
:10469000CF93DF936B017C010E942123EB01C114B6
:1046A000D104E104F10489F00E94732A0E942123BD
:1046B0006C1B7D0B683E734090F381E0C81AD108F3
:1046C000E108F108C851DC4FEACFDF91CF91FF90AC
:1046D000EF90DF90CF900895789484B5826084BD88
:1046E00084B5816084BD85B5826085BD85B58160F6
:1046F00085BDEEE6F0E0808181608083E1E8F0E056
:104700001082808182608083808181608083E0E884
:10471000F0E0808181608083E1EBF0E08081846063
:104720008083E0EBF0E0808181608083EAE7F0E065
:1047300080818460808380818260808380818160C9
:1047400080838081806880831092C10008958330C7
:1047500081F028F4813099F08230A1F008958730FB
:10476000A9F08830B9F08430D1F4809180008F7D39
:1047700003C0809180008F7780938000089584B576
:104780008F7702C084B58F7D84BD08958091B0007D
:104790008F7703C08091B0008F7D8093B000089523
:1047A000CF93DF9390E0FC01E45CFE4F2491FC0189
:1047B000E05BFE4F8491882349F190E0880F991FB8
:1047C000FC01E858FE4FA591B49182599E4FFC011F
:1047D000C591D4919FB7611108C0F8948C91209530
:1047E00082238C93888182230AC0623051F4F8942A
:1047F0008C91322F309583238C938881822B8883F0
:1048000004C0F8948C91822B8C939FBFDF91CF9141
:1048100008950F931F93CF93DF931F92CDB7DEB709
:10482000282F30E0F901E85DFE4F8491F901E45C46
:10483000FE4F1491F901E05BFE4F04910023C9F093
:10484000882321F069830E94A7236981E02FF0E08B
:10485000EE0FFF1FE259FE4FA591B4919FB7F89458
:104860008C91611103C01095812301C0812B8C9321
:104870009FBF0F90DF91CF911F910F910895CF931C
:10488000DF93282F30E0F901E85DFE4F8491F901B4
:10489000E45CFE4FD491F901E05BFE4FC491CC2360
:1048A00091F081110E94A723EC2FF0E0EE0FFF1F83
:1048B000EC59FE4FA591B4912C912D2381E090E00D
:1048C00021F480E002C080E090E0DF91CF91089574
:1048D000FC01818D228D90E0805C9F4F821B9109AD
:1048E00060E470E00E94F52C0895FC01918D828DAA
:1048F000981731F0828DE80FF11D858D90E00895B5
:104900008FEF9FEF0895FC01918D828D981761F0D4
:10491000828DDF01A80FB11D5D968C91928D9F5FF6
:104920009F73928F90E008958FEF9FEF089587E037
:1049300096E2892B49F080E090E0892B29F00E94D3
:10494000072681110C9400000895FC01848DDF017D
:10495000A80FB11DA35ABF4F2C91848D90E00196F2
:104960008F739927848FA689B7892C93A089B189E1
:104970008C9180648C93938D848D981306C00288EB
:10498000F389E02D80818F7D80830895CF93DF931D
:10499000EC01888D8823C9F0EA89FB89808185FD37
:1049A00005C0A889B9898C9186FD0FC00FB607FC98
:1049B000F5CF808185FFF2CFA889B9898C9185FFD9
:1049C000EDCFCE010E94A524E7CFDF91CF910895CE
:1049D000CF92DF92FF920F931F93CF93DF931F929B
:1049E000CDB7DEB76C01DC015B969C915B975C9662
:1049F0008C915C97981307C05096ED91FC9151975C
:104A0000808185FD32C0F601038D10E00F5F1F4FDE
:104A10000F731127F02EF601848DF81211C00FB616
:104A200007FCF9CFD6015096ED91FC91519780810A
:104A300085FFF1CFC60169830E94A5246981EBCF70
:104A4000838DE80FF11DE35AFF4F6083D6015B961B
:104A50000C935B975296ED91FC9153978081806205
:104A6000808381E058968C930DC0D6015696ED91C7
:104A7000FC91579760835096ED91FC9151978081FE
:104A80008064808381E090E00F90DF91CF911F914F
:104A90000F91FF90DF90CF900895BF92CF92DF9259
:104AA000EF92FF92CF93DF93EC016A017B01B22E6C
:104AB000E889F98982E08083411581EE5807610514
:104AC0007105A1F060E079E08DE390E0A701960127
:104AD0000E94092D215031094109510956954795E8
:104AE00037952795211580E1380798F0E889F989ED
:104AF000108260E874E88EE190E0A70196010E94C0
:104B0000092D21503109410951095695479537958D
:104B10002795EC85FD853083EE85FF852083188EF3
:104B2000EC89FD89B082EA89FB898081806180837C
:104B3000EA89FB89808188608083EA89FB8980819A
:104B400080688083EA89FB8980818F7D8083DF9103
:104B5000CF91FF90EF90DF90CF90BF9008951F927C
:104B60000F920FB60F9211242F938F939F93EF9371
:104B7000FF93E0915805F09159058081E0915E0521
:104B8000F0915F0582FD12C09081809161058F5F79
:104B90008F7320916205821751F0E0916105F0E07A
:104BA000E85BFA4F958F8093610501C08081FF918A
:104BB000EF919F918F912F910F900FBE0F901F90AB
:104BC00018951F920F920FB60F9211242F933F93B7
:104BD0004F935F936F937F938F939F93AF93BF9305
:104BE000EF93FF9388E495E00E94A524FF91EF9155
:104BF000BF91AF919F918F917F916F915F914F91F5
:104C00003F912F910F900FBE0F901F90189588E441
:104C100095E00E94682421E0892B09F420E0822F8E
:104C2000089510924B0510924A0588EE93E0A0E09B
:104C3000B0E080934C0590934D05A0934E05B09342
:104C40004F0586E193E0909349058093480585ECF4
:104C500090E0909355058093540584EC90E09093F8
:104C600057058093560580EC90E09093590580930A
:104C7000580581EC90E090935B0580935A0582EC97
:104C800090E090935D0580935C0586EC90E09093B6
:104C90005F0580935E051092610510926205109287
:104CA000630510926405089508950E946C230E9484
:104CB00054260E942801C7E9D4E20E947B03209772
:104CC000E1F30E949724F9CFCF92DF92EF92FF9207
:104CD0000F931F93CF93DF936C017A01EB01E60EE4
:104CE000F71E00E010E0CE15DF0561F06991D601F6
:104CF000ED91FC910190F081E02DC6010995080F1E
:104D0000191FF1CFC801DF91CF911F910F91FF9033
:104D1000EF90DF90CF9008956115710581F0DB0170
:104D20000D900020E9F7AD0141505109461B570B8A
:104D3000DC01ED91FC910280F381E02D099480E08B
:104D400090E00895DC01ED91FC91DB0114964D910A
:104D50005C9115976D917C910280F381E02D09940F
:104D60000C948C26DC01ED91FC910190F081E02DFA
:104D700009940F931F93CF93DF93EC016DE00E9492
:104D8000B2268C016AE0CE010E94B226800F911FEC
:104D9000DF91CF911F910F9108958F929F92AF92C3
:104DA000BF92CF92DF92EF92FF920F931F93CF9318
:104DB000DF93CDB7DEB7A1970FB6F894DEBF0FBE75
:104DC000CDBF7C01C42EE52FCB01D22E19A221E04C
:104DD0002D1510F02AE0D22E8E010F5D1F4F8D2C65
:104DE000912CA12CB12C6C2D7E2FA50194010E9439
:104DF000092D8C2DD29E80191124015011098A3061
:104E000014F4805D01C0895CF801808321153105AF
:104E10004105510521F0C22EE32FCA01E4CFB801AC
:104E2000C7010E948C26A1960FB6F894DEBF0FBE74
:104E3000CDBFDF91CF911F910F91FF90EF90DF9049
:104E4000CF90BF90AF909F908F900895CF92DF92B8
:104E5000EF92FF920F931F93CF93DF93EC016A01C0
:104E60007B012115310579F4E881F9810190F08108
:104E7000E02D642FDF91CF911F910F91FF90EF9064
:104E8000DF90CF9009942A303105E9F477FF1AC0FA
:104E90006DE20E94B2268C0144275527BA014C19B5
:104EA0005D096E097F092AE0CE010E94CD26800FA0
:104EB000911FDF91CF911F910F91FF90EF90DF90A5
:104EC000CF9008952AE0B701A601CE01DF91CF91DE
:104ED0001F910F91FF90EF90DF90CF900C94CD2613
:104EE0000F931F93CF93DF93EC019A01AB016627D9
:104EF00057FD6095762F0E9426278C01CE010E94D7
:104F0000B926800F911FDF91CF911F910F910895C6
:104F10002115310541F4DC01ED91FC910190F08106
:104F2000E02D642F09940C94CD269A01462F50E071
:104F300060E070E00C9488270F931F93CF93DF936A
:104F4000EC019A01AB0160E070E00E9488278C01BF
:104F5000CE010E94B926800F911FDF91CF911F9142
:104F60000F9108954F925F926F927F928F929F92CE
:104F7000AF92BF92CF92DF92EF92FF920F931F9367
:104F8000CF93DF93EC016A017B01B22E9A01AB0152
:104F9000C701B6010E94E12C882319F062E273E098
:104FA00027C026013701E89477F82FEF3FEF4FE74E
:104FB0005FE7C301B2010E94E12C81110DC02FEF08
:104FC0003FEF4FE75FE7C301B2010E94D92A1816ED
:104FD0001CF466E273E00CC02FEF3FEF4FE75FE495
:104FE000C701B6010E947A2C1816ACF46AE273E08D
:104FF000CE01DF91CF911F910F91FF90EF90DF9045
:10500000CF90BF90AF909F908F907F906F905F9068
:105010004F900C948C262FEF3FEF4FE75FECC701CA
:10502000B6010E94D92A87FDE1CF20E030E0A90136
:10503000C701B6010E94D92A87FF0AC06DE2CE01DE
:105040000E94B2268C01F7FAF094F7F8F09402C0AF
:1050500000E010E0A12C60E070E080E09FE3AB1482
:1050600041F020E030E040E251E40E94DD2AA394C8
:10507000F6CF9B01AC01C701B6010E94752A6B01F6
:105080007C010E944A2B2B013C010E947A2B9B0140
:10509000AC01C701B6010E94742A6B017C012AE0B1
:1050A000B301A201CE010E94CD26080F191FBB201B
:1050B00039F06EE273E0CE010E948C26080F191FB2
:1050C0007B2C772041F120E030E040E251E4C70141
:1050D000B6010E947E2C6B017C010E94452B4B0186
:1050E000AA2497FCA094BA2C2AE030E0B501A401D0
:1050F000CE010E942627080F191FC501B4010E9486
:105100007C2B9B01AC01C701B6010E94742A6B0184
:105110007C017A94D6CFC801DF91CF911F910F9176
:10512000FF90EF90DF90CF90BF90AF909F908F90C7
:105130007F906F905F904F9008950F931F93CF9340
:10514000DF93EC010E94B2278C01CE010E94B926A8
:10515000800F911FDF91CF911F910F9108954F9272
:105160005F926F927F92AF92BF92CF92DF92EF9257
:10517000FF920F931F93CF93DF93CDB7DEB7290133
:105180003A01621B730B840B950B29893A894B8971
:105190005C892A193B094C095D09298B3A8B4B8B99
:1051A0005C8B9B01AC0169897A898B899C890E94FF
:1051B000E52CE418F50806091709A80197010E94D3
:1051C0002B2D2A0D3B1D4C1D5D1DCA01B901DF9120
:1051D000CF911F910F91FF90EF90DF90CF90BF90F4
:1051E000AF907F906F905F904F900895FC01808109
:1051F00091810C94F22ECF93DF93EC0188819981F9
:10520000009711F00E94F22E198218821D821C82D2
:105210001B821A82DF91CF9108950F931F93CF9332
:10522000DF93EC018B016F5F7F4F888199810E9432
:10523000812F009731F0998388831B830A8381E053
:1052400001C080E0DF91CF911F910F910895CF931E
:10525000DF93EC0188819981892B29F08A819B81D8
:105260008617970760F4CE010E940D29882341F02C
:105270008C819D81892B19F4E881F981108281E06C
:10528000DF91CF910895EF92FF920F931F93CF93E9
:10529000DF93EC017B018A01BA010E942729811169
:1052A00004C0CE010E94FB2807C01D830C83B701F8
:1052B000888199810E947B30CE01DF91CF911F912F
:1052C0000F91FF90EF900895FC01118210821382DC
:1052D0001282158214826115710559F0FB0101904B
:1052E0000020E9F7AF0141505109461B570B0C94C0
:1052F00043290895CF93DF93EC01FB0186179707AD
:1053000061F0608171816115710529F044815581D9
:105310000E94432902C00E94FB28CE01DF91CF9159
:105320000895FC0111821082138212821582148268
:105330000C947A29CF93DF93EC016115710561F02C
:10534000FB0101900020E9F7AF0141505109461BD4
:10535000570B0E94432902C00E94FB28CE01DF9117
:10536000CF910895EF92FF920F931F93CF93DF9306
:10537000EC017B010C811D816115710511F480E048
:1053800016C04115510591F0040F151FB8010E9478
:1053900027298823A1F3288139818C819D81B70138
:1053A000820F931F0E947B301D830C8381E0DF916D
:1053B000CF911F910F91FF90EF900895CF93DF93BE
:1053C00000D0CDB7DEB769831A8241E050E0BE015C
:1053D0006F5F7F4F0E94B2290F900F90DF91CF91A6
:1053E0000895FC01848195816817790720F48081F4
:1053F0009181009729F41092E50585EE95E00895D6
:10540000860F971F0895CF93DF93FC0184819581C8
:105410004817590778F4C081D181FB0160817181FF
:10542000CE01840F951F0E948230009719F08C1BCB
:105430009D0B02C08FEF9FEFDF91CF91089540E069
:1054400050E00C94032ABF92CF92DF92EF92FF922A
:105450000F931F93CF93DF936C017B01EA018901C6
:105460002417350720F48D2FE901042F182F65EB41
:1054700071E0C6010E946429D70114968D919C9118
:105480001597C817D907C8F48017910708F48C013D
:10549000D701ED91FC911197E00FF11FB0801082C0
:1054A0006D917C916C0F7D1FC6010E949A29D701D6
:1054B000ED91FC91E00FF11FB082C601DF91CF9119
:1054C0001F910F91FF90EF90DF90CF90BF900895C4
:1054D000FC0180819181009711F00C944B3060E0C9
:1054E00070E0CB01089508955058BB27AA270ED02D
:1054F000C7C1B8D130F0BDD120F031F49F3F11F4D5
:105500001EF49DC10EF4E095E7FB93C1E92FC9D1CC
:1055100080F3BA17620773078407950718F071F4D0
:105520009EF5E1C10EF4E0950B2EBA2FA02D0B01D4
:10553000B90190010C01CA01A0011124FF27591BD8
:1055400099F0593F50F4503E68F11A16F040A22FDE
:10555000232F342F4427585FF3CF4695379527954F
:10556000A795F0405395C9F77EF41F16BA0B620B4E
:10557000730B840BBAF09150A1F0FF0FBB1F661F95
:10558000771F881FC2F70EC0BA0F621F731F841FD8
:1055900048F4879577956795B795F7959E3F08F0FE
:1055A000B3CF9395880F08F09927EE0F97958795BD
:1055B00008951BD108F481E008950CD061C159D140
:1055C00040F050D130F021F45F3F19F032C1511159
:1055D0008BC135C166D198F39923C9F35523B1F333
:1055E000951B550BBB27AA2762177307840738F052
:1055F0009F5F5F4F220F331F441FAA1FA9F333D0B1
:105600000E2E3AF0E0E830D091505040E695001C64
:10561000CAF729D0FE2F27D0660F771F881FBB1F20
:10562000261737074807AB07B0E809F0BB0B802DFA
:10563000BF01FF2793585F4F2AF09E3F510568F046
:10564000F8C052C15F3FECF3983EDCF38695779546
:105650006795B795F7959F5FC9F7880F911D969548
:10566000879597F90895E1E0660F771F881FBB1FA4
:10567000621773078407BA0720F0621B730B840B51
:10568000BA0BEE1F88F7E095089504D06894B11125
:105690002BC108950ED188F09F5790F0B92F99270C
:1056A000B751A0F0D1F0660F771F881F991F1AF02D
:1056B000BA95C9F712C0B13081F015D1B1E00895A3
:1056C00012C1672F782F8827B85F39F0B93FCCF324
:1056D000869577956795B395D9F73EF49095809523
:1056E000709561957F4F8F4F9F4F089597FB0EF4F4
:1056F000A9D03EC0E89409C097FB3EF490958095F0
:10570000709561957F4F8F4F9F4F9923A9F0F92F87
:1057100096E9BB279395F695879577956795B79505
:10572000F111F8CFFAF4BB0F11F460FF1BC06F5FEB
:105730007F4F8F4F9F4F16C0882311F096E911C0FD
:10574000772321F09EE8872F762F05C0662371F01E
:1057500096E8862F70E060E02AF09A95660F771F32
:10576000881FDAF7880F9695879597F90895E8943A
:10577000F92F96EBFF2381F0121613061406440B43
:105780009395F69587957795679557954040FF23B4
:10579000B9F71BC099270895882351F49850D2F780
:1057A000872B762F652F542F432F322F20E0B1F314
:1057B000121613061406440B88233AF09A95440FE8
:1057C000551F661F771F881FCAF755234AF4440FD9
:1057D000551F11F460FF04C06F5F7F4F8F4F9F4FC5
:1057E000880F9695879597F90895990F0008550F9A
:1057F000AA0BE0E8FEEF16161706E807F907C0F057
:1058000012161306E407F50798F0621B730B840B5E
:10581000950B39F40A2661F0232B242B252B21F438
:1058200008950A2609F4A140A6958FEF811D811DD8
:10583000089597F99F6780E870E060E008959FEF12
:1058400080EC089590958095709560955095409561
:10585000309521953F4F4F4F5F4F6F4F7F4F8F4F89
:105860009F4F089500240A94161617061806090675
:10587000089500240A9412161306140605060895C6
:10588000092E0394000C11F4882352F0BB0F40F44E
:10589000BF2B11F460FF04C06F5F7F4F8F4F9F4F8E
:1058A000089557FD9058440F551F59F05F3F71F010
:1058B0004795880F97FB991F61F09F3F79F0879577
:1058C0000895121613061406551FF2CF4695F1DF00
:1058D00008C0161617061806991FF1CF8695710590
:1058E000610508940895E894BB2766277727CB01C4
:1058F00097F908957ADF08F48FEF08950BD0C0CFA1
:10590000B1DF28F0B6DF18F0952309F092CF97CFDA
:105910001124EACFC6DFA0F3959FD1F3950F50E095
:10592000551F629FF001729FBB27F00DB11D639F51
:10593000AA27F00DB11DAA1F649F6627B00DA11DF7
:10594000661F829F2227B00DA11D621F739FB00D9D
:10595000A11D621F839FA00D611D221F749F33270D
:10596000A00D611D231F849F600D211D822F762FA6
:105970006A2F11249F5750408AF0E1F088234AF0A3
:10598000EE0FFF1FBB1F661F771F881F91505040EF
:10599000A9F79E3F510570F04CCFA6CF5F3FECF3C7
:1059A000983EDCF3869577956795B795F795E795DB
:1059B0009F5FC1F7FE2B880F911D9695879597F9EC
:1059C000089513DF880B990B0895DB018F939F9344
:1059D0000E94502DBF91AF91A29F800D911DA39F5A
:1059E000900DB29F900D1124089597FB072E16F489
:1059F000009407D077FD09D00E94372E07FC05D010
:105A00003EF4909581959F4F0895709561957F4FD5
:105A10000895A1E21A2EAA1BBB1BFD010DC0AA1FEF
:105A2000BB1FEE1FFF1FA217B307E407F50720F007
:105A3000A21BB30BE40BF50B661F771F881F991F82
:105A40001A9469F760957095809590959B01AC01CB
:105A5000BD01CF010895052E97FB1EF400940E940E
:105A6000422D57FD07D00E94092D07FC03D04EF4AC
:105A70000C94422D50954095309521953F4F4F4FB6
:105A80005F4F089590958095709561957F4F8F4FEA
:105A90009F4F0895EE0FFF1F0590F491E02D09949C
:105AA0000E944B2EA59F900DB49F900DA49F800D3A
:105AB000911D11240895DF93CF931F930F939A9D07
:105AC000F02D219FF00D8B9DF00D8A9DE02DF10DA5
:105AD000039FF00D029FE00DF11D4E9DE00DF11DA5
