:100000000C94F3000C941B010C941B010C94DF0561
:100010000C94DF050C94DF050C941B010C941B0160
:100020000C941B010C941B010C941B010C94F326E3
:100030000C941B010C941B010C941B010C941B01D0
:100040000C9435270C941B010C94372A0C94692AC4
:100050000C941B010C941B010C941B010C941B01B0
:100060000C941B010C941B01A925B925BF25C5259E
:10007000CB25D125D725EA259225F725FC25012674
:1000800006260A26102616269D25A3250000000810
:10009000000201000003040700000000000000004F
:1000A000010204081020408001020408102001020F
:1000B00004081020040404040404040402020202DC
:1000C00002020303030303030000000023002600D1
:1000D000290000000000250028002B00000000007F
:1000E000240027002A0000407A10F35A00A0724E24
:1000F00018090010A5D4E80000E87648170000E4CD
:100100000B54020000CA9A3B000000E1F505000014
:1001100080969800000040420F000000A086010079
:100120000000102700000000E80300000000640049
:10013000000000000A0000000000010000000000B4
:100140002C76D888DC674F0823DFC1DFAE59E1B1D8
:10015000B796E5E3E453C63AE651997696E8E6C2E7
:100160008426EB898C9B62ED407C6FFCEFBC9C9FEE
:1001700040F2BAA56FA5F490055A2AF75C936B6C10
:10018000F9676DC11BFCE0E40D47FEF520E6B50004
:10019000D0ED902E0300943577050080841E080072
:1001A00000204E0A000000C80C333333330F986E22
:1001B00012831141EF8D2114893BE65516CFFEE6DF
:1001C000DB18D1844B381BF77C1D901DA4BBE424A5
:1001D000203284725E228100C9F124ECA1E53D2722
:1001E000F703992A240411241FBECFEFD8E0DEBF05
:1001F000CDBF12E0A0E0B1E0E4E2F0E702C005907C
:100200000D92A030B107D9F725E0A0E0B2E001C01F
:100210001D92A136B207E1F711E0C4EED1E004C0AF
:100220002297FE010E94AF31C03ED107C9F70E945C
:10023000E02A0C9405380C94000040ED57E064EF80
:1002400071E083E893E00E94842268E077E080E038
:1002500090E00E94AF2781E0809351020C94E52644
:1002600080E092E00C945A2CCF93DF93C2E9D3E064
:10027000688181E0682783E893E00E9420248881D8
:10028000809374038AE693E0DF91CF910C94680B1E
:1002900080919203882399F1809195038A30B9F077
:1002A0008AE08093950380917503909176039093F3
:1002B00094038093930383E893E00E948A248091BF
:1002C0009503809371038AE693E00C94680B809108
:1002D00072038093950380917703909178039093B4
:1002E00094038093930383E893E00E94C224809157
:1002F0009503809371038AE693E00C94680B61E0A8
:1003000083E893E00E94202481E0809374038AE6CE
:1003100093E00C94680B80916C03813029F061E0CC
:100320008AE693E00C946D0B60E08AE693E00C940F
:100330006D0B86E993E00E945A2C8CE993E00E94B1
:100340005A2C82EA93E00C945D068F929F92AF92B2
:10035000BF92CF92DF92EF92FF9240E05BE460E0C9
:1003600070E082EA93E00E94EE0641E050E062E035
:1003700070E081EC93E00E94C80788E491E09093DC
:10038000DE038093DD038BE891E09093E20380939A
:10039000E1038DE191E09093E4038093E30384E330
:1003A00091E09093E0038093DF0382E3C82ED12C89
:1003B000E12CF12C98EE892E93E0992EA12CB12CF2
:1003C00082E00E94BC28892B71F548EE53E06CEB6B
:1003D00072E083E893E00E948422C701B6010E9484
:1003E000AF270E94E526C501B4016C197D098E096D
:1003F0009F090E94AF2782E3C80ED11CE11CF11CAB
:1004000086E2C81682E0D806E104F104C9F648EE97
:1004100053E06CED75E083E893E00E9484228AE665
:1004200093E00E948F0B80E896EEA5ECB7E48093F2
:10043000E5039093E603A093E703B093E80389EA0A
:1004400092E00E948C1887E392E00E9477158AE67A
:1004500093E0FF90EF90DF90CF90BF90AF909F9090
:100460008F900C94C10BCF92DF92EF92FF920F937B
:100470001F93CF93DF936C018B01FB0184819581E6
:10048000892B71F1C0E0D0E0E12CF12CBE01C80154
:100490000E94142EFC018081E8262196F801248117
:1004A0003581C217D30790F368E171E0C6010E945D
:1004B000332BB801C6010E94252B6AE171E0C60109
:1004C0000E94332B40E150E0B701C601DF91CF918C
:1004D0001F910F91FF90EF90DF90CF900C94F52B30
:1004E000E12CF12CE1CF80910602882309F479C038
:1004F0006CE171E080E092E00E94FB2C6091470289
:10050000709148028091490290914A020E94A02F66
:1005100026E636E646E650E40E94A23020E030E0CF
:1005200048EC52E40E94012FAB01BC0180E092E054
:100530000E94E22D6AE271E080E092E00E945B2D71
:100540006091BA027091BB028091BC029091BD0291
:1005500024E630E040E050E00E948E31BA01A9016B
:1005600080E092E00E947E2D65E271E080E092E002
:100570000E945B2D8091E402882321F08091320259
:10058000811122C06091C8027091C9028091CA0293
:100590009091CB020E94A02F20E030E048EC52E482
:1005A0000E94012FAB01BC0180E092E00E94B02DBF
:1005B00067E271E080E092E00E945B2D60E072E013
:1005C0008FEB94E00C94330280916C038130D1F670
:1005D000609133027091340280913502909136021D
:1005E000D9CF60EF71E080E092E00E94B82C81E00A
:1005F0008093060280E391E00E94DC2A79CFCF93BA
:10060000DF9300D000D000D0CDB7DEB760EF71E04F
:10061000CE0101960E94B82C6CE271E0CE010196E9
:100620000E94FB2CBE016F5F7F4F82EA93E00E9425
:1006300033026AE571E0CE0101960E94FB2CBE01F7
:100640006F5F7F4F82EA93E00E943302CE010196F2
:100650000E945A2C26960FB6F894DEBF0FBECDBF6F
:10066000DF91CF9108950895CF93DF9300D000D00C
:1006700000D0CDB7DEB7E091A203F091A3030480D0
:10068000F581E02D82EA93E00995181619068CF59C
:10069000E091A203F091A3030680F781E02D82EAA6
:1006A00093E009958A3241F08A3029F3682F86E970
:1006B00093E00E946B2DDFCF6AE286E993E00E940F
:1006C0006B2D66E973E0CE0101960E94F22CBE010B
:1006D0006F5F7F4F8AE693E00E94120CCE01019675
:1006E0000E945A2C60EF71E086E993E00E94FB2C97
:1006F000C2CF26960FB6F894DEBF0FBECDBFDF91F6
:10070000CF9108950E94422E892F8095881F8827B7
:10071000881F0895FF920F931F93CF93DF938091CB
:100720003202882329F080916C03813009F45AC089
:1007300089EA92E00E946D198091BE02882319F126
:100740000091AD021091AE02D091AF02C091B00203
:10075000B091B102A091B202F091B302F090B40254
:1007600098014D2F5C2F6B2F7A2F8F2F9F2D203AC2
:10077000E6E83E07E1E04E07510561057105810598
:10078000910509F074F487E392E00E943416809199
:10079000BF0281111EC0DF91CF911F910F91FF9079
:1007A00008950E949A2F20E030E44CE156E40E9424
:1007B000012F6093E5037093E6038093E703909322
:1007C000E80387E392E00E9434168091BF028823F9
:1007D00011F38EE092E0DF91CF911F910F91FF9086
:1007E0000C941D0987E392E00E943416A1CF81EC9E
:1007F00093E00E94A10720E048E067E082EA93E0EE
:100800000E94BE0660EF71E08CE993E00E94B82C74
:1008100060EF71E086E993E00E94B82C83E893E0F2
:100820000E94B91F8AE693E00E94D30A67E789EA2B
:1008300092E00E94711868E287E392E00E945015EE
:100840008EE092E00C9412090C9499018FEB94E0E5
:100850000E94EC2818161906DCF48FEB94E00E9435
:100860000529843241F08A3089F3682F8CE993E0BE
:100870000E946B2DEBCF6CE973E08FEB94E00E944C
:10088000492B68E171E08CE993E00E94FB2CDECFFC
:1008900008950F931F93CF93DF9300D000D000D023
:1008A000CDB7DEB78091A802882309F452C00E9418
:1008B00034038091A802882381F18091E402882387
:1008C00049F080913202882329F080916C038130B5
:1008D00009F481C04091C4025091C5026091C602E2
:1008E0007091C70283E893E00E94F5200E948A037A
:1008F0000E9426040E947F2700910A0110910B019B
:1009000020910C0130910D01601B710B820B930B38
:10091000653F71408105910578F481EC93E00E9478
:10092000D40726960FB6F894DEBF0FBECDBFDF9179
:10093000CF911F910F9108950E9473020E947F270B
:1009400060930A0170930B0180930C0190930D0149
:10095000E4CF0E947F27613E7E428105910508F425
:10096000A6CF82EA93E00E94970740E855E260E054
:1009700070E082EA93E00E94EE0660EF71E0CE0143
:1009800001960E94B82C66E671E0CE0101960E94A5
:10099000FB2CBE016F5F7F4F82EA93E00E9433021F
:1009A00040E05BE460E070E082EA93E00E94EE06E3
:1009B0000E94FF0226E040E05BE460E070E08FEB25
:1009C00094E00E94CF2981E08093A802CE01019695
:1009D0000E945A2C6CCF40913302509134026091A6
:1009E00035027091360283E893E00E94F5207ECFB5
:1009F00020916B0430916C0428173907B9F4909159
:100A0000E9038091EA03981789F0E091E903F0E0A7
:100A1000E551FC4F80812091E90330E02F5F3F4F8B
:100A20002F7733272093E90390E008958FEF9FEF0E
:100A300008951F93CF93DF93EC012C8D3D8D2115ED
:100A4000310509F438C0A989BA894889542F5095CD
:100A50001FB78E8D81FB772770F981FD6095F89423
:100A60008C91711115C085238C93C9010197F1F701
:100A700088E008C0942B9C93F9013197F1F76695B3
:100A8000815049F09C9160FDF5CF95239C93F4CF64
:100A9000842B8C93EACF8C917723B9F085238C93A8
:100AA0001FBF8C8D9D8D0197F1F781E090E0DF9164
:100AB000CF911F91089581E090E09B838A8380E02D
:100AC00090E0DF91CF911F910895842B8C93E8CF14
:100AD000089520916B0430916C042817390781F434
:100AE0009091E9038091EA03981751F0E091E903AE
:100AF000F0E0E551FC4F8081992787FD909508959E
:100B00008FEF9FEF089520916B0430916C042817AC
:100B1000390719F080E090E008952091EA03809170
:100B2000E90330E020583F4F281B31092F773078F8
:100B300037FD02C0C90108952150310920683F6F77
:100B40002F5F3F4FF7CFDC015396ED91FC91549707
:100B5000208155968C9180958223808310926C041D
:100B600010926B0481E00895CF93DF93EC018A8D9E
:100B70009B8D892B01F180916B0490916C048C17F3
:100B80009D07C9F0009711F00E94A3058E8D8E7FFE
:100B90008E8F1092EA031092E903D0936C04C093F5
:100BA0006B04EB89FC8980819D89892B808381E09E
:100BB000DF91CF91089580E0DF91CF9108951F924A
:100BC0000F920FB60F9211242F933F934F935F9381
:100BD0006F937F938F939F93AF93BF93EF93FF9305
:100BE000E0916B04F0916C04309709F449C0868D54
:100BF000A685B78581FD55C08C919585892309F01F
:100C00003FC0A389B4899C918589809589238C9361
:100C1000868997890197F1F7208D318DA685B78553
:100C2000758558E060E0C9010197F1F7862F90E0E3
:100C300095958795682F4C91472309F0606851502E
:100C400091F7868D81FD33C08091EA0390E0019693
:100C50008F7799272091E903281759F1A091EA038A
:100C6000B0E0A551BC4F6C938093EA03828D938DC5
:100C70000197F1F7A389B4898C919589892B8C937D
:100C8000FF91EF91BF91AF919F918F917F916F9164
:100C90005F914F913F912F910F900FBE0F901F903A
:100CA00018958C919585892309F0ABCFE9CF609594
:100CB000CBCF868D8160868FD9CF28E731E0FC01CC
:100CC0003183208320916B0430916C048217930749
:100CD00009F008950C94A3051F93CF93DF93EC01C3
:100CE000162F6E8D6695617081E06827812F0E94B6
:100CF000832861E0812F0E944528812F90E0FC012C
:100D0000E056FF4FE491E88BFC01EC54FF4FE49177
:100D1000F0E0EE0FFF1FEE52FF4F859194919A8BFA
:100D2000898BDF91CF911F9108951F93CF93DF930C
:100D3000EC01162F60E0812F0E9445288E8D81FDE9
:100D400004C061E0812F0E9483281C87612F70E01E
:100D5000FB01E056FF4FE491ED87FB01EC54FF4FA0
:100D6000E491F0E0EE0FFF1FE853FF4F859194915F
:100D70009F878E87DF91CF911F910895FF920F93E8
:100D80001F93CF93DF93EC01F62E522F1B821A8212
:100D900008EE13E020E030E00C831D832E833F83B8
:100DA00088E791E0998388831F8A1E8A198E188E9E
:100DB0001B8E1A8E1D8E1C8E8E8D8E7F50FB81F9A0
:100DC0008E8F642FCE010E946C066F2DCE01DF91B5
:100DD000CF911F910F91FF900C949506CF93DF93C5
:100DE000EC019A01AB011B8E1A8E198E188E1F8A88
:100DF0001E8A60E079E08DE390E00E948E31C901A7
:100E00002430310508F457C0B901635071097D8F52
:100E10006C8FEC85E63108F049C0B901769567958D
:100E20006431710508F04AC061E070E07F8B6E8B21
:100E3000069708F047C081E090E0998F888FC9013C
:100E4000880F991F820F931F969587959695879582
:100E50008D309105D0F10C979B8F8A8F909168000F
:100E6000E830D8F121E0EE3008F45CC081E001C048
:100E7000880F2A95EAF7892B809368002C85283003
:100E800098F12E3008F443C0263108F04DC08CE6AE
:100E900090E09C8B8B8B2E5081E001C0880F2A95AF
:100EA000EAF78D8B8C8D9D8D0197F1F7CE01DF9147
:100EB000CF910C94B40561E070E0A9CF6351710942
:100EC0007F8B6E8BC9010597B8CF81E090E09B8F37
:100ED0008A8F90916800E83028F684E0892B80930F
:100EE00068002C85283068F68DE690E09C8B8B8B13
:100EF00081E001C0880F2A95EAF78D8B8C8D9D8D3E
:100F00000197F1F7CE01DF91CF910C94B4058BE6F8
:100F100090E09C8B8B8B285081E001C0880F2A9534
:100F2000EAF7EBCF20E0A2CF80E090E0B2CF2091B3
:100F30006B0430916C048217930709F008950C94A8
:100F4000A305FC0184E190E0948383838AEF90E021
:100F50009683858388EE93E09087878380EA9FE07D
:100F60009287818781E08387848715861686178616
:100F70004FEF5FEFBA01408B518B628B738B448BC9
:100F8000558B668B778B108E118E128E138E089573
:100F9000FC01862F6083718391E0452B09F490E07A
:100FA000928362E00C9445288F929F92AF92BF92F9
:100FB000CF92DF92EF92FF92CF93DF93EC010E94EA
:100FC0007F276B017C0188810E94BC2821E001976A
:100FD00009F020E02B878A812817F1F19C85891779
:100FE00009F4CAC0488959896A897B89C41AD50A13
:100FF000E60AF70A49855A85662757FD6095762FD8
:10100000C416D506E606F70664F42C87DF91CF9167
:10101000FF90EF90DF90CF90BF90AF909F908F9018
:1010200008958A8D8111F1CF81E0898F888F1E8686
:101030001D868A8F2C87EAA1FBA1309739F388811E
:101040009981DF91CF91FF90EF90DF90CF90BF908B
:10105000AF909F908F9009943C85231739F1888930
:101060009989AA89BB89B701A601481B590B6A0B4C
:101070007B0B8B819C81AA2797FDA095BA2F8417A3
:101080009507A607B70794F4888D81110FC0CC8A05
:10109000DD8AEE8AFF8A8E858111B1C081E08D875D
:1010A000812C912C540180E090E00CC08C899D89AA
:1010B000AE89BF8946015701881A990AAA0ABB0A54
:1010C00080E090E04D815E81662757FD6095762F28
:1010D00084169506A606B7067CF04D85442361F07C
:1010E0004E85411109C04F85442331F0823091056E
:1010F00019F01D8681E090E0231799F148895989FC
:101100006A897B89C41AD50AE60AF70A4F8158858D
:10111000662757FD6095762FC416D506E606F706B6
:1011200004F149855A85662757FD6095762FC416C8
:10113000D506E606F706ACF43A8D311112C081E00F
:10114000898F888F1E861D868A8F2C8783E090E08A
:10115000039709F05BCFE8A1F9A1309709F06FCFB1
:1011600055CF2C878130910509F052C0EC8DFD8D53
:10117000309709F064CF4ACF8C899D89AE89BF89A9
:10118000B701A601481B590B6A0B7B0BDB01CA0197
:101190004B815C81662757FD6095762F481759076C
:1011A0006A077B07ECF4C88AD98AEA8AFB8A188E18
:1011B000198E31E03F871A8E1B8E4D815E81662726
:1011C00057FD6095762F84179507A607B7078CF40F
:1011D0008E8581110EC08D85882359F03E870AC007
:1011E00088899989AA89BB89C81AD90AEA0AFB0A97
:1011F00001CF1E861D86C12CD12C7601FBCE1E860A
:101200001D861F86812C912C540182E090E05ACFDC
:101210008230910509F09CCFEE8DFF8D309709F05B
:101220000ECFF4CE40E050E068E472E4FC0140A34D
:1012300051A362A373A314A208952F923F924F92D9
:101240005F926F927F928F929F92AF92BF92CF9256
:10125000DF92EF92FF920F931F93CF93DF93CDB75F
:10126000DEB72A970FB6F894DEBF0FBECDBF9A87C0
:101270008987C0905602D0905702E0905802F090B3
:10128000590220E030E0A901C701B6010E949E305A
:1012900018160CF071C120E034E640E455E4C701B3
:1012A000B6010E94A23020913B0230913C02409155
:1012B0003D0250913E020E94A2302091E503309100
:1012C000E6034091E7035091E8030E94012F6B0170
:1012D0007C01E985FA85608B718B828B938B6091A1
:1012E000B6027091B7028091B8029091B9020E9443
:1012F000A02F2AE037ED43E25CE30E94A2304B01CD
:101300005C016091810370918203882777FD80954D
:10131000982F0E94A02F9B01AC01C701B6010E942B
:10132000A2302FE73AE64CE35CE30E94A2309B0137
:10133000AC01C501B4010E94992E2B013C01CB01E7
:10134000D301E985FA85848F958FA68FB78FC488DE
:10135000D588E688F78820E030E0A901B601C7010A
:101360000E94FD2E882309F4FDC0E985FA85208CB2
:10137000318C028D138D9601A701B201C3010E9429
:10138000982E2BE734E14EEA5DE30E94A2309601ED
:10139000A7010E94992E4B015C01E985FA85648BB7
:1013A000758B868B978B9101A801B201C3010E94B6
:1013B000982E2DEC3CEC4CEC5DE30E94A2309101A8
:1013C000A8010E94992EE985FA85608F718F828F1E
:1013D000938FA50194010E94982E20EB38E54AE0F6
:1013E00059E40E94A2302091C0023091C102409184
:1013F000C2025091C3020E94012FE985FA856483DD
:10140000758386839783208131814281538129832B
:101410003A834B835C830E94982E4B015C0120E051
:1014200030E0A9010E949E302401350118160CF00D
:101430009EC0E985FA85408651866286738620E0E3
:1014400030E048EC52E4C301B2010E94FD2EE98570
:10145000FA85C0A0D1A0E2A0F3A01816F4F520E010
:1014600030E046E153E4C701B6010E949E3087FF99
:1014700034C020E030E04AE754E4C301B2010E94E6
:101480009E3087FF83C0A701960160E070E086E18F
:1014900093E40E94982E6D837E838F83988720E04B
:1014A00030E048EC52E4C301B2010E94982E9B0147
:1014B000AC016D817E818F8198850E94A23020E0F1
:1014C00030E041E654E40E94012F9B01AC01C701CA
:1014D000B6010E94992E6B017C01E985FA85C486CC
:1014E000D586E686F786A7019601C501B4010E945C
:1014F000A2302FE632E143E85AE30E94A2309B017A
:10150000AC0169817A818B819C810E94992EE98549
:10151000FA8560837183828393830E94692FE985B2
:10152000FA8565A376A387A390A781E084A3109290
:10153000BF022A960FB6F894DEBF0FBECDBFDF9173
:10154000CF911F910F91FF90EF90DF90CF90BF90C0
:10155000AF909F908F907F906F905F904F903F9053
:101560002F900895120183016201730104CF77FA6D
:10157000709477F870945DCFC701B601905820E061
:1015800034E640E455E40E94A2308DCE80E090E045
:10159000A6E1B3E4E985FA8584879587A687B787AE
:1015A0006C017D01A0CF0895CF92DF92EF92FF9260
:1015B0000F931F93CF93DF9300D000D000D0CDB70F
:1015C000DEB77B016AE271E0CE0101960E94B82C81
:1015D000BE016F5F7F4FC7010E94422E6C01CE019A
:1015E00001960E945A2C6AE171E0CE0101960E9498
:1015F000B82CBE016F5F7F4FC7010E94422E8C0145
:10160000CE0101960E945A2CA6014F5F5F4F9801B0
:10161000B701CE0101960E94462ECE0101960E948E
:101620008C2E6B017C01CE0101960E945A2CC601C2
:1016300026960FB6F894DEBF0FBECDBFDF91CF91D7
:101640001F910F91FF90EF90DF90CF900895EF9250
:10165000FF920F931F93CF93DF93EC018B017C01DB
:1016600089E1E80EF11CCE010E945235F801819308
:101670008F012196CE15DF05B1F789E190E0DF916A
:10168000CF911F910F91FF90EF900895EF92FF92ED
:101690000F931F93CF93DF937B0129E1E20EF11C9F
:1016A000EB018C0101501109061B170B6991C80150
:1016B0008C0F9D1F0E945A35CE15DF05B9F789E1C1
:1016C00090E0DF91CF911F910F91FF90EF900895DF
:1016D000BC0180E090E00C94460BCF93DF93EC01CB
:1016E000662389F081E08A8383E893E00E948A245C
:1016F00083E893E00E948A24BE0180E090E0DF91BD
:10170000CF910C94460B1A8283E893E00E94B02399
:10171000BE0180E090E0DF91CF910C94460BFC017C
:1017200084E39FE991838083128281E082878CE841
:101730009AE09487838784EF91E09687858729E0F4
:1017400020878AE081878AE090E09483838386E023
:101750009FEF96838583278384E690E0908B87872D
:101760002FE530E0328B218B148A138A21E430E09C
:10177000368B258B908F878BBF0180E090E00C9497
:10178000460BAF92BF92CF92DF92EF92FF920F93F0
:101790001F93CF93DF93EC01BC0180E090E00E94A7
:1017A000270BCE010E948F0B6D897E89882777FDDC
:1017B0008095982F1F921F921F9228E72F934EE13A
:1017C000A42EB12CC12CD12C14E6E12EF12C00E07A
:1017D00010E020E030E0A9010E94132C7093E70292
:1017E0006093E6028A85809392038F8180939503AC
:1017F0000F900F900F900F908A3030F48D859E855A
:10180000909394038093930360E0CE01DF91CF9196
:101810001F910F91FF90EF90DF90CF90BF90AF900E
:101820000C946D0B3F924F925F926F927F928F92CA
:101830009F92AF92BF92CF92DF92EF92FF920F935F
:101840001F93CF93DF93CDB7DEB766970FB6F894AB
:10185000DEBF0FBECDBF8C017B0164E871E0CE011D
:1018600001960E94B82CB701CE0107960E94F22C77
:10187000BE016F5F7F4FCE0107960E948203D82E74
:10188000CE0107960E945A2CCE0101960E945A2C36
:10189000D110BBC06BE871E0CE0101960E94B82C5C
:1018A000B701CE0107960E94F22CBE016F5F7F4FF9
:1018B000CE0107960E948203D82ECE0107960E9481
:1018C0005A2CCE0101960E945A2CD1107EC063E999
:1018D00071E0CE0101960E94B82CB701CE010796A7
:1018E0000E94F22CBE016F5F7F4FCE0107960E94CF
:1018F0008203D82ECE0107960E945A2CCE01019663
:101900000E945A2CD110A7C068E971E0CE0101965F
:101910000E94B82CB701CE0107960E94F22CBE019E
:101920006F5F7F4FCE0107960E948203D82ECE01B3
:1019300007960E945A2CCE0101960E945A2CD11073
:1019400070C06DE971E0CE0101960E94B82CB7011C
:10195000CE0107960E94F22CBE016F5F7F4FCE0131
:1019600007960E948203D82ECE0107960E945A2C19
:10197000CE0101960E945A2CDD2009F483C0B701E4
:10198000CE0101960E94F22CBE016F5F7F4FC8010D
:101990000E94D40A7C01CE0101960E945A2CFEE5D9
:1019A000EF16F1E0FF060CF4E5C0C70129EBE216E3
:1019B0002BE0F20614F088EB9BE0F8019487838714
:1019C000909394038093930308C0C8010E948F0BE7
:1019D000B80180E090E00E94460B66960FB6F8943E
:1019E000DEBF0FBECDBFDF91CF911F910F91FF9052
:1019F000EF90DF90CF90BF90AF909F908F907F90AF
:101A00006F905F904F903F900895B80180E090E014
:101A10000E94460B63E070E083E893E00E94472554
:101A2000DCCFB701CE0101960E94F22CBE016F5FA0
:101A30007F4FC8010E94D40A7C01CE0101960E940A
:101A40005A2C9701F7FC9DC0319521953109F80179
:101A500036832583C2CFB701CE0101960E94F22CB6
:101A6000BE016F5F7F4FC8010E94D40A7C01CE0186
:101A700001960E945A2C9701F7FC7FC0F80134832D
:101A80002383ABCF62EA71E0CE0101960E94B82CAD
:101A9000B701CE0107960E94F22CBE016F5F7F4F07
:101AA000CE0107960E948203D82ECE0107960E948F
:101AB0005A2CCE0101960E945A2CDD20F9F0B70174
:101AC000CE0101960E94F22CBE016F5F7F4FC801CC
:101AD0000E94D40A7C01CE0101960E945A2CF0E5A6
:101AE000EF16F1040CF498C0C7018D38910514F07D
:101AF0008CE890E0F801908F878B6FCF68EA71E0F7
:101B0000CE0101960E94B82CB701CE0107960E9423
:101B1000F22CBE016F5F7F4FCE0107960E948203B9
:101B2000D82ECE0107960E945A2CCE0101960E9413
:101B30005A2CDD2051F16E01FDE0CF0ED11CB70112
:101B4000C6010E94F22CB601C8010E94D40A8E354B
:101B500091400CF098C06EE5E62EFF24F394C60188
:101B60000E945A2CF801F686E586F0929403E092E2
:101B7000930333CF8EE591E020CF31952195310944
:101B80007DCF3195219531095FCF6EEA71E0CE01AD
:101B900001960E94B82CB701CE0107960E94F22C44
:101BA000BE016F5F7F4FCE0107960E948203D82E41
:101BB000CE0107960E945A2CCE0101960E945A2C03
:101BC000DD2069F16E01FDE0CF0ED11CB701C60129
:101BD0000E94F22CB601C8010E94D40A18161906F8
:101BE0000CF0A0C0B701CE0107960E94F22CBE01F6
:101BF000695F7F4FC8010E94D40A0A970CF411C193
:101C000059E0F52ECE0107960E945A2CC6010E947B
:101C10005A2CF801F086E1CE80E590E06BCF63EBC3
:101C200071E0CE0101960E94B82CB701CE01079653
:101C30000E94F22CBE016F5F7F4FCE0107960E947B
:101C40008203D82ECE0107960E945A2CCE0101960F
:101C50000E945A2CDD2079F16E01FDE0CF0ED11CDF
:101C6000B701C6010E94F22CB601C8010E94D40A35
:101C700009970CF0C1C039E0F32EC6010E945A2C1E
:101C8000F801F186AACEB701CE0107960E94F22C88
:101C9000BE01695F7F4FC8010E94D40A893B9B4007
:101CA0000CF499C078EBE72E7BE0F72ECE01079677
:101CB0000E945A2C54CF68EB71E0CE0101960E942D
:101CC000B82CB701CE0107960E94F22CBE016F5FBF
:101CD0007F4FCE0107960E948203D82ECE01079631
:101CE0000E945A2CCE0101960E945A2CDD20E9F068
:101CF0006E01FDE0CF0ED11CB701C6010E94F22C8F
:101D0000B601C8010E94D40A863491050CF005C1C1
:101D100096E4E92EF12CC6010E945A2CF801F08AB3
:101D2000E7865BCEFF24F39471CF6DEB71E0CE01BB
:101D300001960E94B82CB701CE0107960E94F22CA2
:101D4000BE016F5F7F4FCE0107960E948203D82E9F
:101D5000CE0107960E945A2CCE0101960E945A2C61
:101D6000DD2009F46FC06E01FDE0CF0ED11CB7017C
:101D7000C6010E94F22CB601C8010E94D40A97FF46
:101D8000B5C0E12CF12CC6010E945A2CF801F68A4C
:101D9000E58AB701882777FD8095982F1F921F92BB
:101DA0001F9228E72F93AEE1AA2EB12CC12CD12C83
:101DB00014E6E12EF12C00E010E020E030E0A90173
:101DC0000E94132C7093E7026093E6020F900F902D
:101DD0000F900F9002CEB701CE0101960E94F22C17
:101DE000BE016F5F7F4FC8010E94D40A7C01CE0103
:101DF00001960E945A2C5ACFB701CE0107960E9435
:101E0000F22CBE01695F7F4FC8010E94D40A0B9774
:101E10000CF49DC04AE0F42ECE0107960E945A2C85
:101E20002CCFB701CE0101960E94F22CBE016F5F4C
:101E30007F4FC8010E94D40AF82ECE0101960E945D
:101E40005A2CE0CE63EC71E0CE0101960E94B82CD2
:101E5000B701CE0107960E94F22CBE016F5F7F4F43
:101E6000CE0107960E948203D82ECE0107960E94CB
:101E70005A2CCE0101960E945A2CD11065C069ECF3
:101E800071E0CE0101960E94B82CB701CE010796F1
:101E90000E94F22CBE016F5F7F4FCE0107960E9419
:101EA0008203D82ECE0107960E945A2CCE010196AD
:101EB0000E945A2CDD2009F45BC06E01FDE0CF0EBC
:101EC000D11CB701C6010E94F22CB601C8010E94C4
:101ED000D40AC2970CF0FEC0E2E3EE2EF12CC6014C
:101EE0000E945A2CF801F28AE18A77CDB701CE011F
:101EF00007960E94F22CBE01695F7F4FC8010E94C5
:101F0000D40A853691050CF4D4C084E6E82EF12C71
:101F1000CE0107960E945A2C36CFB701CE01079604
:101F20000E94F22CBE01695F7F4FC8010E94D40A53
:101F3000833891050CF454C022E8E22EF12CCE0136
:101F400007960E945A2CE7CE0E94330346CDB70174
:101F5000CE0101960E94F22CBE016F5F7F4FC80137
:101F60000E94D40AF82ECE0101960E945A2C54CF1A
:101F70006FEC71E0CE0101960E94B82CB701CE0142
:101F800007960E94F22CBE016F5F7F4FCE0107962D
:101F90000E948203D82ECE0107960E945A2CCE01B1
:101FA00001960E945A2CDD2061F16E01FDE0CF0EFA
:101FB000D11CB701C6010E94F22CB601C8010E94D3
:101FC000D40A8C3E9F4F0CF057C16CEEE62EFF24D6
:101FD000FA94C6010E945A2CF801F48AE38AFDCCD7
:101FE000B701CE0101960E94F22CBE016F5F7F4FB8
:101FF000C8010E94D40A7C01CE0101960E945A2C8D
:102000009ECF65ED71E0CE0101960E94B82CB7011C
:10201000CE0107960E94F22CBE016F5F7F4FCE016A
:1020200007960E948203D82ECE0107960E945A2C52
:10203000CE0101960E945A2CD11063C06AED71E066
:10204000CE0101960E94B82CB701CE0107960E94DE
:10205000F22CBE016F5F7F4FCE0107960E94820374
:10206000D82ECE0107960E945A2CCE0101960E94CE
:102070005A2CDD2009F4B1CCD0909503F80181856C
:1020800080939503B701CE0101960E94F22CBE0108
:102090006F5F7F4FC8010E94D40ABC0183E893E0C0
:1020A0000E948C25CE0101960E945A2CD092950355
:1020B00094CCB701CE0101960E94F22CBE016F5F55
:1020C0007F4FC8010E94D40A7C01CE0101960E9474
:1020D0005A2C1ECFB701CE0107960E94F22CBE01EA
:1020E000695F7F4FC8010E94D40A873991050CF4BB
:1020F000D8C0F6E9EF2EF12CCE0107960E945A2C9B
:10210000EECE30909503F8018185809395036AE2C5
:1021100071E0CE0101960E94B82CBE016F5F7F4F27
:10212000C7010E94422E8C01CE0101960E945A2CBA
:102130000F5F1F4F6AE271E0CE0101960E94B82C3A
:10214000A801BE016F5F7F4FC7010E94262E6C0160
:10215000CE0101960E945A2C9601A801B701CE012A
:1021600001960E94462ECE0101960E948C2E2B01D4
:102170003C01CE0101960E945A2CFFEFCF1ADF0AD4
:102180006AE271E0CE0101960E94B82CA601BE0160
:102190006F5F7F4FC7010E94262E8C01CE010196F2
:1021A0000E945A2C9801A601B701CE0101960E9407
:1021B000462ECE0101960E948C2E4B015C01CE0171
:1021C00001960E945A2C0F5F1F4F6AE271E0CE0108
:1021D00001960E94B82CA801BE016F5F7F4FC70116
:1021E0000E94262E6C01CE0101960E945A2C960167
:1021F000A801B701CE0101960E94462ECE0101969C
:102200000E948C2E6B8B7C8B8D8B9E8BCE010196CE
:102210000E945A2C86010F5F1F4F6AE171E0CE01C8
:1022200001960E94B82CA801BE016F5F7F4FC701C5
:102230000E94262E6C01CE0101960E945A2C960116
:10224000A801B701CE0101960E94462ECE0101964B
:102250000E948C2E6B017C01CE0101960E945A2CAB
:1022600086012B893C89A401B20183E893E00E9496
:10227000A52230929503B1CBB701CE0107960E94FB
:10228000F22CBE01695F7F4FC8010E94D40A4597B6
:10229000CCF074E1E72EF12CCE0107960E945A2C67
:1022A00098CEB701CE0101960E94F22CBE016F5F5D
:1022B0007F4FC8010E94D40A7C01CE0101960E9482
:1022C0005A2C1ACFB701CE0101960E94F22CBE0102
:1022D0006F5F7F4FC8010E94D40A7C01CE01019636
:1022E0000E945A2CD9CF449A459AE9EBF0E08081BC
:1022F0008E7F808380818D7F808388E48093B80087
:1023000084E48093BC0008957093910460939004DA
:1023100008953091940420919204231B20939304F8
:10232000332341F0315030939404FC01E20FF11D4E
:10233000838108951092930480E008958F929F9274
:10234000AF92BF92CF92DF92EF92FF920E947F27CF
:102350006B017C0184EA8093BC0020919004309151
:10236000910403C021153105F9F48091BC0087FF69
:10237000F9CF8091B900887F883079F18091B900D8
:10238000887F803151F18091B900887F883339F19D
:102390008091B900887FFF90EF90DF90CF90BF9041
:1023A000AF909F908F9008950E947F276C197D09B0
:1023B0008E099F0920919004309191044901A12C2C
:1023C000B12C681579058A059B0578F21092BC003E
:1023D00084E48093BC0081E0DECF80E0DCCF80919C
:1023E000B9001092BC0094E49093BC00887FD3CFD6
:1023F0008F929F92AF92BF92CF92DF92EF92FF9215
:10240000CF93C62F0E947F276B017C01CC23D1F193
:1024100084EC8093BC00209190043091910403C01F
:1024200021153105B1F48091BC0087FFF9CF80916F
:10243000B900887F883351F18091B900887FCF91AE
:10244000FF90EF90DF90CF90BF90AF909F908F90D4
:1024500008950E947F276C197D098E099F0920919C
:102460009004309191044901A12CB12C6815790593
:102470008A059B05C0F21092BC0084E48093BC00E6
:1024800081E0DDCF84E88093BC00C5CF8091B900A6
:102490001092BC0094E49093BC00887FD0CF8F92C0
:1024A0009F92AF92BF92CF92DF92EF92FF920E94E3
:1024B0007F276B017C0184E98093BC00209190040C
:1024C0003091910403C02115310571F48091BC0055
:1024D00084FDF9CF80E0FF90EF90DF90CF90BF9028
:1024E000AF909F908F9008950E947F276C197D096F
:1024F0008E099F0920919004309191044901A12CEB
:10250000B12C681579058A059B0500F31092BC0073
:1025100084E48093BC0081E0DECF8F929F92AF92E3
:10252000BF92CF92DF92EF92FF921F93CF93DF93F0
:10253000EC016093BB000E947F276B017C0184E863
:102540008093BC00209190043091910403C0211528
:10255000310569F58091BC0087FFF9CF8091B90002
:10256000887F8831E9F18091B900887F8034C1F19A
:102570001091B900187F8091B900887F803291F165
:102580008091B900887F883469F11092BC0084E49E
:102590008093BC00812FDF91CF911F91FF90EF902E
:1025A000DF90CF90BF90AF909F908F9008950E9442
:1025B0007F276C197D098E099F0920919004309125
:1025C00091044901A12CB12C681579058A059B0558
:1025D00008F21092BC0084E48093BC0081E0DBCF61
:1025E00080E0D9CFCE010E944F12D4CFCF92DF929C
:1025F000EF92FF920F931F93CF93DF931F92CDB76C
:10260000DEB76C01E42E1092940410929304FC0146
:10261000118269830E949E11F6018183698188235A
:1026200051F00F90DF91CF911F910F91FF90EF909C
:10263000DF90CF900895660F6F5FC6010E948D12E4
:10264000F6018183811130C0EE2099F18FEF8E0D5C
:10265000F601828386010D5F1F4FF12C18C061E0E7
:10266000C6010E94F811F6018183813079F180352D
:10267000C1F68091BB00F80181938F01F394F09231
:102680009404F0929204FE14A1F0F60182818F115D
:10269000E6CF60E0C6010E94F811F6018183813027
:1026A000A9F0883531F3BDCF813009F0BACF85E08C
:1026B000B8CFC6010E944F12F6018183882309F426
:1026C000B0CF813009F0ADCF87E0ABCF86E0A9CFA6
:1026D0008F929F92AF92BF92CF92DF92EF92FF9232
:1026E0001F93CF93DF93EC016093BB000E947F2781
:1026F0006B017C0184E88093BC00209190043091B0
:10270000910403C02115310519F58091BC0087FFA4
:10271000F9CF8091B900887F883299F11091B90082
:10272000187F9091B900987F903369F11092BC00A6
:1027300084E48093BC00812FDF91CF911F91FF90A3
:10274000EF90DF90CF90BF90AF909F908F900895C3
:102750000E947F276C197D098E099F0920919004A2
:10276000309191044901A12CB12C681579058A0595
:102770009B0558F21092BC0084E48093BC0081E079
:10278000DBCF80E0D9CFCE010E944F12812FD4CF72
:102790000F931F93CF93DF93EC01162F042F198211
:1027A0000E949E118983882329F0DF91CF911F9188
:1027B0000F910895612F660FCE010E948D128983BB
:1027C000882341F0813089F782E0DF91CF911F911A
:1027D0000F910895602FCE010E946813898388238A
:1027E00021F0813011F783E0E0CFCE010E944F123B
:1027F0008983882321F08130C1F687E0D6CF80E03D
:10280000D4CFEF92FF920F931F93CF93DF93EC01FE
:10281000162F042FF22E1092940410929304222368
:1028200089F08FEF820F8A831982CE010E949E1158
:102830008983882391F0DF91CF911F910F91FF90B1
:10284000EF90089580E0FF24F3948A831982CE01EB
:102850000E949E1189838111EECF110F612FCE014D
:102860000E948D128983882351F0813021F782E004
:10287000DF91CF911F910F91FF90EF900895602FFE
:10288000CE010E9468138983882321F0813099F654
:1028900083E0D1CFCE010E949E118983882321F04D
:1028A000813049F684E0C7CF61E0610FCE010E941C
:1028B0008D128983882329F0813009F0BCCF85E00F
:1028C000BACF8E010D5F1F4FE12C16C061E0CE0123
:1028D0000E94F8118983813041F1803509F0ABCF36
:1028E0008091BB00F80181938F01E394E0929404FE
:1028F000E0929204EF1469F08A818E11E7CF60E0D4
:10290000CE010E94F8118983813079F0883541F336
:1029100092CFCE010E944F128983882309F48BCF76
:10292000813009F088CF87E086CF86E084CF0F938F
:102930001F93FC0140835183628373830483158357
:102940002683378340E050E060E87FE3408751878B
:102950006287738740E050E060E87FEB44875587EB
:102960006687778781E0848B1F910F910895FC0122
:102970004CEA55EC67E277E34083518362837383CB
:102980004AE057ED63E27CE34483558366837783B3
:1029900040E050E060E87FE34087518762877387BB
:1029A00040E050E060E87FEB448755876687778793
:1029B00081E0848B08954F925F926F927F928F9205
:1029C0009F92AF92BF92CF92DF92EF92FF92CF93FE
:1029D000DF93EC016A017B018C8981115BC04C8023
:1029E0005D806E807F80288139814A815B81688526
:1029F00079858A859B850E94992EA30192010E9468
:102A0000992E9B01AC01C301B2010E94012F9B01D1
:102A1000AC0160E070E080E89FE30E94982E4B01DB
:102A20005C01688B798B8A8B9B8B9B01AC01C3010A
:102A3000B2010E94A230688779878A879B874C847D
:102A40005D846E847F84A3019201C701B6010E9458
:102A5000982EA50194010E94A2309B01AC01C301F4
:102A6000B2010E94992E6B017C016C877D878E8755
:102A70009F87C701B601DF91CF91FF90EF90DF9064
:102A8000CF90BF90AF909F908F907F906F905F900E
:102A90004F9008951C8A4C875D876E877F87E9CFAA
:102AA0000F931F93CF93DF931F92CDB7DEB78C01A7
:102AB0008B9669830E94B714F801E05CFF4F69812F
:102AC000608340E050E060E87FE3D80193964D9347
:102AD0005D936D937C939697F80117A210A611A6AB
:102AE00012A60F90DF91CF911F910F910895CF9271
:102AF000DF92EF92FF920F931F93CF93DF93CDB7A7
:102B0000DEB765970FB6F894DEBF0FBECDBF7C0170
:102B10000FE612E123E83BE347E157EB61E57AE397
:102B2000CE0101960E94971485E1FE013196D701EE
:102B30009B9601900D928A95E1F7F701EE5BFF4FAE
:102B40001082F701148A118E81E0828FE359FF4FC2
:102B500080E89CE0A0E0B0E080839183A283B3830F
:102B60008DE694E00E94731160E570E08DE694E0DC
:102B70000E948411F701E05CFF4F44E060818DE624
:102B800094E00E94F612F701EF5BFF4F80838DE621
:102B900094E00E9489118701035B1F4FF801808335
:102BA0008DE694E00E948911F701E25BFF4F80837C
:102BB0008DE694E00E9489116701FFE4CF0ED11CDD
:102BC000F60180838DE694E00E948911F701E05BB5
:102BD000FF4F8083F8019081907CC1F080E090E00D
:102BE000A6E9B3E4F70184839583A683B78365964A
:102BF0000FB6F894DEBF0FBECDBFDF91CF911F910E
:102C00000F91FF90EF90DF90CF900895F6016081D3
:102C100070E0762F6627680F711D882777FD8095F5
:102C2000982F607E8827992725E095958795779539
:102C300067952A95D1F73696608371838283938353
:102C40000E94A02F23E039E148EC5DE30E94A2300E
:102C500020E030E04FE553E40E94992EF7016483B1
:102C6000758386839783C3CF4F925F926F927F92D3
:102C70008F929F92AF92BF92CF92DF92EF92FF928C
:102C80000F931F93CF93DF93EC01FC01E05CFF4FA8
:102C900042E060818DE694E00E94F612FE01EF5B57
:102CA000FF4F8083882309F463C00E947F27FE01C1
:102CB000E759FF4F60837183828393833496008149
:102CC000118122813381061717072807390708F079
:102CD0003EC0DC01CB018C599F4FAF4FBF4F80836B
:102CE0009183A283B3838E01075B1F4FF801C080DD
:102CF000D180E280F38020E030E046E953E4C70170
:102D0000B6010E949E3018160CF4A5C0188A198AC4
:102D10001A8A1B8A1C861D861E861F8681E08C8B64
:102D20008A8D8823A1F08E01075A1F4F288139818F
:102D30004A815B81F80160817181828193810E9467
:102D4000992EF80160837183828393831A8EDF91B9
:102D5000CF911F910F91FF90EF90DF90CF90BF9098
:102D6000AF909F908F907F906F905F904F9008955D
:102D70008DE694E00E9489118E01035B1F4FF801DC
:102D800080838DE694E00E948911FE01E25BFF4F93
:102D90008083F8019081292F207C09F086CFC92EED
:102DA000D12CDC2CCC24C80ED11CF0E2DF1AEE248E
:102DB000D7FCE094FE2CFE01EF5AFF4FC082D18277
:102DC000E282F3820B501109F8018081811167C002
:102DD0003196808191810196918380838115F1E004
:102DE0009F0709F431C1803891050CF0FFC0C880FD
:102DF000D980EA80FB8020E030E0A901C701B6015C
:102E00000E949E3018160CF001C1C701B6012C813A
:102E10003D814E815F810E94A2302091E503309177
:102E2000E6034091E7035091E8030E94012F0E94BE
:102E3000093126E636E949E155E40E94A230688767
:102E400079878A879B87FE01E75BFF4F60837183E9
:102E5000828393832ACFB701A601CE018B960E946D
:102E6000DB142BA13CA14DA15EA10E94A2302FA199
:102E700038A549A55AA50E94992E0E94692F688BF2
:102E8000798B8A8B9B8BF801608171818281938120
:102E90000E94692F6C877D878E879F873FCFFE01B9
:102EA000E75AFF4F4080518062807380C701B601AE
:102EB0000E94A02FA30192010E94982E4B015C0159
:102EC000FE01E35AFF4F60837183828393834091B5
:102ED000A90404E04002F0011124E756FB4F808171
:102EE0009181A281B38197018601081B190B2A0BDE
:102EF0003B0BC901B80100919504109196042091F3
:102F0000970430919804600F711F821F931F609384
:102F10009504709396048093970490939804C082CC
:102F2000D182E282F3824F5F44300CF05CC0409368
:102F3000A9040E94A02F20E030E040E85EE30E9458
:102F4000A230A30192010E94982E6F8F78A389A3CB
:102F50009AA3C880D980EA80FB80A7019601C501A9
:102F6000B4010E94982E4B015C0120E030E0A901E1
:102F70000E949E302401350118160CF085C0FE0118
:102F8000EF59FF4F408251826282738220E030E02D
:102F900040E251E4C301B2010E94FD2E1816D4F1A3
:102FA0008FE692E1A3E8BAE3FE01EB59FF4F80837D
:102FB0009183A283B3837FE662E183E89AE3272FBC
:102FC000362FAC01C501B4010E94A2309B01AC01B7
:102FD000C701B6010E94992E6B017C016883798339
:102FE0008A839B8308CF1092A904A3CFFE01EB5BD9
:102FF000FF4F80819181A281B3818C0D9D1DAE1DFB
:10300000BF1D80839183A283B383F1CEC701B60134
:103010009058FDCE20E030E048EC52E4C301B2010C
:103020000E949E3087FD35C08AE097EDA3E2BCE3A5
:10303000FE01EB59FF4F80839183A283B3837AE033
:1030400067ED83E29CE3BBCF7E0129E5E20EF11C34
:10305000FE01EB5BFF4F60817181828193810E9451
:10306000A02F20E030E040E05CE30E94A230F701B6
:10307000608371838283938381E0F8018083C880B9
:10308000D980EA80FB80B7CE77FA709477F8709495
:1030900076CF20E030E040E251E4C301B2010E946B
:1030A000982E2CEB34E743E15CE30E94A23020E051
:1030B00030E044EB52E40E94012F2FE632E143E876
:1030C0005AE30E94992E362F272F462F572FBC01E7
:1030D000FE01EB59FF4F4083518362837383B90133
:1030E0006ECF0F931F93CF93DF931F92CDB7DEB7B1
:1030F0008C018D5B9F4F69830E94B714F801E45ADD
:10310000FF4F69816083D8011C961C920F90DF915C
:10311000CF911F910F9108952F923F924F925F92FE
:103120006F927F928F929F92AF92BF92CF92DF92D7
:10313000EF92FF920F931F93CF93DF93CDB7DEB73C
:1031400065970FB6F894DEBF0FBECDBF4C010AE005
:1031500017ED23EA3CE347E157EB61ED77E3CE015E
:1031600001960E949714D401AD5BBF4F85E1FE012B
:10317000319601900D928A95E1F71F921F921F924E
:1031800088E78F939EE1A92EB12CC12CD12C14E697
:10319000E12EF12C00E010E020E030E0A90162E334
:1031A00070E080E090E00E94132CD401DE967C93C6
:1031B0006E93DD9755961C925597DB961C9280E096
:1031C00090E4ACE9B6E4F401878B908FA18FB28FC5
:1031D0008DE694E00E94731160E570E08DE694E066
:1031E0000E9484118401045A1F4F4EE1D8016C9152
:1031F0008DE694E00E94C8137401BBE6EB0EF11C4F
:10320000F70180836401FCE6CF0ED11CD6011C922D
:103210000F900F900F900F908823D9F081E08C933E
:1032200065960FB6F894DEBF0FBECDBFDF91CF918C
:103230001F910F91FF90EF90DF90CF90BF90AF90D4
:103240009F908F907F906F905F904F903F902F90C6
:10325000089564E670E080E090E00E94AF2782EA83
:10326000282E5401BFE6AB0EB11C2401EDE64E0E34
:10327000511C332433940AC0D6013C9223942394E6
:10328000B2E08B0E911CEEEA2E1651F222E0422D96
:10329000D8016C918DE694E00E940114F7018083BF
:1032A0008111EACF8DE694E00E94891190E0F5014A
:1032B000918380838DE694E00E94891190E0D20191
:1032C0008D939C93F401E15AFF4FD5017C90612CC2
:1032D0008629972991838083D1CF2F923F924F9255
:1032E0005F926F927F928F929F92AF92BF92CF9296
:1032F000DF92EF92FF920F931F93CF93DF93CDB79F
:10330000DEB76B970FB6F894DEBF0FBECDBF1C01C2
:10331000DC011C968C91813009F45FC3823009F482
:103320001DC48823C9F06B960FB6F894DEBF0FBE9C
:10333000CDBFDF91CF911F910F91FF90EF90DF9064
:10334000CF90BF90AF909F908F907F906F905F9045
:103350004F903F902F9008959101215C3F4F69015C
:103360008101045A1F4F48E4D8016C918DE694E026
:103370000E94C813F101EF54FF4FFC8BEB8B8101CE
:1033800003551F4FF80180819181A281B381EB89A0
:10339000FC8980839183A283B3830E948B27D80109
:1033A0006D937D938D939C931397DC01CB01B69520
:1033B000A79597958795F60180839183A283B38320
:1033C00081E0D1011C968C93F101EF58FF4FFA83F5
:1033D000E98311E080819181A281B38118161906D9
:1033E0001A061B060CF0F6C30E947F27693E734045
:1033F0008105910508F497CF112309F494CFA10119
:1034000047585F4FDA014D905D906D907C90139717
:10341000411451046104710409F4D5C214978D91CB
:103420009D910D90BC91A02D480E591E6A1E7B1EC9
:1034300077FC1FC47594679457944794910123585F
:103440003F4FF9014082518262827382FA01808388
:103450009183A283B383F101E959FF4F8081918168
:10346000A0E0B0E0BA2FA92F982F8827481A590A50
:103470006A0A7B0AD301C201BB0F880B982FDC01BB
:103480007A964082518262827382848385838683A6
:10349000878378972081318140E050E0C301B201F9
:1034A0000E94263207E10E9479322053384F4F4F55
:1034B0005F4F6F4F7F4F8F4F9F4F0E949A2F0E94F9
:1034C000692FF101E757FF4F6083718382839383F4
:1034D000D1016D937D938D939C931397B497019035
:1034E000F081E02DAF59BF4F8D909C90940140E04A
:1034F00050E060E070E080E090E000E10E94603227
:1035000079014D8359874B01898B9D879F0140E04D
:1035100050E0C301B2010E94263207E00E947932D6
:1035200059016A01F62FE72F8C0197014D815985CA
:10353000B40189899D85EF2EFE2E0E949732298F36
:10354000832E942E5D836987798B8D879A8FF10105
:10355000E357FF4F20833183428353836483758312
:1035600086839783BA970190F081E02DD101A15A0B
:10357000BF4F2D913C9140E050E060E070E080E072
:1035800090E00FE00E946032B22EC32ED42EE52EC2
:10359000F62E7D8B8F8B988F9F0140E050E0C3010A
:1035A000B2010E94263208E00E947932A22E732EC8
:1035B000B42FA52F662E572E8C012B2D3C2D4D2D73
:1035C0005E2D6F2D7D898F89988DB72CCB2EDA2EAD
:1035D000E62CF52C0E949732F101EB56FF4F208329
:1035E0003183428353836483758386839783A98160
:1035F000BA81ED90FD900D911C9127013801770C57
:103600004408542C320157016801E42CF42C042D99
:10361000142D0E94CD3105E10E947932A98CB82C7D
:10362000C92CDD80E984F9880D851A8D0E94A032AD
:1036300049013A01B62FA72FF82FE92F06E00E9483
:10364000603254016301EB2EFA2E0F2F1E2F0E94C1
:10365000A03201E00E9460320F2F0E94A032490187
:103660003A01B62FA72FF82FE92F02E00E9460320F
:1036700059016A017B018C019401A3016B2F7A2F00
:103680008F2F9E2F0E94973204E00E9460320FE03D
:103690000E94793259016A017B018C01F101248376
:1036A000B5824683D7826087F1868287138720356B
:1036B0003143464E5843610571058105910509F076
:1036C0000CF419C220ED37EF44E65CE360E070E0F3
:1036D00080E090E00E94A0320E949A2F25EF3FE9FF
:1036E0004EEA5DE30E94A2300E94692FD1011D962F
:1036F0006C931D971E967C931E971F968C931F9715
:1037000050969C9369837A838B839C8381010356B3
:103710001F4FD8014D905D906D907C90AB89BC8916
:103720002D913D914D915C912D833E834F83588720
:10373000411451046104710409F4AAC1F101EF5567
:10374000FF4FFB8FEA8FC080D180E280F380910130
:103750002B553F4F3E8B2D8BD9018D909D90AD9079
:10376000BC907496FA8BE98B208131814281538120
:1037700029873A874B875C8769817A818B819C8115
:10378000681979098A099B090E94A02F2DEC3CEC4D
:103790004CEC5DE30E94A2306D877E878F87988B0B
:1037A000C501B4010E94A02F9B01AC016D857E85EF
:1037B0008F8598890E94992E0E94692F6D877E8738
:1037C0008F87988B69817A818B819C816C197D09A7
:1037D0008E099F090E94A02F2BE734E14EEA5DE39A
:1037E0000E94A2304B015C01C701B6010E94A02FCC
:1037F0009B01AC01C501B4010E94992E0E94692F62
:103800006B017C016D857E858F8598896C197D099A
:103810008E099F090E94A02F2BE735E141EB55E46B
:103820000E94A2304B015C0169817A818B819C816D
:1038300064197509860997090E94A02F2AE037EDBF
:1038400043E25DE30E94A23069837A838B839C8389
:10385000C301B2010E94A02F9B01AC0169817A8152
:103860008B819C810E94992E0E94692FD8016C93B4
:1038700011967C93119712968C93129713969C93A2
:1038800081E0F101868BAA8DBB8DCD92DD92ED9208
:10389000FC9213972D853E854F855889AD89BE8949
:1038A0002D933D934D935C9313972D813E814F81D2
:1038B000588589859A85AB85BC8582179307A407AF
:1038C000B50708F4B7C06789708D818D928D9B0113
:1038D000AC01C501B4010E94012F4B015C01F10153
:1038E000E754FF4F60837183828393833496FA8316
:1038F000E983C080D180E280F380D101DD968D9193
:103900009C91DE97BC01882777FD8095982F0E94B7
:10391000A02F2B013C01A7019601C501B4010E9413
:10392000982E9B01AC01C301B2010E94A2302FE688
:1039300032E143E85AE30E94A2309B01AC01C70187
:10394000B6010E94992E6B017C01E981FA816083A6
:103950007183828393830E94692FD1015B966D935B
:103960007D938D939C935E97B701A601C1018D5BFA
:103970009F4F0E94DB140E94692FF101678F70A393
:1039800081A392A3FF24F394F3AED8016D917D91AE
:103990008D919C9124E630E040E050E00E948E3111
:1039A000F101218B328B438B548BF58AEB89FC8997
:1039B00080819181A281B381E989FA898083918391
:1039C000A283B383B0CCD101AB58BF4F4D905D9073
:1039D0006D907C90D301C20127CD0E948B279695D4
:1039E000879577956795F101E755FF4F6083718360
:1039F000828393836101BFE3CB0ED11CD6010D916D
:103A00001D912D913C91601771078207930728F44F
:103A1000906860837183828393830C561E4E2F4F70
:103A20003F4F061717072807390708F428C1F10187
:103A3000848577CCC788D08CE18CF28C6D817E81B7
:103A40008F81988529853A854B855C85621B730B30
:103A5000840B950B0E949E2FA70196010E94982E21
:103A60002DEC3CEC4CEC5DE30E94A2309B01AC01E0
:103A7000C701B6010E94992E9B01AB01BC01D10187
:103A800057964D935D936D937C935A97B9011FCFD1
:103A900020523E444109510929873A874B875C8768
:103AA000F101EB54FF4FFA8BE98B20833183428382
:103AB000538369817A818B819C810E94A02F20E0B1
:103AC00030E0A9010E94992E0E94692F6B017C01B0
:103AD000C701CD86DE86EF86F88A812C912C5401B1
:103AE000F101EF55FF4FFB8FEA8F91012B553F4FAF
:103AF0003E8B2D8BBBCE9501A601B701C8012034AA
:103B00003D4F41495543610571058105910509F016
:103B10000CF462C020E531E346EE58E360E070E06B
:103B200080E090E00E94A0320E949A2F27E239E5BF
:103B300047EB5DE30E94A23020E836E948E95AE409
:103B40000E94992E0E94692FF101658776878787E9
:103B5000908B69837A838B839C83D8CD0E948B273B
:103B60009695879577956795F101E755FF4F6083A7
:103B70007183828393836101BFE3CB0ED11CD60195
:103B80000D911D912D913C9160177107820793074C
:103B900028F4906860837183828393830C561E4E51
:103BA0002F4F3F4F061717072807390708F03FCF59
:103BB0008101045A1F4F23E040E0D8016C918DE64B
:103BC00094E00E940114882309F4ECC0D1011C96F2
:103BD0001C92C9CB10E008CC9501A601B701C80121
:103BE0002036314A4C4652436105710581059105E5
:103BF000D1F0CCF020E43DEF41E955E360E070E026
:103C000080E090E00E94A0320E949A2F2CE433E0E2
:103C100042EC5DE30E94A23020E836E948E15BE433
:103C20000E94992E61CD9501A601B701C801203AE5
:103C30003E4642465F42610571058105910509F0E6
:103C40000CF452C020E631EA4CE652E360E070E04A
:103C500080E090E00E94A0320E949A2F29EC38EC7C
:103C600048EC5DE30E94A23020EC31EE44E65BE4D8
:103C700067CFEFEF4E1A5E0A6E0A7E0ADBCB710148
:103C8000B8E5EB0EF11CF70110821182128213824B
:103C90008101045A1F4F23E040E0D8016C918DE66A
:103CA00094E00E940114882309F444C0F101EF5804
:103CB000FF4F108211821282138248E5D8016C9165
:103CC0008DE694E00E94C8130E948B2796958795F5
:103CD00077956795F601608371838283938382E091
:103CE000D1011C968C931FCB9501A601B701C80189
:103CF000203E3D4244485C426105710581059105C5
:103D000009F00CF48BC020EA3EE642E65FE260E098
:103D100070E080E090E00E94A0320E949A2F24E29E
:103D20003DEC44ED5DE30E94A23020E836E948E92D
:103D30005BE476CF8DE694E00E94891190E0A0E0EC
:103D4000B0E0BA2FA92F982F8827F701808391839D
:103D5000A283B3838DE694E00E948911D7014D912F
:103D60005D916D917C91482B762F652F542F4427C0
:103D7000F70140835183628373838DE694E00E9450
:103D80008911D7014D915D916D917C91482BF7017F
:103D90004083518362837383799640835183628326
:103DA00073838BCF8DE694E00E9489117101B8E591
:103DB000EB0EF11C90E0A0E0B0E0BA2FA92F982FF5
:103DC0008827F70180839183A283B3838DE694E0F3
:103DD0000E948911D7014D915D916D917C91482B85
:103DE000762F652F542F4427F70140835183628338
:103DF00073838DE694E00E948911D7014D915D9106
:103E00006D917C91482BF7014083518362837383CA
:103E10007D964083518362837383D8CE9501A6013A
:103E2000B701C80121153E434A4C5942610571054D
:103E300081059105C1F0BCF020EE3DE244E85CE272
:103E400060E070E080E090E00E94A0320E949A2F33
:103E500023EC3FED4FED5DE30E94A23020E23CEB0E
:103E60004EEB5BE46DCE9501A601B701C801203889
:103E70003646434357426105710581059105C1F0FE
:103E8000BCF020E03EE34AEC59E260E070E080E004
:103E900090E00E94A0320E949A2F29E33AEB4BEE69
:103EA0005DE30E94A23020EC31EE44EE5BE4B8CE3C
:103EB0009501A601B701C801203D37444E4B54423D
:103EC0006105710581059105C1F0BCF020E836E679
:103ED00043E357E260E070E080E090E00E94A032AF
:103EE0000E949A2F23EE3CE548EF5DE30E94A2304A
:103EF00020EB33E845E05CE423CE9501A601B70151
:103F0000C80120353B45494652426105710581058E
:103F10009105C1F0BCF020ED37E44EEB54E260E0D7
:103F200070E080E090E00E94A0320E949A2F2DE184
:103F300031EE42E05EE30E94A23020E836E948E13B
:103F40005CE46ECE20E53BE549E652E260E070E0DD
:103F500080E090E00E94A0320E949A2F20E734E196
:103F60004AE05EE30E94A23020E539EA4BE25CE4DD
:103F7000E7CDFC0181E087878AE0828B8CE89AE0BC
:103F8000918B808B168608954F925F926F927F92ED
:103F9000AF92BF92CF92DF92EF92FF920F931F9357
:103FA000CF93DF93CDB7DEB728970FB6F894DEBF77
:103FB0000FBECDBF2A013B016091790370917A0356
:103FC000882777FD8095982F0E94A02F20E030E071
:103FD00048EC52E40E94012F69837A838B839C838F
:103FE00020E9421621E05206610471040CF441C03C
:103FF00020E030E040E253E469817A818B819C814A
:104000000E94A2300E94692F1F921F921F922CE3E0
:104010002F935B016C0110E2E12E13E0F12E00E022
:1040200010E020E931E040E050E0C301B2010E941D
:10403000132C0F900F900F900F906C337105BCF400
:104040008CE390E028960FB6F894DEBF0FBECDBF8C
:10405000DF91CF911F910F91FF90EF90DF90CF9064
:10406000BF90AF907F906F905F904F900895CB017D
:10407000E9CF20E030E842E254E40E94A2300E94FE
:10408000692F5B016C0180916D0390916E039C011F
:10409000442737FD4095542F2D833E834F83588707
:1040A00020E030E040E253E469817A818B819C8199
:1040B0000E94A2300E94692F9F938F937F936F93EA
:1040C00010E9E12EFF24F39400E010E02D813E8101
:1040D0004F815885C301B2010E94132C0F900F909D
:1040E0000F900F90CB01AECF4F925F926F927F9265
:1040F000AF92BF92CF92DF92EF92FF920F931F93F6
:104100002A013B016091790370917A03882777FD3A
:104110008095982F0E94A02F20E030E048EC52E4D8
:104120000E94012F20E9421621E052066104710429
:10413000ACF120E030E040EF52E40E94A2300E9457
:10414000692F1F921F921F9222E32F935B016C0134
:1041500010E2E12E13E0F12E00E010E020E931E062
:1041600040E050E0C301B2010E94132C0F900F9069
:104170000F900F90623371057CF482E390E01F9101
:104180000F91FF90EF90DF90CF90BF90AF907F9016
:104190006F905F904F900895CB01F1CF20E030E019
:1041A0004AEF53E40E94A2300E94692F20916D03D0
:1041B00030916E03442737FD4095542F1F921F9274
:1041C0001F92E8E7EF935B016C0110E9E12EFF24F9
:1041D000F39400E010E0C301B2010E94132C0F9091
:1041E0000F900F900F90CB01CACF4F925F926F92BA
:1041F0007F928F929F92AF92BF92CF92DF92EF9277
:10420000FF920F931F93CF93DF9300D000D0CDB7D1
:10421000DEB74C012A013B010E947F27D4016D9338
:104220007D938D939C93139716960D911D912D91CF
:104230003C9119976B017C01C01AD10AE20AF30A7A
:104240001A960D911D912D913C911D970C151D05F0
:104250002E053F0508F0E3C0F4012785222309F469
:1042600095C0668377838087918740916D035091D5
:104270006E03662757FD6095762F44165506660631
:1042800077060CF098C0E0906F03F0907003002761
:10429000F7FC0095102FE414F504060517050CF043
:1042A000C3C00E947F270091AA041091AB04209103
:1042B000AC043091AD04601771078207930708F0D2
:1042C000DAC080916D0390916E039C01442737FD05
:1042D0004095542F29833A834B835C8342165306BF
:1042E000640675060CF4C7C0B4E64B1651046104AD
:1042F00071040CF4D6C0D40150964D915C91519745
:104300005A01CC24B7FCC094DC2C485A5D4F662778
:1043100057FD6095762F7F936F935F934F9310E2D5
:10432000E12E13E0F12E00E010E029813A814B816B
:104330005C81C301B2010E94132C0F900F900F906B
:104340000F90683C71050CF4DAC0F40120893189C2
:1043500024543D4F261737070CF4B901CB01D40183
:1043600015967C936E9314976091AE047091AF0490
:10437000680F791F80E090E0EE24E39408E813E1F1
:1043800020E030E052964C910E941C260F900F9036
:104390000F900F90DF91CF911F910F91FF90EF90B1
:1043A000DF90CF90BF90AF909F908F907F906F9055
:1043B0005F904F9008951092B1041092B0048CE970
:1043C0009FEF9093AF048093AE04B301A201C401A8
:1043D0000E94C41FAC01662757FD6095762FF4013B
:1043E00042875387648775870E947F276B017C0112
:1043F000B301A201C4010E947420AC01662757FDDD
:104400006095762F4C0D5D1D6E1D7F1D4093AA0497
:104410005093AB046093AC047093AD04D4011F9629
:104420008C91811130CFB2CF1F921F921F928CEDD1
:104430008F93FCE3AF2EB12CC12CD12C20EE3CEF9E
:104440004FEF5FEFC301B2010E94132CF40175839B
:104450006483882777FD8095982FEE24E39408EEF7
:1044600013E020E030E042890E941C260F900F905C
:104470000F900F908BCF0F900F900F900F90DF91B8
:10448000CF911F910F91FF90EF90DF90CF90BF9051
:10449000AF909F908F907F906F905F904F900C9413
:1044A000E5262091B0043091B1042A3F310508F08F
:1044B00022CFA9014F5F5F4F5093B1044093B004E6
:1044C0009A01A9E8B8E80E94B331929582958F705D
:1044D00089279F7089276EE1689F9001699F300D41
:1044E00011244217530709F006CF8091AE04909132
:1044F000AF0401969093AF048093AE04FCCE88EC99
:1045000090E068EC70E02BCF8F929F92AF92BF92B9
:10451000EF920F931F938A01222717FD2095322FC8
:104520004B01AA2497FCA094BA2CEE24E394FC013E
:104530004289C501B4010E941C261F910F91EF9082
:10454000BF90AF909F908F9008952F923F924F927F
:104550005F926F927F928F929F92AF92BF92CF9213
:10456000DF92EF920F931F93CF93DF9300D000D091
:1045700000D0CDB7DEB71C0169011216130674F521
:10458000CA01AA2797FDA095BA2F89839A83AB8386
:10459000BC832B01662457FC6094762C4801AA2426
:1045A00097FCA094BA2CA1E0B0E0BE83AD83E12CCF
:1045B00009811A812B813C81F1014289C301B20139
:1045C0000E941C26C501B4010E94AF278D819E81E7
:1045D00001969E838D83C816D9064CF726960FB692
:1045E000F894DEBF0FBECDBFDF91CF911F910F9129
:1045F000EF90DF90CF90BF90AF909F908F907F9083
:104600006F905F904F903F902F9008952F923F9220
:104610004F925F926F927F928F929F92AF92BF92D2
:10462000CF92DF92EF920F931F93CF93DF93CDB78B
:10463000DEB728970FB6F894DEBF0FBECDBF9A83C2
:10464000898378876F833A016901641775070CF4D1
:1046500051C046175707ACF1C801AA2797FDA0958E
:10466000BA2F8B839C83AD83BE8322243324221AEA
:10467000330A442437FC4094542C4A01AA2497FC62
:10468000A094BA2CEE24E39408E813E120E030E093
:10469000A981BA8152964C91C501B4010E941C2691
:1046A0006B817C818D819E810E94AF276C187D0873
:1046B000820C931CA41CB51CEF81F8856E167F0636
:1046C0000CF728960FB6F894DEBF0FBECDBFDF9172
:1046D000CF911F910F91EF90DF90CF90BF90AF904F
:1046E0009F908F907F906F905F904F903F902F9012
:1046F0000C94E526C801AA2797FDA095BA2F8B83B5
:104700009C83AD83BE831901442437FC4094542C10
:10471000AF81B8854D01AA2497FCA094BA2CEE2451
:10472000E39408E813E120E030E0E981FA8142896E
:10473000C501B4010E941C266B817C818D819E8104
:104740000E94AF278F8198858C0D9D1D98878F8340
:10475000820C931CA41CB51C6816790604F7B1CF13
:104760008F929F92AF92BF92EF920F931F93CF932E
:10477000DF93EC01A8EE8A2EA3E09A2EA12CB12C97
:10478000EE24E3940CE310E020E030E04A89C50118
:10479000B4010E941C2664E070E080E090E00E947A
:1047A000AF2789E1880E911CA11CB11C81ED8816F0
:1047B0008BE09806A104B10419F7DF91CF911F9106
:1047C0000F91EF90BF90AF909F908F900C94E52643
:1047D0008F929F92AF92BF92EF920F931F93CF93BE
:1047E000DF93EC01B8EB8B2EBBE09B2EA12CB12C00
:1047F000EE24E3940CE310E020E030E04A89C501A8
:10480000B4010E941C2664E070E080E090E00E9409
:10481000AF2789E1881A9108A108B1088FEC8816A2
:1048200083E09806A104B10419F7DF91CF911F919D
:104830000F91EF90BF90AF909F908F900C94E526D2
:10484000FC016787611102C00C94E8230C94B0232B
:104850008F929F92AF92BF92EF920F931F934B0153
:10486000AA2497FCA094BA2CEE24E39409E110E06A
:1048700020E030E0FC014289C501B4010E941C2601
:1048800069E170E080E090E00E94AF271F910F91F6
:10489000EF90BF90AF909F908F900C94E526EF9291
:1048A0000F931F93EE24E39404EF11E020E030E037
:1048B0004AE068E27AE080E090E00E941C2660E234
:1048C00073E080E090E00E94AF2704EF11E020E069
:1048D00030E04AE068E27AE080E090E00E941C2646
:1048E00060E273E080E090E00E94AF2708EE13E002
:1048F00020E030E04AE060ED77E080E090E00E9468
:104900001C2668EE73E080E090E01F910F91EF901D
:104910000C94AF278F929F92AF92BF92EF920F931A
:104920001F93CF93DF93EC0118EE812E13E0912EAD
:10493000A12CB12CEE24E3940CE310E020E030E055
:104940004A89C501B4010E941C2664E070E080E041
:1049500090E00E94AF2780E5880E911CA11CB11C3D
:1049600088E588168CE09806A104B10419F7DF9158
:10497000CF911F910F91EF90BF90AF909F908F902C
:104980000C94E5268F929F92AF92BF92EF920F9375
:104990001F93CF93DF93EC010CE1802E0CE0902E5F
:1049A000A12CB12CEE24E3940CE310E020E030E0E5
:1049B0004A89C501B4010E941C2664E070E080E0D1
:1049C00090E00E94AF2780E5881A9108A108B108FD
:1049D0008CEA881683E09806A104B10419F7DF91E8
:1049E000CF911F910F91EF90BF90AF909F908F90BC
:1049F0000C94E5264F925F926F927F92AF92BF9296
:104A0000CF92DF92EF920F931F93CF93DF93EC013E
:104A1000A62EB12CA114B10459F1C12CD12C80EDDA
:104A2000482E87E0582E612C712CEE24E3940CE381
:104A300010E020E030E04A89C301B2010E941C2648
:104A40006FE070E080E090E00E94AF2784E6480EBF
:104A5000511C611C711C80EF48168AE058066104E5
:104A6000710419F78FEFC81AD80ACA14DB04BCF214
:104A7000DF91CF911F910F91EF90DF90CF90BF907A
:104A8000AF907F906F905F904F900C94E526AF921F
:104A9000BF92CF92DF92EF920F931F93CF93DF934A
:104AA000EC015B0180E5869F6001879FD00C11249B
:104AB00080EAC81A86EFD80AB601882777FD809564
:104AC000982FEE24E39404E610E020E030E04A89D9
:104AD0000E941C268FE08A9DB0018B9D700D1124D1
:104AE000605B7F4F882777FD8095982F0E94AF27C6
:104AF00001E010E02FE030E040EA5FE0B601CE01D7
:104B00000E940623DF91CF911F910F91EF90DF90CC
:104B1000CF90BF90AF900895CF93DF93EC016231B7
:104B2000710530F061E0CE01DF91CF910C94FA2451
:104B3000FB01EC5CFF4F0C94AD3164E070E0DF9161
:104B4000CF910C94472565E070E0DF91CF910C94F4
:104B500047250E948A24CE010E948A24CE010E9409
:104B60008A2468EE73E080E090E0DF91CF910C94AE
:104B7000AF2768EC70E0DF91CF910C9428246AEFA6
:104B800070E0DF91CF910C9428246CE271E0DF910A
:104B9000CF910C94282460E971E0DF91CF910C94BF
:104BA000282464EF71E0DF91CF910C9428240E94B7
:104BB000B023CE010E94E823CE010E94B023CE0193
:104BC0000E94E82368EE73E080E090E0DF91CF91EF
:104BD0000C94AF270E94B023CE010E94E82360E22C
:104BE00073E080E090E0DF91CF910C94AF2762E01A
:104BF000DF91CF910C94FA2464E0DF91CF910C9473
:104C0000FA2465E0DF91CF910C94FA24DF91CF91E3
:104C10000C944F2461E070E0DF91CF910C94472514
:104C200062E070E0DF91CF910C94472563E070E083
:104C3000DF91CF910C9447254F925F926F927F92B4
:104C40008F929F92AF92BF92CF92DF92EF92FF929C
:104C50000F931F93CF93DF9300D000D0CDB7DEB773
:104C60004B015C01280139010E2D6115710581058B
:104C7000910509F460C0442309F45DC0142F4B3042
:104C800008F07BC084B1866084B960E072E18AE795
:104C900090E0A50194010E946C3169017A0181E0E4
:104CA000C81AD108E108F108C114D104E1E0EE0608
:104CB000F10408F064C081E1B82EE12FF0E0E35F79
:104CC000FE4F208130E040E050E0C701B6010E9475
:104CD0006C31411451046104710411F001115BC085
:104CE000D0928700C09286008091840090918500C8
:104CF000A0E0B0E0C816D906EA06FB0620F4D09280
:104D00008500C0928400B092810030938B00209384
:104D10008A00309389002093880080EB8093800084
:104D2000411451046104710499F0011111C0C301CF
:104D3000B2010E94AF2780916F008D7F80936F003A
:104D400082E08093810081E08093800029982A98F6
:104D50000F900F900F900F90DF91CF911F910F91B7
:104D6000FF90EF90DF90CF90BF90AF909F908F908B
:104D70007F906F905F904F9008951AE083CFCD2C75
:104D8000DE2CEF2CFF24F1E0CF1AD108E108F10866
:104D900024E1B22E92CF29833A834B835C830E9415
:104DA0007F27640D751D861D971D6093B204709357
:104DB000B3048093B4049093B50480916F00826033
:104DC00080936F003A8129818BCFEFE6F0E08081FC
:104DD0008D7F808382E08093810081E080938000DA
:104DE00029982A9808951F920F920FB60F921124B6
:104DF0000F931F932F933F934F935F936F937F93E3
:104E00008F939F93AF93BF93EF93FF930E947F275E
:104E10000091B2041091B3042091B4043091B50410
:104E2000601771078207930768F080916F008D7F8C
:104E300080936F0082E08093810081E08093800006
:104E400029982A98FF91EF91BF91AF919F918F91EF
:104E50007F916F915F914F913F912F911F910F9192
:104E60000F900FBE0F901F9018951F920F920FB6C4
:104E70000F9211242F933F938F939F93AF93BF93E0
:104E80008091B7049091B804A091B904B091BA048C
:104E90003091B60423E0230F2D3768F126E8230F65
:104EA0000296A11DB11D2093B6048093B704909380
:104EB000B804A093B904B093BA048091BB04909154
:104EC000BC04A091BD04B091BE040196A11DB11D0A
:104ED0008093BB049093BC04A093BD04B093BE0424
:104EE000BF91AF919F918F913F912F910F900FBEE6
:104EF0000F901F9018950196A11DB11DD4CF2FB70B
:104F0000F8946091B7047091B8048091B9049091BD
:104F1000BA042FBF08953FB7F8948091BB049091D5
:104F2000BC04A091BD04B091BE0426B5A89B05C0E9
:104F30002F3F19F00196A11DB11D3FBF6627782FA5
:104F4000892F9A2F620F711D811D911D660F771F8A
:104F5000881F991F660F771F881F991F0895CF928A
:104F6000DF92EF92FF92CF93DF936B017C010E945F
:104F70008B27EB01C114D104E104F104A9F00E94D4
:104F8000972E0E948B276C1B7D0B683E734090F31D
:104F900081E0C81AD108E108F108C851DC4FC114FA
:104FA000D104E104F10459F7DF91CF91FF90EF9024
:104FB000DF90CF900895789484B5826084BD84B5E5
:104FC000816084BD85B5826085BD85B5816085BD04
:104FD000EEE6F0E0808181608083E1E8F0E010821D
:104FE000808182608083808181608083E0E8F0E05E
:104FF000808181608083E1EBF0E080818460808348
:10500000E0EBF0E0808181608083EAE7F0E080817E
:1050100084608083808182608083808181608083DE
:105020008081806880831092C10008958330E9F008
:1050300038F0873069F0883011F1843079F00895C4
:105040008130C9F0823081F484B58F7D84BD0895AC
:105050008091B0008F778093B00008958091800098
:105060008F7D8093800008950895809180008F77D0
:1050700080938000089584B58F7784BD08958091D2
:10508000B0008F7D8093B0000895CF93DF9390E0C0
:10509000FC01E056FF4F2491FC01EC54FF4F84913A
:1050A0008823B9F090E0880F991FFC01E452FF4F6C
:1050B000A591B4918E529F4FFC01C591D4919FB799
:1050C000662351F06230A1F0F8948C91822B8C937E
:1050D0009FBFDF91CF910895F8948C912095822302
:1050E0008C938881822388839FBFDF91CF9108951D
:1050F000F8948C91322F309583238C938881822B66
:1051000088839FBFE6CF0F931F93CF93DF931F92A8
:10511000CDB7DEB7282F30E0F901E457FF4F849177
:10512000F901E056FF4F0491F901EC54FF4F14913F
:10513000112399F081111BC0E12FF0E0EE0FFF1F4A
:10514000EE52FF4FA591B4918FB7F8949C916111E5
:105150000AC0009590239C938FBF0F90DF91CF9151
:105160001F910F910895902B9C938FBFF6CF698369
:105170000E9416286981E0CFCF93DF93282F30E07B
:10518000F901E457FF4F8491F901E056FF4FD491A4
:10519000F901EC54FF4FC491CC23B1F0811119C037
:1051A000EC2FF0E0EE0FFF1FE853FF4FA591B491F5
:1051B0002C912D2381E090E019F0DF91CF9108959B
:1051C00080E0DF91CF91089580E090E0DF91CF9172
:1051D00008950E941628E4CFFC01818D228D90E075
:1051E000805C9F4F821B91098F7399270895FC0162
:1051F000918D828D981731F0828DE80FF11D858D8C
:1052000090E008958FEF9FEF0895FC01918D828DBE
:10521000981761F0828DDF01A80FB11D5D968C910A
:10522000928D9F5F9F73928F90E008958FEF9FEF15
:1052300008958FE89AE2892B49F080E090E0892B6D
:1052400029F00E948F2A81110C9400000895FC011E
:10525000848DDF01A80FB11DA35ABF4F2C91848DFF
:1052600090E001968F739927848FA689B7892C9334
:10527000A089B1898C9180648C93938D848D9813CF
:1052800008950288F389E02D80818F7D80830895C1
:10529000CF93DF93EC01888D8823B9F0EA89FB89ED
:1052A000A889B989808185FF0DC00FB607FCFACFA8
:1052B000808185FFF7CF8C9185FFF4CFCE010E94CE
:1052C0002729ECCF8C9186FFF0CFDF91CF91089505
:1052D000CF92DF92FF920F931F93CF93DF931F9292
:1052E000CDB7DEB76C0181E0D60158968C93589704
:1052F0005B969C915B975C968C915C979817D1F12B
:10530000F601038D10E00F5F1F4F0F731127F02E72
:1053100003C00FB607FE20C0F601848DF816C9F34E
:10532000838DE80FF11DE35AFF4F6083D6015B9632
:105330000C935B975296ED91FC915397808180621C
:10534000808381E090E00F90DF91CF911F910F91CA
:10535000FF90DF90CF900895D6015096ED91FC918B
:105360005197808185FFD8CFC60169830E94272984
:105370006981D2CF5096ED91FC915197808185FF44
:10538000BFCFD6015696ED91FC915797608350960A
:10539000ED91FC915197808180648083D2CFBF9240
:1053A000CF92DF92EF92FF920F931F93CF93DF93F1
:1053B000EC016A017B01B22EE889F98982E08083E1
:1053C000411581EE580761057105A9F060E079E0AB
:1053D0008DE390E0A70196010E946C3121503109C4
:1053E000410951095695479537952795890121150A
:1053F00080E13807A0F0E889F989108260E874E854
:105400008EE190E0A70196010E946C312150310994
:105410004109510956954795379527958901EC859E
:10542000FD851083EE85FF850083188EEC89FD894C
:10543000B082EA89FB89808180618083EA89FB8967
:10544000808188608083EA89FB898081806880838D
:10545000EA89FB8980818F7D8083DF91CF911F91C5
:105460000F91FF90EF90DF90CF90BF9008951F9223
:105470000F920FB60F9211242F938F939F93EF9358
:10548000FF93E091CF04F091D0048081E091D504A6
:10549000F091D60482FD1BC020818091D8048F5FDB
:1054A0008F739091D904891741F0E091D804F0E00E
:1054B000E154FB4F258F8093D804FF91EF919F918A
:1054C0008F912F910F900FBE0F901F901895808194
:1054D000F4CF1F920F920FB60F9211242F933F9388
:1054E0004F935F936F937F938F939F93AF93BF93EC
:1054F000EF93FF938FEB94E00E942729FF91EF91A8
:10550000BF91AF919F918F917F916F915F914F91DB
:105510003F912F910F900FBE0F901F9018958FEB1A
:1055200094E00E94EC2821E0892B09F420E0822FEE
:1055300008951092C2041092C10488EE93E0A0E096
:10554000B0E08093C3049093C404A093C504B093C7
:10555000C60482EE91E09093C0048093BF0485EC72
:1055600090E09093CC048093CB0484EC90E09093F3
:10557000CE048093CD0480EC90E09093D00480938F
:10558000CF0481EC90E09093D2048093D10482EC1C
:1055900090E09093D4048093D30486EC90E09093B1
:1055A000D6048093D5041092D8041092D904109296
:1055B000DA041092DB04089580E090E008950895E5
:1055C0000E94DB270E94DF2A0E94A5010E94490455
:1055D00089E199E2892B29F00E9419290E94490446
:1055E000FBCF0E9449040E944904FBCFCF92DF9277
:1055F000EF92FF920F931F93CF93DF937C016A0189
:1056000041155105F9F08B01C0E0D0E004C02196AE
:10561000CC16DD0669F0D8016D918D01D701ED91B1
:10562000FC910190F081E02DC7010995892B79F754
:10563000CE01DF91CF911F910F91FF90EF90DF90FE
:10564000CF900895C0E0D0E0F3CFDC01ED91FC9164
:10565000DB0114964D915C9115976D917C910280C0
:10566000F381E02D09946115710581F0DB010D9046
:105670000020E9F7AD0141505109461B570BDC01F1
:10568000ED91FC910280F381E02D099480E090E09F
:1056900008950F931F93CF93DF93EC01E881F98175
:1056A000DB0114964D915C9115976D917C91028070
:1056B000F381E02D09958C01E881F9810280F38165
:1056C000E02D42E050E06EEE71E0CE010995800FD2
:1056D000911FDF91CF911F910F9108958F929F920B
:1056E000AF92BF92CF92DF92EF92FF920F931F93F0
:1056F000CF93DF93CDB7DEB7A1970FB6F894DEBF97
:105700000FBECDBF7C01D42EE52FCB01C22E19A236
:1057100021E02C1508F051C08C2C912CA12CB12C1F
:105720008E010F5D1F4F0BC0805DD8018C9321153A
:10573000310541055105C9F0D22EE32FCA016D2D67
:105740007E2FA50194010E946C318D2DC29E80197F
:105750001124015011098A303CF3895CD8018C93E3
:10576000211531054105510539F70115110569F17B
:10577000F80101900020E9F7AF0141505109401BA9
:10578000510BD701ED91FC910280F381E02DB8011E
:10579000C7010995A1960FB6F894DEBF0FBECDBF25
:1057A000DF91CF911F910F91FF90EF90DF90CF90FD
:1057B000BF90AF909F908F9008952AE0822E912CF9
:1057C000A12CB12C3AE0C32EABCF80E090E0E2CF29
:1057D0002115310511F00C946E2BDC01ED91FC913B
:1057E0000190F081E02D642F09940F931F93CF93C4
:1057F000DF93EC019A01AB0160E070E00E94E82BBE
:105800008C01E881F9810280F381E02D42E050E0D3
:105810006EEE71E0CE010995800F911FDF91CF915F
:105820001F910F9108954F925F926F927F92AF9266
:10583000BF92CF92DF92EF92FF920F931F93CF937D
:10584000DF93CDB7DEB729013A01621B730B840BDE
:10585000950B29893A894B895C892A193B094C099E
:105860005D09298B3A8B4B8B5C8B9B01AC01698961
:105870007A898B899C890E945C31E418F5080609B5
:105880001709A80197010E948E312A0D3B1D4C1D5E
:105890005D1DCA01B901DF91CF911F910F91FF905A
:1058A000EF90DF90CF90BF90AF907F906F905F9020
:1058B0004F900895FC01808191810C9462330F9385
:1058C0001F93CF93DF93EC018B018881998100971F
:1058D00029F02A813B812617370788F4B8016F5FCA
:1058E0007F4F0E94F133009781F0998388831B8357
:1058F0000A832C813D81232B11F4FC01108281E06D
:10590000DF91CF911F910F91089580E0F9CFEF9231
:10591000FF920F931F93CF93DF93EC017B018A01DA
:10592000BA010E945F2C811114C08881998100976F
:1059300011F00E946233198218821D821C821B8220
:105940001A82CE01DF91CF911F910F91FF90EF90BE
:1059500008951D830C83B701888199810E94EB34DF
:10596000CE01DF91CF911F910F91FF90EF9008959D
:10597000FC01118210821382128215821482611539
:10598000710559F0FB0101900020E9F7AF0141508A
:105990005109461B570B0C94872C0895CF93DF9326
:1059A000EC01FB018617970749F060817181611551
:1059B000710541F0448155810E94872CCE01DF9111
:1059C000CF91089588819981009711F00E946233E8
:1059D000198218821D821C821B821A82CE01DF91DD
:1059E000CF910895FC0111821082138212821582D8
:1059F00014820C94CE2CCF93DF93EC0161157105CA
:105A000079F0FB0101900020E9F7AF014150510905
:105A1000461B570B0E94872CCE01DF91CF91089532
:105A200088819981009711F00E946233198218824F
:105A30001D821C821B821A82CE01DF91CF910895B4
:105A4000EF92FF920F931F93CF93DF93EC018B01A3
:105A50006C817D810115110599F04115510541F4C5
:105A600081E0DF91CF911F910F91FF90EF9008950A
:105A70007A01E60EF71EB7010E945F2C811108C063
:105A800080E0DF91CF911F910F91FF90EF900895EB
:105A9000288139818C819D81B801820F931F0E94DA
:105AA000EB34FD82EC8281E0DF91CF911F910F9169
:105AB000FF90EF9008956115710559F0FB01019079
:105AC0000020E9F7AF0141505109461B570B0C94D8
:105AD000202D80E00895CF93DF9300D0CDB7DEB7BF
