:100000000C94F3000C9485270C94AC270C944F06A9
:100010000C944F060C944F060C943C270C941B0137
:100020000C941B010C941B010C941B010C94AD2629
:100030000C941B010C941B010C941B010C941B01D0
:100040000C94D3270C941B010C94022B0C94342B8E
:100050000C941B010C941B010C941B010C941B01B0
:100060000C941B010C941B016325732579257F25B6
:1000700085258B259125A4254C25B125B625BB25A5
:10008000C025C425CA25D02557255D2500000008B8
:10009000000201000003040700000000000000004F
:1000A000010204081020408001020408102001020F
:1000B00004081020040404040404040402020202DC
:1000C00002020303030303030000000023002600D1
:1000D000290000000000250028002B00000000007F
:1000E000240027002A0000407A10F35A00A0724E24
:1000F00018090010A5D4E80000E87648170000E4CD
:100100000B54020000CA9A3B000000E1F505000014
:1001100080969800000040420F000000A086010079
:100120000000102700000000E80300000000640049
:10013000000000000A0000000000010000000000B4
:100140002C76D888DC674F0823DFC1DFAE59E1B1D8
:10015000B796E5E3E453C63AE651997696E8E6C2E7
:100160008426EB898C9B62ED407C6FFCEFBC9C9FEE
:1001700040F2BAA56FA5F490055A2AF75C936B6C10
:10018000F9676DC11BFCE0E40D47FEF520E6B50004
:10019000D0ED902E0300943577050080841E080072
:1001A00000204E0A000000C80C333333330F986E22
:1001B00012831141EF8D2114893BE65516CFFEE6DF
:1001C000DB18D1844B381BF77C1D901DA4BBE424A5
:1001D000203284725E228100C9F124ECA1E53D2722
:1001E0003D04642B6A0411241FBECFEFD8E0DEBFAC
:1001F000CDBF12E0A0E0B1E0EEEDF0E702C0059067
:100200000D92A433B107D9F725E0A4E3B2E001C011
:100210001D92A532B207E1F711E0C4EED1E004C0AF
:100220002297FE010E944D32C03ED107C9F70E94BD
:10023000AB2B0C9462380C94000008958AE392E092
:100240000C942A2D80916D03813029F061E08CE6B9
:1002500093E00C94D60B60E08CE693E00C94D60B04
:10026000CF93DF93CBE9D3E0688181E0682784E80E
:1002700093E00E94A7248881809375038CE693E025
:10028000DF91CF910C94D10B0F931F9380919B031F
:10029000882361F180919E038A30F9F08AE080938F
:1002A0009E03609176037091770370939D03609332
:1002B0009C0304E110E022E030E040EA50E084E8F2
:1002C00093E00E94552280919E03809372038CE6F6
:1002D00093E01F910F910C94D10B80917303809345
:1002E0009E036091780370917903DFCF61E084E829
:1002F00093E01F910F910C94A7240F931F93CF931A
:10030000DF938C01EB0110923902109238021092A7
:100310003702109236028C819D81892B39F160E081
:1003200070E001C0B901CE010E94B22EFC014081F3
:1003300050E05093350240933402209138023091BE
:10034000390224273527309339022093380220912F
:100350003602309137022F5F3F4F309337022093A0
:1003600036024C815D8124173507E0F26CE171E0C3
:10037000C8010E94FE2BBE01C8010E94F02B6EE155
:1003800071E0C8010E94FE2B609138027091390221
:1003900040E150E0C801DF91CF911F910F910C9483
:1003A000C52CCF93DF9380914002882309F48DC040
:1003B00060E271E08AE392E00E94CB2D60918602B8
:1003C0007091870280918802909189020E943E304C
:1003D00026E636E646E650E40E94403120E030E072
:1003E00048EC52E40E949F2FAB01BC018AE392E0EB
:1003F0000E94802E6AE271E08AE392E00E942B2E36
:100400006091E9027091EA028091EB029091EC0216
:100410000E943E3020E030E048EC52E40E949F2FE2
:10042000AB01BC018AE392E00E944E2E6AE271E0C9
:100430008AE392E00E942B2EC6E0D0E080916D020C
:10044000882321F080916D03813061F16091F70282
:100450007091F8028091F9029091FA020E943E3068
:1004600020E030E048EC52E40E949F2FAB01BC0139
:100470008AE392E00E944E2E6AE271E08AE392E003
:100480000E942B2E2197D1F669E271E08AE392E077
:100490000E942B2E6AE372E083E894E0DF91CF9113
:1004A0000C947D01609172027091730280917402CC
:1004B000909175020E943E3020E030E048EC52E41A
:1004C0000E949F2FAB01BC01D3CF64E272E08AE3AC
:1004D00092E00E94882D81E0809340028EE191E0BD
:1004E0000E94A72B65CFCF93DF9300D000D000D020
:1004F000CDB7DEB764E272E0CE0101960E94882D8E
:100500006CE271E0CE0101960E94CB2DBE016F5FBF
:100510007F4F85EA93E00E947D016AE571E0CE019C
:1005200001960E94CB2DBE016F5F7F4F85EA93E05D
:100530000E947D0164E671E0CE0101960E94CB2D00
:10054000BE016F5F7F4F85EA93E00E947D016EE6FA
:1005500071E0CE0101960E94CB2DBE016F5F7F4FEF
:1005600085EA93E00E947D0168E771E0CE01019683
:100570000E94CB2DBE016F5F7F4F85EA93E00E9402
:100580007D0162E871E0CE0101960E94CB2DBE0193
:100590006F5F7F4F85EA93E00E947D016CE871E018
:1005A000CE0101960E94CB2DBE016F5F7F4F85EA81
:1005B00093E00E947D01CE0101960E942A2D26968D
:1005C0000FB6F894DEBF0FBECDBFDF91CF91089577
:1005D0000F931F9384E893E00E94982369E971E0E8
:1005E00082ED92E00E94CB2D62ED72E085EA93E00D
:1005F0000E947D0100E010E021E030E04CEB52E091
:1006000060E570E084E893E00E94552268EE73E0B4
:1006100080E090E00E94512840E050E06DE171E000
:1006200080E00E94512720E030E040E050E06AE0A6
:1006300070E089E794E00E94EF2680E00E94722734
:1006400063EA71E082ED92E00E94CB2D62ED72E0F0
:1006500085EA93E00E947D0160916D038CE693E052
:100660001F910F910C94D60B0E94E80281E08093B9
:1006700090020895CF93DF9300D000D000D0CDB783
:10068000DEB7E091A503F091A6030480F581E02D8B
:1006900085EA93E00995181619069CF5E091A503E3
:1006A000F091A6030680F781E02D85EA93E0099595
:1006B0008A3251F08A3029F38D3019F3682F8FE98F
:1006C00093E00E943B2EDDCF6AE28FE993E00E9427
:1006D0003B2E6FE973E0CE0101960E94C22DBE0150
:1006E0006F5F7F4F8CE693E00E94B60CCE010196BF
:1006F0000E942A2D64E272E08FE993E00E94CB2DE4
:10070000C0CF26960FB6F894DEBF0FBECDBFDF91E7
:10071000CF9108950E94E02E892F8095881F882709
:10072000881F0895FF920F931F93CF93DF938091BB
:100730006D02882329F080916D03813009F457C040
:1007400088ED92E00E9472188091ED02882319F1E1
:100750000091DC021091DD02D091DE02C091DF0237
:10076000B091E002A091E102F091E202F090E30288
:1007700098014D2F5C2F6B2F7A2F8F2F9F2D203AB2
:10078000E6E83E07E1E04E07510561057105810588
:10079000910509F094F486E792E00E94C0158091DB
:1007A000EE02882321F080916D038130B9F0DF9152
:1007B000CF911F910F91FF9008950E94383020E053
:1007C00030E44CE156E40E949F2F6093E80370935D
:1007D000E9038093EA039093EB03DDCF89E492E091
:1007E000DF91CF911F910F91FF900C948D0986E7B7
:1007F00092E00E94C015A4CF4F925F926F927F92B9
:100800008F929F92AF92BF92CF92DF92EF92FF9220
:100810000F931F932B013C0149015A01C801B701F5
:100820000E9440316B017C01C301B2010E943E3045
:100830002B013C01A501940160E070E080E89FE39A
:100840000E94362F9B01AC01C301B2010E944031CE
:10085000A70196010E94372F0E9407301F910F9128
:10086000FF90EF90DF90CF90BF90AF909F908F90D0
:100870007F906F905F904F90089584EC93E00E947A
:10088000110820E048E067E085EA93E00E942E0727
:1008900064E272E08FE993E00E94882D84E893E09F
:1008A0000E94F51E8CE693E00E945B0B67E788EDE3
:1008B00092E00E94D71764E272E082ED92E00E941B
:1008C000882D68E286E792E00E943B1589E492E079
:1008D0000C94820982ED92E00E942A2D8FE993E028
:1008E0000E942A2D85EA93E00C94CD0683E894E0DB
:1008F0000E94E02A60E087E00E94F42861E088E03E
:100900000E94F42841E050E062E070E084EC93E063
:100910000E94380884E491E09093E1038093E0031F
:1009200082E291E09093E5038093E40384E393E013
:100930009093E7038093E60380E391E09093E303D1
:100940008093E20380E896EEA5ECB7E48093E80399
:100950009093E903A093EA03B093EB0388ED92E050
:100960000E94DB1786E792E00E944A158CE693E02E
:100970000E94640C40E05BE460E070E085EA93E094
:100980000E945E0702C00E943A030E941D28603E3A
:100990007E4281059105B8F385EA93E00E9407083D
:1009A00040E855E260E070E085EA93E00E945E076F
:1009B00026E040E855E260E070E083E894E00E94C1
:1009C0007E2A06C083E894E00E94B4290D9731F096
:1009D00083E894E00E949B29892BA1F764E272E0EE
:1009E0008FE993E00E94CB2D0C9473020F931F9319
:1009F00083E894E00E949B29892BB9F083E894E076
:100A00000E94B429809348028A3091F38D3081F39B
:100A1000843251F1682F83E894E00E94142C83E81B
:100A200094E00E949B29892B49F780916D028823CD
:100A300029F080916D03813009F43FC04091F302A9
:100A40005091F4026091F5027091F60284E893E00F
:100A50000E94C6200E9492030E943A0384EC93E015
:100A60001F910F910C94440864E272E083E894E0D3
:100A70000E941B2C0E941D2800910A0110910B015D
:100A800020910C0130910D0106171707280739072F
:100A900018F060914802BFCF0E94D1010E941D282A
:100AA00068517C4F8F4F9F4F60930A0170930B01E9
:100AB00080930C0190930D01ECCF40916E02509108
:100AC0006F02609170027091710284E893E00E945D
:100AD000C620C0CF20912E0430912F04281739074B
:100AE000B9F49091EC038091ED03981789F0E091AF
:100AF000EC03F0E0E251FC4F80812091EC0330E008
:100B00002F5F3F4F2F7333272093EC0390E008951E
:100B10008FEF9FEF08951F93CF93DF93EC012C8D00
:100B20003D8D2115310509F438C0A989BA89488954
:100B3000542F50951FB78E8D81FB772770F981FD5B
:100B40006095F8948C91711115C085238C93C9011F
:100B50000197F1F788E008C0942B9C93F901319735
:100B6000F1F76695815049F09C9160FDF5CF952392
:100B70009C93F4CF842B8C93EACF8C917723B9F09C
:100B800085238C931FBF8C8D9D8D0197F1F781E09C
:100B900090E0DF91CF911F91089581E090E09B83D9
:100BA0008A8380E090E0DF91CF911F910895842B9C
:100BB0008C93E8CF089520912E0430912F042817AC
:100BC000390771F49091EC038091ED03981741F08F
:100BD000E091EC03F0E0E251FC4F808190E0089559
:100BE0008FEF9FEF089520912E0430912F04281746
:100BF000390719F080E090E008952091ED0380918D
:100C0000EC0330E0205C3F4F281B31092F73307814
:100C100037FD02C0C901089521503109206C3F6F92
:100C20002F5F3F4FF7CFDC015396ED91FC91549726
:100C3000208155968C9180958223808310922F0479
:100C400010922E0481E00895CF93DF93EC018A8DFA
:100C50009B8D892B01F180912E0490912F048C178C
:100C60009D07C9F0009711F00E9413068E8D8E7FAC
:100C70008E8F1092ED031092EC03D0932F04C0934B
:100C80002E04EB89FC8980819D89892B808381E0FA
:100C9000DF91CF91089580E0DF91CF9108951F9269
:100CA0000F920FB60F9211242F933F934F935F93A0
:100CB0006F937F938F939F93AF93BF93EF93FF9324
:100CC000E0912E04F0912F04309709F449C0868DED
:100CD000A685B78581FD55C08C919585892309F03E
:100CE0003FC0A389B4899C918589809589238C9381
:100CF000868997890197F1F7208D318DA685B78573
:100D0000758558E060E0C9010197F1F7862F90E002
:100D100095958795682F4C91472309F0606851504D
:100D200091F7868D81FD33C08091ED0390E00196AF
:100D30008F7399272091EC03281759F1A091ED03A7
:100D4000B0E0A251BC4F6C938093ED03828D938DE4
:100D50000197F1F7A389B4898C919589892B8C939C
:100D6000FF91EF91BF91AF919F918F917F916F9183
:100D70005F914F913F912F910F900FBE0F901F9059
:100D800018958C919585892309F0ABCFE9CF6095B3
:100D9000CBCF868D8160868FD9CF2CEA31E0FC01E4
:100DA0003183208320912E0430912F0482179307E2
:100DB00009F008950C9413061F93CF93DF93EC0171
:100DC000162F6E8D6695617081E06827812F0E94D5
:100DD000322961E0812F0E94F428812F90E0FC01EC
:100DE000E056FF4FE491E88BFC01EC54FF4FE49197
:100DF000F0E0EE0FFF1FEE52FF4F859194919A8B1A
:100E0000898BDF91CF911F9108951F93CF93DF932B
:100E1000EC01162F60E0812F0E94F4288E8D81FD59
:100E200004C061E0812F0E9432291C87612F70E08D
:100E3000FB01E056FF4FE491ED87FB01EC54FF4FBF
:100E4000E491F0E0EE0FFF1FE853FF4F859194917E
:100E50009F878E87DF91CF911F910895FF920F9307
:100E60001F93CF93DF93EC01F62E522F1B821A8231
:100E700008EE13E020E030E00C831D832E833F83D7
:100E80008CEA91E0998388831F8A1E8A198E188EB6
:100E90001B8E1A8E1D8E1C8E8E8D8E7F50FB81F9BF
:100EA0008E8F642FCE010E94DC066F2DCE01DF9164
:100EB000CF911F910F91FF900C940507CF93DF9373
:100EC000EC019A01AB011B8E1A8E198E188E1F8AA7
:100ED0001E8A60E874E88EE190E00E942C32C9011D
:100EE0002430310508F457C0B901635071097D8F72
:100EF0006C8FEC85E63108F049C0B90176956795AD
:100F00006431710508F04AC061E070E07F8B6E8B40
:100F1000069708F047C081E090E0998F888FC9015B
:100F2000880F991F820F931F9695879596958795A1
:100F30008D309105D0F10C979B8F8A8F909168002E
:100F4000E830D8F121E0EE3008F45CC081E001C067
:100F5000880F2A95EAF7892B809368002C85283022
:100F600098F12E3008F443C0263108F04DC08CE6CD
:100F700090E09C8B8B8B2E5081E001C0880F2A95CE
:100F8000EAF78D8B8C8D9D8D0197F1F7CE01DF9166
:100F9000CF910C94240661E070E0A9CF63517109F0
:100FA0007F8B6E8BC9010597B8CF81E090E09B8F56
:100FB0008A8F90916800E83028F684E0892B80932E
:100FC00068002C85283068F68DE690E09C8B8B8B32
:100FD00081E001C0880F2A95EAF78D8B8C8D9D8D5D
:100FE0000197F1F7CE01DF91CF910C9424068BE6A7
:100FF00090E09C8B8B8B285081E001C0880F2A9554
:10100000EAF7EBCF20E0A2CF80E090E0B2CF2091D2
:101010002E0430912F048217930709F008950C9441
:101020001306FC0184E190E0948383838AEF90E0CF
:101030009683858388EE93E09087878388E893E1A1
:101040009287818781E08387848715861686178635
:101050004FEF5FEFBA01408B518B628B738B448BE8
:10106000558B668B778B108E118E128E138E089592
:10107000FC01862F6083718391E0452B09F490E099
:10108000928362E00C94F4288F929F92AF92BF9269
:10109000CF92DF92EF92FF92CF93DF93EC010E9409
:1010A0001D286B017C0188810E946B2921E001973A
:1010B00009F020E02B878A812817F1F19C85891798
:1010C00009F4CAC0488959896A897B89C41AD50A32
:1010D000E60AF70A49855A85662757FD6095762FF7
:1010E000C416D506E606F70664F42C87DF91CF9187
:1010F000FF90EF90DF90CF90BF90AF909F908F9038
:1011000008958A8D8111F1CF81E0898F888F1E86A5
:101110001D868A8F2C87EAA1FBA1309739F388813D
:101120009981DF91CF91FF90EF90DF90CF90BF90AA
:10113000AF909F908F9009943C85231739F188894F
:101140009989AA89BB89B701A601481B590B6A0B6B
:101150007B0B8B819C81AA2797FDA095BA2F8417C2
:101160009507A607B70794F4888D81110FC0CC8A24
:10117000DD8AEE8AFF8A8E858111B1C081E08D877C
:10118000812C912C540180E090E00CC08C899D89C9
:10119000AE89BF8946015701881A990AAA0ABB0A73
:1011A00080E090E04D815E81662757FD6095762F47
:1011B00084169506A606B7067CF04D85442361F09B
:1011C0004E85411109C04F85442331F0823091058D
:1011D00019F01D8681E090E0231799F1488959891B
:1011E0006A897B89C41AD50AE60AF70A4F815885AD
:1011F000662757FD6095762FC416D506E606F706D6
:1012000004F149855A85662757FD6095762FC416E7
:10121000D506E606F706ACF43A8D311112C081E02E
:10122000898F888F1E861D868A8F2C8783E090E0A9
:10123000039709F05BCFE8A1F9A1309709F06FCFD0
:1012400055CF2C878130910509F052C0EC8DFD8D72
:10125000309709F064CF4ACF8C899D89AE89BF89C8
:10126000B701A601481B590B6A0B7B0BDB01CA01B6
:101270004B815C81662757FD6095762F481759078B
:101280006A077B07ECF4C88AD98AEA8AFB8A188E37
:10129000198E31E03F871A8E1B8E4D815E81662745
:1012A00057FD6095762F84179507A607B7078CF42E
:1012B0008E8581110EC08D85882359F03E870AC026
:1012C00088899989AA89BB89C81AD90AEA0AFB0AB6
:1012D00001CF1E861D86C12CD12C7601FBCE1E8629
:1012E0001D861F86812C912C540182E090E05ACFFC
:1012F0008230910509F09CCFEE8DFF8D309709F07B
:101300000ECFF4CE40E050E06CE072E4FC0140A36C
:1013100051A362A373A314A208952F923F924F92F8
:101320005F926F927F928F929F92AF92BF92CF9275
:10133000DF92EF92FF920F931F93CF93DF93CDB77E
:10134000DEB72A970FB6F894DEBF0FBECDBF9A87DF
:101350008987C0909502D0909602E0909702F09015
:10136000980220E030E0A901C701B6010E943C319B
:1013700018160CF089C120E034E640E455E4C701BA
:10138000B6010E94403120917A0230917B02409157
:101390007C0250917D020E9440312091E8033091FF
:1013A000E9034091EA035091EB030E949F2F6B01E8
:1013B0007C01E985FA85608B718B828B938B6091C0
:1013C000E5027091E6028091E7029091E8020E94A6
:1013D0003E302AE037ED43E25CE30E9440314B01AE
:1013E0005C016091820370918303882777FD80956B
:1013F000982F0E943E309B01AC01C701B6010E94AC
:1014000040312FE73AE64CE35CE30E9440319B0118
:10141000AC01C501B4010E94372F2B013C01CB0167
:10142000D301E985FA85848F958FA68FB78FC488FD
:10143000D588E688F78820E030E0A901B601C70129
:101440000E949B2F882309F415C1E985FA85208C19
:10145000318C028D138D9601A701B201C3010E9448
:10146000362F2BE734E14EEA5DE30E9440319601CE
:10147000A7010E94372F4B015C01E985FA85648B37
:10148000758B868B978B9101A801B201C3010E94D5
:10149000362F2DEC3CEC4CEC5DE30E944031910189
:1014A000A8010E94372FE985FA85608F718F828F9E
:1014B000938FA50194010E94362F20EB38E54AE076
:1014C00059E40E9440312091EF023091F0024091A6
:1014D000F1025091F2020E949F2FE985FA85648300
:1014E000758386839783208131814281538129834B
:1014F0003A834B835C830E94362F4B015C0120E0D2
:1015000030E0A9010E943C312401350118160CF08D
:10151000B6C0E985FA85408651866286738620E0EA
:1015200030E048EC52E4C301B2010E949B2FE985F0
:10153000FA85C0A0D1A0E2A0F3A01816F4F520E02F
:1015400030E040EA52E4C701B6010E943C3187FF17
:1015500034C020E030E04AE754E4C301B2010E9405
:101560003C3187FF9BC0A701960160E070E080EAF4
:1015700092E40E94362F6D837E838F83988720E0CC
:1015800030E048EC52E4C301B2010E94362F9B01C7
:10159000AC016D817E818F8198850E94403120E071
:1015A00030E041E654E40E949F2F9B01AC01C7014B
:1015B000B6010E94372F6B017C01E985FA85C4864C
:1015C000D586E686F786A7019601C501B4010E947B
:1015D00040312FE632E143E85AE30E9440319B015B
:1015E000AC0169817A818B819C810E94372FE985CA
:1015F000FA8560837183828393830E9407304B0155
:101600005C01E985FA8565A376A387A390A761A508
:1016100072A583A594A50E943E307B018C0123E333
:1016200033E343E75FE3C501B4010E94FC03E985AE
:10163000FA8561A772A783A794A781E084A310927B
:10164000EE022A960FB6F894DEBF0FBECDBFDF9133
:10165000CF911F910F91FF90EF90DF90CF90BF90AF
:10166000AF909F908F907F906F905F904F903F9042
:101670002F9008951201830162017301ECCE77FA75
:10168000709477F8709445CFC701B601905820E068
:1016900034E640E455E40E94403175CE80E090E0AD
:1016A000A0EAB2E4E985FA8584879587A687B7879B
:1016B0006C017D0188CF0895CF92DF92EF92FF9267
:1016C0000F931F93CF93DF9300D000D000D0CDB7FE
:1016D000DEB77B016AE271E0CE0101960E94882D9F
:1016E000BE016F5F7F4FC7010E94E02E6C01CE01EB
:1016F00001960E942A2D6EE171E0CE0101960E94B2
:10170000882DBE016F5F7F4FC7010E94E02E8C01C4
:10171000CE0101960E942A2DA6014F5F5F4F9801CE
:10172000B701CE0101960E94E42ECE0101960E94DF
:101730002A2F6B017C01CE0101960E942A2DC60141
:1017400026960FB6F894DEBF0FBECDBFDF91CF91C6
:101750001F910F91FF90EF90DF90CF900895EF923F
:10176000FF920F931F93CF93DF937B0128E1E20E4B
:10177000F11CEB018C0101501109061B170B69913B
:10178000C8018C0F9D1F0E94C735CE15DF05B9F724
:1017900088E190E0DF91CF911F910F91FF90EF9042
:1017A0000895BC0180E090E00C94AF0B0F931F9361
:1017B000CF93DF93EC0169836623D9F088EE93E041
:1017C00090939A03809399030AE010E022E030E0BE
:1017D00048EC50E060E273E084E893E00E94552218
:1017E000BE0180E090E0DF91CF911F910F910C94AA
:1017F000AF0B80E991E090939A03809399030AE0FC
:1018000010E024E030E04CE350E060E273E084E874
:1018100093E00E945522E4CFFC0184E18083118291
:1018200081E081878CE89AE09387828786E292E064
:101830009587848729E027838AE080878FE090E07E
:101840009383828386E09FEF95838483268384E657
:1018500090E0978786872FE530E0318B208B138AC5
:10186000128A21E430E0358B248B978B868BBF0165
:1018700080E090E00C94AF0BEF92FF920F931F93D8
:10188000CF93DF937C018C01C0E0D0E0CE010E94B9
:10189000BF35F80181938F012196C831D105B1F789
:1018A000F7018081843149F0C701DF91CF911F9109
:1018B0000F91FF90EF900C940C0CDF91CF911F9142
:1018C0000F91FF90EF900895AF92BF92CF92DF9269
:1018D000EF92FF920F931F93CF93DF93EC010E943F
:1018E0003C0C6C897D89882777FD8095982F1F9205
:1018F0001F921F9228E72F934AE0A42EB12CC12CEF
:10190000D12C14E6E12EF12C00E010E020E030E0D4
:10191000A9010E94E32C7093FE026093FD02898569
:1019200080939B038E8180939E030F900F900F9066
:101930000F908A30A0F08A859B8590939D038093B9
:101940009C036981CE01DF91CF911F910F91FF9090
:10195000EF90DF90CF90BF90AF900C94D60B8C851A
:101960009D8590939D0380939C03EBCF3F924F9274
:101970005F926F927F928F929F92AF92BF92CF921F
:10198000DF92EF92FF920F931F93CF93DF93CDB728
:10199000DEB766970FB6F894DEBF0FBECDBF8C01E1
:1019A0007B0168EB71E0CE0101960E94882DB701A2
:1019B000CE0107960E94C22DBE016F5F7F4FCE0100
:1019C00007960E948A03D82ECE0107960E942A2DE0
:1019D000CE0101960E942A2DD110BBC06FEB71E0A1
:1019E000CE0101960E94882DB701CE0107960E9474
:1019F000C22DBE016F5F7F4FCE0107960E948A0302
:101A0000D82ECE0107960E942A2DCE0101960E9463
:101A10002A2DD1107EC067EC71E0CE0101960E94A4
:101A2000882DB701CE0107960E94C22DBE016F5FBF
:101A30007F4FCE0107960E948A03D82ECE010796CB
:101A40000E942A2DCE0101960E942A2DD110A7C0F6
:101A50006CEC71E0CE0101960E94882DB701CE0199
:101A600007960E94C22DBE016F5F7F4FCE01079681
:101A70000E948A03D82ECE0107960E942A2DCE01FD
:101A800001960E942A2DD11070C061ED71E0CE0147
:101A900001960E94882DB701CE0107960E94C22DA3
:101AA000BE016F5F7F4FCE0107960E948A03D82E3A
:101AB000CE0107960E942A2DCE0101960E942A2D62
:101AC000DD2009F483C0B701CE0101960E94C22D2A
:101AD000BE016F5F7F4FC8010E945C0B7C01CE018D
:101AE00001960E942A2DFCE2EF16F1E0FF060CF4AD
:101AF000E5C0C70129EBE2162BE0F20614F088EBF3
:101B00009BE0F8019387828790939D0380939C03C9
:101B100008C0C8010E940C0CB80180E090E00E944F
:101B2000AF0B66960FB6F894DEBF0FBECDBFDF9148
:101B3000CF911F910F91FF90EF90DF90CF90BF90CA
:101B4000AF909F908F907F906F905F904F903F905D
:101B50000895B80180E090E00E94AF0B63E070E070
:101B600084E893E00E940125DCCFB701CE01019605
:101B70000E94C22DBE016F5F7F4FC8010E945C0BA7
:101B80007C01CE0101960E942A2D9701F7FC9DC091
:101B9000319521953109F80135832483C2CFB701EE
:101BA000CE0101960E94C22DBE016F5F7F4FC8011A
:101BB0000E945C0B7C01CE0101960E942A2D9701A8
:101BC000F7FC7FC0F80133832283ABCF66ED71E071
:101BD000CE0101960E94882DB701CE0107960E9482
:101BE000C22DBE016F5F7F4FCE0107960E948A0310
:101BF000D82ECE0107960E942A2DCE0101960E9472
:101C00002A2DDD20F9F0B701CE0101960E94C22DE8
:101C1000BE016F5F7F4FC8010E945C0B7C01CE014B
:101C200001960E942A2DF0E5EF16F1040CF498C0FD
:101C3000C7018D38910514F08CE890E0F801978B7E
:101C4000868B6FCF6CED71E0CE0101960E94882DDE
:101C5000B701CE0107960E94C22DBE016F5F7F4F74
:101C6000CE0107960E948A03D82ECE0107960E94C5
:101C70002A2DCE0101960E942A2DDD2051F16E0100
:101C8000FDE0CF0ED11CB701C6010E94C22DB601E6
:101C9000C8010E945C0B8C3291400CF098C06CE241
:101CA000E62EFF24F394C6010E942A2DF801F58642
:101CB000E486F0929D03E0929C0333CF8CE291E0A6
:101CC00020CF3195219531097DCF3195219531096D
:101CD0005FCF62EE71E0CE0101960E94882DB701C0
:101CE000CE0107960E94C22DBE016F5F7F4FCE01CD
:101CF00007960E948A03D82ECE0107960E942A2DAD
:101D0000CE0101960E942A2DDD2069F16E01FDE0D1
:101D1000CF0ED11CB701C6010E94C22DB601C80169
:101D20000E945C0B181619060CF0A0C0B701CE017A
:101D300007960E94C22DBE01695F7F4FC8010E94B5
:101D40005C0B0A970CF411C159E0F52ECE010796F1
:101D50000E942A2DC6010E942A2DF801F782E1CEA9
:101D600080E590E06BCF67EE71E0CE0101960E94B6
:101D7000882DB701CE0107960E94C22DBE016F5F6C
:101D80007F4FCE0107960E948A03D82ECE01079678
:101D90000E942A2DCE0101960E942A2DDD2079F184
:101DA0006E01FDE0CF0ED11CB701C6010E94C22D0D
:101DB000B601C8010E945C0B09970CF0C1C039E064
:101DC000F32EC6010E942A2DF801F086AACEB70193
:101DD000CE0107960E94C22DBE01695F7F4FC801E8
:101DE0000E945C0B893B9B400CF499C078EBE72E7A
:101DF0007BE0F72ECE0107960E942A2D54CF6CEE81
:101E000071E0CE0101960E94882DB701CE010796A0
:101E10000E94C22DBE016F5F7F4FCE0107960E94C8
:101E20008A03D82ECE0107960E942A2DCE01019654
:101E30000E942A2DDD20E9F06E01FDE0CF0ED11CBD
:101E4000B701C6010E94C22DB601C8010E945C0BF9
:101E5000863491050CF005C196E4E92EF12CC601FB
:101E60000E942A2DF801F786E6865BCEFF24F394C4
:101E700071CF61EF71E0CE0101960E94882DB7010C
:101E8000CE0107960E94C22DBE016F5F7F4FCE012B
:101E900007960E948A03D82ECE0107960E942A2D0B
:101EA000CE0101960E942A2DDD2009F46FC06E013B
:101EB000FDE0CF0ED11CB701C6010E94C22DB601B4
:101EC000C8010E945C0B97FFB5C0E12CF12CC60144
:101ED0000E942A2DF801F58AE48AB701882777FD48
:101EE0008095982F1F921F921F9228E72F93AAE0A8
:101EF000AA2EB12CC12CD12C14E6E12EF12C00E03D
:101F000010E020E030E0A9010E94E32C7093FE0273
:101F10006093FD020F900F900F900F9002CEB701CB
:101F2000CE0101960E94C22DBE016F5F7F4FC80196
:101F30000E945C0B7C01CE0101960E942A2D5ACF93
:101F4000B701CE0107960E94C22DBE01695F7F4F87
:101F5000C8010E945C0B0B970CF49DC04AE0F42E64
:101F6000CE0107960E942A2D2CCFB701CE010196F3
:101F70000E94C22DBE016F5F7F4FC8010E945C0BA3
:101F8000F82ECE0101960E942A2DE0CE67EF71E077
:101F9000CE0101960E94882DB701CE0107960E94BE
:101FA000C22DBE016F5F7F4FCE0107960E948A034C
:101FB000D82ECE0107960E942A2DCE0101960E94AE
:101FC0002A2DD11065C06DEF71E0CE0101960E94FF
:101FD000882DB701CE0107960E94C22DBE016F5F0A
:101FE0007F4FCE0107960E948A03D82ECE01079616
:101FF0000E942A2DCE0101960E942A2DDD2009F48F
:102000005BC06E01FDE0CF0ED11CB701C6010E947E
:10201000C22DB601C8010E945C0BC2970CF0FEC035
:10202000E2E3EE2EF12CC6010E942A2DF801F18A7E
:10203000E08A77CDB701CE0107960E94C22DBE017E
:10204000695F7F4FC8010E945C0B853691050CF4D7
:10205000D4C084E6E82EF12CCE0107960E942A2DEA
:1020600036CFB701CE0107960E94C22DBE01695F2F
:102070007F4FC8010E945C0B833891050CF454C05B
:1020800022E8E22EF12CCE0107960E942A2DE7CEFF
:102090000E94E80246CDB701CE0101960E94C22DF2
:1020A000BE016F5F7F4FC8010E945C0BF82ECE010E
:1020B00001960E942A2D54CF63E072E0CE01019672
:1020C0000E94882DB701CE0107960E94C22DBE0145
:1020D0006F5F7F4FCE0107960E948A03D82ECE01F4
:1020E00007960E942A2DCE0101960E942A2DDD20FE
:1020F00061F16E01FDE0CF0ED11CB701C6010E9457
:10210000C22DB601C8010E945C0B8C3E9F4F0CF0A3
:1021100057C16CEEE62EFF24FA94C6010E942A2DC8
:10212000F801F38AE28AFDCCB701CE0101960E9444
:10213000C22DBE016F5F7F4FC8010E945C0B7C0106
:10214000CE0101960E942A2D9ECF69E072E0CE0159
:1021500001960E94882DB701CE0107960E94C22DDC
:10216000BE016F5F7F4FCE0107960E948A03D82E73
:10217000CE0107960E942A2DCE0101960E942A2D9B
:10218000D11063C06EE072E0CE0101960E94882DEE
:10219000B701CE0107960E94C22DBE016F5F7F4F2F
:1021A000CE0107960E948A03D82ECE0107960E9480
:1021B0002A2DCE0101960E942A2DDD2009F4B1CCF2
:1021C000D0909E03F801808580939E03B701CE01D5
:1021D00001960E94C22DBE016F5F7F4FC8010E9411
:1021E0005C0BBC0184E893E00E944625CE01019679
:1021F0000E942A2DD0929E0394CCB701CE01019665
:102200000E94C22DBE016F5F7F4FC8010E945C0B10
:102210007C01CE0101960E942A2D1ECFB701CE016E
:1022200007960E94C22DBE01695F7F4FC8010E94C0
:102230005C0B873991050CF4D8C0F6E9EF2EF12C30
:10224000CE0107960E942A2DEECE30909E03F80113
:10225000808580939E036AE271E0CE0101960E9420
:10226000882DBE016F5F7F4FC7010E94E02E8C0159
:10227000CE0101960E942A2D0F5F1F4F6AE271E086
:10228000CE0101960E94882DA801BE016F5F7F4F8D
:10229000C7010E94C42E6C01CE0101960E942A2D16
:1022A0009601A801B701CE0101960E94E42ECE014D
:1022B00001960E942A2F2B013C01CE0101960E941B
:1022C0002A2DFFEFCF1ADF0A6AE271E0CE010196F4
:1022D0000E94882DA601BE016F5F7F4FC7010E943B
:1022E000C42E8C01CE0101960E942A2D9801A601D0
:1022F000B701CE0101960E94E42ECE0101960E9404
:102300002A2F4B015C01CE0101960E942A2D0F5FFE
:102310001F4F6AE271E0CE0101960E94882DA8014C
:10232000BE016F5F7F4FC7010E94C42E6C01CE01BA
:1023300001960E942A2D9601A801B701CE010196AF
:102340000E94E42ECE0101960E942A2F6B8B7C8B7B
:102350008D8B9E8BCE0101960E942A2D86010F5FE8
:102360001F4F6EE171E0CE0101960E94882DA801F9
:10237000BE016F5F7F4FC7010E94C42E6C01CE016A
:1023800001960E942A2D9601A801B701CE0101965F
:102390000E94E42ECE0101960E942A2F6B017C013F
:1023A000CE0101960E942A2D86012B893C89A40129
:1023B000B20184E893E00E94552230929E03B1CB93
:1023C000B701CE0107960E94C22DBE01695F7F4F03
:1023D000C8010E945C0B4597CCF074E1E72EF12C0C
:1023E000CE0107960E942A2D98CEB701CE01019604
:1023F0000E94C22DBE016F5F7F4FC8010E945C0B1F
:102400007C01CE0101960E942A2D1ACFB701CE0180
:1024100001960E94C22DBE016F5F7F4FC8010E94CE
:102420005C0B7C01CE0101960E942A2DD9CF449AE3
:10243000459AE9EBF0E080818E7F808380818D7FFB
:10244000808380E28093B80084E48093BC00089588
:10245000709354046093530408953091570420916D
:102460005504231B20935604332341F031503093FD
:102470005704FC01E20FF11D838108951092560468
:1024800080E008958F929F92AF92BF92CF92DF9299
:10249000EF92FF920E941D286B017C0184EA8093D9
:1024A000BC00209153043091540403C02115310520
:1024B000F9F48091BC0087FFF9CF8091B900887F43
:1024C000883079F18091B900887F803151F1809115
:1024D000B900887F883339F18091B900887FFF90F7
:1024E000EF90DF90CF90BF90AF909F908F90089526
:1024F0000E941D286C197D098E099F0920915304A3
:10250000309154044901A12CB12C681579058A0534
:102510009B0578F21092BC0084E48093BC0081E0BB
:10252000DECF80E0DCCF8091B9001092BC0094E453
:102530009093BC00887FD3CF8F929F92AF92BF922F
:10254000CF92DF92EF92FF92CF93C62F0E941D2869
:102550006B017C01CC23D1F184EC8093BC002091F1
:1025600053043091540403C021153105B1F4809116
:10257000BC0087FFF9CF8091B900887F883351F183
:102580008091B900887FCF91FF90EF90DF90CF903E
:10259000BF90AF909F908F9008950E941D286C1956
:1025A0007D098E099F0920915304309154044901FB
:1025B000A12CB12C681579058A059B05C0F21092F3
:1025C000BC0084E48093BC0081E0DDCF84E880938C
:1025D000BC00C5CF8091B9001092BC0094E49093E8
:1025E000BC00887FD0CF8F929F92AF92BF92CF9244
:1025F000DF92EF92FF920E941D286B017C0184E91B
:102600008093BC00209153043091540403C02115E1
:10261000310571F48091BC0084FDF9CF80E0FF901A
:10262000EF90DF90CF90BF90AF909F908F900895E4
:102630000E941D286C197D098E099F092091530461
:10264000309154044901A12CB12C681579058A05F3
:102650009B0500F31092BC0084E48093BC0081E0F1
:10266000DECF8F929F92AF92BF92CF92DF92EF9286
:10267000FF921F93CF93DF93EC016093BB000E9406
:102680001D286B017C0184E88093BC0020915304D9
:102690003091540403C02115310569F58091BC00C7
:1026A00087FFF9CF8091B900887F8831E9F1809167
:1026B000B900887F8034C1F11091B900187F8091F2
:1026C000B900887F803291F18091B900887F883489
:1026D00069F11092BC0084E48093BC00812FDF91EB
:1026E000CF911F91FF90EF90DF90CF90BF90AF9070
:1026F0009F908F9008950E941D286C197D098E0966
:102700009F0920915304309154044901A12CB12C0C
:10271000681579058A059B0508F21092BC0084E4CF
:102720008093BC0081E0DBCF80E0D9CFCE010E9456
:10273000F312D4CFCF92DF92EF92FF920F931F93B9
:10274000CF93DF931F92CDB7DEB76C01E42E1092CA
:10275000570410925604FC01118269830E944212B0
:10276000F60181836981882351F00F90DF91CF9129
:102770001F910F91FF90EF90DF90CF900895660F1B
:102780006F5FC6010E943113F6018183811130C051
:10279000EE2099F18FEF8E0DF601828386010D5F99
:1027A0001F4FF12C18C061E0C6010E949C12F60177
:1027B0008183813079F18035C1F68091BB00F801C9
:1027C00081938F01F394F0925704F0925504FE1414
:1027D000A1F0F60182818F11E6CF60E0C6010E9470
:1027E0009C12F60181838130A9F0883531F3BDCF89
:1027F000813009F0BACF85E0B8CFC6010E94F3124C
:10280000F6018183882309F4B0CF813009F0ADCF80
:1028100087E0ABCF86E0A9CF8F929F92AF92BF9215
:10282000CF92DF92EF92FF921F93CF93DF93EC0151
:102830006093BB000E941D286B017C0184E880939B
:10284000BC00209153043091540403C0211531057C
:1028500019F58091BC0087FFF9CF8091B900887F7E
:10286000883299F11091B900187F9091B900987F42
:10287000903369F11092BC0084E48093BC00812FF6
:10288000DF91CF911F91FF90EF90DF90CF90BF909D
:10289000AF909F908F9008950E941D286C197D091C
:1028A0008E099F0920915304309154044901A12CB1
:1028B000B12C681579058A059B0558F21092BC0069
:1028C00084E48093BC0081E0DBCF80E0D9CFCE01EF
:1028D0000E94F312812FD4CF0F931F93CF93DF93D6
:1028E000EC01162F042F19820E944212898388233B
:1028F00029F0DF91CF911F910F910895612F660FFD
:10290000CE010E9431138983882341F0813089F7F9
:1029100082E0DF91CF911F910F910895602FCE013A
:102920000E940C148983882321F0813011F783E001
:10293000E0CFCE010E94F3128983882321F08130F9
:10294000C1F687E0D6CF80E0D4CFEF92FF920F930D
:102950001F93CF93DF93EC01162F042FF22E1092CA
:10296000570410925604222389F08FEF820F8A8336
:102970001982CE010E9442128983882391F0DF914F
:10298000CF911F910F91FF90EF90089580E0FF2469
:10299000F3948A831982CE010E94421289838111A5
:1029A000EECF110F612FCE010E943113898388234E
:1029B00051F0813021F782E0DF91CF911F910F918B
:1029C000FF90EF900895602FCE010E940C14898330
:1029D000882321F0813099F683E0D1CFCE010E9487
:1029E00042128983882321F0813049F684E0C7CFE1
:1029F00061E0610FCE010E9431138983882329F0A1
:102A0000813009F0BCCF85E0BACF8E010D5F1F4F3A
:102A1000E12C16C061E0CE010E949C1289838130B6
:102A200041F1803509F0ABCF8091BB00F801819373
:102A30008F01E394E0925704E0925504EF1469F09B
:102A40008A818E11E7CF60E0CE010E949C128983BB
:102A5000813079F0883541F392CFCE010E94F31294
:102A60008983882309F48BCF813009F088CF87E0F0
:102A700086CF86E084CFFC0163A740E050E060E8A9
:102A80007FE343A354A365A376A317A210A611A6C0
:102A900012A60895CF93DF93EC011DA61C8A198E10
:102AA00081E08A8FFE01E85AFF4F80E89CE0A0E0B9
:102AB000B0E080839183A283B38380E394E00E949B
:102AC000171260E570E080E394E00E94281244E071
:102AD0006BA580E394E00E949A138CA780E394E0B6
:102AE0000E942D1288AF80E394E00E942D1289AFDE
:102AF00080E394E00E942D128AAF80E394E00E946C
:102B00002D128BAF98AD907C59F080E090E0A6E953
:102B1000B3E48C839D83AE83BF83DF91CF9108950F
:102B20006AAD70E0762F6627680F711D882777FDE4
:102B30008095982F607E8827992725E09595879521
:102B4000779567952A95D1F7FE01E05CFF4F60838A
:102B50007183828393830E943E3023E039E148EC05
:102B60005DE30E94403120E030E04FE553E40E94F5
:102B7000372F6C837D838E839F83DF91CF91089560
:102B80004F925F926F927F928F929F92AF92BF927D
:102B9000CF92DF92EF92FF920F931F93CF93DF9329
:102BA000EC0142E06BA580E394E00E949A138CA7AD
:102BB000882309F45EC00E941D28FE01EC5AFF4FD5
:102BC0006083718382839383349600811181228193
:102BD00033810617170728073907D0F5DC01CB0129
:102BE0008C599F4FAF4FBF4F80839183A283B38394
:102BF000CCA8DDA8EEA8FFA820E030E046E953E429
:102C0000C701B6010E943C3118160CF493C0188A13
:102C1000198A1A8A1B8A1C861D861E861F8681E0D9
:102C20008C8B8A8D8823A1F08E010C5B1F4F28812D
:102C300039814A815B81F801608171818281938150
:102C40000E94372FF80160837183828393831A8EE9
:102C5000DF91CF911F910F91FF90EF90DF90CF9078
:102C6000BF90AF909F908F907F906F905F904F90AC
:102C7000089580E394E00E942D1288AF80E394E0F1
:102C80000E942D1289AF98AD292F207C09F093CF97
:102C9000C92ED12CDC2CCC24C80ED11C00E2D01AB9
:102CA000EE24D7FCE094FE2CCCAEDDAEEEAEFFAE53
:102CB0008DA5811162C08EA59FA501969FA78EA7A5
:102CC000811511E0910709F42AC1803891050CF0B3
:102CD000FBC0C880D980EA80FB8020E030E0A901F9
:102CE000C701B6010E943C3118160CF0FAC0C701AA
:102CF000B6012C813D814E815F810E94403120913F
:102D0000E8033091E9034091EA035091EB030E94FC
:102D10009F2F0E94A73126E636E949E155E40E943B
:102D20004031688779878A879B876CAB7DAB8EAB98
:102D30009FAB41CF688979898A899B890E943E30FF
:102D40004B015C01C701B6010E9407308501740187
:102D50002DEC3CEC4CE45FE30E94FC03688B798B28
:102D60008A8B9B8B6CA97DA98EA99FA90E94073095
:102D70006C877D878E879F8752CFFE01EC5BFF4F6C
:102D80004080518062807380C701B6010E943E304E
:102D9000A30192010E94362F4B015C01FE01E85B0A
:102DA000FF4F608371838283938340916C0404E0BE
:102DB0004002F0011124E45AFB4F80819181A281ED
:102DC000B38197018601081B190B2A0B3B0BC90124
:102DD000B801009158041091590420915A0430917F
:102DE0005B04600F711F821F931F609358047093E0
:102DF000590480935A0490935B04C082D182E2828A
:102E0000F3824F5F44300CF05CC040936C040E942E
:102E10003E3020E030E040E85EE30E944031A30114
:102E200092010E94362F6F8F78A389A39AA3C8803E
:102E3000D980EA80FB80A7019601C501B4010E94F8
:102E4000362F4B015C0120E030E0A9010E943C31AB
:102E50002401350118160CF07DC0FE01E45BFF4F24
:102E6000408251826282738220E030E040E251E48D
:102E7000C301B2010E949B2F1816BCF18FE692E1AC
:102E8000A3E8BAE3FE01E05BFF4F80839183A28356
:102E9000B3837FE662E183E89AE3272F362FAC0104
:102EA000C501B4010E9440319B01AC01C701B601CC
:102EB0000E94372F6B017C01688379838A839B830F
:102EC0000CCF10926C04A3CF88A999A9AAA9BBA979
:102ED0008C0D9D1DAE1DBF1D88AB99ABAAABBBABC6
:102EE000F8CEC701B601905804CF20E030E048EC9E
:102EF00052E4C301B2010E943C3187FD30C08AE038
:102F000097EDA3E2BCE3FE01E05BFF4F808391837A
:102F1000A283B3837AE067ED83E29CE3BECF8E01A8
:102F20000C5B1F4F68A979A98AA99BA90E943E3012
:102F300020E030E040E05CE30E944031F801608333
:102F400071838283938381E08DA7C880D980EA80D2
:102F5000FB80C3CE77FA709477F870947ECF20E030
:102F600030E040E251E4C301B2010E94362F2CEB65
:102F700034E743E15CE30E94403120E030E044EB81
:102F800052E40E949F2F2FE632E143E85AE30E9469
:102F9000372F362F272F462F572FBC01FE01E05B1E
:102FA000FF4F4083518362837383B90176CFFC0165
:102FB00067A7148608958F929F92AF92BF92CF9287
:102FC000DF92EF92FF920F931F93CF93DF93EC0169
:102FD0001F921F921F9288E78F939EE1A92EB12C1A
:102FE000C12CD12C14E6E12EF12C00E010E020E001
:102FF00030E0A90163E270E080E090E00E94E32C01
:103000007EA36DA31D8A1BA280E090E4ACE9B6E428
:103010008F8B988FA98FBA8F80E394E00E9417124C
:1030200060E570E080E394E00E9428124EE16FA515
:1030300080E394E00E946C148EAF1FAE0F900F904F
:103040000F900F90882379F081E08FAFDF91CF91BF
:103050001F910F91FF90EF90DF90CF90BF90AF90B6
:103060009F908F90089564E670E080E090E00E9469
:1030700051288E0182EAB82E7E0182E4E80EF11C0E
:103080006E01E0E4CE0ED11CAA24A39408C0AFAE1A
:10309000B394B3940E5F1F4FFEEABF16B9F222E05D
:1030A0004B2D6FA580E394E00E94A5148EAF811193
:1030B000EECF80E394E00E942D1290E0F70191831F
:1030C000808380E394E00E942D1290E0F6019183CA
:1030D0008083F7019080812C88299929F80193AB8E
:1030E00082ABD6CF2F923F924F925F926F927F9298
:1030F0008F929F92AF92BF92CF92DF92EF92FF9208
:103100000F931F93CF93DF93CDB7DEB76A970FB6B8
:10311000F894DEBF0FBECDBF9A8F898FDC011C965D
:103120008C91813009F48FC3823009F45CC4882308
:1031300051F16A960FB6F894DEBF0FBECDBFDF9196
:10314000CF911F910F91FF90EF90DF90CF90BF90A4
:10315000AF909F908F907F906F905F904F903F9037
:103160002F90089523E040E0A98DBA8D9F966C9131
:1031700080E394E00E94A514882309F44BC5A98D2F
:10318000BA8D1C961C9248E4A98DBA8D9F966C91BD
:1031900080E394E00E946C14E98DFA8DEC57FF4FA8
:1031A000FC8BEB8B098D1A8D00581F4FF801808125
:1031B0009181A281B381EB89FC8980839183A28371
:1031C000B3830E942928D8016D937D938D939C939E
:1031D0001397DC01CB01B695A79597958795E98D57
:1031E000FA8D87A390A7A1A7B2A781E08487EC5BA3
:1031F000FF4FFA83E98311E080819181A281B3813D
:10320000181619061A061B060CF01BC40E941D286E
:10321000693E73408105910508F48BCF112309F4B1
:1032200088CF498D5A8D445B5F4FDA014D905D9098
:103230006D907C90A98DBA8DA85BBF4F411451044D
:103240006104710409F4F8C28D919D910D90BC91B7
:10325000A02D480E591E6A1E7B1E77FC41C4759432
:10326000679457944794298D3A8D205B3F4FF9011D
:103270004082518262827382FA0180839183A283A9
:10328000B383A98DBA8DDA968D919C91DB97A0E0DE
:10329000B0E0BA2FA92F982F8827481A590A6A0A2E
:1032A0007B0AD301C201BB0F880B982FDC01E98D8B
:1032B000FA8DEC5AFF4F408251826282738284837E
:1032C000858386838783E98DFA8D24AD35AD40E013
:1032D00050E0C301B2010E94C43207E10E941733DB
:1032E0002053384F4F4F5F4F6F4F7F4F8F4F9F4F40
:1032F0000E9438300E940730E98DFA8DE45AFF4F62
:103300006083718382839383A98DBA8D6D937D933E
:103310008D939C931397D896ED91FC91D997D49661
:103320008D909C90D597940140E050E060E070E073
:1033300080E090E000E10E94FE3279011A014B0129
:103340008D8399879F0140E050E0C301B2010E9444
:10335000C43207E00E94173359016A01F62FE72FA4
:103360008C019701A101B4018D819985EF2EFE2E6C
:103370000E9435332D83832E942E5987698B7D8748
:103380001C01E98DFA8DE05AFF4F2083318342837F
:1033900053836483758386833782A98DBA8DD696CD
:1033A000ED91FC91D797D2962D913C91D39740E027
:1033B00050E060E070E080E090E00FE00E94FE32BC
:1033C000B22EC32ED42EE52EF62E7D8B8F8B988FAA
:1033D0009F0140E050E0C301B2010E94C43208E006
:1033E0000E941733A22E732EB42FA52F662E572EB0
:1033F0008C012B2D3C2D4D2D5E2D6F2D7D898F89C0
:10340000988DB72CCB2EDA2EE62CF52C0E94353376
:10341000E98DFA8DE859FF4F20833183428353832E
:103420006483758386839783E981FA81E080F180E4
:103430000281138127013801770C4408542C320192
:1034400057016801E42CF42C042D142D0E946B32DA
:1034500005E10E941733AD80B82CC92CD984E988C6
:10346000FD8481010E943E3349013A01B62FA72F06
:10347000F82FE92F06E00E94FE3254016301EB2E83
:10348000FA2E0F2F1E2F0E943E3301E00E94FE32C3
:103490000F2F0E943E3349013A01B62FA72FF82F74
:1034A000E92F02E00E94FE3259016A017B018C0182
:1034B0009401A3016B2F7A2F8F2F9E2F0E943533FB
:1034C00004E00E94FE320FE00E94173359016A01A6
:1034D0007B018C01A98DBA8D14962C9314971596A7
:1034E000BC92159716964C9316971796DC921797E1
:1034F00018966C9318971996FC9219971A968C93B4
:103500001A971B961C9320353143464E584361054C
:1035100071058105910509F00CF42AC220ED37EF01
:1035200044E65CE360E070E080E090E00E943E33BF
:103530000E94383025EF3FE94EEA5DE30E944031BA
:103540000E940730E98DFA8D658776878787908B93
:1035500069837A838B839C83298C3A8CB0E72B0E0A
:10356000311CF1014080518062807380AB89BC893D
:103570002D913D914D915C912D833E834F835887D2
:10358000411451046104710409F4BEC1E98DFA8D3E
:10359000EC58FF4FFE8BED8BC080D180E280F38032
:1035A000098D1A8D08581F4FD8018D909D90AD90B0
:1035B000BC90E98DFA8DE857FF4FFA8BE98B20819B
:1035C00031814281538129873A874B875C876981A2
:1035D0007A818B819C81681979098A099B090E94EB
:1035E0003E302DEC3CEC4CEC5DE30E9440316D87AD
:1035F0007E878F87988BC501B4010E943E309B0166
:10360000AC016D857E858F8598890E94372F0E9439
:1036100007306D877E878F87988B69817A818B8150
:103620009C816C197D098E099F090E943E302BE711
:1036300034E14EEA5DE30E9440314B015C01C70179
:10364000B6010E943E309B01AC01C501B4010E944D
:10365000372F0E9407306B017C016D857E858F8539
:1036600098896C197D098E099F090E943E302BE7CD
:1036700035E141EB55E40E9440314B015C01698129
:103680007A818B819C8164197509860997090E944A
:103690003E302AE037ED43E25DE30E94403169832A
:1036A0007A838B839C83C301B2010E943E309B01CD
:1036B000AC0169817A818B819C810E94372F0E94A5
:1036C0000730D1016C9311967C93119712968C93CD
:1036D000129713969C9381E0E98DFA8D868BAD89C4
:1036E000BE89CD92DD92ED92FC9213972D853E8599
:1036F0004F855889D8012D933D934D935C93139733
:103700002D813E814F81588589859A85AB85BC8501
:1037100082179307A407B50708F4C3C06789708DA3
:10372000818D928D9B01AC01C501B4010E949F2F38
:103730004B015C01E98DFA8DE457FF4F6083718383
:1037400082839383098D1A8D00571F4FF801C08023
:10375000D180E280F380A98DBA8D95968D919C9150
:103760009697BC01882777FD8095982F0E943E3060
:103770002B013C01A7019601C501B4010E94362F1F
:103780009B01AC01C301B2010E9440312FE632E13E
:1037900043E85AE30E9440319B01AC01C701B601E6
:1037A0000E94372FF80160837183828393830E9484
:1037B00007304B015C01A98DBA8D5B966D937D93AB
:1037C0008D939C935E975F966D917D918D919C9169
:1037D00092970E943E307B018C0123E333E343E761
:1037E0005FE3C501B4010E94FC03E98DFA8D678F88
:1037F00070A381A392A311E013A3D1016D917D91D8
:103800008D919C9124E630E040E050E00E942C3203
:10381000E98DFA8D218B328B438B548B158BEB8981
:10382000FC8980819181A281B381E989FA898083B1
:103830009183A283B3837DCC4D905D906D907C90FD
:10384000D301C20106CD0E942928969587957795C8
:103850006795E98DFA8DE458FF4F60837183828309
:103860009383A98DBA8D97960D911D912D913C91C1
:103870009A97601771078207930728F4906860830E
:103880007183828393830C561E4E2F4F3F4FE98DD9
:10389000FA8D061717072807390708F427C184850A
:1038A00046CCA98DBA8D5796CD90DD90ED90FC90C9
:1038B0005A976D817E818F81988529853A854B85C0
:1038C0005C85621B730B840B950B0E943C30A70137
:1038D00096010E94362F2DEC3CEC4CEC5DE30E94EF
:1038E00040319B01AC01C701B6010E94372F9B01FB
:1038F000AB01BC01A98DBA8D57964D935D936D9325
:103900007C935A97B9010ECF20523E444109510988
:1039100029873A874B875C87E98DFA8DE857FF4FF7
:10392000FA8BE98B208331834283538369817A81C7
:103930008B819C810E943E3020E030E0A9010E94F2
:10394000372F0E9407306B017C01C701CD86DE86D0
:10395000EF86F88A812C912C5401E98DFA8DEC5870
:10396000FF4FFE8BED8B098D1A8D08581F4FA9CE86
:103970009501A601B701C80120343D4F4149554387
:10398000610571058105910509F00CF45CC020E525
:1039900031E346EE58E360E070E080E090E00E94A2
:1039A0003E330E94383027E239E547EB5DE30E9461
:1039B000403120E836E948E95AE40E94372F0E9456
:1039C0000730A98DBA8D1D966C931D971E967C931A
:1039D0001E971F968C931F9750969C9369837A83AA
:1039E0008B839C83B9CD0E942928969587957795DE
:1039F0006795E98DFA8DE458FF4F60837183828368
:103A00009383A98DBA8D97960D911D912D913C911F
:103A10009A97601771078207930728F4906860836C
:103A20007183828393830C561E4E2F4F3F4F061790
:103A300017072807390708F495CBE98DFA8D848597
:103A400076CB10E0E3CB9501A601B701C801203683
:103A5000314A4C4652436105710581059105D1F00B
:103A6000CCF020E43DEF41E955E360E070E080E018
:103A700090E00E943E330E9438302CE433E042EC68
:103A80005DE30E94403120E836E948E15BE40E94B2
:103A9000372F56CD9501A601B701C801203A3E4601
:103AA00042465F42610571058105910509F00CF4FC
:103AB0004BC020E631EA4CE652E360E070E080E083
:103AC00090E00E943E330E94383029EC38EC48ECFC
:103AD0005DE30E94403120EC31EE44E65BE46DCFC3
:103AE000EFEF4E1A5E0A6E0A7E0AB9CB13A614A631
:103AF00015A616A623E040E067A580E394E00E94A7
:103B0000A514882309F446C0E98DFA8DEC5BFF4FBC
:103B1000108211821282138248E5A98DBA8D9F9678
:103B20006C9180E394E00E946C140E942928969581
:103B3000879577956795E98DFA8D67A370A781A71B
:103B400092A782E08487F5CA9501A601B701C80152
:103B5000203E3D4244485C42610571058105910566
:103B600009F00CF497C020EA3EE642E65FE260E02E
:103B700070E080E090E00E943E330E94383024E202
:103B80003DEC44ED5DE30E94403120E836E948E930
:103B90005BE47DCF80E394E00E942D1290E0A0E0F2
:103BA000B0E0BA2FA92F982F8827E98DFA8D83A727
:103BB00094A7A5A7B6A780E394E00E942D12A98D33
:103BC000BA8D9B964D915D916D917C919E97482BFE
:103BD000762F652F542F4427FD0143A754A765A7CF
:103BE00076A780E394E00E942D12A98DBA8D9B9652
:103BF0004D915D916D917C919E97482BFD0143A75E
:103C000054A765A776A7EC5BFF4F4083518362837F
:103C1000738382CF80E394E00E942D1290E0A0E0B5
:103C2000B0E0BA2FA92F982F8827E98DFA8D83A7A6
:103C300094A7A5A7B6A780E394E00E942D12A98DB2
:103C4000BA8D9B964D915D916D917C919E97482B7D
:103C5000762F652F542F4427FD0143A754A765A74E
:103C600076A780E394E00E942D12A98DBA8D9B96D1
:103C70004D915D916D917C919E97482BFD0143A7DD
:103C800054A765A776A7E85BFF4F40835183628303
:103C9000738375CA9501A601B701C80121153E437A
:103CA0004A4C59426105710581059105C1F0BCF08E
:103CB00020EE3DE244E85CE260E070E080E090E00D
:103CC0000E943E330E94383023EC3FED4FED5DE320
:103CD0000E94403120E23CEB4EEB5BE46ECE95015E
:103CE000A601B701C8012038364643435742610553
:103CF000710581059105C1F0BCF020E03EE34AEC7E
:103D000059E260E070E080E090E00E943E330E9463
:103D1000383029E33AEB4BEE5DE30E94403120EC72
:103D200031EE44EE5BE4B3CE9501A601B701C801C4
:103D3000203D37444E4B5442610571058105910584
:103D4000C1F0BCF020E836E643E357E260E070E003
:103D500080E090E00E943E330E94383023EE3CE544
:103D600048EF5DE30E94403120EB33E845E05CE43E
:103D700024CE9501A601B701C80120353B4549462F
:103D800052426105710581059105C1F0BCF020ED3D
:103D900037E44EEB54E260E070E080E090E00E9497
:103DA0003E330E9438302DE131EE42E05EE30E9466
:103DB000403120E836E948E15CE469CE20E53BE5A6
:103DC00049E652E260E070E080E090E00E943E331D
:103DD0000E94383020E734E14AE05EE30E9440313F
:103DE00020E539EA4BE25CE4E8CDFC0186E9868710
:103DF00084EF91E0908B878788E2818B88E7828BC4
:103E00002AE0238B82E3848B80E991E0968B858B7B
:103E100081E0878B228F8CE89AE0918F808F0895C4
:103E20004F925F926F927F928F929F92AF92BF92CA
:103E3000CF92DF92EF92FF920F931F93CF93DF9376
:103E4000CDB7DEB72C970FB6F894DEBF0FBECDBF4F
:103E50004C012A013B0160917A0370917B03882712
:103E600077FD8095982F0E943E3020E030E048ECAE
:103E700052E40E949F2F6D837E838F839887D401A5
:103E800055968D919C9156979C01442737FD4095FE
:103E9000542F29833A834B835C834216530664066E
:103EA00075060CF45CC0F4018289618970E0680FCA
:103EB000711D882777FD8095982F0E943E302D81B7
:103EC0003E814F8158850E9440310E9407305B013E
:103ED0006C01D40154968C91549753964C9150E0B8
:103EE000480F511D662757FD6095762F7F936F937E
:103EF0005F934F9318EEE12E13E0F12E00E010E0F7
:103F000029813A814B815C81C301B2010E94E32C7B
:103F1000F4014489238930E0240F311DCB010F9037
:103F20000F900F900F9062177307BCF02C960FB68E
:103F3000F894DEBF0FBECDBFDF91CF911F910F91DF
:103F4000FF90EF90DF90CF90BF90AF909F908F90B9
:103F50007F906F905F904F900895C901E7CF1E96B4
:103F60008C911E971F966D917C915097680F711DD3
:103F7000882777FD8095982F0E943E302D813E81C5
:103F80004F8158850E9440310E9407305B016C01CF
:103F900080916E0390916F039C01442737FD4095FB
:103FA000542F29873A874B875C87D40152968C918E
:103FB000529751966C9170E0680F711D882777FDBC
:103FC0008095982F0E943E302D813E814F815885EB
:103FD0000E9440310E9407309F938F937F936F938D
:103FE000E980FA800B811C8129853A854B855C85A7
:103FF000C301B2010E94E32C0F900F900F900F901D
:10400000CB0194CF4F925F926F927F928F929F924B
:10401000AF92BF92CF92DF92EF92FF920F931F93D6
:10402000CF93DF93CDB7DEB728970FB6F894DEBFF6
:104030000FBECDBF4C012A013B0160917A03709104
:104040007B03882777FD8095982F0E943E3020E0E3
:1040500030E048EC52E40E949F2F9B01AC01D40158
:1040600055968D919C9156977C010027F7FC009501
:10407000102FE982FA820B831C834E145F046006C2
:1040800071060CF44EC0F401628970E080E090E0AB
:104090002D833E834F8358870E943E302D813E8181
:1040A0004F8158850E9440310E940730D4015496B8
:1040B0002C911F921F921F922F935B016C0118EE9F
:1040C000E12E13E0F12E00E010E029813A814B81CE
:1040D0005C81C301B2010E94E32CF401248930E029
:1040E000CB010F900F900F900F9062177307BCF0E9
:1040F00028960FB6F894DEBF0FBECDBFDF91CF91EB
:104100001F910F91FF90EF90DF90CF90BF90AF90F5
:104110009F908F907F906F905F904F900895C9010E
:10412000E7CF1F966D917C915097882777FD8095FA
:10413000982F2D833E834F8358870E943E302D81D8
:104140003E814F8158850E9440310E940730209166
:104150006E0330916F03442737FD4095542FD401EF
:104160005296EC911F921F921F92EF935B016C018C
:10417000E980FA800B811C81C301B2010E94E32C0B
:104180000F900F900F900F90CB01B2CF4F925F9294
:104190006F927F928F929F92AF92BF92CF92DF9257
:1041A000EF92FF920F931F93CF93DF9300D000D035
:1041B000CDB7DEB74C012A013B010E941D28D40176
:1041C0006D937D938D939C93139716960D911D91EE
:1041D0002D913C9119976B017C01C01AD10AE20A1A
:1041E000F30A1A960D911D912D913C911D970C1576
:1041F0001D052E053F0508F0E3C0F40127892223A1
:1042000009F495C0668377838087918740916E0318
:1042100050916F03662757FD6095762F441655061B
:10422000660677060CF098C0E0907003F09071037A
:104230000027F7FC0095102FE414F5040605170578
:104240000CF0C3C00E941D2800916D0410916E04F3
:1042500020916F04309170046017710782079307F3
:1042600008F0DAC080916E0390916F039C0144279F
:1042700037FD4095542F29833A834B835C83421644
:104280005306640675060CF4C7C0B4E64B16510419
:10429000610471040CF4D6C0D40158964D915C9120
:1042A00059975A01CC24B7FCC094DC2C485A5D4F76
:1042B000662757FD6095762F7F936F935F934F939B
:1042C00018EEE12E13E0F12E00E010E029813A8192
:1042D0004B815C81C301B2010E94E32C0F900F90CF
:1042E0000F900F90683C71050CF4DAC0F401208D3A
:1042F000318D24543D4F261737070CF4B901CB01FB
:10430000D40115967C936E9314976091710470910B
:104310007204680F791F80E090E0EE24E39408E8CF
:1043200013E120E030E05A964C910E94D6250F9080
:104330000F900F900F90DF91CF911F910F91FF90F1
:10434000EF90DF90CF90BF90AF909F908F907F9035
:104350006F905F904F9008951092740410927304C0
:104360008CE99FEF9093720480937104B301A201D2
:10437000C4010E94101FAC01662757FD6095762F7F
:10438000F40142875387648775870E941D286B015B
:104390007C01B301A201C4010E940220AC01662786
:1043A00057FD6095762F4C0D5D1D6E1D7F1D409352
:1043B0006D0450936E0460936F0470937004D40185
:1043C00057968C91811130CFB2CF1F921F921F92BE
:1043D0008CED8F934CE3A42EB12CC12CD12C28E171
:1043E0003CEF4FEF5FEFC301B2010E94E32CF401F9
:1043F00075836483882777FD8095982FEE24E39456
:1044000008EE13E020E030E0428D0E94D6250F90A8
:104410000F900F900F908BCF0F900F900F900F90E9
:10442000DF91CF911F910F91FF90EF90DF90CF9090
:10443000BF90AF909F908F907F906F905F904F90C4
:104440000C949F2620917304309174042A3F310507
:1044500008F022CFA9014F5F5F4F5093740440933F
:1044600073049A01A9E8B8E80E94513292958295A6
:104470008F7089279F7089276EE1689F9001699FDF
:10448000300D11244217530709F006CF80917104B3
:104490009091720401969093720480937104FCCE03
:1044A00088EC90E068EC70E02BCF2F923F924F9217
:1044B0005F926F927F928F929F92AF92BF92CF92B4
:1044C000DF92EF920F931F93CF93DF9300D000D032
:1044D00000D0CDB7DEB71C0169011216130674F5C2
:1044E000CA01AA2797FDA095BA2F89839A83AB8327
:1044F000BC832B01662457FC6094762C4801AA24C7
:1045000097FCA094BA2CA1E0B0E0BE83AD83E12C6F
:1045100009811A812B813C81F101428DC301B201D5
:104520000E94D625C501B4010E9451288D819E812B
:1045300001969E838D83C816D9064CF726960FB632
:10454000F894DEBF0FBECDBFDF91CF911F910F91C9
:10455000EF90DF90CF90BF90AF909F908F907F9023
:104560006F905F904F903F902F9008952F923F92C1
:104570004F925F926F927F928F929F92AF92BF9273
:10458000CF92DF92EF920F931F93CF93DF93CDB72C
:10459000DEB728970FB6F894DEBF0FBECDBF9A8363
:1045A000898378876F833A016901641775070CF472
:1045B00051C046175707ACF1C801AA2797FDA0952F
:1045C000BA2F8B839C83AD83BE8322243324221A8B
:1045D000330A442437FC4094542C4A01AA2497FC03
:1045E000A094BA2CEE24E39408E813E120E030E034
:1045F000A981BA815A964C91C501B4010E94D62571
:104600006B817C818D819E810E9451286C187D0870
:10461000820C931CA41CB51CEF81F8856E167F06D6
:104620000CF728960FB6F894DEBF0FBECDBFDF9112
:10463000CF911F910F91EF90DF90CF90BF90AF90EF
:104640009F908F907F906F905F904F903F902F90B2
:104650000C949F26C801AA2797FDA095BA2F8B839B
:104660009C83AD83BE831901442437FC4094542CB1
:10467000AF81B8854D01AA2497FCA094BA2CEE24F2
:10468000E39408E813E120E030E0E981FA81428D0B
:10469000C501B4010E94D6256B817C818D819E81EC
:1046A0000E9451288F8198858C0D9D1D98878F833E
:1046B000820C931CA41CB51C6816790604F7B1CFB4
:1046C0008F929F92AF92BF92EF920F931F93CF93CF
:1046D000DF93EC0158EE852E53E0952EA12CB12CE2
:1046E000EE24E3940CE310E020E030E04A8DC501B5
:1046F000B4010E94D62564E070E080E090E00E9462
:10470000512889E1880E911CA11CB11C81ED8816ED
:104710008BE09806A104B10419F7DF91CF911F91A6
:104720000F91EF90BF90AF909F908F900C949F2629
:104730008F929F92AF92BF92EF920F931F93CF935E
:10474000DF93EC0168EB862E6BE0962EA12CB12C4A
:10475000EE24E3940CE310E020E030E04A8DC50144
:10476000B4010E94D62564E070E080E090E00E94F1
:10477000512889E1881A9108A108B1088FEC8816A0
:1047800083E09806A104B10419F7DF91CF911F913E
:104790000F91EF90BF90AF909F908F900C949F26B9
:1047A000CF92DF92EF920F931F93CF93DF93EC01A1
:1047B0006B01882777FD8095982FE12C0EE110E0A2
:1047C00020E030E04A8D0E94D625B601660F771FA3
:1047D000882777FD8095982F0EE110E020E030E0EB
:1047E0004A8D0E94D625DF91CF911F910F91EF90B6
:1047F000DF90CF900C949F26EF920F931F93EE249F
:10480000E39404EF11E020E030E04AE068E27AE06F
:1048100080E090E00E94D62560E273E080E090E0C6
:104820000E94512804EF11E020E030E04AE068E205
:104830007AE080E090E00E94D62560E273E080E0BC
:1048400090E00E94512808EE13E020E030E04AE0BA
:1048500060ED77E080E090E00E94D62568EE73E09E
:1048600080E090E01F910F91EF900C9451288F926F
:104870009F92AF92BF92EF920F931F93CF93DF93CC
:10488000EC01F8EE8F2EF3E09F2EA12CB12CEE243C
:10489000E3940CE310E020E030E04A8DC501B40160
:1048A0000E94D62564E070E080E090E00E945128EC
:1048B00080E5880E911CA11CB11C88E588168CE04F
:1048C0009806A104B10419F7DF91CF911F910F91C0
:1048D000EF90BF90AF909F908F900C949F268F92F7
:1048E0009F92AF92BF92EF920F931F93CF93DF935C
:1048F000EC01ACE18A2EACE09A2EA12CB12CEE2476
:10490000E3940CE310E020E030E04A8DC501B401EF
:104910000E94D62564E070E080E090E00E9451287B
:1049200080E5881A9108A108B1088CEA881683E00E
:104930009806A104B10419F7DF91CF911F910F914F
:10494000EF90BF90AF909F908F900C949F26FC01AA
:10495000678B81E08093750384E893E0611102C066
:104960000C946F240C9437244F925F926F927F9235
:10497000AF92BF92CF92DF92EF920F931F93CF939C
:10498000DF93EC01A62EB12CA114B10459F1C12C76
:10499000D12CB0ED4B2EB7E05B2E612C712CEE24A8
:1049A000E3940CE310E020E030E04A8DC301B20153
:1049B0000E94D6256FE070E080E090E00E945128D0
:1049C00084E6480E511C611C711C80EF48168AE079
:1049D00058066104710419F78FEFC81AD80ACA146F
:1049E000DB04BCF2DF91CF911F910F91EF90DF902C
:1049F000CF90BF90AF907F906F905F904F900C944E
:104A00009F26AF92BF92CF92DF92EF920F931F93A8
:104A1000CF93DF93EC015B0180E5869F6001879F68
:104A2000D00C112480EAC81A86EFD80AB60188276C
:104A300077FD8095982FEE24E39404E610E020E0C3
:104A400030E04A8D0E94D6258FE08A9DB0018B9D73
:104A5000700D1124605B7F4F882777FD8095982F1C
:104A60000E94512801E010E02FE030E040EA5FE0D2
:104A7000B601CE010E94B622DF91CF911F910F9116
:104A8000EF90DF90CF90BF90AF900895CF93DF93DA
:104A9000EC016231710530F061E0CE01DF91CF9120
:104AA0000C94B424FB01EC5CFF4F0C944B3264E09B
:104AB00070E0DF91CF910C94012565E070E0DF910B
:104AC000CF910C9401250E943724CE010E943724F7
:104AD000CE010E94372468EE73E080E090E0DF9121
:104AE000CF910C94512864E670E0DF91CF910C9443
:104AF000D02368E770E0DF91CF910C94D0236CE86D
:104B000070E0DF91CF910C94D02360EA70E0DF91E8
:104B1000CF910C94D02364EB70E0DF91CF910C9493
:104B2000D0230E946023CE010E949823CE010E94D0
:104B30006023CE010E94982368EE73E080E090E04D
:104B4000DF91CF910C9451280E946023CE010E94E6
:104B5000982360E273E080E090E0DF91CF910C94C5
:104B6000512862E0DF91CF910C94B42464E0DF918E
:104B7000CF910C94B42465E0DF91CF910C94B424D0
:104B8000DF91CF910C94FC2361E070E0DF91CF9135
:104B90000C94012562E070E0DF91CF910C94012527
:104BA00063E070E0DF91CF910C9401254F925F920A
:104BB0006F927F928F929F92AF92BF92CF92DF922D
:104BC000EF92FF920F931F93CF93DF9300D000D00B
:104BD000CDB7DEB74B015C01280139010E2D6115FF
:104BE00071058105910509F460C0442309F45DC095
:104BF000142F4B3008F07BC084B1866084B960E02C
:104C000079E08DE390E0A50194010E940A326901E8
:104C10007A0181E0C81AD108E108F108C114D10471
:104C2000E1E0EE06F10408F064C081E1B82EE12F66
:104C3000F0E0E35FFE4F208130E040E050E0C7014C
:104C4000B6010E940A32411451046104710411F04A
:104C500001115BC0D0928700C092860080918400D1
:104C600090918500A0E0B0E0C816D906EA06FB06E0
:104C700020F4D0928500C0928400B09281003093DD
:104C80008B0020938A00309389002093880080EB6A
:104C900080938000411451046104710499F0011162
:104CA00011C0C301B2010E94512880916F008D7F15
:104CB00080936F0082E08093810081E08093800088
:104CC00029982A980F900F900F900F90DF91CF9115
:104CD0001F910F91FF90EF90DF90CF90BF90AF901A
:104CE0009F908F907F906F905F904F9008951AE003
:104CF00083CFCD2CDE2CEF2CFF24F1E0CF1AD1088E
:104D0000E108F10824E1B22E92CF29833A834B8344
:104D10005C830E941D28640D751D861D971D609380
:104D2000750470937604809377049093780480914F
:104D30006F00826080936F003A8129818BCFEFE60C
:104D4000F0E080818D7F808382E08093810081E02C
:104D50008093800029982A9808951F920F920FB689
:104D60000F9211240F931F932F933F934F935F93B1
:104D70006F937F938F939F93AF93BF93EF93FF9323
:104D80000E941D28009175041091760420917704EB
:104D900030917804601771078207930768F080915B
:104DA0006F008D7F80936F0082E08093810081E0AF
:104DB0008093800029982A98FF91EF91BF91AF913D
:104DC0009F918F917F916F915F914F913F912F9123
:104DD0001F910F910F900FBE0F901F9018954115C6
:104DE000510529F4EAE7F0E080818F7780836A300B
:104DF0007105B1F063FF02C088E201C088E067700E
:104E0000682B88E190E00FB6F894A8958093600035
:104E10000FBE60936000E0E6F0E0808180648083F4
:104E2000232BA1F483B7817F846083BFF89483B779
:104E3000816083BF85B7806685BF8F7D85BF78948D
:104E4000889583B78E7F83BF78940EC083B7817FA8
:104E5000846083BFF89483B7816083BF789488951A
:104E600083B78E7F83BF7894452B29F4EAE7F0E07F
:104E700080818068808308951F920F920FB60F92F1
:104E800011248F9388E10FB6F894809360001092FC
:104E900060000FBE8F910F900FBE0F901F9018955E
:104EA0000895823008F00895E82FF0E0EE0FFF1F1C
:104EB000E85EFE4F71836083813061F48091690008
:104EC000440F551F440F551F837F842B8093690027
:104ED000E99A0895809169008C7F842B8093690002
:104EE000E89A0895823008F00895813061F0E898DA
:104EF000E82FF0E0EE0FFF1FE85EFE4F80E597E23F
:104F0000918380830895E998F3CF1F920F920FB693
:104F10000F9211242F933F934F935F936F937F933F
:104F20008F939F93AF93BF93EF93FF93E0911801FB
:104F3000F09119010995FF91EF91BF91AF919F9168
:104F40008F917F916F915F914F913F912F910F9032
:104F50000FBE0F901F9018951F920F920FB60F92D1
:104F600011242F933F934F935F936F937F938F936E
:104F70009F93AF93BF93EF93FF93E0911A01F0914A
:104F80001B010995FF91EF91BF91AF919F918F9177
:104F90007F916F915F914F913F912F910F900FBE35
:104FA0000F901F9018951F920F920FB60F92112419
:104FB0002F933F938F939F93AF93BF9380917B04E5
:104FC00090917C04A0917D04B0917E0430917A048C
:104FD00026E0230F2D3768F129E8230F0396A11D42
:104FE000B11D20937A0480937B0490937C04A0935A
:104FF0007D04B0937E0480917F0490918004A09101
:105000008104B09182040196A11DB11D80937F049B
:1050100090938004A0938104B0938204BF91AF91D8
:105020009F918F913F912F910F900FBE0F901F90E6
:1050300018950296A11DB11DD4CF2FB7F894609199
:105040007B0470917C0480917D0490917E042FBF3D
:1050500008953FB7F89480917F0490918004A091C7
:105060008104B091820426B5A89B05C02F3F19F09A
:105070000196A11DB11D3FBF6627782F892F9A2F5A
:10508000620F711D811D911D660F771F881F991F6B
:10509000660F771F881F991F660F771F881F991F3C
:1050A00008958F929F92AF92BF92CF92DF92EF922C
:1050B000FF926B017C010E9429284B015C01C11405
:1050C000D104E104F104E9F00E94352F0E9429285F
:1050D000681979098A099B09683E73408105910521
:1050E00070F321E0C21AD108E108F10888EE880EB9
:1050F00083E0981EA11CB11CC114D104E104F10489
:1051000029F7FF90EF90DF90CF90BF90AF909F90E6
:105110008F900895789484B5826084BD84B5816051
:1051200084BD85B5826085BD85B5816085BDEEE6AF
:10513000F0E0808181608083E1E8F0E0108280818E
:1051400082608083808181608083E0E8F0E08081FC
:1051500081608083E1EBF0E0808184608083E0EB1C
:10516000F0E0808181608083EAE7F0E08081846004
:10517000808380818260808380818E7F8083808134
:10518000806880831092C10008958330E9F038F080
:10519000873069F0883011F1843079F008958130DA
:1051A000C9F0823081F484B58F7D84BD08958091EB
:1051B000B0008F778093B0000895809180008F7D3C
:1051C0008093800008950895809180008F77809368
:1051D0008000089584B58F7784BD08958091B000D4
:1051E0008F7D8093B0000895CF93DF9390E0FC0112
:1051F000E056FF4F2491FC01EC54FF4F849188232B
:10520000B9F090E0880F991FFC01E452FF4FA5917F
:10521000B4918E529F4FFC01C591D4919FB76623E4
:1052200051F06230A1F0F8948C91822B8C939FBF47
:10523000DF91CF910895F8948C91209582238C93DF
:105240008881822388839FBFDF91CF910895F8944E
:105250008C91322F309583238C938881822B888385
:105260009FBFE6CF0F931F93CF93DF931F92CDB7CE
:10527000DEB7282F30E0F901E457FF4F8491F901A0
:10528000E056FF4F0491F901EC54FF4F14911123A4
:1052900099F081111BC0E12FF0E0EE0FFF1FEE52DD
:1052A000FF4FA591B4918FB7F8949C9161110AC0FA
:1052B000009590239C938FBF0F90DF91CF911F910A
:1052C0000F910895902B9C938FBFF6CF69830E9416
:1052D000C5286981E0CFCF93DF93282F30E0F90113
:1052E000E457FF4F8491F901E056FF4FD491F90143
:1052F000EC54FF4FC491CC23B1F0811119C0EC2FB5
:10530000F0E0EE0FFF1FE853FF4FA591B4912C91F1
:105310002D2381E090E019F0DF91CF91089580E096
:10532000DF91CF91089580E090E0DF91CF910895D3
:105330000E94C528E4CFFC01818D228D90E0805C25
:105340009F4F821B91098F7399270895FC01918DBE
:10535000828D981731F0828DE80FF11D858D90E0D8
:1053600008958FEF9FEF0895FC01918D828D98171E
:1053700061F0828DDF01A80FB11D5D968C91928D39
:105380009F5F9F73928F90E008958FEF9FEF089536
:105390008AE59BE2892B49F080E090E0892B29F097
:1053A0000E945A2B81110C9400000895FC01848DF9
:1053B000DF01A80FB11DA35ABF4F2C91848D90E03F
:1053C00001968F739927848FA689B7892C93A0891A
:1053D000B1898C9180648C93938D848D98130895FA
:1053E0000288F389E02D80818F7D80830895CF939B
:1053F000DF93EC01888D8823B9F0EA89FB89A889BD
:10540000B989808185FF0DC00FB607FCFACF808176
:1054100085FFF7CF8C9185FFF4CFCE010E94D6296E
:10542000ECCF8C9186FFF0CFDF91CF910895CF9292
:10543000DF92FF920F931F93CF93DF931F92CDB70D
:10544000DEB76C0181E0D60158968C9358975B9635
:105450009C915B975C968C915C979817D1F1F601C3
:10546000038D10E00F5F1F4F0F731127F02E03C045
:105470000FB607FE20C0F601848DF816C9F3838DA0
:10548000E80FF11DE35AFF4F6083D6015B960C9342
:105490005B975296ED91FC91539780818062808357
:1054A00081E090E00F90DF91CF911F910F91FF90DD
:1054B000DF90CF900895D6015096ED91FC915197D1
:1054C000808185FFD8CFC60169830E94D629698172
:1054D000D2CF5096ED91FC915197808185FFBFCF3F
:1054E000D6015696ED91FC91579760835096ED91B9
:1054F000FC915197808180648083D2CFBF92CF92FC
:10550000DF92EF92FF920F931F93CF93DF93EC0103
:105510006A017B01B22E60E874E88EE190E0A70199
:1055200096010E940A3221503109410951095695CC
:105530004795379527958901E889F98982E0808325
:10554000211580E13807A0F0E889F989108260E42C
:1055500072E48FE090E0A70196010E940A32215088
:105560003109410951095695479537952795890184
:10557000EC85FD851083EE85FF850083188EEC8910
:10558000FD89B082EA89FB89808180618083EA8914
:10559000FB89808188608083EA89FB8980818068BB
:1055A0008083EA89FB8980818F7D8083DF91CF9121
:1055B0001F910F91FF90EF90DF90CF90BF900895D3
:1055C000CF93DF93EC01E881F9810284F385E02D2C
:1055D0000995EA89FB8980818F7E8083EA89FB892E
:1055E0008081877F8083EA89FB8980818F778083B0
:1055F000EA89FB8980818F7D80838A8D898FDF9105
:10560000CF9108951F920F920FB60F9211242F93EE
:105610008F939F93EF93FF93E0919304F091940401
:105620008081E0919904F0919A0482FD1BC0208151
:1056300080919C048F5F8F7390919D04891741F036
:10564000E0919C04F0E0ED57FB4F258F80939C0484
:10565000FF91EF919F918F912F910F900FBE0F901F
:105660001F9018958081F4CF1F920F920FB60F9262
:1056700011242F933F934F935F936F937F938F9357
:105680009F93AF93BF93EF93FF9383E894E00E94BF
:10569000D629FF91EF91BF91AF919F918F917F910B
:1056A0006F915F914F913F912F910F900FBE0F908F
:1056B0001F90189583E894E00E949B2921E0892B94
:1056C00009F420E0822F0895109286041092850438
:1056D00088EE93E0A0E0B0E0809387049093880484
:1056E000A0938904B0938A0486E192E090938404A5
:1056F0008093830485EC90E09093900480938F04D2
:1057000084EC90E0909392048093910480EC90E07C
:10571000909394048093930481EC90E0909396048A
:105720008093950482EC90E0909398048093970482
:1057300086EC90E090939A048093990410929C04D4
:1057400010929D0410929E0410929F04089580E090
:1057500090E0089508950E948A280E94AA2B0E9432
:1057600076040E94F60488EC99E2892B29F00E94C5
:10577000C8290E94F604FBCF0E94F6040E94F6049A
:10578000FBCFCF92DF92EF92FF920F931F93CF93B5
:10579000DF937C016A0141155105F9F08B01C0E0EE
:1057A000D0E004C02196CC16DD0669F0D8016D91D9
:1057B0008D01D701ED91FC910190F081E02DC701A1
:1057C0000995892B79F7CE01DF91CF911F910F9128
:1057D000FF90EF90DF90CF900895C0E0D0E0F3CF3E
:1057E000DC01ED91FC91DB0114964D915C911597D4
:1057F0006D917C910280F381E02D09946115710512
:1058000081F0DB010D900020E9F7AD014150510915
:10581000461B570BDC01ED91FC910280F381E02DDA
:10582000099480E090E00895DC01ED91FC910190F5
:10583000F081E02D09940F931F93CF93DF93EC0138
:105840006115710511F1FB0101900020E9F7AF012D
:1058500041505109461B570BE881F9810280F381C1
:10586000E02D09958C01E881F9810280F381E02D1A
:1058700042E050E062E272E0CE010995800F911F94
:10588000DF91CF911F910F91089500E010E0EBCFD1
:105890008F929F92AF92BF92DF92EF92FF920F93FF
:1058A0001F93CF93DF93CDB7DEB7A1970FB6F894D0
:1058B000DEBF0FBECDBF7C01F42FD52ECB0119A2C8
:1058C000223008F44CC0822E912CA12CB12C8E01D8
:1058D0000F5D1F4F08C0E0E3E60FD801EC93232BC8
:1058E000242B252BA9F06F2F7D2DA50194010E945B
:1058F0000A32F22FD32ECA01015011096A305CF32B
:10590000E7E3E60FD801EC93232B242B252B59F743
:105910000115110551F1F80101900020E9F7AF01DF
:1059200041505109401B510BD701ED91FC91028070
:10593000F381E02DB801C7010995A1960FB6F8943F
:10594000DEBF0FBECDBFDF91CF911F910F91FF90B2
:10595000EF90DF90BF90AF909F908F9008952AE0D6
:10596000822E912CA12CB12CB2CF80E090E0E5CF1B
:105970002115310511F00C94482CDC01ED91FC91BE
:105980000190F081E02D642F09940F931F93CF9322
:10599000DF93EC019A01AB0160E070E00E94B82C4B
:1059A0008C01E881F9810280F381E02D42E050E032
:1059B00062E272E0CE010995800F911FDF91CF91D5
:1059C0001F910F9108954F925F926F927F92AF92C5
:1059D000BF92CF92DF92EF92FF920F931F93CF93DC
:1059E000DF93CDB7DEB729013A01621B730B840B3D
:1059F000950B29893A894B895C892A193B094C09FD
:105A00005D09298B3A8B4B8B5C8B9B01AC016989BF
:105A10007A898B899C890E94FA31E418F508060975
:105A20001709A80197010E942C322A0D3B1D4C1D1D
:105A30005D1DCA01B901DF91CF911F910F91FF90B8
:105A4000EF90DF90CF90BF90AF907F906F905F907E
:105A50004F900895FC01808191810C9400340F9344
:105A60001F93CF93DF93EC018B018881998100977D
:105A700029F02A813B812617370788F4B8016F5F28
:105A80007F4F0E948F34009781F0998388831B8316
:105A90000A832C813D81232B11F4FC01108281E0CB
:105AA000DF91CF911F910F91089580E0F9CFEF9290
:105AB000FF920F931F93CF93DF93EC017B018A0139
:105AC000BA010E942F2D811114C0888199810097FD
:105AD00011F00E940034198218821D821C821B82E0
