:100000000C94F3000C94B0270C94D7270C9456064C
:100010000C9456060C9456060C9467270C941B01FE
:100020000C941B010C941B010C941B010C94D826FE
:100030000C941B010C941B010C941B010C941B01D0
:100040000C94FE270C941B010C94FE2A0C94302B6C
:100050000C941B010C941B010C941B010C941B01B0
:100060000C941B010C941B018E259E25A425AA250A
:10007000B025B625BC25CF257725DC25E125E6254D
:10008000EB25EF25F525FB258225882500000008B6
:10009000000201000003040700000000000000004F
:1000A000010204081020408001020408102001020F
:1000B00004081020040404040404040402020202DC
:1000C00002020303030303030000000023002600D1
:1000D000290000000000250028002B00000000007F
:1000E000240027002A0000407A10F35A00A0724E24
:1000F00018090010A5D4E80000E87648170000E4CD
:100100000B54020000CA9A3B000000E1F505000014
:1001100080969800000040420F000000A086010079
:100120000000102700000000E80300000000640049
:10013000000000000A0000000000010000000000B4
:100140002C76D888DC674F0823DFC1DFAE59E1B1D8
:10015000B796E5E3E453C63AE651997696E8E6C2E7
:100160008426EB898C9B62ED407C6FFCEFBC9C9FEE
:1001700040F2BAA56FA5F490055A2AF75C936B6C10
:10018000F9676DC11BFCE0E40D47FEF520E6B50004
:10019000D0ED902E0300943577050080841E080072
:1001A00000204E0A000000C80C333333330F986E22
:1001B00012831141EF8D2114893BE65516CFFEE6DF
:1001C000DB18D1844B381BF77C1D901DA4BBE424A5
:1001D000203284725E228100C9F124ECA1E53D2722
:1001E0005A04602B8D0411241FBECFEFD8E0DEBF70
:1001F000CDBF12E0A0E0B1E0E2EBF1E702C0059074
:100200000D92AC33B107D9F725E0ACE3B2E001C001
:100210001D92A337B207E1F711E0C4EED1E004C0AC
:100220002297FE010E947632C03ED107C9F70E9494
:10023000A72B0C94CC380C940000089582E492E033
:100240000C94212D80917503813029F061E084E7C1
:1002500093E00C94DD0B60E084E793E00C94DD0BFD
:10026000CF93DF93C3EAD3E0688181E068278CE80D
:1002700093E00E94B622888180937D0384E793E017
:10028000DF91CF910C94D80B8091A303882399F12F
:100290008091A6038A30B9F08AE08093A60380910A
:1002A0007E0390917F039093A5038093A4038CE831
:1002B00093E00E946F248091A60380937A0384E7E1
:1002C00093E00C94D80B80917B038093A6038091DC
:1002D0008003909181039093A5038093A4038CE8FD
:1002E00093E00E94A7248091A60380937A0384E779
:1002F00093E00C94D80B61E08CE893E00E94B62266
:1003000081E080937D0384E793E00C94D80B40E078
:100310005BE460E070E083EB93E00E94650741E0FE
:1003200050E062E070E082ED93E00E943F0884E4D8
:1003300091E09093EF038093EE0382E291E090933B
:10034000F3038093F20383E593E09093F5038093A6
:10035000F40380E391E09093F1038093F00380E84D
:1003600096EEA5ECB7E48093F6039093F703A09381
:10037000F803B093F90380EE92E00E94DB178DE75B
:1003800092E00E944A1584E793E00C946B0C0F9363
:100390001F93CF93DF938C01EB01109241021092D7
:1003A000400210923F0210923E028C819D81892B67
:1003B00039F160E070E001C0B901CE010E94DB2E8E
:1003C000FC01408150E050933D0240933C0220915B
:1003D0004002309141022427352730934102209377
:1003E000400220913E0230913F022F5F3F4F3093F9
:1003F0003F0220933E024C815D8124173507E0F2D5
:100400006CE171E0C8010E94FA2BBE01C8010E9494
:10041000EC2B6EE171E0C8010E94FA2B6091400262
:100420007091410240E150E0C801DF91CF911F91EE
:100430000F910C94BC2C80914802882309F46CC065
:1004400060E271E082E492E00E94C22D60918D0230
:1004500070918E0280918F02909190020E9467307D
:1004600026E636E646E650E40E94693120E030E0B8
:1004700048EC52E40E94C82FAB01BC0182E492E038
:100480000E94A92E6EE271E082E492E00E94222E88
:100490006091F1027091F2028091F3029091F40266
:1004A00024E630E040E050E00E945532BA01A90154
:1004B00082E492E00E94452E69E271E082E492E0DB
:1004C0000E94222E80917402882321F0809175036E
:1004D000813081F16091FF027091000380910103EE
:1004E000909102030E94673020E030E048EC52E433
:1004F0000E94C82FAB01BC0182E492E00E94772EDB
:100500006BE271E082E492E00E94222E62E472E0EB
:1005100081ED94E00C94C7016CE272E082E492E019
:100520000E947F2D81E0809348028EE191E00E943D
:10053000A32B86CF6091790270917A0280917B0221
:1005400090917C02CFCFCF93DF9300D000D000D02A
:10055000CDB7DEB76CE272E0CE0101960E947F2D2E
:1005600060E371E0CE0101960E94C22DBE016F5F73
:100570007F4F83EB93E00E94C7016FE571E0CE01EE
:1005800001960E94C22DBE016F5F7F4F83EB93E007
:100590000E94C70169E671E0CE0101960E94C22D5A
:1005A000BE016F5F7F4F83EB93E00E94C70163E75B
:1005B00071E0CE0101960E94C22DBE016F5F7F4F98
:1005C00083EB93E00E94C7016DE771E0CE010196D5
:1005D0000E94C22DBE016F5F7F4F83EB93E00E94AC
:1005E000C70167E871E0CE0101960E94C22DBE01ED
:1005F0006F5F7F4F83EB93E00E94C701CE010196AE
:100600000E94212D26960FB6F894DEBF0FBECDBFF7
:10061000DF91CF9108950F931F9363E971E089ED06
:1006200092E00E94C22D69ED72E083EB93E00E949C
:10063000C70100E010E021E030E04CEB52E060E563
:1006400070E08CE893E00E94552268EE73E080E051
:1006500090E00E947C2840E050E06DE171E080E095
:100660000E947C2720E030E040E050E06AE070E04B
:1006700087EC94E00E941A2780E00E949D276DE994
:1006800071E089ED92E00E94C22D69ED72E083EB8A
:1006900093E00E94C7016091750384E793E01F9186
:1006A0000F910C94DD0B0E940B0381E08093970265
:1006B0000895CF93DF9300D000D000D0CDB7DEB740
:1006C000E091B303F091B4030480F581E02D83EB56
:1006D00093E00995181619068CF5E091B303F09193
:1006E000B4030680F781E02D83EB93E009958A320D
:1006F00041F08A3029F3682F87EA93E00E94322E76
:10070000DFCF6AE287EA93E00E94322E67EA73E065
:10071000CE0101960E94B92DBE016F5F7F4F84E725
:1007200093E00E94B60CCE0101960E94212D6CE24E
:1007300072E087EA93E00E94C22DC2CF26960FB6E0
:10074000F894DEBF0FBECDBFDF91CF9108950E9418
:10075000092F892F8095881F8827881F0895FF9269
:100760000F931F93CF93DF9380917402882329F016
:1007700080917503813009F457C080EE92E00E94A9
:1007800072188091F502882319F10091E40210910A
:10079000E502D091E602C091E702B091E802A09193
:1007A000E902F091EA02F090EB0298014D2F5C2FE4
:1007B0006B2F7A2F8F2F9F2D203AE6E83E07E1E03E
:1007C0004E075105610571058105910509F094F405
:1007D0008DE792E00E94C0158091F602882321F0F7
:1007E000809175038130B9F0DF91CF911F910F9106
:1007F000FF9008950E94613020E030E44CE156E41F
:100800000E94C82F6093F6037093F7038093F80358
:100810009093F903DDCF80E592E0DF91CF911F91B6
:100820000F91FF900C9494098DE792E00E94C015FF
:10083000A4CF4F925F926F927F928F929F92AF92CE
:10084000BF92CF92DF92EF92FF920F931F932B01F3
:100850003C0149015A01C801B7010E9469316B018D
:100860007C01C301B2010E9467302B013C01A5014C
:10087000940160E070E080E89FE30E945F2F9B019D
:10088000AC01C301B2010E946931A70196010E9427
:10089000602F0E9430301F910F91FF90EF90DF90FA
:1008A000CF90BF90AF909F908F907F906F905F9010
:1008B0004F90089582ED93E00E94180820E048E0F0
:1008C00067E083EB93E00E9435076CE272E08DEA0B
:1008D00093E00E947F2D6CE272E087EA93E00E9431
:1008E0007F2D8CE893E00E94F51E84E793E00E9440
:1008F000620B67E780EE92E00E94D7176CE272E02D
:1009000089ED92E00E947F2D68E28DE792E00E94DF
:100910003B1580E592E00C94890989ED92E00E94F4
:10092000212D87EA93E00E94212D8DEA93E00E9419
:10093000212D83EB93E00C94D40681ED94E00E948A
:10094000B92918161906DCF481ED94E00E94D22929
:10095000843241F08A3089F3682F8DEA93E00E9457
:10096000322EEBCF6DEA73E081ED94E00E94102C03
:100970006CE171E08DEA93E00E94C22DDECF089514
:100980000F931F93CF93DF9300D000D000D0CDB74B
:10099000DEB78091DF02882309F44EC00E9459031C
:1009A0008091DF02882361F180917402882329F00D
:1009B00080917503813009F485C04091FB0250910C
:1009C000FC026091FD027091FE028CE893E00E94AF
:1009D000C6200E94AF030E949D040E9448280091F7
:1009E0000A0110910B0120910C0130910D01601B47
:1009F000710B820B930B653F71408105910578F473
:100A000082ED93E00E944B0826960FB6F894DEBF65
:100A10000FBECDBFDF91CF911F910F9108950E941E
:100A20001B020E94482860930A0170930B01809377
:100A30000C0190930D01E4CF0E944828613E7E4254
:100A40008105910508F4AACF83EB93E00E940E087C
:100A500040E855E260E070E083EB93E00E946507B8
:100A60006CE272E0CE0101960E947F2D62EA71E095
:100A7000CE0101960E94C22DBE016F5F7F4F83EBB6
:100A800093E00E94C70183EB93E00E940E0840E0D0
:100A90005BE460E070E083EB93E00E9465070E94F6
:100AA000A30226E040E05BE460E070E081ED94E0CA
:100AB0000E949C2A81E08093DF02CE0101960E9471
:100AC000212D6CCF40917502509176026091770292
:100AD000709178028CE893E00E94C6207ACF209132
:100AE0007C0430917D0428173907B9F49091FA03FA
:100AF0008091FB03981789F0E091FA03F0E0E4504D
:100B0000FC4F80812091FA0330E02F5F3F4F2F7719
:100B100033272093FA0390E008958FEF9FEF089515
:100B20001F93CF93DF93EC012C8D3D8D2115310563
:100B300009F438C0A989BA894889542F50951FB73C
:100B40008E8D81FB772770F981FD6095F8948C91EB
:100B5000711115C085238C93C9010197F1F788E0C5
:100B600008C0942B9C93F9013197F1F76695815059
:100B700049F09C9160FDF5CF95239C93F4CF842B95
:100B80008C93EACF8C917723B9F085238C931FBF88
:100B90008C8D9D8D0197F1F781E090E0DF91CF91F1
:100BA0001F91089581E090E09B838A8380E090E02C
:100BB000DF91CF911F910895842B8C93E8CF0895F6
:100BC00020917C0430917D042817390781F490919D
:100BD000FA038091FB03981751F0E091FA03F0E0DB
:100BE000E450FC4F8081992787FD909508958FEF01
:100BF0009FEF089520917C0430917D0428173907D8
:100C000019F080E090E008952091FB038091FA03B1
:100C100030E020583F4F281B31092F77307837FDBF
:100C200002C0C90108952150310920683F6F2F5F2C
:100C30003F4FF7CFDC015396ED91FC915497208103
:100C400055968C9180958223808310927D0410921A
:100C50007C0481E00895CF93DF93EC018A8D9B8D16
:100C6000892B01F180917C0490917D048C179D0764
:100C7000C9F0009711F00E941A068E8D8E7F8E8F1C
:100C80001092FB031092FA03D0937D04C0937C046E
:100C9000EB89FC8980819D89892B808381E0DF91AC
:100CA000CF91089580E0DF91CF9108951F920F9228
:100CB0000FB60F9211242F933F934F935F936F932F
:100CC0007F938F939F93AF93BF93EF93FF93E091A5
:100CD0007C04F0917D04309709F449C0868DA68587
:100CE000B78581FD55C08C919585892309F03FC05A
:100CF000A389B4899C918589809589238C93868961
:100D000097890197F1F7208D318DA685B785758577
:100D100058E060E0C9010197F1F7862F90E09595C2
:100D20008795682F4C91472309F06068515091F7DF
:100D3000868D81FD33C08091FB0390E001968F7713
:100D400099272091FA03281759F1A091FB03B0E0ED
:100D5000A450BC4F6C938093FB03828D938D0197BD
:100D6000F1F7A389B4898C919589892B8C93FF9194
:100D7000EF91BF91AF919F918F917F916F915F9113
:100D80004F913F912F910F900FBE0F901F9018958C
:100D90008C919585892309F0ABCFE9CF6095CBCFB6
:100DA000868D8160868FD9CF24EB31E0FC013183C1
:100DB000208320917C0430917D048217930709F0F1
:100DC00008950C941A061F93CF93DF93EC01162F0E
:100DD0006E8D6695617081E06827812F0E94502991
:100DE00061E0812F0E941229812F90E0FC01E056E2
:100DF000FF4FE491E88BFC01EC54FF4FE491F0E0ED
:100E0000EE0FFF1FEE52FF4F859194919A8B898BC5
:100E1000DF91CF911F9108951F93CF93DF93EC0142
:100E2000162F60E0812F0E9412298E8D81FD04C053
:100E300061E0812F0E9450291C87612F70E0FB0127
:100E4000E056FF4FE491ED87FB01EC54FF4FE49136
:100E5000F0E0EE0FFF1FE853FF4F859194919F87BD
:100E60008E87DF91CF911F910895FF920F931F936B
:100E7000CF93DF93EC01F62E522F1B821A8208EEDD
:100E800013E020E030E00C831D832E833F8384EB4E
:100E900091E0998388831F8A1E8A198E188E1B8E73
:100EA0001A8E1D8E1C8E8E8D8E7F50FB81F98E8F3B
:100EB000642FCE010E94E3066F2DCE01DF91CF910A
:100EC0001F910F91FF900C940C07CF93DF93EC01CF
:100ED0009A01AB011B8E1A8E198E188E1F8A1E8ADC
:100EE00060E874E88EE190E00E945532C901243038
:100EF000310508F457C0B901635071097D8F6C8FBB
:100F0000EC85E63108F049C0B90176956795643102
:100F1000710508F04AC061E070E07F8B6E8B069728
:100F200008F047C081E090E0998F888FC901880F51
:100F3000991F820F931F96958795969587958D306B
:100F40009105D0F10C979B8F8A8F90916800E830C3
:100F5000D8F121E0EE3008F45CC081E001C0880FD8
:100F60002A95EAF7892B809368002C85283098F120
:100F70002E3008F443C0263108F04DC08CE690E0D6
:100F80009C8B8B8B2E5081E001C0880F2A95EAF74D
:100F90008D8B8C8D9D8D0197F1F7CE01DF91CF91D7
:100FA0000C942B0661E070E0A9CF635171097F8B2F
:100FB0006E8BC9010597B8CF81E090E09B8F8A8F37
:100FC00090916800E83028F684E0892B80936800CF
:100FD0002C85283068F68DE690E09C8B8B8B81E029
:100FE00001C0880F2A95EAF78D8B8C8D9D8D019716
:100FF000F1F7CE01DF91CF910C942B068BE690E0B8
:101000009C8B8B8B285081E001C0880F2A95EAF7D2
:10101000EBCF20E0A2CF80E090E0B2CF20917C0423
:1010200030917D048217930709F008950C941A06F5
:10103000FC0184E190E0948383838AEF90E09683BF
:10104000858388EE93E09087878380E797E1928796
:10105000818781E0838784871586168617864FEF00
:101060005FEFBA01408B518B628B738B448B558B36
:10107000668B778B108E118E128E138E0895FC0165
:10108000862F6083718391E0452B09F490E0928371
:1010900062E00C9412298F929F92AF92BF92CF92EE
:1010A000DF92EF92FF92CF93DF93EC010E944828EA
:1010B0006B017C0188810E94892921E0019709F058
:1010C00020E02B878A812817F1F19C85891709F484
:1010D000CAC0488959896A897B89C41AD50AE60A2F
:1010E000F70A49855A85662757FD6095762FC416FD
:1010F000D506E606F70664F42C87DF91CF91FF90C2
:10110000EF90DF90CF90BF90AF909F908F90089519
:101110008A8D8111F1CF81E0898F888F1E861D868F
:101120008A8F2C87EAA1FBA1309739F388819981B6
:10113000DF91CF91FF90EF90DF90CF90BF90AF9075
:101140009F908F9009943C85231739F1888999895C
:10115000AA89BB89B701A601481B590B6A0B7B0BF7
:101160008B819C81AA2797FDA095BA2F841795079C
:10117000A607B70794F4888D81110FC0CC8ADD8A49
:10118000EE8AFF8A8E858111B1C081E08D87812C26
:10119000912C540180E090E00CC08C899D89AE892F
:1011A000BF8946015701881A990AAA0ABB0A80E03A
:1011B00090E04D815E81662757FD6095762F8416FD
:1011C0009506A606B7067CF04D85442361F04E8552
:1011D000411109C04F85442331F08230910519F047
:1011E0001D8681E090E0231799F1488959896A8921
:1011F0007B89C41AD50AE60AF70A4F815885662703
:1012000057FD6095762FC416D506E606F70604F15D
:1012100049855A85662757FD6095762FC416D506F1
:10122000E606F706ACF43A8D311112C081E0898FE1
:10123000888F1E861D868A8F2C8783E090E0039717
:1012400009F05BCFE8A1F9A1309709F06FCF55CF36
:101250002C878130910509F052C0EC8DFD8D3097BF
:1012600009F064CF4ACF8C899D89AE89BF89B701C7
:10127000A601481B590B6A0B7B0BDB01CA014B8192
:101280005C81662757FD6095762F481759076A07D6
:101290007B07ECF4C88AD98AEA8AFB8A188E198EF1
:1012A00031E03F871A8E1B8E4D815E81662757FD88
:1012B0006095762F84179507A607B7078CF48E855F
:1012C00081110EC08D85882359F03E870AC0888918
:1012D0009989AA89BB89C81AD90AEA0AFB0A01CFE7
:1012E0001E861D86C12CD12C7601FBCE1E861D8646
:1012F0001F86812C912C540182E090E05ACF8230DD
:10130000910509F09CCFEE8DFF8D309709F00ECF3F
:10131000F4CE40E050E06CE072E4FC0140A351A345
:1013200062A373A314A208952F923F924F925F92EB
:101330006F927F928F929F92AF92BF92CF92DF92E5
:10134000EF92FF920F931F93CF93DF93CDB7DEB74A
:101350002A970FB6F894DEBF0FBECDBF9A87898754
:10136000C0909C02D0909D02E0909E02F0909F025F
:1013700020E030E0A901C701B6010E9465311816CE
:101380000CF089C120E034E640E455E4C701B60121
:101390000E94693120918102309182024091830242
:1013A000509184020E9469312091F6033091F70335
:1013B0004091F8035091F9030E94C82F6B017C0102
:1013C000E985FA85608B718B828B938B6091ED023E
:1013D0007091EE028091EF029091F0020E946730CE
:1013E0002AE037ED43E25CE30E9469314B015C0186
:1013F00060918A0370918B03882777FD8095982FE1
:101400000E9467309B01AC01C701B6010E9469319F
:101410002FE73AE64CE35CE30E9469319B01AC01A3
:10142000C501B4010E94602F2B013C01CB01D30107
:10143000E985FA85848F958FA68FB78FC488D58864
:10144000E688F78820E030E0A901B601C7010E94D4
:10145000C42F882309F415C1E985FA85208C318CC5
:10146000028D138D9601A701B201C3010E945F2F67
:101470002BE734E14EEA5DE30E9469319601A70152
:101480000E94602F4B015C01E985FA85648B758BA6
:10149000868B978B9101A801B201C3010E945F2F37
:1014A0002DEC3CEC4CEC5DE30E9469319101A8010C
:1014B0000E94602FE985FA85608F718F828F938FEC
:1014C000A50194010E945F2F20EB38E54AE059E422
:1014D0000E9469312091F7023091F8024091F9029F
:1014E0005091FA020E94C82FE985FA8564837583BA
:1014F00086839783208131814281538129833A8376
:101500004B835C830E945F2F4B015C0120E030E045
:10151000A9010E9465312401350118160CF0B6C0EE
:10152000E985FA85408651866286738620E030E040
:1015300048EC52E4C301B2010E94C42FE985FA8548
:10154000C0A0D1A0E2A0F3A01816F4F520E030E08E
:1015500046E153E4C701B6010E94653187FF34C0FC
:1015600020E030E04AE754E4C301B2010E94653153
:1015700087FF9BC0A701960160E070E086E193E4DD
:101580000E945F2F6D837E838F83988720E030E0F9
:1015900048EC52E4C301B2010E945F2F9B01AC01F1
:1015A0006D817E818F8198850E94693120E030E0D5
:1015B00041E654E40E94C82F9B01AC01C701B6016B
:1015C0000E94602F6B017C01E985FA85C486D5866F
:1015D000E686F786A7019601C501B4010E9469312C
:1015E0002FE632E143E85AE30E9469319B01AC01E6
:1015F00069817A818B819C810E94602FE985FA85BF
:1016000060837183828393830E9430304B015C013D
:10161000E985FA8565A376A387A390A761A572A53E
:1016200083A594A50E9467307B018C0123E333E3FB
:1016300043E75FE3C501B4010E941904E985FA8517
:1016400061A772A783A794A781E084A31092F602F2
:101650002A960FB6F894DEBF0FBECDBFDF91CF91B3
:101660001F910F91FF90EF90DF90CF90BF90AF90C0
:101670009F908F907F906F905F904F903F902F90B2
:1016800008951201830162017301ECCE77FA709420
:1016900077F8709445CFC701B601905820E034E642
:1016A00040E455E40E94693175CE80E090E0A6E107
:1016B000B3E4E985FA8584879587A687B7876C01A7
:1016C0007D0188CF0895CF92DF92EF92FF920F9322
:1016D0001F93CF93DF9300D000D000D0CDB7DEB7FB
:1016E0007B016EE271E0CE0101960E947F2DBE016A
:1016F0006F5F7F4FC7010E94092F6C01CE010196D9
:101700000E94212D6EE171E0CE0101960E947F2D95
:10171000BE016F5F7F4FC7010E94092F8C01CE0170
:1017200001960E94212DA6014F5F5F4F9801B701DE
:10173000CE0101960E940D2FCE0101960E94532FDB
:101740006B017C01CE0101960E94212DC6012696D7
:101750000FB6F894DEBF0FBECDBFDF91CF911F91C2
:101760000F91FF90EF90DF90CF900895EF92FF924E
:101770000F931F93CF93DF937B0128E1E20EF11CBF
:10178000EB018C0101501109061B170B6991C8016F
:101790008C0F9D1F0E942136CE15DF05B9F788E119
:1017A00090E0DF91CF911F910F91FF90EF900895FE
:1017B000BC0180E090E00C94B60B0F931F93CF9385
:1017C000DF93EC0169836623D9F080E293E0909384
:1017D000A2038093A10308E210E023E030E044EB91
:1017E00050E064EF71E08CE893E00E945522BE0166
:1017F00080E090E0DF91CF911F910F910C94B60B98
:1018000080E991E09093A2038093A10304E110E0AA
:1018100024E030E040E550E068E572E08CE893E0D9
:101820000E945522E4CFFC0185E08083118281E093
:1018300081878CE89AE09387828784EF91E095878F
:10184000848729E027838AE080878FE090E0938374
:10185000828386E09FEF95838483268384E690E0ED
:10186000978786872FE530E0318B208B138A128A89
:1018700021E430E0358B248B978B868BBF0180E091
:1018800090E00C94B60BEF92FF920F931F93CF93BF
:10189000DF937C018C01C0E0D0E0CE010E941936BC
:1018A000F80181938F012196C831D105B1F7F70175
:1018B0008081853049F0C701DF91CF911F910F9151
:1018C000FF90EF900C94130CDF91CF911F910F912B
:1018D000FF90EF900895AF92BF92CF92DF92EF9278
:1018E000FF920F931F93CF93DF93EC010E94430C61
:1018F0006C897D89882777FD8095982F1F921F928C
:101900001F9228E72F934AE0A42EB12CC12CD12C92
:1019100014E6E12EF12C00E010E020E030E0A90117
:101920000E94DA2C709306036093050389858093E7
:10193000A3038E818093A6030F900F900F900F90BA
:101940008A3030F48C859D859093A5038093A40301
:101950006981CE01DF91CF911F910F91FF90EF90A0
:10196000DF90CF90BF90AF900C94DD0B3F924F92E1
:101970005F926F927F928F929F92AF92BF92CF921F
:10198000DF92EF92FF920F931F93CF93DF93CDB728
:10199000DEB766970FB6F894DEBF0FBECDBF8C01E1
:1019A0007B0160EC71E0CE0101960E947F2DB701B2
:1019B000CE0107960E94B92DBE016F5F7F4FCE0109
:1019C00007960E94A703D82ECE0107960E94212DCC
:1019D000CE0101960E94212DD110BBC067EC71E0B1
:1019E000CE0101960E947F2DB701CE0107960E947D
:1019F000B92DBE016F5F7F4FCE0107960E94A703EE
:101A0000D82ECE0107960E94212DCE0101960E946C
:101A1000212DD1107EC06FEC71E0CE0101960E94A5
:101A20007F2DB701CE0107960E94B92DBE016F5FD1
:101A30007F4FCE0107960E94A703D82ECE010796AE
:101A40000E94212DCE0101960E94212DD110A7C008
:101A500064ED71E0CE0101960E947F2DB701CE01A9
:101A600007960E94B92DBE016F5F7F4FCE0107968A
:101A70000E94A703D82ECE0107960E94212DCE01E9
:101A800001960E94212DD11070C069ED71E0CE0148
:101A900001960E947F2DB701CE0107960E94B92DB5
:101AA000BE016F5F7F4FCE0107960E94A703D82E1D
:101AB000CE0107960E94212DCE0101960E94212D74
:101AC000DD2009F483C0B701CE0101960E94B92D33
:101AD000BE016F5F7F4FC8010E94630B7C01CE0186
:101AE00001960E94212DFEE5EF16F1E0FF060CF4B1
:101AF000E5C0C70129EBE2162BE0F20614F088EBF3
:101B00009BE0F801938782879093A5038093A403B9
:101B100008C0C8010E94130CB80180E090E00E9448
:101B2000B60B66960FB6F894DEBF0FBECDBFDF9141
:101B3000CF911F910F91FF90EF90DF90CF90BF90CA
:101B4000AF909F908F907F906F905F904F903F905D
:101B50000895B80180E090E00E94B60B63E070E069
:101B60008CE893E00E942C25DCCFB701CE010196D2
:101B70000E94B92DBE016F5F7F4FC8010E94630BA9
:101B80007C01CE0101960E94212D9701F7FC9DC09A
:101B9000319521953109F80135832483C2CFB701EE
:101BA000CE0101960E94B92DBE016F5F7F4FC80123
:101BB0000E94630B7C01CE0101960E94212D9701AA
:101BC000F7FC7FC0F80133832283ABCF6EED71E069
:101BD000CE0101960E947F2DB701CE0107960E948B
:101BE000B92DBE016F5F7F4FCE0107960E94A703FC
:101BF000D82ECE0107960E94212DCE0101960E947B
:101C0000212DDD20F9F0B701CE0101960E94B92DFA
:101C1000BE016F5F7F4FC8010E94630B7C01CE0144
:101C200001960E94212DF0E5EF16F1040CF498C006
:101C3000C7018D38910514F08CE890E0F801978B7E
:101C4000868B6FCF64EE71E0CE0101960E947F2DEE
:101C5000B701CE0107960E94B92DBE016F5F7F4F7D
:101C6000CE0107960E94A703D82ECE0107960E94A8
:101C7000212DCE0101960E94212DDD2051F16E0112
:101C8000FDE0CF0ED11CB701C6010E94B92DB601EF
:101C9000C8010E94630B8E3591400CF098C06EE530
:101CA000E62EFF24F394C6010E94212DF801F5864B
:101CB000E486F092A503E092A40333CF8EE591E091
:101CC00020CF3195219531097DCF3195219531096D
:101CD0005FCF6AEE71E0CE0101960E947F2DB701C1
:101CE000CE0107960E94B92DBE016F5F7F4FCE01D6
:101CF00007960E94A703D82ECE0107960E94212D99
:101D0000CE0101960E94212DDD2069F16E01FDE0DA
:101D1000CF0ED11CB701C6010E94B92DB601C80172
:101D20000E94630B181619060CF0A0C0B701CE0173
:101D300007960E94B92DBE01695F7F4FC8010E94BE
:101D4000630B0A970CF411C159E0F52ECE010796EA
:101D50000E94212DC6010E94212DF801F782E1CEBB
:101D600080E590E06BCF6FEE71E0CE0101960E94AE
:101D70007F2DB701CE0107960E94B92DBE016F5F7E
:101D80007F4FCE0107960E94A703D82ECE0107965B
:101D90000E94212DCE0101960E94212DDD2079F196
:101DA0006E01FDE0CF0ED11CB701C6010E94B92D16
:101DB000B601C8010E94630B09970CF0C1C039E05D
:101DC000F32EC6010E94212DF801F086AACEB7019C
:101DD000CE0107960E94B92DBE01695F7F4FC801F1
:101DE0000E94630B893B9B400CF499C078EBE72E73
:101DF0007BE0F72ECE0107960E94212D54CF64EF91
:101E000071E0CE0101960E947F2DB701CE010796A9
:101E10000E94B92DBE016F5F7F4FCE0107960E94D1
:101E2000A703D82ECE0107960E94212DCE01019640
:101E30000E94212DDD20E9F06E01FDE0CF0ED11CC6
:101E4000B701C6010E94B92DB601C8010E94630BFB
:101E5000863491050CF005C196E4E92EF12CC601FB
:101E60000E94212DF801F786E6865BCEFF24F394CD
:101E700071CF69EF71E0CE0101960E947F2DB7010D
:101E8000CE0107960E94B92DBE016F5F7F4FCE0134
:101E900007960E94A703D82ECE0107960E94212DF7
:101EA000CE0101960E94212DDD2009F46FC06E0144
:101EB000FDE0CF0ED11CB701C6010E94B92DB601BD
:101EC000C8010E94630B97FFB5C0E12CF12CC6013D
:101ED0000E94212DF801F58AE48AB701882777FD51
:101EE0008095982F1F921F921F9228E72F93AAE0A8
:101EF000AA2EB12CC12CD12C14E6E12EF12C00E03D
:101F000010E020E030E0A9010E94DA2C7093060373
:101F1000609305030F900F900F900F9002CEB701C2
:101F2000CE0101960E94B92DBE016F5F7F4FC8019F
:101F30000E94630B7C01CE0101960E94212D5ACF95
:101F4000B701CE0107960E94B92DBE01695F7F4F90
:101F5000C8010E94630B0B970CF49DC04AE0F42E5D
:101F6000CE0107960E94212D2CCFB701CE010196FC
:101F70000E94B92DBE016F5F7F4FC8010E94630BA5
:101F8000F82ECE0101960E94212DE0CE6FEF71E078
:101F9000CE0101960E947F2DB701CE0107960E94C7
:101FA000B92DBE016F5F7F4FCE0107960E94A70338
:101FB000D82ECE0107960E94212DCE0101960E94B7
:101FC000212DD11065C065E072E0CE0101960E941E
:101FD0007F2DB701CE0107960E94B92DBE016F5F1C
:101FE0007F4FCE0107960E94A703D82ECE010796F9
:101FF0000E94212DCE0101960E94212DDD2009F4A1
:102000005BC06E01FDE0CF0ED11CB701C6010E947E
:10201000B92DB601C8010E94630BC2970CF0FEC037
:10202000E2E3EE2EF12CC6010E94212DF801F18A87
:10203000E08A77CDB701CE0107960E94B92DBE0187
:10204000695F7F4FC8010E94630B853691050CF4D0
:10205000D4C084E6E82EF12CCE0107960E94212DF3
:1020600036CFB701CE0107960E94B92DBE01695F38
:102070007F4FC8010E94630B833891050CF454C054
:1020800022E8E22EF12CCE0107960E94212DE7CE08
:102090000E940B0346CDB701CE0101960E94B92DD7
:1020A000BE016F5F7F4FC8010E94630BF82ECE0107
:1020B00001960E94212D54CF6BE072E0CE01019673
:1020C0000E947F2DB701CE0107960E94B92DBE0157
:1020D0006F5F7F4FCE0107960E94A703D82ECE01D7
:1020E00007960E94212DCE0101960E94212DDD2010
:1020F00061F16E01FDE0CF0ED11CB701C6010E9457
:10210000B92DB601C8010E94630B8C3E9F4F0CF0A5
:1021100057C16CEEE62EFF24FA94C6010E94212DD1
:10212000F801F38AE28AFDCCB701CE0101960E9444
:10213000B92DBE016F5F7F4FC8010E94630B7C0108
:10214000CE0101960E94212D9ECF61E172E0CE0169
:1021500001960E947F2DB701CE0107960E94B92DEE
:10216000BE016F5F7F4FCE0107960E94A703D82E56
:10217000CE0107960E94212DCE0101960E94212DAD
:10218000D11063C066E172E0CE0101960E947F2DFE
:10219000B701CE0107960E94B92DBE016F5F7F4F38
:1021A000CE0107960E94A703D82ECE0107960E9463
:1021B000212DCE0101960E94212DDD2009F4B1CC04
:1021C000D090A603F80180858093A603B701CE01C5
:1021D00001960E94B92DBE016F5F7F4FC8010E941A
:1021E000630BBC018CE893E00E947125CE0101963F
:1021F0000E94212DD092A60394CCB701CE01019666
:102200000E94B92DBE016F5F7F4FC8010E94630B12
:102210007C01CE0101960E94212D1ECFB701CE0177
:1022200007960E94B92DBE01695F7F4FC8010E94C9
:10223000630B873991050CF4D8C0F6E9EF2EF12C29
:10224000CE0107960E94212DEECE3090A603F80114
:1022500080858093A6036EE271E0CE0101960E9414
:102260007F2DBE016F5F7F4FC7010E94092F8C0138
:10227000CE0101960E94212D0F5F1F4F6EE271E08B
:10228000CE0101960E947F2DA801BE016F5F7F4F96
:10229000C7010E94ED2E6C01CE0101960E94212DF6
:1022A0009601A801B701CE0101960E940D2FCE0123
:1022B00001960E94532F2B013C01CE0101960E94F2
:1022C000212DFFEFCF1ADF0A6EE271E0CE010196F9
:1022D0000E947F2DA601BE016F5F7F4FC7010E9444
:1022E000ED2E8C01CE0101960E94212D9801A601B0
:1022F000B701CE0101960E940D2FCE0101960E94DA
:10230000532F4B015C01CE0101960E94212D0F5FDE
:102310001F4F6EE271E0CE0101960E947F2DA80151
:10232000BE016F5F7F4FC7010E94ED2E6C01CE0191
:1023300001960E94212D9601A801B701CE010196B8
:102340000E940D2FCE0101960E94532F6B8B7C8B28
:102350008D8B9E8BCE0101960E94212D86010F5FF1
:102360001F4F6EE171E0CE0101960E947F2DA80102
:10237000BE016F5F7F4FC7010E94ED2E6C01CE0141
:1023800001960E94212D9601A801B701CE01019668
:102390000E940D2FCE0101960E94532F6B017C01EC
:1023A000CE0101960E94212D86012B893C89A40132
:1023B000B2018CE893E00E9455223092A603B1CB83
:1023C000B701CE0107960E94B92DBE01695F7F4F0C
:1023D000C8010E94630B4597CCF074E1E72EF12C05
:1023E000CE0107960E94212D98CEB701CE0101960D
:1023F0000E94B92DBE016F5F7F4FC8010E94630B21
:102400007C01CE0101960E94212D1ACFB701CE0189
:1024100001960E94B92DBE016F5F7F4FC8010E94D7
:10242000630B7C01CE0101960E94212DD9CF449AE5
:10243000459AE9EBF0E080818E7F808380818D7FFB
:10244000808380E28093B80084E48093BC00089588
:102450007093A2046093A10408953091A504209183
:10246000A304231B2093A404332341F03150309361
:10247000A504FC01E20FF11D838108951092A404CC
:1024800080E008958F929F92AF92BF92CF92DF9299
:10249000EF92FF920E9448286B017C0184EA8093AE
:1024A000BC002091A1043091A20403C02115310584
:1024B000F9F48091BC0087FFF9CF8091B900887F43
:1024C000883079F18091B900887F803151F1809115
:1024D000B900887F883339F18091B900887FFF90F7
:1024E000EF90DF90CF90BF90AF909F908F90089526
:1024F0000E9448286C197D098E099F092091A1042A
:102500003091A2044901A12CB12C681579058A05E6
:102510009B0578F21092BC0084E48093BC0081E0BB
:10252000DECF80E0DCCF8091B9001092BC0094E453
:102530009093BC00887FD3CF8F929F92AF92BF922F
:10254000CF92DF92EF92FF92CF93C62F0E9448283E
:102550006B017C01CC23D1F184EC8093BC002091F1
:10256000A1043091A20403C021153105B1F480917A
:10257000BC0087FFF9CF8091B900887F883351F183
:102580008091B900887FCF91FF90EF90DF90CF903E
:10259000BF90AF909F908F9008950E9448286C192B
:1025A0007D098E099F092091A1043091A20449015F
:1025B000A12CB12C681579058A059B05C0F21092F3
:1025C000BC0084E48093BC0081E0DDCF84E880938C
:1025D000BC00C5CF8091B9001092BC0094E49093E8
:1025E000BC00887FD0CF8F929F92AF92BF92CF9244
:1025F000DF92EF92FF920E9448286B017C0184E9F0
:102600008093BC002091A1043091A20403C0211545
:10261000310571F48091BC0084FDF9CF80E0FF901A
:10262000EF90DF90CF90BF90AF909F908F900895E4
:102630000E9448286C197D098E099F092091A104E8
:102640003091A2044901A12CB12C681579058A05A5
:102650009B0500F31092BC0084E48093BC0081E0F1
:10266000DECF8F929F92AF92BF92CF92DF92EF9286
:10267000FF921F93CF93DF93EC016093BB000E9406
:1026800048286B017C0184E88093BC002091A10460
:102690003091A20403C02115310569F58091BC0079
:1026A00087FFF9CF8091B900887F8831E9F1809167
:1026B000B900887F8034C1F11091B900187F8091F2
:1026C000B900887F803291F18091B900887F883489
:1026D00069F11092BC0084E48093BC00812FDF91EB
:1026E000CF911F91FF90EF90DF90CF90BF90AF9070
:1026F0009F908F9008950E9448286C197D098E093B
:102700009F092091A1043091A2044901A12CB12C70
:10271000681579058A059B0508F21092BC0084E4CF
:102720008093BC0081E0DBCF80E0D9CFCE010E9456
:10273000F312D4CFCF92DF92EF92FF920F931F93B9
:10274000CF93DF931F92CDB7DEB76C01E42E1092CA
:10275000A5041092A404FC01118269830E94421214
:10276000F60181836981882351F00F90DF91CF9129
:102770001F910F91FF90EF90DF90CF900895660F1B
:102780006F5FC6010E943113F6018183811130C051
:10279000EE2099F18FEF8E0DF601828386010D5F99
:1027A0001F4FF12C18C061E0C6010E949C12F60177
:1027B0008183813079F18035C1F68091BB00F801C9
:1027C00081938F01F394F092A504F092A304FE1478
:1027D000A1F0F60182818F11E6CF60E0C6010E9470
:1027E0009C12F60181838130A9F0883531F3BDCF89
:1027F000813009F0BACF85E0B8CFC6010E94F3124C
:10280000F6018183882309F4B0CF813009F0ADCF80
:1028100087E0ABCF86E0A9CF8F929F92AF92BF9215
:10282000CF92DF92EF92FF921F93CF93DF93EC0151
:102830006093BB000E9448286B017C0184E8809370
:10284000BC002091A1043091A20403C021153105E0
:1028500019F58091BC0087FFF9CF8091B900887F7E
:10286000883299F11091B900187F9091B900987F42
:10287000903369F11092BC0084E48093BC00812FF6
:10288000DF91CF911F91FF90EF90DF90CF90BF909D
:10289000AF909F908F9008950E9448286C197D09F1
:1028A0008E099F092091A1043091A2044901A12C15
:1028B000B12C681579058A059B0558F21092BC0069
:1028C00084E48093BC0081E0DBCF80E0D9CFCE01EF
:1028D0000E94F312812FD4CF0F931F93CF93DF93D6
:1028E000EC01162F042F19820E944212898388233B
:1028F00029F0DF91CF911F910F910895612F660FFD
:10290000CE010E9431138983882341F0813089F7F9
:1029100082E0DF91CF911F910F910895602FCE013A
:102920000E940C148983882321F0813011F783E001
:10293000E0CFCE010E94F3128983882321F08130F9
:10294000C1F687E0D6CF80E0D4CFEF92FF920F930D
:102950001F93CF93DF93EC01162F042FF22E1092CA
:10296000A5041092A404222389F08FEF820F8A839A
:102970001982CE010E9442128983882391F0DF914F
:10298000CF911F910F91FF90EF90089580E0FF2469
:10299000F3948A831982CE010E94421289838111A5
:1029A000EECF110F612FCE010E943113898388234E
:1029B00051F0813021F782E0DF91CF911F910F918B
:1029C000FF90EF900895602FCE010E940C14898330
:1029D000882321F0813099F683E0D1CFCE010E9487
:1029E00042128983882321F0813049F684E0C7CFE1
:1029F00061E0610FCE010E9431138983882329F0A1
:102A0000813009F0BCCF85E0BACF8E010D5F1F4F3A
:102A1000E12C16C061E0CE010E949C1289838130B6
:102A200041F1803509F0ABCF8091BB00F801819373
:102A30008F01E394E092A504E092A304EF1469F0FF
:102A40008A818E11E7CF60E0CE010E949C128983BB
:102A5000813079F0883541F392CFCE010E94F31294
:102A60008983882309F48BCF813009F088CF87E0F0
:102A700086CF86E084CFFC0163A740E050E060E8A9
:102A80007FE343A354A365A376A317A210A611A6C0
:102A900012A60895CF93DF93EC011DA61C8A198E10
:102AA00081E08A8FFE01E85AFF4F80E89CE0A0E0B9
:102AB000B0E080839183A283B3838EE794E00E9489
:102AC000171260E570E08EE794E00E94281244E05F
:102AD0006BA58EE794E00E949A138CA78EE794E092
:102AE0000E942D1288AF8EE794E00E942D1289AFCC
:102AF0008EE794E00E942D128AAF8EE794E00E9448
:102B00002D128BAF98AD907C59F080E090E0A6E953
:102B1000B3E48C839D83AE83BF83DF91CF9108950F
:102B20006AAD70E0762F6627680F711D882777FDE4
:102B30008095982F607E8827992725E09595879521
:102B4000779567952A95D1F7FE01E05CFF4F60838A
:102B50007183828393830E94673023E039E148ECDC
:102B60005DE30E94693120E030E04FE553E40E94CC
:102B7000602F6C837D838E839F83DF91CF91089537
:102B80004F925F926F927F928F929F92AF92BF927D
:102B9000CF92DF92EF92FF920F931F93CF93DF9329
:102BA000EC0142E06BA58EE794E00E949A138CA79B
:102BB000882309F45EC00E944828FE01EC5AFF4FAA
:102BC0006083718382839383349600811181228193
:102BD00033810617170728073907D0F5DC01CB0129
:102BE0008C599F4FAF4FBF4F80839183A283B38394
:102BF000CCA8DDA8EEA8FFA820E030E046E953E429
:102C0000C701B6010E94653118160CF493C0188AEA
:102C1000198A1A8A1B8A1C861D861E861F8681E0D9
:102C20008C8B8A8D8823A1F08E010C5B1F4F28812D
:102C300039814A815B81F801608171818281938150
:102C40000E94602FF80160837183828393831A8EC0
:102C5000DF91CF911F910F91FF90EF90DF90CF9078
:102C6000BF90AF909F908F907F906F905F904F90AC
:102C700008958EE794E00E942D1288AF8EE794E0CD
:102C80000E942D1289AF98AD292F207C09F093CF97
:102C9000C92ED12CDC2CCC24C80ED11C00E2D01AB9
:102CA000EE24D7FCE094FE2CCCAEDDAEEEAEFFAE53
:102CB0008DA5811162C08EA59FA501969FA78EA7A5
:102CC000811511E0910709F42AC1803891050CF0B3
:102CD000FBC0C880D980EA80FB8020E030E0A901F9
:102CE000C701B6010E94653118160CF0FAC0C70181
:102CF000B6012C813D814E815F810E946931209116
:102D0000F6033091F7034091F8035091F9030E94C4
:102D1000C82F0E94D03126E636E949E155E40E94E9
:102D20006931688779878A879B876CAB7DAB8EAB6F
:102D30009FAB41CF688979898A899B890E946730D6
:102D40004B015C01C701B6010E943030850174015E
:102D50002DEC3CEC4CE45FE30E941904688B798B0A
:102D60008A8B9B8B6CA97DA98EA99FA90E9430306C
:102D70006C877D878E879F8752CFFE01EC5BFF4F6C
:102D80004080518062807380C701B6010E94673025
:102D9000A30192010E945F2F4B015C01FE01E85BE1
:102DA000FF4F60837183828393834091BA0404E070
:102DB0004002F0011124E655FB4F80819181A281F0
:102DC000B38197018601081B190B2A0B3B0BC90124
:102DD000B8010091A6041091A7042091A804309195
:102DE000A904600F711F821F931F6093A604709344
:102DF000A7048093A8049093A904C082D182E282A0
:102E0000F3824F5F44300CF05CC04093BA040E94E0
:102E1000673020E030E040E85EE30E946931A301C2
:102E200092010E945F2F6F8F78A389A39AA3C88015
:102E3000D980EA80FB80A7019601C501B4010E94F8
:102E40005F2F4B015C0120E030E0A9010E94653159
:102E50002401350118160CF07DC0FE01E45BFF4F24
:102E6000408251826282738220E030E040E251E48D
:102E7000C301B2010E94C42F1816BCF18FE692E183
:102E8000A3E8BAE3FE01E05BFF4F80839183A28356
:102E9000B3837FE662E183E89AE3272F362FAC0104
:102EA000C501B4010E9469319B01AC01C701B601A3
:102EB0000E94602F6B017C01688379838A839B83E6
:102EC0000CCF1092BA04A3CF88A999A9AAA9BBA92B
:102ED0008C0D9D1DAE1DBF1D88AB99ABAAABBBABC6
:102EE000F8CEC701B601905804CF20E030E048EC9E
:102EF00052E4C301B2010E94653187FD30C08AE00F
:102F000097EDA3E2BCE3FE01E05BFF4F808391837A
:102F1000A283B3837AE067ED83E29CE3BECF8E01A8
:102F20000C5B1F4F68A979A98AA99BA90E946730E9
:102F300020E030E040E05CE30E946931F80160830A
:102F400071838283938381E08DA7C880D980EA80D2
:102F5000FB80C3CE77FA709477F870947ECF20E030
:102F600030E040E251E4C301B2010E945F2F2CEB3C
:102F700034E743E15CE30E94693120E030E044EB58
:102F800052E40E94C82F2FE632E143E85AE30E9440
:102F9000602F362F272F462F572FBC01FE01E05BF5
:102FA000FF4F4083518362837383B90176CFFC0165
:102FB00067A7148608958F929F92AF92BF92CF9287
:102FC000DF92EF92FF920F931F93CF93DF93EC0169
:102FD0001F921F921F9288E78F939EE1A92EB12C1A
:102FE000C12CD12C14E6E12EF12C00E010E020E001
:102FF00030E0A90163E270E080E090E00E94DA2C0A
:103000007EA36DA31D8A1BA280E090E4ACE9B6E428
:103010008F8B988FA98FBA8F8EE794E00E9417123A
:1030200060E570E08EE794E00E9428124EE16FA503
:103030008EE794E00E946C148EAF1FAE0F900F903D
:103040000F900F90882379F081E08FAFDF91CF91BF
:103050001F910F91FF90EF90DF90CF90BF90AF90B6
:103060009F908F90089564E670E080E090E00E9469
:103070007C288E0182EAB82E7E0182E4E80EF11CE3
:103080006E01E0E4CE0ED11CAA24A39408C0AFAE1A
:10309000B394B3940E5F1F4FFEEABF16B9F222E05D
:1030A0004B2D6FA58EE794E00E94A5148EAF811181
:1030B000EECF8EE794E00E942D1290E0F70191830D
:1030C00080838EE794E00E942D1290E0F6019183B8
:1030D0008083F7019080812C88299929F80193AB8E
:1030E00082ABD6CF2F923F924F925F926F927F9298
:1030F0008F929F92AF92BF92CF92DF92EF92FF9208
:103100000F931F93CF93DF93CDB7DEB76A970FB6B8
:10311000F894DEBF0FBECDBF9A8F898FDC011C965D
:103120008C91813009F48FC3823009F45CC4882308
:1031300051F16A960FB6F894DEBF0FBECDBFDF9196
:10314000CF911F910F91FF90EF90DF90CF90BF90A4
:10315000AF909F908F907F906F905F904F903F9037
:103160002F90089523E040E0A98DBA8D9F966C9131
:103170008EE794E00E94A514882309F44BC5A98D1D
:10318000BA8D1C961C9248E4A98DBA8D9F966C91BD
:103190008EE794E00E946C14E98DFA8DEC57FF4F96
:1031A000FC8BEB8B098D1A8D00581F4FF801808125
:1031B0009181A281B381EB89FC8980839183A28371
:1031C000B3830E945428D8016D937D938D939C9373
:1031D0001397DC01CB01B695A79597958795E98D57
:1031E000FA8D87A390A7A1A7B2A781E08487EC5BA3
:1031F000FF4FFA83E98311E080819181A281B3813D
:10320000181619061A061B060CF01BC40E94482843
:10321000693E73408105910508F48BCF112309F4B1
:1032200088CF498D5A8D445B5F4FDA014D905D9098
:103230006D907C90A98DBA8DA85BBF4F411451044D
:103240006104710409F4F8C28D919D910D90BC91B7
:10325000A02D480E591E6A1E7B1E77FC41C4759432
:10326000679457944794298D3A8D205B3F4FF9011D
:103270004082518262827382FA0180839183A283A9
:10328000B383A98DBA8DDA968D919C91DB97A0E0DE
:10329000B0E0BA2FA92F982F8827481A590A6A0A2E
:1032A0007B0AD301C201BB0F880B982FDC01E98D8B
:1032B000FA8DEC5AFF4F408251826282738284837E
:1032C000858386838783E98DFA8D24AD35AD40E013
:1032D00050E0C301B2010E94ED3207E10E94403389
:1032E0002053384F4F4F5F4F6F4F7F4F8F4F9F4F40
:1032F0000E9461300E943030E98DFA8DE45AFF4F10
:103300006083718382839383A98DBA8D6D937D933E
:103310008D939C931397D896ED91FC91D997D49661
:103320008D909C90D597940140E050E060E070E073
:1033300080E090E000E10E94273379011A014B01FF
:103340008D8399879F0140E050E0C301B2010E9444
:10335000ED3207E00E94403359016A01F62FE72F52
:103360008C019701A101B4018D819985EF2EFE2E6C
:103370000E945E332D83832E942E5987698B7D871F
:103380001C01E98DFA8DE05AFF4F2083318342837F
:1033900053836483758386833782A98DBA8DD696CD
:1033A000ED91FC91D797D2962D913C91D39740E027
:1033B00050E060E070E080E090E00FE00E94273392
:1033C000B22EC32ED42EE52EF62E7D8B8F8B988FAA
:1033D0009F0140E050E0C301B2010E94ED3208E0DD
:1033E0000E944033A22E732EB42FA52F662E572E87
:1033F0008C012B2D3C2D4D2D5E2D6F2D7D898F89C0
:10340000988DB72CCB2EDA2EE62CF52C0E945E334D
:10341000E98DFA8DE859FF4F20833183428353832E
:103420006483758386839783E981FA81E080F180E4
:103430000281138127013801770C4408542C320192
:1034400057016801E42CF42C042D142D0E949432B1
:1034500005E10E944033AD80B82CC92CD984E9889D
:10346000FD8481010E94673349013A01B62FA72FDD
:10347000F82FE92F06E00E94273354016301EB2E59
:10348000FA2E0F2F1E2F0E94673301E00E94273370
:103490000F2F0E94673349013A01B62FA72FF82F4B
:1034A000E92F02E00E94273359016A017B018C0158
:1034B0009401A3016B2F7A2F8F2F9E2F0E945E33D2
:1034C00004E00E9427330FE00E94403359016A0153
:1034D0007B018C01A98DBA8D14962C9314971596A7
:1034E000BC92159716964C9316971796DC921797E1
:1034F00018966C9318971996FC9219971A968C93B4
:103500001A971B961C9320353143464E584361054C
:1035100071058105910509F00CF42AC220ED37EF01
:1035200044E65CE360E070E080E090E00E94673396
:103530000E94613025EF3FE94EEA5DE30E94693168
:103540000E943030E98DFA8D658776878787908B6A
:1035500069837A838B839C83298C3A8CB0E72B0E0A
:10356000311CF1014080518062807380AB89BC893D
:103570002D913D914D915C912D833E834F835887D2
:10358000411451046104710409F4BEC1E98DFA8D3E
:10359000EC58FF4FFE8BED8BC080D180E280F38032
:1035A000098D1A8D08581F4FD8018D909D90AD90B0
:1035B000BC90E98DFA8DE857FF4FFA8BE98B20819B
:1035C00031814281538129873A874B875C876981A2
:1035D0007A818B819C81681979098A099B090E94EB
:1035E00067302DEC3CEC4CEC5DE30E9469316D875B
:1035F0007E878F87988BC501B4010E9467309B013D
:10360000AC016D857E858F8598890E94602F0E9410
:1036100030306D877E878F87988B69817A818B8127
:103620009C816C197D098E099F090E9467302BE7E8
:1036300034E14EEA5DE30E9469314B015C01C70150
:10364000B6010E9467309B01AC01C501B4010E9424
:10365000602F0E9430306B017C016D857E858F85E7
:1036600098896C197D098E099F090E9467302BE7A4
:1036700035E141EB55E40E9469314B015C01698100
:103680007A818B819C8164197509860997090E944A
:1036900067302AE037ED43E25DE30E9469316983D8
:1036A0007A838B839C83C301B2010E9467309B01A4
:1036B000AC0169817A818B819C810E94602F0E947C
:1036C0003030D1016C9311967C93119712968C93A4
:1036D000129713969C9381E0E98DFA8D868BAD89C4
:1036E000BE89CD92DD92ED92FC9213972D853E8599
:1036F0004F855889D8012D933D934D935C93139733
:103700002D813E814F81588589859A85AB85BC8501
:1037100082179307A407B50708F4C3C06789708DA3
:10372000818D928D9B01AC01C501B4010E94C82F0F
:103730004B015C01E98DFA8DE457FF4F6083718383
:1037400082839383098D1A8D00571F4FF801C08023
:10375000D180E280F380A98DBA8D95968D919C9150
:103760009697BC01882777FD8095982F0E94673037
:103770002B013C01A7019601C501B4010E945F2FF6
:103780009B01AC01C301B2010E9469312FE632E115
:1037900043E85AE30E9469319B01AC01C701B601BD
:1037A0000E94602FF80160837183828393830E945B
:1037B00030304B015C01A98DBA8D5B966D937D9382
:1037C0008D939C935E975F966D917D918D919C9169
:1037D00092970E9467307B018C0123E333E343E738
:1037E0005FE3C501B4010E941904E98DFA8D678F6A
:1037F00070A381A392A311E013A3D1016D917D91D8
:103800008D919C9124E630E040E050E00E945532DA
:10381000E98DFA8D218B328B438B548B158BEB8981
:10382000FC8980819181A281B381E989FA898083B1
:103830009183A283B3837DCC4D905D906D907C90FD
:10384000D301C20106CD0E9454289695879577959D
:103850006795E98DFA8DE458FF4F60837183828309
:103860009383A98DBA8D97960D911D912D913C91C1
:103870009A97601771078207930728F4906860830E
:103880007183828393830C561E4E2F4F3F4FE98DD9
:10389000FA8D061717072807390708F427C184850A
:1038A00046CCA98DBA8D5796CD90DD90ED90FC90C9
:1038B0005A976D817E818F81988529853A854B85C0
:1038C0005C85621B730B840B950B0E946530A7010E
:1038D00096010E945F2F2DEC3CEC4CEC5DE30E94C6
:1038E00069319B01AC01C701B6010E94602F9B01A9
:1038F000AB01BC01A98DBA8D57964D935D936D9325
:103900007C935A97B9010ECF20523E444109510988
:1039100029873A874B875C87E98DFA8DE857FF4FF7
:10392000FA8BE98B208331834283538369817A81C7
:103930008B819C810E94673020E030E0A9010E94C9
:10394000602F0E9430306B017C01C701CD86DE867E
:10395000EF86F88A812C912C5401E98DFA8DEC5870
:10396000FF4FFE8BED8B098D1A8D08581F4FA9CE86
:103970009501A601B701C80120343D4F4149554387
:10398000610571058105910509F00CF45CC020E525
:1039900031E346EE58E360E070E080E090E00E94A2
:1039A00067330E94613027E239E547EB5DE30E940F
:1039B000693120E836E948E95AE40E94602F0E9404
:1039C0003030A98DBA8D1D966C931D971E967C93F1
:1039D0001E971F968C931F9750969C9369837A83AA
:1039E0008B839C83B9CD0E945428969587957795B3
:1039F0006795E98DFA8DE458FF4F60837183828368
:103A00009383A98DBA8D97960D911D912D913C911F
:103A10009A97601771078207930728F4906860836C
:103A20007183828393830C561E4E2F4F3F4F061790
:103A300017072807390708F495CBE98DFA8D848597
:103A400076CB10E0E3CB9501A601B701C801203683
:103A5000314A4C4652436105710581059105D1F00B
:103A6000CCF020E43DEF41E955E360E070E080E018
:103A700090E00E9467330E9461302CE433E042EC16
:103A80005DE30E94693120E836E948E15BE40E9489
:103A9000602F56CD9501A601B701C801203A3E46D8
:103AA00042465F42610571058105910509F00CF4FC
:103AB0004BC020E631EA4CE652E360E070E080E083
:103AC00090E00E9467330E94613029EC38EC48ECAA
:103AD0005DE30E94693120EC31EE44E65BE46DCF9A
:103AE000EFEF4E1A5E0A6E0A7E0AB9CB13A614A631
:103AF00015A616A623E040E067A58EE794E00E9495
:103B0000A514882309F446C0E98DFA8DEC5BFF4FBC
:103B1000108211821282138248E5A98DBA8D9F9678
:103B20006C918EE794E00E946C140E945428969544
:103B3000879577956795E98DFA8D67A370A781A71B
:103B400092A782E08487F5CA9501A601B701C80152
:103B5000203E3D4244485C42610571058105910566
:103B600009F00CF497C020EA3EE642E65FE260E02E
:103B700070E080E090E00E9467330E94613024E2B0
:103B80003DEC44ED5DE30E94693120E836E948E907
:103B90005BE47DCF8EE794E00E942D1290E0A0E0E0
:103BA000B0E0BA2FA92F982F8827E98DFA8D83A727
:103BB00094A7A5A7B6A78EE794E00E942D12A98D21
:103BC000BA8D9B964D915D916D917C919E97482BFE
:103BD000762F652F542F4427FD0143A754A765A7CF
:103BE00076A78EE794E00E942D12A98DBA8D9B9640
:103BF0004D915D916D917C919E97482BFD0143A75E
:103C000054A765A776A7EC5BFF4F4083518362837F
:103C1000738382CF8EE794E00E942D1290E0A0E0A3
:103C2000B0E0BA2FA92F982F8827E98DFA8D83A7A6
:103C300094A7A5A7B6A78EE794E00E942D12A98DA0
:103C4000BA8D9B964D915D916D917C919E97482B7D
:103C5000762F652F542F4427FD0143A754A765A74E
:103C600076A78EE794E00E942D12A98DBA8D9B96BF
:103C70004D915D916D917C919E97482BFD0143A7DD
:103C800054A765A776A7E85BFF4F40835183628303
:103C9000738375CA9501A601B701C80121153E437A
:103CA0004A4C59426105710581059105C1F0BCF08E
:103CB00020EE3DE244E85CE260E070E080E090E00D
:103CC0000E9467330E94613023EC3FED4FED5DE3CE
:103CD0000E94693120E23CEB4EEB5BE46ECE950135
:103CE000A601B701C8012038364643435742610553
:103CF000710581059105C1F0BCF020E03EE34AEC7E
:103D000059E260E070E080E090E00E9467330E943A
:103D1000613029E33AEB4BEE5DE30E94693120EC20
:103D200031EE44EE5BE4B3CE9501A601B701C801C4
:103D3000203D37444E4B5442610571058105910584
:103D4000C1F0BCF020E836E643E357E260E070E003
:103D500080E090E00E9467330E94613023EE3CE5F2
:103D600048EF5DE30E94693120EB33E845E05CE415
:103D700024CE9501A601B701C80120353B4549462F
:103D800052426105710581059105C1F0BCF020ED3D
:103D900037E44EEB54E260E070E080E090E00E9497
:103DA00067330E9461302DE131EE42E05EE30E9414
:103DB000693120E836E948E15CE469CE20E53BE57D
:103DC00049E652E260E070E080E090E00E946733F4
:103DD0000E94613020E734E14AE05EE30E946931ED
:103DE00020E539EA4BE25CE4E8CDFC0186E9868710
:103DF00084EF91E0908B878788E2818B88E7828BC4
:103E00002AE0238B82E3848B80E991E0968B858B7B
:103E100081E0878B228F8CE89AE0918F808F0895C4
:103E20004F925F926F927F928F929F92AF92BF92CA
:103E3000CF92DF92EF92FF920F931F93CF93DF9376
:103E4000CDB7DEB72C970FB6F894DEBF0FBECDBF4F
:103E50004C012A013B016091820370918303882702
:103E600077FD8095982F0E94673020E030E048EC85
:103E700052E40E94C82F6D837E838F839887D4017C
:103E800055968D919C9156979C01442737FD4095FE
:103E9000542F29833A834B835C834216530664066E
:103EA00075060CF45CC0F4018289618970E0680FCA
:103EB000711D882777FD8095982F0E9467302D818E
:103EC0003E814F8158850E9469310E9430305B01EC
:103ED0006C01D40154968C91549753964C9150E0B8
:103EE000480F511D662757FD6095762F7F936F937E
:103EF0005F934F9310E2E12E13E0F12E00E010E00B
:103F000029813A814B815C81C301B2010E94DA2C84
:103F1000F4014489238930E0240F311DCB010F9037
:103F20000F900F900F9062177307BCF02C960FB68E
:103F3000F894DEBF0FBECDBFDF91CF911F910F91DF
:103F4000FF90EF90DF90CF90BF90AF909F908F90B9
:103F50007F906F905F904F900895C901E7CF1E96B4
:103F60008C911E971F966D917C915097680F711DD3
:103F7000882777FD8095982F0E9467302D813E819C
:103F80004F8158850E9469310E9430305B016C017D
:103F900080917603909177039C01442737FD4095EB
:103FA000542F29873A874B875C87D40152968C918E
:103FB000529751966C9170E0680F711D882777FDBC
:103FC0008095982F0E9467302D813E814F815885C2
:103FD0000E9469310E9430309F938F937F936F933B
:103FE000E980FA800B811C8129853A854B855C85A7
:103FF000C301B2010E94DA2C0F900F900F900F9026
:10400000CB0194CF4F925F926F927F928F929F924B
:10401000AF92BF92CF92DF92EF92FF920F931F93D6
:10402000CF93DF93CDB7DEB728970FB6F894DEBFF6
:104030000FBECDBF4C012A013B01609182037091FC
:104040008303882777FD8095982F0E94673020E0B2
:1040500030E048EC52E40E94C82F9B01AC01D4012F
:1040600055968D919C9156977C010027F7FC009501
:10407000102FE982FA820B831C834E145F046006C2
:1040800071060CF44EC0F401628970E080E090E0AB
:104090002D833E834F8358870E9467302D813E8158
:1040A0004F8158850E9469310E943030D401549666
:1040B0002C911F921F921F922F935B016C0110E2B3
:1040C000E12E13E0F12E00E010E029813A814B81CE
:1040D0005C81C301B2010E94DA2CF401248930E032
:1040E000CB010F900F900F900F9062177307BCF0E9
:1040F00028960FB6F894DEBF0FBECDBFDF91CF91EB
:104100001F910F91FF90EF90DF90CF90BF90AF90F5
:104110009F908F907F906F905F904F900895C9010E
:10412000E7CF1F966D917C915097882777FD8095FA
:10413000982F2D833E834F8358870E9467302D81AF
:104140003E814F8158850E9469310E943030209114
:10415000760330917703442737FD4095542FD401DF
:104160005296EC911F921F921F92EF935B016C018C
:10417000E980FA800B811C81C301B2010E94DA2C14
:104180000F900F900F900F90CB01B2CF4F925F9294
:104190006F927F928F929F92AF92BF92CF92DF9257
:1041A000EF92FF920F931F93CF93DF9300D000D035
:1041B000CDB7DEB74C012A013B010E944828D4014B
:1041C0006D937D938D939C93139716960D911D91EE
:1041D0002D913C9119976B017C01C01AD10AE20A1A
:1041E000F30A1A960D911D912D913C911D970C1576
:1041F0001D052E053F0508F0E3C0F40127892223A1
:1042000009F495C066837783808791874091760310
:1042100050917703662757FD6095762F4416550613
:10422000660677060CF098C0E0907803F09079036A
:104230000027F7FC0095102FE414F5040605170578
:104240000CF0C3C00E9448280091BB041091BC042C
:104250002091BD043091BE04601771078207930757
:1042600008F0DAC080917603909177039C0144278F
:1042700037FD4095542F29833A834B835C83421644
:104280005306640675060CF4C7C0B4E64B16510419
:10429000610471040CF4D6C0D40158964D915C9120
:1042A00059975A01CC24B7FCC094DC2C485A5D4F76
:1042B000662757FD6095762F7F936F935F934F939B
:1042C00010E2E12E13E0F12E00E010E029813A81A6
:1042D0004B815C81C301B2010E94DA2C0F900F90D8
:1042E0000F900F90683C71050CF4DAC0F401208D3A
:1042F000318D24543D4F261737070CF4B901CB01FB
:10430000D40115967C936E9314976091BF047091BD
:10431000C004680F791F80E090E0EE24E39408E881
:1043200013E120E030E05A964C910E9401260F9054
:104330000F900F900F90DF91CF911F910F91FF90F1
:10434000EF90DF90CF90BF90AF909F908F907F9035
:104350006F905F904F9008951092C2041092C10424
:104360008CE99FEF9093C0048093BF04B301A20136
:10437000C4010E94101FAC01662757FD6095762F7F
:10438000F40142875387648775870E9448286B0130
:104390007C01B301A201C4010E940220AC01662786
:1043A00057FD6095762F4C0D5D1D6E1D7F1D409352
:1043B000BB045093BC046093BD047093BE04D4014D
:1043C00057968C91811130CFB2CF1F921F921F92BE
:1043D0008CED8F934CE3A42EB12CC12CD12C20EE6C
:1043E0003CEF4FEF5FEFC301B2010E94DA2CF40102
:1043F00075836483882777FD8095982FEE24E39456
:1044000008EE13E020E030E0428D0E9401260F907C
:104410000F900F900F908BCF0F900F900F900F90E9
:10442000DF91CF911F910F91FF90EF90DF90CF9090
:10443000BF90AF909F908F907F906F905F904F90C4
:104440000C94CA262091C1043091C2042A3F310540
:1044500008F022CFA9014F5F5F4F5093C2044093F1
:10446000C1049A01A9E8B8E80E947A32929582952F
:104470008F7089279F7089276EE1689F9001699FDF
:10448000300D11244217530709F006CF8091BF0465
:104490009091C00401969093C0048093BF04FCCE19
:1044A00088EC90E068EC70E02BCF2F923F924F9217
:1044B0005F926F927F928F929F92AF92BF92CF92B4
:1044C000DF92EF920F931F93CF93DF9300D000D032
:1044D00000D0CDB7DEB71C0169011216130674F5C2
:1044E000CA01AA2797FDA095BA2F89839A83AB8327
:1044F000BC832B01662457FC6094762C4801AA24C7
:1045000097FCA094BA2CA1E0B0E0BE83AD83E12C6F
:1045100009811A812B813C81F101428DC301B201D5
:104520000E940126C501B4010E947C288D819E81D4
:1045300001969E838D83C816D9064CF726960FB632
:10454000F894DEBF0FBECDBFDF91CF911F910F91C9
:10455000EF90DF90CF90BF90AF909F908F907F9023
:104560006F905F904F903F902F900895EF920F9330
:104570001F93CF93DF93EC016F8B611124C0EE2466
:10458000E3940EE511E020E030E04A8D62EC71E04A
:1045900080E090E00E9401266EE571E080E090E00E
:1045A0000E947C2804EF11E020E030E04A8D64EBAB
:1045B00070E080E090E00E940126DF91CF911F9192
:1045C0000F91EF90089504E610E022E030E046E914
:1045D00050E068EE73E00E945522DF91CF911F9169
:1045E0000F91EF9008952F923F924F925F926F92AA
:1045F0007F928F929F92AF92BF92CF92DF92EF9273
:104600000F931F93CF93DF93CDB7DEB728970FB6E5
:10461000F894DEBF0FBECDBF9A83898378876F83FE
:104620003A016901641775070CF451C04617570722
:10463000ACF1C801AA2797FDA095BA2F8B839C8364
:10464000AD83BE8322243324221A330A442437FC48
:104650004094542C4A01AA2497FCA094BA2CEE242E
:10466000E39408E813E120E030E0A981BA815A968A
:104670004C91C501B4010E9401266B817C818D8122
:104680009E810E947C286C187D08820C931CA41CBF
:10469000B51CEF81F8856E167F060CF728960FB6CD
:1046A000F894DEBF0FBECDBFDF91CF911F910F9168
:1046B000EF90DF90CF90BF90AF909F908F907F90C2
:1046C0006F905F904F903F902F900C94CA26C80136
:1046D000AA2797FDA095BA2F8B839C83AD83BE83B9
:1046E0001901442437FC4094542CAF81B8854D0106
:1046F000AA2497FCA094BA2CEE24E39408E813E1D2
:1047000020E030E0E981FA81428DC501B4010E94C8
:1047100001266B817C818D819E810E947C288F8106
:1047200098858C0D9D1D98878F83820C931CA41CEB
:10473000B51C6816790604F7B1CF8F929F92AF929D
:10474000BF92EF920F931F93CF93DF93EC0158EE3C
:10475000852E53E0952EA12CB12CEE24E3940CE38E
:1047600010E020E030E04A8DC501B4010E9401262E
:1047700064E070E080E090E00E947C2889E1880E8F
:10478000911CA11CB11C81ED88168BE09806A10438
:10479000B10419F7DF91CF911F910F91EF90BF9066
:1047A000AF909F908F900C94CA268F929F92AF9259
:1047B000BF92EF920F931F93CF93DF93EC0168EBBF
:1047C000862E6BE0962EA12CB12CEE24E3940CE304
:1047D00010E020E030E04A8DC501B4010E940126BE
:1047E00064E070E080E090E00E947C2889E1881A13
:1047F0009108A108B1088FEC881683E09806A104FF
:10480000B10419F7DF91CF911F910F91EF90BF90F5
:10481000AF909F908F900C94CA268F929F92AF92E8
:10482000BF92EF920F931F934B01AA2497FCA09481
:10483000BA2CEE24E39409E110E020E030E0FC0122
:10484000428DC501B4010E94012669E170E080E05B
:1048500090E00E947C281F910F91EF90BF90AF9045
:104860009F908F900C94CA26EF920F931F93EE2483
:10487000E39404EF11E020E030E04AE068E27AE0FF
:1048800080E090E00E94012660E273E080E090E02A
:104890000E947C2804EF11E020E030E04AE068E26A
:1048A0007AE080E090E00E94012660E273E080E020
:1048B00090E00E947C2808EE13E020E030E04AE01F
:1048C00060ED77E080E090E00E94012668EE73E002
:1048D00080E090E01F910F91EF900C947C288F92D4
:1048E0009F92AF92BF92EF920F931F93CF93DF935C
:1048F000EC0178EE872E73E0972EA12CB12CEE24DC
:10490000E3940CE310E020E030E04A8DC501B401EF
:104910000E94012664E070E080E090E00E947C2824
:1049200080E5880E911CA11CB11C88E588168CE0DE
:104930009806A104B10419F7DF91CF911F910F914F
:10494000EF90BF90AF909F908F900C94CA268F925B
:104950009F92AF92BF92EF920F931F93CF93DF93EB
:10496000EC01ECE18E2EECE09E2EA12CB12CEE247D
:10497000E3940CE310E020E030E04A8DC501B4017F
:104980000E94012664E070E080E090E00E947C28B4
:1049900080E5881A9108A108B1088CEA881683E09E
:1049A0009806A104B10419F7DF91CF911F910F91DF
:1049B000EF90BF90AF909F908F900C94CA264F922B
:1049C0005F926F927F92AF92BF92CF92DF92EF92FF
:1049D0000F931F93CF93DF93EC01A62EB12CA1145C
:1049E000B10459F1C12CD12CF0ED4F2EF7E05F2E20
:1049F000612C712CEE24E3940CE310E020E030E015
:104A00004A8DC301B2010E9401266FE070E080E090
:104A100090E00E947C2884E6480E511C611C711CA9
:104A200080EF48168AE058066104710419F78FEF89
:104A3000C81AD80ACA14DB04BCF2DF91CF911F91C7
:104A40000F91EF90DF90CF90BF90AF907F906F90DD
:104A50005F904F900C94CA26AF92BF92CF92DF9294
:104A6000EF920F931F93CF93DF93EC015B0180E5EF
:104A7000869F6001879FD00C112480EAC81A86EFB8
:104A8000D80AB601882777FD8095982FEE24E39405
:104A900004E610E020E030E04A8D0E9401268FE01D
:104AA0008A9DB0018B9D700D1124605B7F4F88271C
:104AB00077FD8095982F0E947C2801E010E02FE080
:104AC00030E040EA5FE0B601CE010E94F322DF91C0
:104AD000CF911F910F91EF90DF90CF90BF90AF904B
:104AE0000895CF93DF93EC016231710530F061E0FE
:104AF000CE01DF91CF910C94DF24FB01EC5CFF4FE2
:104B00000C94743264E070E0DF91CF910C942C250A
:104B100065E070E0DF91CF910C942C250E946F240A
:104B2000CE010E946F24CE010E946F2468EE73E0D4
:104B300080E090E0DF91CF910C947C2868EC70E0ED
:104B4000DF91CF910C940D246AEF70E0DF91CF914B
:104B50000C940D246CE271E0DF91CF910C940D2444
:104B600060E971E0DF91CF910C940D2464EF71E066
:104B7000DF91CF910C940D240E949D23CE010E94C1
:104B8000D523CE010E949D23CE010E94D52368EE3D
:104B900073E080E090E0DF91CF910C947C280E943C
:104BA0009D23CE010E94D52360E273E080E090E077
:104BB000DF91CF910C947C2862E0DF91CF910C942F
:104BC000DF2464E0DF91CF910C94DF2465E0DF9176
:104BD000CF910C94DF24DF91CF910C94342461E0C9
:104BE00070E0DF91CF910C942C2562E070E0DF91B2
:104BF000CF910C942C2563E070E0DF91CF910C9461
:104C00002C254F925F926F927F928F929F92AF92DC
:104C1000BF92CF92DF92EF92FF920F931F93CF93A9
:104C2000DF9300D000D0CDB7DEB74B015C01280187
:104C300039010E2D611571058105910509F460C0DA
:104C4000442309F45DC0142F4B3008F07BC084B1BD
:104C5000866084B960E079E08DE390E0A50194017D
:104C60000E94333269017A0181E0C81AD108E10853
:104C7000F108C114D104E1E0EE06F10408F064C0CB
:104C800081E1B82EE12FF0E0E35FFE4F208130E0BC
:104C900040E050E0C701B6010E9433324114510494
:104CA0006104710411F001115BC0D0928700C092C1
:104CB00086008091840090918500A0E0B0E0C81645
:104CC000D906EA06FB0620F4D0928500C092840043
:104CD000B092810030938B0020938A00309389003A
:104CE0002093880080EB809380004114510461047C
:104CF000710499F0011111C0C301B2010E947C2816
:104D000080916F008D7F80936F0082E0809381009F
:104D100081E08093800029982A980F900F900F903F
:104D20000F90DF91CF911F910F91FF90EF90DF9047
:104D3000CF90BF90AF909F908F907F906F905F903B
:104D40004F9008951AE083CFCD2CDE2CEF2CFF245A
:104D5000F1E0CF1AD108E108F10824E1B22E92CF98
:104D600029833A834B835C830E944828640D751D18
:104D7000861D971D6093C3047093C4048093C5047B
:104D80009093C60480916F00826080936F003A8197
:104D900029818BCFEFE6F0E080818D7F808382E0F8
:104DA0008093810081E08093800029982A9808955B
:104DB0001F920F920FB60F9211240F931F932F93F0
:104DC0003F934F935F936F937F938F939F93AF9393
:104DD000BF93EF93FF930E9448280091C304109162
:104DE000C4042091C5043091C6046017710782077E
:104DF000930768F080916F008D7F80936F0082E051
:104E00008093810081E08093800029982A98FF9107
:104E1000EF91BF91AF919F918F917F916F915F9132
:104E20004F913F912F911F910F910F900FBE0F90B7
:104E30001F9018954115510529F4EAE7F0E08081AB
:104E40008F7780836A307105B1F063FF02C088E21A
:104E500001C088E06770682B88E190E00FB6F89495
:104E6000A895809360000FBE60936000E0E6F0E0DC
:104E7000808180648083232BA1F483B7817F846049
:104E800083BFF89483B7816083BF85B7806685BF91
:104E90008F7D85BF7894889583B78E7F83BF789404
:104EA0000EC083B7817F846083BFF89483B781602D
:104EB00083BF7894889583B78E7F83BF7894452B82
:104EC00029F4EAE7F0E080818068808308951F92EA
:104ED0000F920FB60F9211248F9388E10FB6F894BA
:104EE00080936000109260000FBE8F910F900FBEF4
:104EF0000F901F9018950895823008F00895E82FBC
:104F0000F0E0EE0FFF1FE85EFE4F7183608381309B
:104F100061F480916900440F551F440F551F837F32
:104F2000842B80936900E99A0895809169008C7FB1
:104F3000842B80936900E89A0895823008F00895E0
:104F4000813061F0E898E82FF0E0EE0FFF1FE85E97
:104F5000FE4F8BE797E2918380830895E998F3CF22
:104F60001F920F920FB60F9211242F933F934F93DE
:104F70005F936F937F938F939F93AF93BF93EF93C1
:104F8000FF93E0911801F09119010995FF91EF91BC
:104F9000BF91AF919F918F917F916F915F914F9151
:104FA0003F912F910F900FBE0F901F9018951F9259
:104FB0000F920FB60F9211242F933F934F935F934D
:104FC0006F937F938F939F93AF93BF93EF93FF93D1
:104FD000E0911A01F0911B010995FF91EF91BF91AA
:104FE000AF919F918F917F916F915F914F913F9181
:104FF0002F910F900FBE0F901F9018951F920F9238
:105000000FB60F9211242F933F938F939F93AF93DB
:10501000BF938091C9049091CA04A091CB04B09130
:10502000CC043091C80426E0230F2D3768F129E81D
:10503000230F0396A11DB11D2093C8048093C904BA
:105040009093CA04A093CB04B093CC048091CD0478
:105050009091CE04A091CF04B091D0040196A11DEF
:10506000B11D8093CD049093CE04A093CF04B09350
:10507000D004BF91AF919F918F913F912F910F904D
:105080000FBE0F901F9018950296A11DB11DD4CF91
:105090002FB7F8946091C9047091CA048091CB0431
:1050A0009091CC042FBF08953FB7F8948091CD0420
:1050B0009091CE04A091CF04B091D00426B5A89BC6
:1050C00005C02F3F19F00196A11DB11D3FBF6627F6
:1050D000782F892F9A2F620F711D811D911D660FE8
:1050E000771F881F991F660F771F881F991F660FEC
:1050F000771F881F991F0895CF92DF92EF92FF923A
:10510000CF93DF936B017C010E945428EB01C11403
:10511000D104E104F104A9F00E945E2F0E945428FA
:105120006C1B7D0B683E734090F381E0C81AD10878
:10513000E108F108C851DC4FC114D104E104F104C5
:1051400059F7DF91CF91FF90EF90DF90CF900895C6
:10515000789484B5826084BD84B5816084BD85B552
:10516000826085BD85B5816085BDEEE6F0E0808119
:1051700081608083E1E8F0E010828081826080833A
:10518000808181608083E0E8F0E0808181608083BD
:10519000E1EBF0E0808184608083E0EBF0E08081EF
:1051A00081608083EAE7F0E0808184608083808191
:1051B0008260808380818E7F80838081806880830D
:1051C0001092C10008958330E9F038F0873069F01B
:1051D000883011F1843079F008958130C9F082303F
:1051E00081F484B58F7D84BD08958091B0008F7760
:1051F0008093B0000895809180008F7D809380001F
:1052000008950895809180008F778093800008959D
:1052100084B58F7784BD08958091B0008F7D809391
:10522000B0000895CF93DF9390E0FC01E056FF4F6C
:105230002491FC01EC54FF4F84918823B9F090E055
:10524000880F991FFC01E452FF4FA591B4918E5233
:105250009F4FFC01C591D4919FB7662351F06230F6
:10526000A1F0F8948C91822B8C939FBFDF91CF910A
:105270000895F8948C91209582238C9388818223C1
:1052800088839FBFDF91CF910895F8948C91322F3E
:10529000309583238C938881822B88839FBFE6CFB0
:1052A0000F931F93CF93DF931F92CDB7DEB7282FB5
:1052B00030E0F901E457FF4F8491F901E056FF4FC8
:1052C0000491F901EC54FF4F1491112399F08111CD
:1052D0001BC0E12FF0E0EE0FFF1FEE52FF4FA59134
:1052E000B4918FB7F8949C9161110AC000959023F6
:1052F0009C938FBF0F90DF91CF911F910F910895D5
:10530000902B9C938FBFF6CF69830E94E32869811D
:10531000E0CFCF93DF93282F30E0F901E457FF4F20
:105320008491F901E056FF4FD491F901EC54FF4FFD
:10533000C491CC23B1F0811119C0EC2FF0E0EE0F35
:10534000FF1FE853FF4FA591B4912C912D2381E0CD
:1053500090E019F0DF91CF91089580E0DF91CF9137
:10536000089580E090E0DF91CF9108950E94E328B6
:10537000E4CFFC01818D228D90E0805C9F4F821BE9
:1053800091098F7399270895FC01918D828D98174B
:1053900031F0828DE80FF11D858D90E008958FEF3B
:1053A0009FEF0895FC01918D828D981761F0828D99
:1053B000DF01A80FB11D5D968C91928D9F5F9F7349
:1053C000928F90E008958FEF9FEF089586E59BE21E
:1053D000892B49F080E090E0892B29F00E94562B20
:1053E00081110C9400000895FC01848DDF01A80F49
:1053F000B11DA35ABF4F2C91848D90E001968F73FD
:105400009927848FA689B7892C93A089B1898C911B
:1054100080648C93938D848D981308950288F3890A
:10542000E02D80818F7D80830895CF93DF93EC0101
:10543000888D8823B9F0EA89FB89A889B989808198
:1054400085FF0DC00FB607FCFACF808185FFF7CF2F
:105450008C9185FFF4CFCE010E94F429ECCF8C9182
:1054600086FFF0CFDF91CF910895CF92DF92FF9228
:105470000F931F93CF93DF931F92CDB7DEB76C01CD
:1054800081E0D60158968C9358975B969C915B97D8
:105490005C968C915C979817D1F1F601038D10E022
:1054A0000F5F1F4F0F731127F02E03C00FB607FEBB
:1054B00020C0F601848DF816C9F3838DE80FF11D25
:1054C000E35AFF4F6083D6015B960C935B9752962D
:1054D000ED91FC91539780818062808381E090E020
:1054E0000F90DF91CF911F910F91FF90DF90CF90A0
:1054F0000895D6015096ED91FC915197808185FFDA
:10550000D8CFC60169830E94F4296981D2CF509611
:10551000ED91FC915197808185FFBFCFD6015696C2
:10552000ED91FC91579760835096ED91FC915197C6
:10553000808180648083D2CFBF92CF92DF92EF923E
:10554000FF920F931F93CF93DF93EC016A017B01CE
:10555000B22E60E874E88EE190E0A70196010E9407
:1055600033322150310941095109569547953795F4
:1055700027958901E889F98982E08083211580E1F6
:105580003807A0F0E889F989108260E472E48FE0BE
:1055900090E0A70196010E94333221503109410960
:1055A000510956954795379527958901EC85FD85D5
:1055B0001083EE85FF850083188EEC89FD89B0820B
:1055C000EA89FB89808180618083EA89FB89808107
:1055D00088608083EA89FB89808180688083EA898A
:1055E000FB8980818F7D8083DF91CF911F910F9107
:1055F000FF90EF90DF90CF90BF9008951F920F9291
:105600000FB60F9211242F938F939F93EF93FF93D5
:10561000E091E104F091E2048081E091E704F091EF
:10562000E80482FD1BC020818091EA048F5F8F73A4
:105630009091EB04891741F0E091EA04F0E0EF5219
:10564000FB4F258F8093EA04FF91EF919F918F91FB
:105650002F910F900FBE0F901F9018958081F4CF5F
:105660001F920F920FB60F9211242F933F934F93D7
:105670005F936F937F938F939F93AF93BF93EF93BA
:10568000FF9381ED94E00E94F429FF91EF91BF9187
:10569000AF919F918F917F916F915F914F913F91CA
:1056A0002F910F900FBE0F901F90189581ED94E0F1
:1056B0000E94B92921E0892B09F420E0822F089566
:1056C0001092D4041092D30488EE93E0A0E0B0E0EE
:1056D0008093D5049093D604A093D704B093D804B4
:1056E0008EE192E09093D2048093D10485EC90E017
:1056F0009093DE048093DD0484EC90E09093E004CA
:105700008093DF0480EC90E09093E2048093E104C6
:1057100081EC90E09093E4048093E30482EC90E0C9
:105720009093E6048093E50486EC90E09093E8047F
:105730008093E7041092EA041092EB041092EC04B8
:105740001092ED04089580E090E0089508950E947D
:10575000A8280E94A62B0E9487010E94C00486EE02
:1057600099E2892B29F00E94E6290E94C004FBCF10
:105770000E94C0040E94C004FBCFCF92DF92EF9240
:10578000FF920F931F93CF93DF937C016A01411522
:105790005105F9F08B01C0E0D0E004C02196CC1691
:1057A000DD0669F0D8016D918D01D701ED91FC9175
:1057B0000190F081E02DC7010995892B79F7CE0181
:1057C000DF91CF911F910F91FF90EF90DF90CF90DD
:1057D0000895C0E0D0E0F3CFDC01ED91FC91DB0156
:1057E00014964D915C9115976D917C910280F38197
:1057F000E02D09946115710581F0DB010D90002009
:10580000E9F7AD0141505109461B570BDC01ED9101
:10581000FC910280F381E02D099480E090E00895EE
:105820000F931F93CF93DF93EC01E881F981DB01A4
:1058300014964D915C9115976D917C910280F38146
:10584000E02D09958C01E881F9810280F381E02D3A
:1058500042E050E06AE272E0CE010995800F911FAC
:10586000DF91CF911F910F9108958F929F92AF92E8
:10587000BF92CF92DF92EF92FF920F931F93CF933D
:10588000DF93CDB7DEB7A1970FB6F894DEBF0FBE9A
:10589000CDBF7C01D42EE52FCB01C22E19A221E071
:1058A0002C1508F051C08C2C912CA12CB12C8E0100
:1058B0000F5D1F4F0BC0805DD8018C932115310502
:1058C00041055105C9F0D22EE32FCA016D2D7E2F5F
:1058D000A50194010E9433328D2DC29E801911249E
:1058E000015011098A303CF3895CD8018C93211551
:1058F00031054105510539F70115110569F1F80127
:1059000001900020E9F7AF0141505109401B510BB4
:10591000D701ED91FC910280F381E02DB801C70120
:105920000995A1960FB6F894DEBF0FBECDBFDF91EB
:10593000CF911F910F91FF90EF90DF90CF90BF908C
:10594000AF909F908F9008952AE0822E912CA12CE9
:10595000B12C3AE0C32EABCF80E090E0E2CF21152E
:10596000310511F00C94352CDC01ED91FC91019086
:10597000F081E02D642F09940F931F93CF93DF9351
:10598000EC019A01AB0160E070E00E94AF2C8C0149
:10599000E881F9810280F381E02D42E050E06AE283
:1059A00072E0CE010995800F911FDF91CF911F9179
:1059B0000F9108954F925F926F927F92AF92BF9234
:1059C000CF92DF92EF92FF920F931F93CF93DF93CB
:1059D000CDB7DEB729013A01621B730B840B950B1F
:1059E00029893A894B895C892A193B094C095D0947
:1059F000298B3A8B4B8B5C8B9B01AC0169897A8933
:105A00008B899C890E942332E418F508060917093E
:105A1000A80197010E9455322A0D3B1D4C1D5D1DAA
:105A2000CA01B901DF91CF911F910F91FF90EF90C3
:105A3000DF90CF90BF90AF907F906F905F904F902E
:105A40000895FC01808191810C9429340F931F9358
:105A5000CF93DF93EC018B0188819981009729F026
:105A60002A813B812617370788F4B8016F5F7F4F83
:105A70000E94B834009781F0998388831B830A833E
:105A80002C813D81232B11F4FC01108281E0DF91F8
:105A9000CF911F910F91089580E0F9CFEF92FF927F
:105AA0000F931F93CF93DF93EC017B018A01BA011F
:105AB0000E94262D811114C088819981009711F0D0
:105AC0000E942934198218821D821C821B821A822C
:105AD000CE01DF91CF911F910F91FF90EF9008952C
