:100000000C94F3000C941B010C941B010C94EB0555
:100010000C94EB050C94EB050C941B010C941B0148
:100020000C941B010C941B010C941B010C9487274E
:100030000C941B010C941B010C941B010C941B01D0
:100040000C94BE270C941B010C94A02A0C94D22A69
:100050000C941B010C941B010C941B010C941B01B0
:100060000C941B010C941B014D2656265926602624
:100070006326662669267C26A326862688268A2667
:100080008C2690269326962699269C26000000080A
:10009000000201000003040700000000000000004F
:1000A000010204081020408001020408102001020F
:1000B00004081020040404040404040402020202DC
:1000C00002020303030303030000000023002600D1
:1000D000290000000000250028002B00000000007F
:1000E000240027002A0000407A10F35A00A0724E24
:1000F00018090010A5D4E80000E87648170000E4CD
:100100000B54020000CA9A3B000000E1F505000014
:1001100080969800000040420F000000A086010079
:100120000000102700000000E80300000000640049
:10013000000000000A0000000000010000000000B4
:100140002C76D888DC674F0823DFC1DFAE59E1B1D8
:10015000B796E5E3E453C63AE651997696E8E6C2E7
:100160008426EB898C9B62ED407C6FFCEFBC9C9FEE
:1001700040F2BAA56FA5F490055A2AF75C936B6C10
:10018000F9676DC11BFCE0E40D47FEF520E6B50004
:10019000D0ED902E0300943577050080841E080072
:1001A00000204E0A000000C80C333333330F986E22
:1001B00012831141EF8D2114893BE65516CFFEE6DF
:1001C000DB18D1844B381BF77C1D901DA4BBE424A5
:1001D000203284725E228100C9F124ECA1E53D2722
:1001E0000304022B300411241FBECFEFD8E0DEBF82
:1001F000CDBF12E0A0E0B1E0ECE5F1E702C0059070
:100200000D92AA39B107D9F725E0AAE9B2E001C0F9
:100210001D92A73CB207E1F711E0C4EED1E004C0A3
:100220002297FE010E944B32C03ED107C9F70E94BF
:10023000492B0C94A1380C94000048EC50E06CE27F
:1002400071E081E294E00E94B62260E971E080E012
:1002500090E00E94372848EC50E06CE271E081E2C7
:1002600094E00E94B62260E971E080E090E00E9494
:10027000372848EE53E064EF71E081E294E00E9499
:10028000B62260E971E080E090E00E94372881E0CA
:100290008093EB0268EC70E080E090E00E943728E9
:1002A0000C94A9268AE992E00C94E82CCF93DF9372
:1002B000C8E3D4E0688181E0682781E294E00E948D
:1002C000D82488818093120484E094E0DF91CF9158
:1002D0000C94EC0B80913804811109C061E081E23B
:1002E00094E00E94D82481E0809312042BC0809176
:1002F0003B048A3089F480910E0480933B04809102
:1003000015049091160490933A048093390481E285
:1003100094E00E9479250FC08AE080933B0480918D
:1003200013049091140490933A048093390481E269
:1003300094E00E94412580913B0490E090930D044D
:1003400080930C0484E094E00C94EC0B8091060400
:1003500090910704019711F460E001C061E084E02E
:1003600094E00C94F10B8CE394E00E94E82C82E47E
:1003700094E00E94E82C88E494E00C9465068F9247
:100380009F92AF92BF92CF92DF92EF92FF9240E0A6
:100390005BE460E070E088E494E00E94EE0641E0F7
:1003A00050E062E070E087E694E00E94A5078AE6EC
:1003B00091E0909384048093830486EA91E0909383
:1003C0008804809387048DE191E090938A04809360
:1003D000890486E591E0909386048093850482E306
:1003E000C82ED12CE12CF12C98EE892E93E0992E79
:1003F000A12CB12C82E00E943229892B71F548EEA4
:1004000053E06CEB72E081E294E00E94B622C701F7
:10041000B6010E9437280E94A926C501B4016C19B3
:100420007D098E099F090E94372882E3C80ED11CDE
:10043000E11CF11C86E2C81682E0D806E104F10452
:10044000C9F648EE53E06CED75E081E294E00E945D
:10045000B62284E094E00E940E0C80E896EEA5ECB3
:10046000B7E480938B0490938C04A0938D04B09395
:100470008E0483E493E00E94C71881ED92E00E940D
:10048000D41584E094E0FF90EF90DF90CF90BF9080
:10049000AF909F908F900C946E0CCF92DF92EF9262
:1004A000FF920F931F93CF93DF93EC017B0100E04A
:1004B00010E0C12CD12CF701848195810817190710
:1004C00050F4B801C7010E94892EFC018081C82622
:1004D0000F5F1F4FF0CF68E171E0CE010E94A42BA7
:1004E000B701CE010E94962B6AE171E0CE010E9415
:1004F000A42B40E150E0B601CE01DF91CF911F91D6
:100500000F91FF90EF90DF90CF900C948B2C809107
:10051000A00281110DC06BE872E08AE992E00E94AE
:10052000562D81E08093A00282E591E00E94452B48
:100530006CE171E08AE992E00E948C2D6091E10209
:100540007091E2028091E3029091E4020E941430E3
:1005500026E636E646E650E40E94163120E030E01A
:1005600048EC52E40E94752FAB01BC018AE992E08D
:100570000E94572E6AE271E08AE992E00E94D02D33
:1005800060915403709155038091560390915703E5
:1005900024E630E040E050E00E942A32BA01A9018E
:1005A0008AE992E00E94F32D65E271E08AE992E027
:1005B0000E94D02D80917E03882399F08091CC02F7
:1005C000882379F08091060490910704019749F4FB
:1005D0006091CD027091CE028091CF029091D002B5
:1005E00008C06091620370916303809164039091ED
:1005F00065030E94143020E030E048EC52E40E9491
:10060000752FAB01BC018AE992E00E94252E67E2BA
:1006100071E08AE992E00E94D02D6AE972E085E2F9
:1006200095E00C944D02CF93DF9300D000D000D022
:10063000CDB7DEB76BE872E0CE0101960E94562D71
:100640006CE271E0CE0101960E948C2DBE016F5FBD
:100650007F4F88E494E00E944D026AE571E0CE018C
:1006600001960E948C2DBE016F5F7F4F88E494E05D
:100670000E944D02CE0101960E94E82C26960FB6EC
:10068000F894DEBF0FBECDBFDF91CF9108950895DE
:10069000CF93DF9300D000D000D0CDB7DEB7E0918C
:1006A0004804F09149040480F581E02D88E494E049
:1006B0000995181619068CF5E0914804F091490443
:1006C0000680F781E02D88E494E009958A32E9F408
:1006D0006AE28CE394E00E94E02D6CE374E0CE01CA
:1006E00001960E94832DBE016F5F7F4F84E094E0EE
:1006F0000E94A30CCE0101960E94E82C6BE872E0E8
:100700008CE394E00E948C2DCACF8A3041F2682F8E
:100710008CE394E00E94E02DC2CF26960FB6F894A9
:10072000DEBF0FBECDBFDF91CF9108950E94B72EDF
:10073000892F8095881F8827881F0895FF920F931F
:100740001F93CF93DF938091CC02882351F0809147
:10075000060490910704019721F481ED92E00E9434
:10076000911683E493E00E94A8198091580388238E
:1007700099F10091470310914803D0914903C0912A
:100780004A03B0914B03A0914C03F0914D03F090BC
:100790004E0398014D2F5C2F6B2F7A2F8F2F9F2D9B
:1007A000203AE6E83E07E1E04E0751056105710594
:1007B0008105910589F084F00E940E3020E030E43C
:1007C0004CE156E40E94752F60938B0470938C0467
:1007D00080938D0490938E0481ED92E00E94911697
:1007E00080915903882349F088EA92E0DF91CF9104
:1007F0001F910F91FF900C94DE08DF91CF911F9114
:100800000F91FF90089587E694E00E947E0720E014
:1008100048E067E088E494E00E94BE066BE872E07E
:1008200082E494E00E94562D6BE872E08CE394E041
:100830000E94562D81E294E00E94EB1F84E094E038
:100840000E948A0A67E783E493E00E94AC1868E29A
:1008500081ED92E00E94AD1588EA92E00C94D308F5
:100860000C94B30185E295E00E945B2918161906E5
:10087000DCF485E295E00E947429843269F462E434
:1008800074E085E295E00E94B12B68E171E082E4BA
:1008900094E00E948C2DE6CF8A3021F3682F82E409
:1008A00094E00E94E02DDECF08950F931F93CF9325
:1008B000DF9300D000D000D0CDB7DEB780914203E7
:1008C000811108C00E940828613E7E428105910581
:1008D00008F05CC00E94480380914203882309F419
:1008E00046C080917E03882399F08091CC028823B2
:1008F00079F08091060490910704019749F44091A2
:10090000CD025091CE026091CF027091D00208C00A
:1009100040915E0350915F036091600370916103A9
:1009200081E294E00E9446210E949E030E943204CC
:100930000E94082800910A0110910B0120910C01DE
:1009400030910D01601B710B820B930B653F714061
:100950008105910560F00E9487020E94082860933B
:100960000A0170930B0180930C0190930D0187E6AF
:1009700094E00E94B10726960FB6F894DEBF0FBE32
:10098000CDBFDF91CF911F910F91089588E494E03E
:100990000E947C0740E855E260E070E088E494E063
:1009A0000E94EE066BE872E0CE0101960E94562D81
:1009B00066E671E0CE0101960E948C2DBE016F5F4C
:1009C0007F4F88E494E00E944D0240E05BE460E0E9
:1009D00070E088E494E00E94EE060E94130326E093
:1009E00040E05BE460E070E085E295E00E943E2A32
:1009F00081E08093420365E275E084E094E00E9428
:100A00000D0BCE0101960E94E82C64CF2091D104F9
:100A10003091D20428173907B9F490918F0480914E
:100A20009004981789F0E0918F04F0E0EF56FB4FA7
:100A3000808120918F0430E02F5F3F4F2F73332749
:100A400020938F0490E008958FEF9FEF08951F93F8
:100A5000CF93DF93DC015C968D919C915D9700971D
:100A600049F481E090E013969C938E93129780E076
:100A700090E03BC05196ED91FC91529750962C918D
:100A80005097322F30951FB75E964C915E9741FB81
:100A9000772770F941FD6095F8944081772311F034
:100AA000422B01C043234083EC012197F1F748E03A
:100AB000508160FF02C0522B01C053235083EC01D0
:100AC0002197F1F76695415099F78081772311F0CE
:100AD000832301C0822B80831FBF5C968D919C91E4
:100AE0005D970197F1F781E090E0DF91CF911F9141
:100AF000089508952091D1043091D2042817390720
:100B000081F490918F0480919004981751F0E091B6
:100B10008F04F0E0EF56FB4F8081992787FD909579
:100B200008958FEF9FEF08952091D1043091D20462
:100B30002817390771F48091900420918F0490E078
:100B4000805C9F4F821B910960E470E00E94F43149
:100B5000089580E090E00895E091D104F091D204EE
:100B6000E817F90769F4A389B4899C918589809570
:100B700089238C931092D2041092D10481E00895BD
:100B800080E00895CF93DF93EC018A8D9B8D892BB4
:100B9000F1F08091D1049091D2048C179D07B9F0A7
:100BA000009711F00E94AC058E8D8E7F8E8F109273
:100BB000900410928F04D093D204C093D104EB8997
:100BC000FC8980819D89892B808381E001C080E040
:100BD000DF91CF9108951F920F920FB60F921124BB
:100BE0002F933F934F935F936F937F938F939F9335
:100BF000AF93BF93EF93FF93E091D104F091D204B0
:100C0000309709F451C0868DA685B785958581FFFB
:100C100004C08C91892329F447C08C91892309F061
:100C200043C0A389B4899C918589809589238C933D
:100C3000868997890197F1F7208D318DA685B78533
:100C4000758558E040E0C9010197F1F7842F90E0E5
:100C500095958795482F6C91672309F0406851500E
:100C600091F7868D81FD40958091900490E00196EA
:100C70008F73992720918F04281749F0A091900431
:100C8000B0E0AF56BB4F4C938093900403C0868D69
:100C90008160868F828D938D0197F1F7A389B48946
:100CA0008C919589892B8C93FF91EF91BF91AF9196
:100CB0009F918F917F916F915F914F913F912F9174
:100CC0000F900FBE0F901F90189528E731E0FC01A0
:100CD000318320830C94AC051F93CF93DF93EC01F9
:100CE000162F6E8D6695617081E06827812F0E94B6
:100CF000FC2861E0812F0E94C328812F90E0FC0135
:100D0000E056FF4FE491E88BFC01EC54FF4FE49177
:100D1000F0E0EE0FFF1FEE52FF4F859194919A8BFA
:100D2000898BDF91CF911F9108951F93CF93DF930C
:100D3000EC01162F60E0812F0E94C3288E8D81FD6B
:100D400004C061E0812F0E94FC281C87812F90E065
:100D5000FC01E056FF4FE491ED87FC01EC54FF4F9E
:100D6000E491F0E0EE0FFF1FE853FF4F859194915F
:100D70009F878E87DF91CF911F910895FF920F93E8
:100D80001F93CF93DF93EC01F62E522F1B821A8212
:100D900008EE13E020E030E00C831D832E833F83B8
:100DA00088E791E0998388831F8A1E8A198E188E9E
:100DB0001B8E1A8E1D8E1C8E8E8D8E7F50FB81F9A0
:100DC0008E8F642FCE010E946C066F2DCE01DF91B5
:100DD000CF911F910F91FF900C949506CF93DF93C5
:100DE000EC019A01AB011B8E1A8E198E188E1F8A88
:100DF0001E8A60E079E08DE390E00E942A32C9010A
:100E00002430310520F0B9016350710902C061E05E
:100E100070E07D8F6C8FEC85E63108F068C0B90119
:100E2000769567956431710518F06351710902C0B8
:100E300061E070E07F8B6E8B069718F0C901059713
:100E400002C081E090E0998F888FC901880F991FB7
:100E5000820F931F96958795969587958D3091056E
:100E600010F00C9702C081E090E09B8F8A8F209158
:100E70006800E83050F091E0EE3008F490E081E056
:100E800001C0880F9A95EAF701C084E0822B809315
:100E900068002C85283038F02E3040F0263148F498
:100EA0008CE690E008C08DE690E005C08BE690E00F
:100EB00002C080E090E09C8B8B8B283030F481E086
:100EC00001C0880F2A95EAF70DC0822F90E02E30DE
:100ED00010F4089701C00E9791E001C0990F8A9510
:100EE000EAF7892F8D8B8C8D9D8D0197F1F7CE01BF
:100EF000DF91CF910C94C2050C94AC05FC0184E108
:100F000090E0948383838AEF90E09683858388EED4
:100F100093E09087878380EA9FE09287818781E0D2
:100F2000838784871586168617864FEF5FEFBA0191
:100F3000408B518B628B738B448B558B668B778B7D
:100F4000108E118E128E138E0895FC01862F6083F1
:100F5000718391E0452B09F490E0928362E00C9458
:100F6000C328CF92DF92EF92FF920F931F93CF93FC
:100F7000DF93EC010E9408286B017C0188810E94AC
:100F80003229E1E0019709F0E0E0EB878A81FC85F6
:100F9000E817C1F1F81362C08C899D89AE89BF89B9
:100FA000B701A601481B590B6A0B7B0B8B819C81F7
:100FB000AA2797FDA095BA2F84179507A607B7070C
:100FC0000CF04CC0C88AD98AEA8AFB8A188E198E1E
:100FD00021E02F871A8E1B8E8D819E81AA2797FD77
:100FE000A095BA2F481759076A077B0744F48E85E6
:100FF000811105C08D85882311F02E8701C01E86C2
:101000001D862CC0FE1709F470C088899989AA89A9
:10101000BB89B701A601481B590B6A0B7B0B8B815F
:101020009C81AA2797FDA095BA2F84179507A6073C
:10103000B7070CF05AC0888D811157C0CC8ADD8A61
:10104000EE8AFF8A8E85811103C081E08D874DC0B5
:101050001E861D861F8682E090E049C08889998996
:10106000AA89BB89C81AD90AEA0AFB0A89859A851E
:10107000AA2797FDA095BA2FC816D906EA06FB063F
:1010800064F08A8D811109C081E0898F888F1E8666
:101090001D868A8F84E090E002C080E090E0EC87BB
:1010A0008130910519F4EC8DFD8D11C082309105D0
:1010B00019F4EE8DFF8D0BC08330910519F4E8A172
:1010C000F9A105C0049709F065C0EAA1FBA130971A
:1010D00009F460C088819981DF91CF911F910F91B0
:1010E000FF90EF90DF90CF90099480E090E04C89E2
:1010F0005D896E897F8997018601041B150B260B7C
:10110000370B4D815E81662757FD6095762F04175A
:101110001507260737077CF02D85222361F02E85E1
:10112000211109C02F85222331F08230910519F059
:101130001D8681E090E0FE1709F4B1CF48895989F6
:101140006A897B89C41AD50AE60AF70A4F8158854D
:10115000662757FD6095762FC416D506E606F70676
:101160000CF49DCF49855A85662757FD6095762FEB
:10117000C416D506E606F7060CF091CF2A8D21118C
:101180008ECF81E0898F888F1E861D868A8F83E0AF
:1011900090E085CFDF91CF911F910F91FF90EF905D
:1011A000DF90CF90089540E050E068E472E4FC01E5
:1011B00040A351A362A373A314A208954F925F9218
:1011C0006F927F928F929F92AF92BF92CF92DF9257
:1011D000EF92FF920F931F93CF93DF93CDB7DEB7BC
:1011E00028970FB6F894DEBF0FBECDBF8C01C0901C
:1011F000F002D090F102E090F202F090F30220E0D1
:1012000030E0A901C701B6010E94123118163CF462
:1012100020E034E640E455E4C701B60107C0C70149
:10122000B601905820E034E640E455E40E941631BF
:101230002091D5023091D6024091D7025091D80228
:101240000E94163120918B0430918C0440918D04C2
:1012500050918E040E94752F6B017C01F801608B08
:10126000718B828B938B60915003709151038091AD
:101270005203909153030E9414302AE037ED43E269
:101280005CE30E9416314B015C0160911F04709178
:101290002004882777FD8095982F0E9414309B01A9
:1012A000AC01C701B6010E9416312FE73AE64CE3C4
:1012B0005CE30E9416319B01AC01C501B4010E94A0
:1012C0000D2F6B017C01F801648F758F868F978FCE
:1012D00020E030E0A90164897589868997890E9498
:1012E000712F811109C0F801C08ED18EE28EF38E6C
:1012F000C48AD58AE68AF78AF80184889588A68800
:10130000B788A5019401C701B6010E940C2F2BE7F5
:1013100034E14EEA5DE30E9416319B01AC01C50148
:10132000B4010E940D2F4B015C01F801648B758B99
:10133000868B978B408C518C628C738CA3019201AD
:10134000C701B6010E940C2F2DEC3CEC4CEC5DE388
:101350000E9416319B01AC01C301B2010E940D2F06
:10136000F801608F718F828F938FA50194010E9485
:101370000C2F20EB38E54AE059E40E941631209109
:101380005A0330915B0340915C0350915D030E94CE
:10139000752FF8016483758386839783208131815B
:1013A0004281538129833A834B835C830E940C2FB3
:1013B0004B015C0120E030E0A9010E94123175016F
:1013C0006401181624F0F7FAF094F7F8F094F80195
:1013D000C086D186E286F38620E030E048EC52E415
:1013E000C701B6010E94712FF80140A051A062A070
:1013F00073A0181654F420E030E046E153E4C30132
:10140000B2010E94123187FD06C0F801448655865C
:101410006686778641C020E030E04AE754E4C701A1
:10142000B6010E94123187FD0AC080E090E0A6E17B
:10143000B3E4F80184879587A687B7872DC0A301F9
:10144000920160E070E086E193E40E940C2F6D83CE
:101450007E838F83988720E030E048EC52E4C70118
:10146000B6010E940C2F9B01AC016D817E818F81A2
:1014700098850E94163120E030E041E654E40E9455
:10148000752F9B01AC01C301B2010E940D2FF80121
:101490006487758786879787F80124853585468513
:1014A0005785C501B4010E9416312FE632E143E8A9
:1014B0005AE30E9416319B01AC0169817A818B81CC
:1014C0009C810E940D2FF801608371838283938336
:1014D0000E94DD2FF80165A376A387A390A781E082
:1014E00084A31092590328960FB6F894DEBF0FBE5E
:1014F000CDBFDF91CF911F910F91FF90EF90DF90C3
:10150000CF90BF90AF909F908F907F906F905F90A3
:101510004F9008950895AF92BF92CF92DF92EF92CD
:10152000FF920F931F93BC01882777FD8095982F1A
:101530001F921F921F9228E72F932EE1A22EB12C0B
:10154000C12CD12C14E6E12EF12C00E010E020E0BB
:1015500030E0A9010E94A12C0F900F900F900F90E6
:10156000CB011F910F91FF90EF90DF90CF90BF9034
:10157000AF900895CF92DF92EF92FF920F931F9357
:10158000CF93DF9300D000D000D0CDB7DEB77B0182
:101590006AE271E0CE0101960E94562DBE016F5F96
:1015A0007F4FC7010E94B72E6C01CE0101960E94A9
:1015B000E82C6AE171E0CE0101960E94562DBE0131
:1015C0006F5F7F4FC7010E94B72E8C01CE0101963D
:1015D0000E94E82CA6014F5F5F4F9801B701CE0132
:1015E00001960E94BB2ECE0101960E94002F6B0136
:1015F0007C01CE0101960E94E82CC60126960FB60A
:10160000F894DEBF0FBECDBFDF91CF911F910F9138
:10161000FF90EF90DF90CF9008950F931F93CF939B
:10162000DF938C01EB0164E871E0CE010E94A42BF2
:10163000F801608171814AE050E0CE010E94662C81
:101640006CE871E0CE010E94A42BF80162817381E5
:101650004AE050E0CE010E94662C62E971E0CE01C2
:101660000E94A42BF801668570E04AE050E0CE01AC
:101670000E94662C6EE971E0CE010E94A42BF80155
:10168000678570894AE050E0CE010E94662C6BE9C4
:1016900071E0CE010E94A42BF801618972894AE0B1
:1016A00050E0CE010E94662C68EA71E0CE010E94F3
:1016B000A42BF801628573854AE050E0CE010E94B8
:1016C000662C60EB71E0CE010E94A42BF8016085CE
:1016D00071854AE050E0CE010E94662C68EB71E013
:1016E000CE010E94A42BF801648175814AE050E08C
:1016F000CE010E94662C66EC71E0CE010E94A42B04
:10170000F801668177814AE050E0CE010E94662CA4
:1017100064ED71E0CE010E94A42BF8016389748905
:101720004AE050E0CE010E94662C6EED71E0CE01E1
:101730000E94A42BF801618D728D4AE050E0CE0129
:101740000E94662C6BEE71E0CE010E94A42BF80182
:10175000638D748D4AE050E0CE010E94662C69EFE3
:1017600071E0CE010E94A42BF801658976894AE0D8
:1017700050E0CE010E94662C6CE072E0CE010E9427
:10178000A42BF8016789708D4AE050E0CE01DF910B
:10179000CF911F910F910C94662CEF92FF920F93B3
:1017A0001F93CF93DF937C018B01C0E0D0E0F80161
:1017B00061918F01CE018E0D9F1D0E94F6352196FD
:1017C000CD31D105A1F78DE190E0DF91CF911F914F
:1017D0000F91FF90EF900895BC0180E090E00C9491
:1017E000CD0BCF93DF93EC01611107C01B821A82EE
:1017F00081E294E00E9468240CC081E090E09B8329
:101800008A8381E294E00E94412581E294E00E9473
:101810004125CE01DF91CF910C94EC0BFC0180EEC1
:1018200097E0918380831382128281E086878CE81F
:101830009AE0908B878784EF91E0928B818B89E08F
:1018400090E0938782872AE030E0358724873583CC
:10185000248326E03FEF378326839187808784E6C1
:1018600090E0948B838B2FE530E0368B258B108EA8
:10187000178A21E430E0328F218F948F838FBF014C
:1018800080E090E00C94CD0BEF92FF920F931F93AA
:10189000CF93DF938C017C01C0E0D0E0CE010E94A9
:1018A000EE35F70181937F012196CD31D105B1F756
:1018B000F80180819181803E974049F0C801DF9115
:1018C000CF911F910F91FF90EF900C940E0CDF9130
:1018D000CF911F910F91FF90EF9008950F931F9359
:1018E000CF93DF93EC010E94440C898D9A8D0E9466
:1018F0008B0A90938103809380030E811F8122279E
:1019000017FD2095322F4C815D81662757FD60952C
:10191000762F81E294E00E9406208E858093380421
:10192000888580933B048A3030F489899A89909322
:101930003A048093390460E0CE01DF91CF911F918A
:101940000F910C94F10B2F923F924F925F926F92F6
:101950007F928F929F92AF92BF92CF92DF92EF923F
:10196000FF920F931F93CF93DF93CDB7DEB76997A5
:101970000FB6F894DEBF0FBECDBF7C011B016FE137
:1019800072E0CE0101960E94562DB101CE0107965C
:101990000E94832DBE016F5F7F4FCE0107960E948C
:1019A0009603182FCE0107960E94E82CCE010196CF
:1019B0000E94E82C112351F0C7010E94EC0B63E058
:1019C00070E081E294E00E94FC25F8C466E272E0D7
:1019D000CE0101960E94562DB101CE0107960E94BC
:1019E000832DBE016F5F7F4FCE0107960E94960345
:1019F000182FCE0107960E94E82CCE0101960E9476
:101A0000E82C1123B9F0C7010E940E0CC7010E94F7
:101A1000EC0B81E294E00E94412581E294E00E9477
:101A2000412581E294E00E94412581E294E00E94F8
:101A30004125C4C46EE272E0CE0101960E94562D8B
:101A4000B101CE0107960E94832DBE016F5F7F4FCB
:101A5000CE0107960E949603182FCE0107960E948A
:101A6000E82CCE0101960E94E82C112301F1B1016E
:101A7000CE0101960E94832DBE016F5F7F4FC7018B
:101A80000E94BA0A8C01CE0101960E94E82CA8019E
:101A900017FF03C0519541955109F70155834483C0
:101AA00006811781222717FD2095322F40C063E35E
:101AB00072E0CE0101960E94562DB101CE0107962B
:101AC0000E94832DBE016F5F7F4FCE0107960E945B
:101AD0009603182FCE0107960E94E82CCE0101969E
:101AE0000E94E82C112361F1B101CE0101960E9400
:101AF000832DBE016F5F7F4FC7010E94BA0A8C0120
:101B0000CE0101960E94E82C980117FF03C0319581
:101B10002195310900271127021B130BF7011783A9
:101B20000683222717FD2095322F44815581662791
:101B300057FD6095762F81E294E00E9406203EC416
:101B400068E372E0CE0101960E94562DB101CE01EC
:101B500007960E94832DBE016F5F7F4FCE010796CF
:101B60000E949603182FCE0107960E94E82CCE0102
:101B700001960E94E82C112331F1B101CE010196AA
:101B80000E94832DBE016F5F7F4FC7010E94BA0A7A
:101B90008C01CE0101960E94E82C0E35F1E01F0762
:101BA00044F0C801093B2BE012072CF088EB9BE0C6
:101BB00002C08EE591E0F701908B878790933A04FD
:101BC00080933904FBC36DE372E0CE0101960E945D
:101BD000562DB101CE0107960E94832DBE016F5F85
:101BE0007F4FCE0107960E949603182FCE010796CD
:101BF0000E94E82CCE0101960E94E82C112301F1ED
:101C0000B101CE0101960E94832DBE016F5F7F4F0F
:101C1000C7010E94BA0A8C01CE0101960E94E82CED
:101C2000003511053CF0C8010D3811052CF08CE889
:101C300090E002C080E590E0F701948F838FBEC3EF
:101C400063E472E0CE0101960E94562DB101CE01EF
:101C500007960E94832DBE016F5F7F4FCE010796CE
:101C60000E949603182FCE0107960E94E82CCE0101
:101C700001960E94E82C112309F442C0B101CE0163
:101C80000D960E94832DBE01635F7F4FC7010E94A6
:101C9000BA0A8E35914034F1B101CE0107960E9407
:101CA000832DBE01695F7F4FC7010E94BA0A893B3D
:101CB0009B408CF4B101CE0101960E94832DBE01A0
:101CC0006F5F7F4FC7010E94BA0A8C01CE01019657
:101CD0000E94E82C02C008EB1BE0CE0107960E9490
:101CE000E82C02C00EE511E0CE010D960E94E82C12
:101CF000F701128B018B10933A04009339045EC3F1
:101D000069E472E0CE0101960E94562DB101CE0128
:101D100007960E94832DBE016F5F7F4FCE0107960D
:101D20000E949603182FCE0107960E94E82CCE0140
:101D300001960E94E82C1123E9F1B101CE010D9624
:101D40000E94832DBE01635F7F4FC7010E94BA0AC4
:101D5000181619062CF5B101CE0107960E94832DA5
:101D6000BE01695F7F4FC7010E94BA0A0A978CF4CF
:101D7000B101CE0101960E94832DBE016F5F7F4F9E
:101D8000C7010E94BA0A8C01CE0101960E94E82C7C
:101D900002C009E010E0CE0107960E94E82C02C0C4
:101DA00001E010E0CE010D960E94E82CF7011387A8
:101DB000028704C36EE472E0CE0101960E94562DA4
:101DC000B101CE0107960E94832DBE016F5F7F4F48
:101DD000CE0107960E949603182FCE0107960E9407
:101DE000E82CCE0101960E94E82C1123E1F1B1010B
:101DF000CE010D960E94832DBE01635F7F4FC70108
:101E00000E94BA0A09972CF1B101CE0107960E94EF
:101E1000832DBE01695F7F4FC7010E94BA0A0B97ED
:101E20008CF4B101CE0101960E94832DBE016F5F3B
:101E30007F4FC7010E94BA0A8C01CE0101960E9411
:101E4000E82C02C00AE010E0CE0107960E94E82CC0
:101E500002C009E010E0CE010D960E94E82CF701C7
:101E600015870487ABC263E572E0CE0101960E943C
:101E7000562DB101CE0107960E94832DBE016F5FE2
:101E80007F4FCE0107960E949603182FCE0107962A
:101E90000E94E82CCE0101960E94E82C1123F1F15A
:101EA000B101CE010D960E94832DBE01635F7F4F6D
:101EB000C7010E94BA0A8634910534F1B101CE01FE
:101EC00007960E94832DBE01695F7F4FC7010E9464
:101ED000BA0A833891058CF4B101CE0101960E94B3
:101EE000832DBE016F5F7F4FC7010E94BA0A8C012C
:101EF000CE0101960E94E82C02C002E810E0CE015B
:101F000007960E94E82C02C006E410E0CE010D9670
:101F10000E94E82CF701148B038B50C268E572E035
:101F2000CE0101960E94562DB101CE0107960E9466
:101F3000832DBE016F5F7F4FCE0107960E949603EF
:101F4000182FCE0107960E94E82CCE0101960E9420
:101F5000E82C112309F444C0B101CE010D960E9472
:101F6000832DBE01635F7F4FC7010E94BA0A97FDB0
:101F700026C0B101CE0107960E94832DBE01695F84
:101F80007F4FC7010E94BA0A853691058CF4B101D2
:101F9000CE0101960E94832DBE016F5F7F4FC70166
:101FA0000E94BA0A8C01CE0101960E94E82C02C060
:101FB00004E610E0CE0107960E94E82C02C000E083
:101FC00010E0CE010D960E94E82CF701128F018FD0
:101FD000C8010E948B0A9093810380938003EEC115
:101FE0006EE572E0CE0101960E94562DB101CE0140
:101FF00007960E94832DBE016F5F7F4FCE0107962B
:102000000E949603182FCE0107960E94E82CCE015D
:1020100001960E94E82C112319F00E944703CEC1BB
:1020200064E672E0CE0101960E94562DB101CE0108
:1020300007960E94832DBE016F5F7F4FCE010796EA
:102040000E949603182FCE0107960E94E82CCE011D
:1020500001960E94E82C1123E9F1B101CE010D9601
:102060000E94832DBE01635F7F4FC7010E94BA0AA1
:10207000C29734F1B101CE0107960E94832DBE01B3
:10208000695F7F4FC7010E94BA0A873991058CF4B6
:10209000B101CE0101960E94832DBE016F5F7F4F7B
:1020A000C7010E94BA0A8C01CE0101960E94E82C59
:1020B00002C006E910E0CE0107960E94E82C02C09B
:1020C00002E310E0CE010D960E94E82CF701168B7A
:1020D000058B74C16AE672E0CE0101960E94562D0E
:1020E000B101CE0107960E94832DBE016F5F7F4F25
:1020F000CE0107960E949603182FCE0107960E94E4
:10210000E82CCE0101960E94E82C1123E9F1B101DF
:10211000CE010D960E94832DBE01635F7F4FC701E4
:102120000E94BA0A8C3E9F4F2CF1B101CE01079656
:102130000E94832DBE01695F7F4FC7010E94BA0ACA
:1021400045978CF4B101CE0101960E94832DBE010A
:102150006F5F7F4FC7010E94BA0A8C01CE010196C2
:102160000E94E82C02C004E110E0CE0107960E9414
:10217000E82C02C00CEE1FEFCE010D960E94E82C59
:10218000F701108F078B1AC160E772E0CE0101964C
:102190000E94562DB101CE0107960E94832DBE01EB
:1021A0006F5F7F4FCE0107960E949603182FCE01D6
:1021B00007960E94E82CCE0101960E94E82C11237C
:1021C00009F4C3C0F0913B04FF8BF7018485809331
:1021D0003B046AE271E0CE0101960E94562DBE01D9
:1021E0006F5F7F4FC1010E94B72E8C01CE01019617
:1021F0000E94E82C0F5F1F4F6AE271E0CE0101964A
:102200000E94562DA801BE016F5F7F4FC1010E9441
:102210009B2E5C01CE0101960E94E82C9501A8013D
:10222000B101CE0101960E94BB2ECE0101960E9403
:10223000002F6B017C01CE0101960E94E82CFFEF7C
:10224000AF1ABF0A6AE271E0CE0101960E94562DD4
:10225000A501BE016F5F7F4FC1010E949B2E8C01C3
:10226000CE0101960E94E82C9801A501B101CE0192
:1022700001960E94BB2ECE0101960E94002F4B01B9
:102280005C01CE0101960E94E82C0F5F1F4F6AE2AD
:1022900071E0CE0101960E94562DA801BE016F5F2C
:1022A0007F4FC1010E949B2E9C8B8B8BCE01019690
:1022B0000E94E82C2B893C89A801B101CE0101962E
:1022C0000E94BB2ECE0101960E94002F2B013C01E3
:1022D000CE0101960E94E82C0B891C890F5F1F4FCD
:1022E0006AE171E0CE0101960E94562DA801BE015F
:1022F0006F5F7F4FC1010E949B2E9C01CE01019612
:10230000288F398F0E94E82C288D398DA801B101C2
:10231000CE0101960E94BB2ECE0101960E94002F95
:102320006B8B7C8B8D8B9E8BCE0101960E94E82C53
:102330000B891C899201A401B60181E294E00E94FC
:10234000D7222F8920933B0439C065E772E0CE0184
:1023500001960E94562DB101CE0107960E94832D51
:10236000BE016F5F7F4FCE0107960E949603182F24
:10237000CE0107960E94E82CCE0101960E94E82C1F
:102380001123E1F010913B04F701848580933B0415
:10239000B101CE0101960E94832DBE016F5F7F4F78
:1023A000C7010E94BA0ABC0181E294E00E94412662
:1023B000CE0101960E94E82C10933B0469960FB65B
:1023C000F894DEBF0FBECDBFDF91CF911F910F916B
:1023D000FF90EF90DF90CF90BF90AF909F908F9045
:1023E0007F906F905F904F903F902F900895449A08
:1023F000459AE9EBF0E080818E7F808380818D7F3C
:10240000808388E48093B80084E48093BC000895BE
:102410007093F7046093F60408953091FA042091C4
:10242000F804231B2093F904311104C01092F9041D
:1024300080E0089531503093FA04FC01E20FF11D61
:1024400083810895CF92DF92EF92FF920F931F93B3
:102450000E9408286B017C0184EA8093BC00809173
:10246000F6049091F7042091BC0027FD1BC0009753
:10247000D1F30E9408286C197D098E099F094091AB
:10248000F6045091F7048A0120E030E060177107EC
:102490008207930720F31092BC0084E48093BC0071
:1024A00081E01CC08091B900887F883029F080913C
:1024B000B900887F803111F480E010C08091B900AC
:1024C000887F883341F48091B9001092BC0094E475
:1024D0009093BC0002C08091B900887F1F910F913A
:1024E000FF90EF90DF90CF900895CF92DF92EF9220
:1024F000FF920F931F93CF93C62F0E9408286B0162
:102500007C01CC2311F084EC01C084E88093BC00F2
:102510008091F6049091F7042091BC0027FD1BC028
:102520000097D1F30E9408286C197D098E099F0934
:102530004091F6045091F7048A0120E030E06017E2
:1025400071078207930720F31092BC0084E4809304
:10255000BC0081E010C08091B900887F883341F4CD
:102560008091B9001092BC0094E49093BC0002C02A
:102570008091B900887FCF911F910F91FF90EF90CC
:10258000DF90CF900895CF92DF92EF92FF920F935A
:102590001F930E9408286B017C0184E98093BC0092
:1025A0008091F6049091F7042091BC0024FF1BC099
:1025B0000097D1F30E9408286C197D098E099F09A4
:1025C0004091F6045091F7048A0120E030E0601752
:1025D00071078207930720F31092BC0084E4809374
:1025E000BC0081E001C080E01F910F91FF90EF904F
:1025F000DF90CF900895CF92DF92EF92FF920F93EA
:102600001F93CF93DF93EC016093BB000E940828D7
:102610006B017C0184E88093BC008091F60490916A
:10262000F7042091BC0027FD1BC00097D1F30E9446
:1026300008286C197D098E099F092091F6043091B4
:10264000F704890120E030E06017710782079307E3
:1026500020F31092BC0084E48093BC0081E024C08D
:102660008091B900887F883129F08091B900887FF6
:10267000803411F480E018C01091B900187F809167
:10268000B900887F803229F08091B900887F883432
:1026900029F4CE010E94C312812F06C01092BC0003
:1026A00084E48093BC00F8CFDF91CF911F910F910C
:1026B000FF90EF90DF90CF900895CF92DF92EF924E
:1026C000FF920F931F93CF93DF931F92CDB7DEB787
:1026D0006C01F42E1092FA041092F904FC0111829C
:1026E00069830E942212F6018183698181114DC0A4
:1026F000660F6F5FC6010E94FB12F601818388237B
:1027000029F0813009F041C085E03FC0F11008C0D8
:10271000C6010E94C312F6018183811133C035C006
:102720008FEF8F0DF601828300E010E0E02E0F1591
:1027300078F7F6018281E8120DC060E0C6010E94C0
:102740007512F6018183813011F486E01EC0883550
:1027500059F01BC061E0C6010E947512F601818329
:10276000813099F3803589F48091BB00F601E00F48
:10277000F11F8383E394E092FA04E092F8040F5F80
:102780001F4FD4CF813009F487E00F90DF91CF91B4
:102790001F910F91FF90EF90DF90CF900895CF920F
:1027A000DF92EF92FF920F931F93CF93DF93EC0191
:1027B0006093BB000E9408286B017C0184E8809331
:1027C000BC008091F6049091F7042091BC0027FD95
:1027D0001BC00097D1F30E9408286C197D098E094F
:1027E0009F092091F6043091F704890120E030E040
:1027F000601771078207930720F31092BC0084E4EE
:102800008093BC0081E019C08091B900887F883234
:1028100099F01091B900187F8091B900887F8033BA
:1028200021F4CE010E94C31205C01092BC0084E4C2
:102830008093BC00812F01C080E0DF91CF911F9178
:102840000F91FF90EF90DF90CF900895EF92FF925D
:102850001F93CF93DF931F92CDB7DEB77C01142F68
:10286000FC01118269830E942212F7018183698130
:10287000811124C0660FC7010E94FB12F7018183FA
:10288000882321F08130D1F482E018C0612FC70184
:102890000E94CF13F7018183882321F0813071F4E6
:1028A00083E00CC0C7010E94C312F7018183882313
:1028B00021F0813019F487E001C080E00F90DF91B2
:1028C000CF911F91FF90EF900895EF92FF920F9399
:1028D0001F93CF93DF93EC01162F042FF22E10924B
:1028E000FA041092F904211102C0FF24F3948FEF2F
:1028F0008F0D8A831982CE010E9422128983811151
:1029000067C0110F612FCE010E94FB1289838823BB
:1029100029F0813009F05CC082E05AC0602FCE01FE
:102920000E94CF138983882329F0813009F050C099
:1029300083E04EC0CE010E9422128983882329F0B1
:10294000813009F045C084E043C061E0610FCE01F1
:102950000E94FB128983811103C000E010E01DC0BA
:102960008130B1F585E034C08A81E8121AC060E098
:10297000CE010E94751289838130D1F0883541F5EE
:102980008091BB00FE01E00FF11F8383E394E0928E
:10299000FA04E092F8040F5F1F4FE02E0F1520F3AA
:1029A0000CC061E0CE010E9475128983813011F460
:1029B00086E00EC0803521F30BC0CE010E94C31209
:1029C0008983882321F0813019F487E001C080E0F9
:1029D000DF91CF911F910F91FF90EF9008950F938A
:1029E0001F93FC01408351836283738304831583A7
:1029F0002683378340E050E060E87FE340875187DB
:102A00006287738740E050E060E87FEB448755873A
:102A10006687778781E0848B1F910F910895FC0171
:102A20004CEA55EC67E277E340835183628373831A
:102A30004AE057ED63E27CE3448355836683778302
:102A400040E050E060E87FE340875187628773870A
:102A500040E050E060E87FEB4487558766877787E2
:102A600081E0848B0895CF92DF92EF92FF92CF9313
:102A7000DF93EC01CC80DD80EE80FF8028813981FE
:102A80004A815B81688579858A859B850E940D2FA7
:102A9000A70196010E940D2F9B01AC01C701B60151
:102AA0000E94752F9B01AC0160E070E080E89FE31D
:102AB0000E940C2F9B01AC01688B798B8A8B9B8BBE
:102AC000C701B6010E941631688779878A879B877C
:102AD000DF91CF91FF90EF90DF90CF9008958F928C
:102AE0009F92AF92BF92CF92DF92EF92FF92CF93DD
:102AF000DF93EC016A017B018C89882311F01C8A29
:102B00001BC0CE010E9433158C849D84AE84BF848B
:102B1000A5019401C701B6010E940C2F28893989AB
:102B20004A895B890E9416319B01AC01C501B40141
:102B30000E940D2F6B017C01CC86DD86EE86FF8620
:102B4000C701B601DF91CF91FF90EF90DF90CF905A
:102B5000BF90AF909F908F9008950F931F93CF9346
:102B6000DF931F92CDB7DEB78C018B9669830E94ED
:102B70000F15F801E05CFF4F6981608340E050E091
:102B800060E87FE3D80193964D935D936D937C93BA
:102B90009697F80117A210A611A612A60F90DF9122
:102BA000CF911F910F910895CF92DF92EF92FF92F4
:102BB0000F931F93CF93DF93CDB7DEB765970FB613
:102BC000F894DEBF0FBECDBF7C010FE612E123E813
:102BD0003BE347E157EB61E57AE3CE0101960E94C2
:102BE000EF1485E1FE013196D7019B9601900D927D
:102BF0008A95E1F7F701EE5BFF4F1082F701148A27
:102C0000118E81E0828FE359FF4F80E89CE0A0E0C5
:102C1000B0E080839183A283B38383ED94E00E942C
:102C2000F71160E570E083ED94E00E940812F7016F
:102C3000E05CFF4F44E0608183ED94E00E945D130F
:102C4000F701EF5BFF4F808383ED94E00E940D124C
:102C50006701FDE4CF0ED11CF601808383ED94E083
:102C60000E940D12F701E25BFF4F808383ED94E039
:102C70000E940D128701015B1F4FF801808383EDD5
:102C800094E00E940D12F701E05BFF4F8083F60194
:102C90009081907C71F5F801608170E0762F662755
:102CA000680F711D882777FD8095982F607E882793
:102CB000992725E095958795779567952A95D1F77A
:102CC000369660837183828393830E94143023E05D
:102CD00039E148EC5DE30E94163120E030E04FE539
:102CE00053E40E940D2FF7016483758386839783D5
:102CF00009C080E090E0A6E9B3E4F70184839583FE
:102D0000A683B78365960FB6F894DEBF0FBECDBF1E
:102D1000DF91CF911F910F91FF90EF90DF90CF90B7
:102D200008954F925F926F927F928F929F92AF928F
:102D3000BF92CF92DF92EF92FF920F931F93CF93A8
:102D4000DF93EC01FC01E05CFF4F42E0608183ED2A
:102D500094E00E945D13FE01EF5BFF4F80838111C1
:102D600075C183ED94E00E940D128E01035B1F4F2D
:102D7000F801808383ED94E00E940D12FE01E25B76
:102D8000FF4F8083F8019081292F207C09F05EC1DC
:102D9000C92ED12CDC2CCC24C80ED11CF0E2DF1AB9
:102DA000EE24D7FCE094FE2CFE01EF5AFF4FC082C8
:102DB000D182E282F3820B501109F80180818111E6
:102DC0003AC03196808191810196918380838115EB
:102DD000F1E09F07E1F47E0129E5E20EF11CFE011E
:102DE000EB5BFF4F60817181828193810E9414307F
:102DF00020E030E040E05CE30E941631F7016083A0
:102E000071838283938381E0F8018083E9C08038F5
:102E100091050CF4E5C0FE01EB5BFF4F80819181D1
:102E2000A281B3818C0D9D1DAE1DBF1D808391833A
:102E3000A283B383D5C0FE01E75AFF4F4080518083
:102E400062807380C701B6010E941430A301920111
:102E50000E940C2F4B015C01FE01E35AFF4F60837F
:102E600071838283938340910B0504E04002F0015B
:102E70001124E550FB4F80819181A281B38197019C
:102E80008601081B190B2A0B3B0BC901B8010091E5
:102E90000C0510910D0520910E0530910F05600F66
:102EA000711F821F931F60930C0570930D05809313
:102EB0000E0590930F05C082D182E282F38221E059
:102EC000240F24301CF420930B0502C010920B0534
:102ED0000E94143020E030E040E85EE30E941631AA
:102EE000A30192010E940C2F6F8F78A389A39AA34C
:102EF000488059806A807B80A3019201C501B4019A
:102F00000E940C2F4B015C0120E030E0A9010E94DF
:102F1000123175016401181624F0F7FAF094F7F8ED
:102F2000F094FE01EF59FF4FC082D182E282F3821A
:102F300020E030E040E251E4C701B6010E94712F69
:102F40008E010B591F4F18162CF08FE692E1A3E863
:102F5000BAE30EC020E030E048EC52E4C701B6010D
:102F60000E94123187FD0AC08AE097EDA3E2BCE31C
:102F7000F80180839183A283B3831FC020E030E0F7
:102F800040E251E4C701B6010E940C2F2CEB34E75C
:102F900043E15CE30E94163120E030E044EB52E470
:102FA0000E94752F2FE632E143E85AE30E940D2F6D
:102FB000F8016083718382839383F80120813181DA
:102FC00042815381C501B4010E9416319B01AC01BD
:102FD000C301B2010E940D2F688379838A839B838A
:102FE000C880D980EA80FB8020E030E0A901C701D9
:102FF000B6010E941231181624F0C701B60190588C
:1030000002C0C701B6012C813D814E815F810E94C3
:10301000163120918B0430918C0440918D04509195
:103020008E040E94752F0E947D3126E636E949E123
:1030300055E40E941631688779878A879B87FE014D
:10304000E75BFF4F60837183828393830E9408282C
:10305000FE01E759FF4F6083718382839383349627
:10306000008111812281338106171707280739074C
:1030700008F061C0DC01CB018C599F4FAF4FBF4FAF
:1030800080839183A283B3838E01075B1F4FF80176
:10309000C080D180E280F38020E030E046E953E454
:1030A000C701B6010E941231181624F5B701A60116
:1030B000CE018B960E946F152BA13CA14DA15EA164
:1030C0000E9416312FA138A549A55AA50E940D2F9F
:1030D0000E94DD2F688B798B8A8B9B8BF801608136
:1030E0007181828193810E94DD2F6C877D878E871D
:1030F0009F8708C0188A198A1A8A1B8A1C861D860F
:103100001E861F8681E08C8B8A8D8823A1F08E011C
:10311000075A1F4F288139814A815B81F8016081FC
:103120007181828193810E940D2FF80160837183E8
:10313000828393831A8EDF91CF911F910F91FF901D
:10314000EF90DF90CF90BF90AF909F908F907F9047
:103150006F905F904F9008950F931F93CF93DF93DD
:103160001F92CDB7DEB78C018D5B9F4F69830E94A4
:103170000F15F801E45AFF4F69816083D8011C964E
:103180001C920F90DF91CF911F910F9108952F9274
:103190003F924F925F926F927F928F929F92AF92E7
:1031A000BF92CF92DF92EF92FF920F931F93CF9334
:1031B000DF93CDB7DEB765970FB6F894DEBF0FBECD
:1031C000CDBF4C010AE017ED23EA3CE347E157EBA2
:1031D00061ED77E3CE0101960E94EF14D401AD5B5F
:1031E000BF4F85E1FE01319601900D928A95E1F77E
:1031F0001F921F921F9288E78F939EE1A92EB12CF8
:10320000C12CD12C14E6E12EF12C00E010E020E0DE
:1032100030E0A90162E370E080E090E00E94A12C20
:10322000D401DE967C936E93DD9755961C9255974C
:10323000DB961C9280E090E4ACE9B6E4F401878B65
:10324000908FA18FB28F83ED94E00E94F71160E51B
:1032500070E083ED94E00E9408127401FCE5EF0E2B
:10326000F11C4EE1D7016C9183ED94E00E9426148D
:103270006401BBE6CB0ED11CF601808384010459A6
:103280001F4FD8011C920F900F900F900F90882322
:1032900019F081E08C9343C064E670E080E090E038
:1032A0000E94372882EA282E5401BFE6AB0EB11CDB
:1032B0002401EDE64E0E511C3324339422E0422DBE
:1032C000D7016C9183ED94E00E946514F601808330
:1032D000882319F0D8013C921AC083ED94E00E9433
:1032E0000D1290E0F5019183808383ED94E00E94BC
:1032F0000D1290E0D2018D939C93F401E15AFF4F9F
:10330000D5017C90612C8629972991838083239411
:103310002394B2E08B0E911CEEEA2E12CFCF65966D
:103320000FB6F894DEBF0FBECDBFDF91CF911F91D6
:103330000F91FF90EF90DF90CF90BF90AF909F9054
:103340008F907F906F905F904F903F902F90089557
:103350002F923F924F925F926F927F928F929F92A5
:10336000AF92BF92CF92DF92EF92FF920F931F9393
:10337000CF93DF93CDB7DEB762970FB6F894DEBF79
:103380000FBECDBF9A8B898BDC011C968C9181304E
:1033900009F0A4C00E9414289695879577956795A3
:1033A000E989FA89E755FF4F6083718382839383AC
:1033B000E988FA88BFE3EB0EF11CD7010D911D914E
:1033C0002D913C91601771078207930738F4DC0157
:1033D000CB01B06880839183A283B3830C561E4EC9
:1033E0002F4F3F4F80819181A281B3810817190728
:1033F0002A073B0708F0F3C009891A89085A1F4FAA
:10340000F8011082118212821382C988DA88FCE5E1
:10341000CF0ED11C23E040E0D6016C9183ED94E007
:103420000E946514E989FA89EF58FF4F5F01811105
:1034300039C083ED94E00E940D1290E0A0E0B0E06E
:10344000BA2FA92F982F8827F80180839183A28310
:10345000B38383ED94E00E940D12D8014D915D91EC
:103460006D917C91482B762F652F542F4427F801BE
:10347000408351836283738383ED94E00E940D1235
:10348000D8014D915D916D917C91482BF80140835D
:10349000518362837383D5014D935D936D937C93C8
:1034A000139704C0108211821282138248E5D6015C
:1034B0006C9183ED94E00E9426140E941428969546
:1034C000879577956795F7016083718382839383EE
:1034D00082E0A989BA891C968C9381C0823009F058
:1034E0007EC00E9414289695879577956795E989FF
:1034F000FA89E755FF4F6083718382839383A9899B
:10350000BA89DF960D911D912D913C91601771073D
:103510008207930738F4DC01CB01B0688083918384
:10352000A283B3830C561E4E2F4F3F4F8081918153
:10353000A281B381081719072A073B0708F04FC07B
:1035400023E040E0E989FA89E45AFF4F608183ED86
:1035500094E00E94651481113EC083ED94E00E94C6
:103560000D1209891A89085A1F4F90E0A0E0B0E0B7
:10357000BA2FA92F982F8827F80180839183A283DF
:10358000B38383ED94E00E940D12D8014D915D91BB
:103590006D917C91482B762F652F542F4427F8018D
:1035A000408351836283738383ED94E00E940D1204
:1035B000D8014D915D916D917C91482BF80140832C
:1035C000518362837383E989FA89EB58FF4F408303
:1035D000518362837383A989BA891C961C92E989F5
:1035E000FA8984858111DEC448E4E45AFF4F608182
:1035F00083ED94E00E94261409891A8903551F4F10
:10360000F80180819181A281B381E989FA89EF541F
:10361000FF4F80839183A283B3830E941428D80133
:103620006D937D938D939C931397E989FA89FF9607
:10363000DC01CB01B695A7959795879580839183FB
:10364000A283B38381E0E989FA898487EF58FF4F29
:10365000FA83E98311E080819181A281B3811816F8
:1036600019061A061B060CF010E00E940828693E95
:1036700073408105910508F495C4112309F492C49F
:1036800009891A8907581F4FF80180819181A28109
:10369000B38129893A892B583F4F892B8A2B8B2B51
:1036A00051F4F90180819181A281B381F801808375
:1036B0009183A283B383D901CD90DD90ED90FC90EE
:1036C000F80160817181828193816C0D7D1D8E1D59
:1036D0009F1D22E030E040E050E00E942A32E9895C
:1036E000FA89E358FF4F2083318342835383D80103
:1036F000CD92DD92ED92FC921397E989FA89E9590E
:10370000FF4F80819181A0E0B0E0BA2FA92F982FC0
:10371000882729013A01481A590A6A0A7B0AD30103
:10372000C201BB0F880B982FDC01E989FA89EF579A
:10373000FF4F4082518262827382848385838683B5
:103740008783E989FA89E759FF4F20813181E98828
:10375000FA88B9E8EB0EF11C40E050E0C301B20179
:103760000E94B33207E10E9406332053384F4F4F77
:103770005F4F6F4F7F4F8F4F9F4F0E940E300E94C1
:10378000DD2FF7016083718382839383E989FA894E
:10379000EB59FF4F0190F081E02DA989BA89AF590B
:1037A000BF4F8D909C90940140E050E060E070E04D
:1037B00080E090E000E10E94ED3269017A011B0196
:1037C0004C019F0140E050E0C301B2010E94B332BE
:1037D00007E00E9406335901B42FA52FF62FE72FDB
:1037E0008C019601A701B101C401CB2EDA2EEF2E78
:1037F000FE2E0E942433922E3B834F835887698785
:10380000272E382E892EE989FA89E357FF4F208326
:103810003183428353836483758386839783E989E5
:10382000FA89ED59FF4F0190F081E02DA989BA89FD
:10383000A15ABF4F8D919C919C0140E050E060E007
:1038400070E080E090E00FE00E94ED3269017A01C3
:10385000162F7A878B879C879F0140E050E0C30139
:10386000B2010E94B33208E00E9406335901742E5F
:10387000B52FA62F672E082F592E9601A701612F6D
:103880007A858B859C85C72CDB2EEA2EF62C152D90
:103890000E9424338C01E989FA89EB56FF4F20837B
:1038A0003183428353836483758386831783E981DD
:1038B000FA8180819181A281B3812C013D01770C35
:1038C0004408542C320159016A017B019C01AD016D
:1038D000642D742D842D942D0E945A3205E10E948E
:1038E0000633A92CBB80CF80D884E984F22C032D29
:1038F000182D0E942D3339014A01B62FA72FF82F1A
:10390000E92F06E00E94ED3253016401EB2EFA2EFE
:103910000F2F1E2F0E942D3301E00E94ED320F2F3A
:103920000E942D3339014A01B62FA72FF82FE92F16
:1039300002E00E94ED3259016A017B018C01930182
:10394000A4016B2F7A2F8F2F9E2F0E94243304E027
:103950000E94ED320FE00E94063359016A017B019B
:103960008C01A989BA8914962C9314971596BC9248
:10397000159716964C9316971796DC9217971896EC
:103980006C9318971996FC9219971A968C931A971C
:103990001B961C9320353143464E584361057105F3
:1039A00081059105A1F09CF020ED37EF44E65CE342
:1039B00060E070E080E090E00E942D330E940E30C5
:1039C00025EF3FE94EEA5DE30E9416314BC09501B9
:1039D000A601B701C80120343D4F41495543610557
:1039E000710581059105C1F0BCF020E531E346EE9B
:1039F00058E360E070E080E090E00E942D330E9488
:103A00000E3027E239E547EB5DE30E94163120E8EE
:103A100036E948E95AE423C19501A601B701C80176
:103A20002036314A4C4652436105710581059105A6
:103A300011F10CF120E43DEF41E955E360E070E065
:103A400080E090E00E942D330E940E302CE433E0A1
:103A500042EC5DE30E94163120E836E948E15BE480
:103A60000E940D2F0E94DD2FE989FA8965877687EC
:103A70008787908B00C19501A601B701C801203A44
:103A80003E4642465F426105710581059105C1F0E0
:103A9000BCF020E631EA4CE652E360E070E080E002
:103AA00090E00E942D330E940E3029EC38EC48EC57
:103AB0005DE30E94163120EC31EE44E65BE4CFC0BA
:103AC0009501A601B701C801203E3D4244485C4231
:103AD0006105710581059105C1F0BCF020EA3EE663
:103AE00042E65FE260E070E080E090E00E942D330B
:103AF0000E940E3024E23DEC44ED5DE30E9416315D
:103B000020E836E948E95BE4ABCF9501A601B701AF
:103B1000C80121153E434A4C594261057105810592
:103B20009105C1F0BCF020EE3DE244E85CE260E0CB
:103B300070E080E090E00E942D330E940E3023EC74
:103B40003FED4FED5DE30E94163120E23CEB4EEB82
:103B50005BE485C09501A601B701C801203836464F
:103B6000434357426105710581059105C1F0BCF0E1
:103B700020E03EE34AEC59E260E070E080E090E053
:103B80000E942D330E940E3029E33AEB4BEE5DE3A9
:103B90000E94163120EC31EE44EE5BE461CF9501DA
:103BA000A601B701C801203D37444E4B5442610580
:103BB000710581059105C1F0BCF020E836E643E3CC
:103BC00057E260E070E080E090E00E942D330E94B8
:103BD0000E3023EE3CE548EF5DE30E94163120EB0A
:103BE00033E845E05CE43BC09501A601B701C8019C
:103BF00020353B45494652426105710581059105D5
:103C0000C1F0BCF020ED37E44EEB54E260E070E030
:103C100080E090E00E942D330E940E302DE131EEC5
:103C200042E05EE30E94163120E836E948E15CE4B8
:103C300017CF20E53BE549E652E260E070E080E026
:103C400090E00E942D330E940E3020E734E14AE0DC
:103C50005EE30E94163120E539EA4BE25CE40E9403
:103C60000D2F0E94DD2FA989BA891D966D937D9332
:103C70008D939C93509709891A8903561F4FF80119
:103C800080819181A281B38129893A892F543F4F44
:103C90003A832983E989FA89C584D684E784F08840
:103CA000EB55FF4F1F01892B8A2B8B2B19F5D80160
:103CB000CD92DD92ED92FC921397C082D182E28286
:103CC000F382E989FA89EF55FF4FC082D182E282FF
:103CD000F382F90180819181A281B38180529E4457
:103CE000A109B109E989FA89EB54FF4F80839183D7
:103CF000A283B383D8014D905D906D907C90C301F9
:103D0000B2010E9414304B015C01C701B601641975
:103D10007509860997090E9414302AE037ED43E2BD
:103D20005DE30E9416319B01AC01C501B4010E9404
:103D30000D2F0E94DD2FF8016083718382839383AE
:103D400081E0A989BA8956968C935697AF55BF4F93
:103D5000BC83AB834D905D906D907C90C301B201AC
:103D60000E9414304B015C01C701B601641975094A
:103D7000860997090E9414302BE734E14EEA5DE38F
:103D80000E9416319B01AC01C501B4010E940D2FA8
:103D90000E94DD2F4B015C01EB81FC81608371830C
:103DA00082839383D1014D905D906D907C90C3018F
:103DB000B2010E9414306B837C838D839E83C70184
:103DC000B60164197509860997090E9414302DEC13
:103DD0003CEC4CEC5DE30E9416319B01AC016B8125
:103DE0007C818D819E810E940D2F0E94DD2F6B01B1
:103DF0007C01F1016083718382839383A981BA81FD
:103E00002D913D914D915C912D873E874F87588B29
:103E1000E989FA89EB54FF4FFC83EB838081918120
:103E2000A281B38182179307A407B50730F5E9890A
:103E3000FA894788508C618C728C281B390B4A0B8D
:103E40005B0BCA01B9010E941230A30192010E94CA
:103E50000C2F2DEC3CEC4CEC5DE30E9416319B01E9
:103E6000AC01C301B2010E940D2FA989BA895796EE
:103E70006D937D938D939C935A97C701B6016819F2
:103E800079098A099B090E9414302BE735E141EB3F
:103E900055E40E941631E989FA892789308D418DD0
:103EA000528D0E94752F4B015C01E989FA89E75414
:103EB000FF4F608371838283938329883A88FDEB67
:103EC0002F0E311CD101CD90DD90ED90FC90E98951
:103ED000FA8985AD96ADBC01882777FD8095982F2E
:103EE0000E9414302B013C01A7019601C501B401C9
:103EF0000E940C2F9B01AC01C301B2010E9416313C
:103F00002FE632E143E85AE30E9416319B01AC01EF
:103F1000C701B6010E940D2F6B017C01D1016D9389
:103F20007D938D939C9313970E94DD2FE989FA89E5
:103F3000638F748F858F968FB701A601CF018D5B3C
:103F40009F4F0E946F150E94DD2FA989BA895F9645
:103F50006D937D938D939C939297FF24F394DB96BE
:103F6000FC92F801608171818281938124E630E0C6
:103F700040E050E00E942A32A989BA8951962D93D7
:103F80003D934D935C9354975596FC92E981FA8149
:103F900080819181A281B381EB81FC8180839183B7
:103FA000A283B38362960FB6F894DEBF0FBECDBF77
:103FB000DF91CF911F910F91FF90EF90DF90CF9005
:103FC000BF90AF909F908F907F906F905F904F9039
:103FD0003F902F900895FC0181E0878B8AE0828FCB
:103FE0004AE050E060E070E046875787608B718B55
:103FF00046E05FEF6FEF7FEF428B538B648B758BE7
:104000008CE89AE0918F808F168A08950F931F9302
:10401000FC0146875787608B718B028B138B248B37
:10402000358B1F910F9108954F925F926F927F92FF
:10403000AF92BF92CF92DF92EF92FF920F931F93B6
:10404000CF93DF93CDB7DEB728970FB6F894DEBFD6
:104050000FBECDBF7C012A013B0160911704709116
:104060001804882777FD8095982F0E94143020E04F
:1040700030E048EC52E40E94752F69837A838B8389
:104080009C8380E9481681E0580661047104E4F5D8
:1040900020E030E842E254E469817A818B819C819E
:1040A0000E9416310E94DD2F5B016C01D7011E9624
:1040B0008D919D910D90BC91A02D8D839E83AF839A
:1040C000B88720E030E040E253E469817A818B8157
:1040D0009C810E9416310E94DD2F9F938F937F93C6
:1040E0006F9310E9E12EFF24F39400E010E02D819E
:1040F0003E814F815885C301B2010E94A12C0F90CF
:104100000F900F900F902BC020E030E040E253E47E
:1041100069817A818B819C810E9416310E94DD2FFA
:104120001F921F921F922CE32F935B016C0110E2F0
:10413000E12E13E0F12E00E010E020E931E040E054
:1041400050E0C301B2010E94A12C0F900F900F907C
:104150000F906C3371051CF48CE390E001C0CB012F
:1041600028960FB6F894DEBF0FBECDBFDF91CF917A
:104170001F910F91FF90EF90DF90CF90BF90AF9085
:104180007F906F905F904F9008954F925F926F92E3
:104190007F92AF92BF92CF92DF92EF92FF920F93F6
:1041A0001F93CF93DF93EC012A013B016091170429
:1041B00070911804882777FD8095982F0E941430FD
:1041C00020E030E048EC52E40E94752F20E94216CE
:1041D00021E052066104710414F520E030E04AEF5A
:1041E00053E40E9416310E94DD2F2E853F854889B9
:1041F00059891F921F921F92E8E7EF935B016C01B0
:1042000010E9E12EFF24F39400E010E0C301B201B5
:104210000E94A12C0F900F900F900F9027C020E0CC
:1042200030E040EF52E40E9416310E94DD2F1F92D1
:104230001F921F9222E32F935B016C0110E2E12E8B
:1042400013E0F12E00E010E020E931E040E050E022
:10425000C301B2010E94A12C0F900F900F900F90FC
:10426000623371051CF482E390E001C0CB01DF9161
:10427000CF911F910F91FF90EF90DF90CF90BF9063
:10428000AF907F906F905F904F9008954F925F92A4
:104290006F927F928F929F92AF92BF92CF92DF9256
:1042A000EF92FF920F931F93CF93DF9300D000D034
:1042B000CDB7DEB74C012A013B010E940828D4018A
:1042C0006D937D938D939C93139716960D911D91ED
:1042D0002D913C9119976B017C01C01AD10AE20A19
:1042E000F30A1A960D911D912D913C911D970C1575
:1042F0001D052E053F0508F048C057962C91222336
:1043000009F443C0F40166837783808791874685EB
:104310005785608971894416550666067706ACF1A3
:1043200010921705109216058CE99FEF90931505D2
:1043300080931405B301A201C4010E941420AC01B2
:10434000662757FD6095762FD4011A964D935D939D
:104350006D937C931D970E9408286B017C01B3012B
:10436000A201C4010E94C520AC01662757FD6095DB
:10437000762F4C0D5D1D6E1D7F1D409310055093D3
:1043800011056093120570931305F4018789882342
:1043900009F4D7C042895389648975894415550544
:1043A0006605770574F1E684F784008911891F9208
:1043B0001F921F928CED8F93ECE3AE2EB12CC12C8B
:1043C000D12C20EE3CEF4FEF5FEFC301B2010E9412
:1043D000A12CD40115967C936E931497882777FDB2
:1043E0008095982FEE24E39408EE13E020E030E06F
:1043F0005A964C910E94B7260F900F900F900F90F5
:10440000A0C00E940828009110051091110520916C
:10441000120530911305601771078207930780F426
:10442000D4011E968D919D910D90BC91A02D8983F4
:104430009A83AB83BC83481659066A067B06B4F49C
:104440000F900F900F900F90DF91CF911F910F91D0
:10445000FF90EF90DF90CF90BF90AF909F908F90A4
:104460007F906F905F904F900C94A926F4E64F16C2
:10447000510461047104DCF48091160590911705D4
:104480008A3F9105A0F40196909317058093160535
:104490006EE170E00E94E031892B49F480911405AF
:1044A0009091150501969093150580931405F401DC
:1044B000408D518D5A01CC24B7FCC094DC2C485A55
:1044C0005D4F662757FD6095762F7F936F935F93BF
:1044D0004F9310E2E12E13E0F12E00E010E029816D
:1044E0003A814B815C81C301B2010E94A12C0F90E3
:1044F0000F900F900F90683C710564F0D4015896AE
:104500002D913C91599724543D4F2617370724F499
:10451000B90102C068EC70E0F40175836483809196
:10452000140590911505860F971FBC0180E090E05F
:10453000EE24E39408E813E120E030E0428D0E948D
:10454000B7260F900F900F900F90DF91CF911F9192
:104550000F91FF90EF90DF90CF90BF90AF909F9022
:104560008F907F906F905F904F9008958F929F9261
:10457000AF92BF92EF920F931F938A01222717FDEC
:104580002095322F4B01AA2497FCA094BA2CEE243C
:10459000E394FC01428DC501B4010E94B7261F912E
:1045A0000F91EF90BF90AF909F908F9008952F92B2
:1045B0003F924F925F926F927F928F929F92AF92B3
:1045C000BF92CF92DF92EF92FF920F931F93CF9300
:1045D000DF93CDB7DEB72A970FB6F894DEBF0FBED4
:1045E000CDBF9C838B837B016A011216130654F4A2
:1045F0003A872987253631054CF024E630E03A87A2
:10460000298704C041E050E05A8749870E94082862
:104610001B01C60159EEC51653E0D50614F088EE0D
:1046200093E0AA2797FDA095BA2F1C141D042CF423
:1046300089839A83BA2EAB2E05C051E059831A8222
:10464000B12CA12CC8010D32A1E01A0714F08CE2A4
:1046500091E0AA2797FDA095BA2F17FD05C0982EC7
:10466000892E7A2E6B2E04C0912C812C712C612CFA
:10467000CC24C394D12C9701442737FD4095542F67
:104680002D833E834F835887442437FC4094542C19
:10469000E12C09811A812B2D3A2DAB81BC815A96D0
:1046A0004C916D817E818F8198850E94B726692DFE
:1046B000782D872D962D0E9437280E940828621594
:1046C00073058405950561F00E9408286219730935
:1046D00084099509613A7F4081059105C0F40FC0B6
:1046E0000E940828A2019101261B370B480B590B89
:1046F000DA01C901813A9F40A105B10540F44FEFAD
:10470000C41AD40A89859A858C159D050CF62A96BB
:104710000FB6F894DEBF0FBECDBFDF91CF911F91D2
:104720000F91FF90EF90DF90CF90BF90AF909F9050
:104730008F907F906F905F904F903F902F90089553
:104740002F923F924F925F926F927F928F929F92A1
:10475000AF92BF92CF92DF92EF920F931F93CF93BE
:10476000DF93CDB7DEB72C970FB6F894DEBF0FBE40
:10477000CDBF9A8789877C876B876A011901641787
:104780007507DCF088279927821B930B9C0144272F
:1047900037FD4095542F2D833E834F83588780E00B
:1047A00090E0DC014601AA2497FCA094BA2C2801D1
:1047B000662457FC6094762C5DC0C901AA2797FD3A
:1047C000A095BA2F89839A83AB83BC83812C912CCB
:1047D00054012B853C85442737FD4095542F2D836C
:1047E0003E834F8358872801662457FC6094762CBB
:1047F0006D817E818F819885680D791D8A1D9B1D35
:10480000EE24E39408E813E120E030E0A985BA85BE
:104810005A964C910E94B726C301B2010E943728D4
:10482000EB85FC85E20DF31DFC87EB8729813A813E
:104830004B815C81820E931EA41EB51ECE16DF0630
:10484000BCF62C960FB6F894DEBF0FBECDBFDF913D
:10485000CF911F910F91EF90DF90CF90BF90AF90CD
:104860009F908F907F906F905F904F903F902F9090
:104870000C94A9262D813E814F815885280F391F20
:104880004A1F5B1F29833A834B835C834B855C857E
:10489000C416D506B4F2BC01CD01680D791D8A1D80
:1048A0009B1DEE24E39408E813E120E030E0A985A5
:1048B000BA855A964C910E94B726C301B2010E9454
:1048C0003728C218D30889819A81AB81BC81D2CFA5
:1048D0008F929F92AF92BF92EF920F931F93CF93BD
:1048E000DF93EC01A8EE8A2EA3E09A2EA12CB12C26
:1048F000EE24E3940CE310E020E030E04A8DC501A3
:10490000B4010E94B72664E070E080E090E00E946D
:10491000372889E1880E911CA11CB11C81ED8816F5
:104920008BE09806A104B10419F7DF91CF911F9194
:104930000F91EF90BF90AF909F908F900C94A9260D
:104940008F929F92AF92BF92EF920F931F93CF934C
:10495000DF93EC01B8EB8B2EBBE09B2EA12CB12C8E
:10496000EE24E3940CE310E020E030E04A8DC50132
:10497000B4010E94B72664E070E080E090E00E94FD
:10498000372889E1881A9108A108B1088FEC8816A8
:1049900083E09806A104B10419F7DF91CF911F912C
:1049A0000F91EF90BF90AF909F908F900C94A9269D
:1049B000FC01678B61110C9468240C94A0248F92E5
:1049C0009F92AF92BF92EF920F931F934B01AA2435
:1049D00097FCA094BA2CEE24E39409E110E020E0C7
:1049E00030E0FC01428DC501B4010E94B72669E1A7
:1049F00070E080E090E00E9437281F910F91EF90C7
:104A0000BF90AF909F908F900C94A926EF920F9338
:104A10001F93EE24E39404EF11E020E030E04AE03D
:104A200068E27AE080E090E00E94B72660E273E0FE
:104A300080E090E00E94372804EF11E020E030E0B1
:104A40004AE068E27AE080E090E00E94B72660E207
:104A500073E080E090E00E94372808EE13E020E049
:104A600030E04AE060ED77E080E090E00E94B72619
:104A700068EE73E080E090E01F910F91EF900C944E
:104A800037288F929F92AF92BF92EF920F931F930E
:104A9000CF93DF93EC0118EE812E13E0912EA12C21
:104AA000B12CEE24E3940CE310E020E030E04A8DDA
:104AB000C501B4010E94B72664E070E080E090E098
:104AC0000E94372880E5880E911CA11CB11C88E546
:104AD00088168CE09806A104B10419F7DF91CF91F4
:104AE0001F910F91EF90BF90AF909F908F900C947B
:104AF000A9268F929F92AF92BF92EF920F931F932E
:104B0000CF93DF93EC010CE1802E0CE0902EA12CD2
:104B1000B12CEE24E3940CE310E020E030E04A8D69
:104B2000C501B4010E94B72664E070E080E090E027
:104B30000E94372880E5881A9108A108B1088CEAFC
:104B4000881683E09806A104B10419F7DF91CF918C
:104B50001F910F91EF90BF90AF909F908F900C940A
:104B6000A9266F927F928F929F92AF92BF92CF921F
:104B7000DF92EF920F931F93CF93DF93EC01612CA1
:104B8000712CC62ED12C6C147D043CF580ED882E42
:104B900087E0982EA12CB12CEE24E3940CE310E0D6
:104BA00020E030E04A8DC501B4010E94B7266FE0D5
:104BB00070E080E090E00E94372884E6880E911C27
:104BC000A11CB11C80EF88168AE09806A104B104EC
:104BD00019F78FEF681A780AD6CFDF91CF911F911E
:104BE0000F91EF90DF90CF90BF90AF909F908F90FC
:104BF0007F906F900C94A926AF92BF92CF92DF92D4
:104C0000EF920F931F93CF93DF93EC015B0180E54D
:104C1000869F6001879FD00C112480EAC81A86EF16
:104C2000D80AB601882777FD8095982FEE24E39463
:104C300004E610E020E030E04A8D0E94B7268FE0C5
:104C40008A9DB0018B9D700D1124605B7F4F88277A
:104C500077FD8095982F0E94372801E010E02FE023
:104C600030E040EA5FE0B601CE010E94A023DF9170
:104C7000CF911F910F91EF90DF90CF90BF90AF90A9
:104C80000895CF93DF93EC016231710508F05BC0AA
:104C9000FB01EC5CFF4F0C9449320E944125CE0190
:104CA0000E944125CE010E9441251EC068EC70E0A3
:104CB00002C06AEF70E0CE01DF91CF910C94DF2447
:104CC0006CE271E0F8CF60E971E0F5CF64EF71E07C
:104CD000F2CF0E946824CE010E94A024CE010E943F
:104CE0006824CE010E94A02468EE73E080E090E08A
:104CF000DF91CF910C9437280E946824CE010E9446
:104D0000A02460E273E080E090E0F2CF62E01CC09B
:104D100064E01AC065E018C0DF91CF910C940625BD
:104D200061E070E00BC062E070E008C063E070E03A
:104D300005C064E070E002C065E070E0CE01DF9184
:104D4000CF910C94FC2561E0CE01DF91CF910C94C2
:104D5000B125EFE6F0E080818D7F808382E0809353
:104D6000810081E08093800029982A9808954F92CD
:104D70005F926F927F928F929F92AF92BF92CF92EB
:104D8000DF92EF92FF920F931F93CF93DF9300D0A8
:104D900000D0CDB7DEB72B013C01480159010E2DE3
:104DA000611571058105910509F486C0442309F454
:104DB00083C0142F4B3008F01AE084B1866084B9A8
:104DC00060E072E18AE790E0A30192010E9408325C
:104DD00069017A0181E0C81AD108E108F108C1141B
:104DE000D104E1E0EE06F10460F0CD2CDE2CEF2CD6
:104DF000FF24F1E0CF1AD108E108F10894E0792E00
:104E000002C077247394E12FF0E0E35FFE4F20812E
:104E100030E040E050E0C701B6010E940832811442
:104E20009104A104B104D9F00023C9F029833A8385
:104E30004B835C830E940828680D791D8A1D9B1D89
:104E4000609318057093190580931A0590931B05BC
:104E500080916F00826080936F003A812981D092A7
:104E60008700C09286008091840090918500A0E028
:104E7000B0E0C816D906EA06FB0620F4D0928500F9
:104E8000C0928400872D80618093810030938B00D5
:104E900020938A00309389002093880080EB8093D0
:104EA000800081149104A104B104E1F001111AC041
:104EB000C501B4010E9437280F900F900F900F90FA
:104EC000DF91CF911F910F91FF90EF90DF90CF90E6
:104ED000BF90AF909F908F907F906F905F904F901A
:104EE0000C94A9260F900F900F900F90DF91CF9107
:104EF0001F910F91FF90EF90DF90CF90BF90AF90F8
:104F00009F908F907F906F905F904F9008951F9229
:104F10000F920FB60F9211240F931F932F933F936D
:104F20004F935F936F937F938F939F93AF93BF93B1
:104F3000EF93FF930E94082800911805109119051E
:104F400020911A0530911B0560177107820793079E
:104F500010F00E94A926FF91EF91BF91AF919F9110
:104F60008F917F916F915F914F913F912F911F9101
:104F70000F910F900FBE0F901F9018951F920F92D8
:104F80000FB60F9211242F933F938F939F93AF935C
:104F9000BF9380911D0590911E05A0911F05B091B2
:104FA000200530911C0523E0230F2D3720F40196B6
:104FB000A11DB11D05C026E8230F0296A11DB11D3C
:104FC00020931C0580931D0590931E05A0931F053B
:104FD000B09320058091210590912205A091230591
:104FE000B09124050196A11DB11D809321059093D8
:104FF0002205A0932305B0932405BF91AF919F9103
:105000008F913F912F910F900FBE0F901F90189589
:105010002FB7F89460911D0570911E0580911F05B2
:10502000909120052FBF08953FB7F89480912105F6
:1050300090912205A0912305B091240526B5A89B47
:1050400005C02F3F19F00196A11DB11D3FBF662776
:10505000782F892F9A2F620F711D811D911D42E0BB
:10506000660F771F881F991F4A95D1F70895CF9231
:10507000DF92EF92FF92CF93DF936B017C010E944E
:105080001428EB01C114D104E104F10489F00E9459
:105090000B2F0E9414286C1B7D0B683E734090F30D
:1050A00081E0C81AD108E108F108C851DC4FEACF05
:1050B000DF91CF91FF90EF90DF90CF90089578949B
:1050C00084B5826084BD84B5816084BD85B582600D
:1050D00085BD85B5816085BDEEE6F0E080818160AB
:1050E0008083E1E8F0E010828081826080838081AB
:1050F00081608083E0E8F0E0808181608083E1EB83
:10510000F0E0808184608083E0EBF0E0808181606A
:105110008083EAE7F0E08081846080838081826020
:105120008083808181608083808180688083109209
:10513000C1000895833081F028F4813099F08230E5
:10514000A1F008958730A9F08830B9F08430D1F407
:10515000809180008F7D03C0809180008F77809345
:105160008000089584B58F7702C084B58F7D84BD9B
:1051700008958091B0008F7703C08091B0008F7D3B
:105180008093B0000895CF93DF9390E0FC01E05648
:10519000FF4F2491FC01EC54FF4F8491882349F187
:1051A00090E0880F991FFC01E452FF4FA591B49144
:1051B0008E529F4FFC01C591D4919FB7611108C0D9
:1051C000F8948C91209582238C93888182230AC045
:1051D000623051F4F8948C91322F309583238C9364
:1051E0008881822B888304C0F8948C91822B8C93C5
:1051F0009FBFDF91CF9108950F931F93CF93DF93BC
:105200001F92CDB7DEB7282F30E0F901E457FF4FEA
:105210008491F901E056FF4F1491F901EC54FF4FCE
:1052200004910023C9F0882321F069830E949A2801
:105230006981E02FF0E0EE0FFF1FEE52FF4FA591C6
:10524000B4919FB7F8948C91611103C0109581239C
:1052500001C0812B8C939FBF0F90DF91CF911F9145
:105260000F910895CF93DF93282F30E0F901E45791
:10527000FF4F8491F901E056FF4FD491F901EC54AE
:10528000FF4FC491CC2391F081110E949A28EC2FFA
:10529000F0E0EE0FFF1FE853FF4FA591B4912C9162
:1052A0002D2381E090E021F480E002C080E090E0D6
:1052B000DF91CF910895FC01818D228D90E0805C7B
:1052C0009F4F821B91098F7399270895FC01918D3F
:1052D000828D981731F0828DE80FF11D858D90E059
:1052E00008958FEF9FEF0895FC01918D828D98179F
:1052F00061F0828DDF01A80FB11D5D968C91928DBA
:105300009F5F9F73928F90E008958FEF9FEF0895B6
:1053100088EF9AE2892B49F080E090E0892B29F010
:105320000E94F82A81110C9400000895FC01848DDC
:10533000DF01A80FB11DA35ABF4F2C91848D90E0BF
:1053400001968F739927848FA689B7892C93A0899A
:10535000B1898C9180648C93938D848D981306C051
:105360000288F389E02D80818F7D80830895CF931B
:10537000DF93EC01888D8823C9F0EA89FB8980815D
:1053800085FD05C0A889B9898C9186FD0FC00FB62F
:1053900007FCF5CF808185FFF2CFA889B9898C9170
:1053A00085FFEDCFCE010E949629E7CFDF91CF9107
:1053B0000895CF92DF92FF920F931F93CF93DF93C5
:1053C0001F92CDB7DEB76C0181E0D60158968C9361
:1053D00058975B969C915B975C968C915C97981321
:1053E00007C05096ED91FC915197808185FD2EC0AC
:1053F000F601038D10E00F5F1F4F0F731127F02E82
:10540000F601848DF81211C00FB607FCF9CFD60152
:105410005096ED91FC915197808185FFF1CFC601A7
:1054200069830E9496296981EBCF838DE80FF11D76
:10543000E35AFF4F6083D6015B960C935B975296BD
:10544000ED91FC915397808180620CC0D6015696F5
:10545000ED91FC91579760835096ED91FC91519797
:1054600080818064808381E090E00F90DF91CF9114
:105470001F910F91FF90DF90CF900895BF92CF9230
:10548000DF92EF92FF92CF93DF93EC016A017B01F1
:10549000B22EE889F98982E08083411581EE5807B0
:1054A00061057105A1F060E079E08DE390E0A7016E
:1054B00096010E940832215031094109510956953F
:1054C000479537952795211580E1380798F0E889A9
:1054D000F989108260E874E88EE190E0A7019601F6
:1054E0000E940832215031094109510956954795CA
:1054F00037952795EC85FD853083EE85FF852083E4
:10550000188EEC89FD89B082EA89FB8980818061EF
:105510008083EA89FB89808188608083EA89FB89AE
:10552000808180688083EA89FB8980818F7D808388
:10553000DF91CF91FF90EF90DF90CF90BF900895D3
:105540001F920F920FB60F9211242F938F939F9358
:10555000EF93FF93E0913505F09136058081E0915E
:105560003B05F0913C0582FD12C0908180913E0583
:105570008F5F8F7320913F05821751F0E0913E05B8
:10558000F0E0EB5DFA4F958F80933E0501C080817E
:10559000FF91EF919F918F912F910F900FBE0F90E0
:1055A0001F9018951F920F920FB60F9211242F93F0
:1055B0003F934F935F936F937F938F939F93AF939B
:1055C000BF93EF93FF9385E295E00E949629FF91A8
:1055D000EF91BF91AF919F918F917F916F915F916B
:1055E0004F913F912F910F900FBE0F901F901895E4
:1055F00085E295E00E945B2921E0892B09F420E0F7
:10560000822F0895109228051092270588EE93E0C6
:10561000A0E0B0E08093290590932A05A0932B0584
:10562000B0932C058DE792E0909326058093250595
:1056300085EC90E0909332058093310584EC90E006
:10564000909334058093330580EC90E09093360579
:105650008093350581EC90E0909338058093370571
:1056600082EC90E090933A058093390586EC90E0C7
:1056700090933C0580933B0510923E0510923F05A8
:105680001092400510924105089580E090E0089541
:1056900008950E945F280E94482B0E94BF01C8E81D
:1056A000D9E20E9455042097E1F30E948829F9CF9E
:1056B000CF92DF92EF92FF920F931F93CF93DF93DE
:1056C0007C016A01EB0100E010E00C151D0571F092
:1056D0006991D701ED91FC910190F081E02DC70116
:1056E0000995892B19F00F5F1F4FEFCFC801DF918C
:1056F000CF911F910F91FF90EF90DF90CF90089581
:105700006115710581F0DB010D900020E9F7AD0115
:1057100041505109461B570BDC01ED91FC91028071
:10572000F381E02D099480E090E00895DC01ED9193
:10573000FC91DB0114964D915C9115976D917C91D4
:105740000280F381E02D09940C94802BDC01ED9113
:10575000FC910190F081E02D099469E872E00C94CD
:10576000802B0F931F93CF93DF93EC010E94962B16
:105770008C01CE010E94AD2B800F911FDF91CF9144
:105780001F910F9108958F929F92AF92BF92CF92E7
:10579000DF92EF92FF920F931F93CF93DF93CDB7DA
:1057A000DEB7A1970FB6F894DEBF0FBECDBF7C0168
:1057B000C42EE52FCB01D22E19A221E02D1510F019
:1057C0002AE0D22E8E010F5D1F4F8D2C912CA12C23
:1057D000B12C6C2D7E2FA50194010E9408328C2DD6
:1057E000D29E80191124015011098A3014F4805D71
:1057F00001C0895CF80180832115310541055105FF
:1058000021F0C22EE32FCA01E4CFB801C7010E94E4
:10581000802BA1960FB6F894DEBF0FBECDBFDF91EF
:10582000CF911F910F91FF90EF90DF90CF90BF909D
:10583000AF909F908F900895CF92DF92EF92FF925A
:105840000F931F93CF93DF93EC016A017B01211526
:10585000310579F4E881F9810190F081E02D642F20
:10586000DF91CF911F910F91FF90EF90DF90CF903C
:1058700009942A303105E9F477FF1AC06DE20E94DD
:10588000A62B8C0144275527BA014C195D096E09D6
:105890007F092AE0CE010E94C32B800F911FDF9168
:1058A000CF911F910F91FF90EF90DF90CF900895CF
:1058B0002AE0B701A601CE01DF91CF911F910F9190
:1058C000FF90EF90DF90CF900C94C32B0F931F931A
:1058D000CF93DF93EC019A01AB01662757FD6095EA
:1058E000762F0E941C2C8C01CE010E94AD2B800FC4
:1058F000911FDF91CF911F910F91089521153105CF
:1059000041F4DC01ED91FC910190F081E02D642FD8
:1059100009940C94C32B0F931F93CF93DF93EC0147
:105920009A01AB0160E070E00E947E2C8C01CE01F8
:105930000E94AD2B800F911FDF91CF911F910F918E
:1059400008954F925F926F927F92AF92BF92CF92E3
:10595000DF92EF92FF920F931F93CF93DF93CDB718
:10596000DEB729013A01621B730B840B950B298961
:105970003A894B895C892A193B094C095D09298BB5
:105980003A8B4B8B5C8B9B01AC0169897A898B8943
:105990009C890E94D031E418F50806091709A8016E
:1059A00097010E942A322A0D3B1D4C1D5D1DCA0124
:1059B000B901DF91CF911F910F91FF90EF90DF9090
:1059C000CF90BF90AF907F906F905F904F90089571
:1059D000FC01808191810C94FE33CF93DF93EC0125
:1059E00088819981009711F00E94FE3319821882F4
:1059F0001D821C821B821A82DF91CF9108950F9322
:105A00001F93CF93DF93EC018B016F5F7F4F8881F2
:105A100099810E948D34009731F0998388831B838C
:105A20000A8381E001C080E0DF91CF911F910F9147
:105A30000895CF93DF93EC0188819981892B29F018
:105A40008A819B818617970760F4CE010E94FF2C04
:105A5000882341F08C819D81892B19F4E881F9819B
:105A6000108281E0DF91CF910895EF92FF920F9322
:105A70001F93CF93DF93EC017B018A01BA010E944F
:105A8000192D811104C0CE010E94ED2C07C01D8389
:105A90000C83B701888199810E948735CE01DF91FF
:105AA000CF911F910F91FF90EF900895FC0111820B
:105AB000108213821282158214826115710559F0C9
:105AC000FB0101900020E9F7AF0141505109461B4D
:105AD000570B0C94352D0895CF93DF93EC01FB0108
