:100000000C94F3000C943B270C9462270C940C0680
:100010000C940C060C940C060C94F2260C941B0108
:100020000C941B010C941B010C941B010C94632673
:100030000C941B010C941B010C941B010C941B01D0
:100040000C9489270C941B010C94892A0C94BB2ACC
:100050000C941B010C941B010C941B010C941B01B0
:100060000C941B010C941B01192529252F253525DE
:100070003B25412547255A25022567256C257125F5
:1000800076257A25802586250D2513250000000874
:10009000000201000003040700000000000000004F
:1000A000010204081020408001020408102001020F
:1000B00004081020040404040404040402020202DC
:1000C00002020303030303030000000023002600D1
:1000D000290000000000250028002B00000000007F
:1000E000240027002A0000407A10F35A00A0724E24
:1000F00018090010A5D4E80000E87648170000E4CD
:100100000B54020000CA9A3B000000E1F505000014
:1001100080969800000040420F000000A086010079
:100120000000102700000000E80300000000640049
:10013000000000000A0000000000010000000000B4
:100140002C76D888DC674F0823DFC1DFAE59E1B1D8
:10015000B796E5E3E453C63AE651997696E8E6C2E7
:100160008426EB898C9B62ED407C6FFCEFBC9C9FEE
:1001700040F2BAA56FA5F490055A2AF75C936B6C10
:10018000F9676DC11BFCE0E40D47FEF520E6B50004
:10019000D0ED902E0300943577050080841E080072
:1001A00000204E0A000000C80C333333330F986E22
:1001B00012831141EF8D2114893BE65516CFFEE6DF
:1001C000DB18D1844B381BF77C1D901DA4BBE424A5
:1001D000203284725E228100C9F124ECA1E53D2722
:1001E0003C04EB2A6F0411241FBECFEFD8E0DEBF22
:1001F000CDBF12E0A0E0B1E0E8ECF0E702C005906E
:100200000D92AA31B107D9F725E0AAE1B2E001C009
:100210001D92A135B207E1F711E0C4EED1E004C0B0
:100220002297FE010E940132C03ED107C9F70E9409
:10023000322B0C9457380C940000089580E292E021
:100240000C94AC2C80915303813029F061E082E55D
:1002500093E00C94930B60E082E593E00C94930B95
:10026000CF93DF93C1E8D3E0688181E068278AE615
:1002700093E00E945D24888180935B0382E593E094
:10028000DF91CF910C948E0B0F931F93809181037C
:10029000882361F1809184038A30F9F08AE08093A9
:1002A000840360915C0370915D037093830360939A
:1002B000820304E110E022E030E040EA50E08AE608
:1002C00093E00E940B22809184038093580382E57F
:1002D00093E01F910F910C948E0B809159038093A2
:1002E000840360915E0370915F03DFCF61E08AE673
:1002F00093E01F910F910C945D248AE693E00E9495
:1003000016238AE693E00E944E2381E080937502D3
:10031000089540E05BE460E070E081E993E00E94D2
:100320001B0741E050E062E070E080EB93E00E9448
:10033000F50784E491E09093CD038093CC0382E2AF
:1003400091E09093D1038093D0038DE791E0909357
:10035000D3038093D20380E391E09093CF03809303
:10036000CE0380E896EEA5ECB7E48093D403909397
:10037000D503A093D603B093D7038EEB92E00E94EF
:1003800091178BE592E00E94001582E593E00C94B2
:10039000210C0F931F93CF93DF938C01EB011092ED
:1003A0001F0210921E0210921D0210921C028C81DC
:1003B0009D81892B39F160E070E001C0B901CE0167
:1003C0000E94662EFC01408150E050931B02409336
:1003D0001A0220911E0230911F02242735273093E4
:1003E0001F0220931E0220911C0230911D022F5FDC
:1003F0003F4F30931D0220931C024C815D812417D6
:100400003507E0F26CE171E0C8010E94852BBE0166
:10041000C8010E94772B6EE171E0C8010E94852B14
:1004200060911E0270911F0240E150E0C801DF910F
:10043000CF911F910F910C94472C80912602882315
:1004400009F46CC060E271E080E292E00E944D2D00
:1004500060916B0270916C0280916D0290916E02BE
:100460000E94F22F26E636E646E650E40E94F4307B
:1004700020E030E048EC52E40E94532FAB01BC0175
:1004800080E292E00E94342E6EE271E080E292E01F
:100490000E94AD2D6091CF027091D0028091D10267
:1004A0009091D20224E630E040E050E00E94E0313A
:1004B000BA01A90180E292E00E94D02D69E271E0C8
:1004C00080E292E00E94AD2D80915202882321F0BB
:1004D00080915303813081F16091DD027091DE02E1
:1004E0008091DF029091E0020E94F22F20E030E044
:1004F00048EC52E40E94532FAB01BC0180E292E031
:100500000E94022E6BE271E080E292E00E94AD2D2B
:1005100060E272E08FEA94E00C94C9016AE072E054
:1005200080E292E00E940A2D81E0809326028EE113
:1005300091E00E942E2B86CF609157027091580255
:100540008091590290915A02CFCFCF93DF9300D080
:1005500000D000D0CDB7DEB76AE072E0CE010196E0
:100560000E940A2D60E371E0CE0101960E944D2D9C
:10057000BE016F5F7F4F81E993E00E94C9016FE583
:1005800071E0CE0101960E944D2DBE016F5F7F4F3D
:1005900081E993E00E94C90169E671E0CE0101960C
:1005A0000E944D2DBE016F5F7F4F81E993E00E9455
:1005B000C90163E771E0CE0101960E944D2DBE0195
:1005C0006F5F7F4F81E993E00E94C901CE010196E0
:1005D0000E94AC2C26960FB6F894DEBF0FBECDBF9E
:1005E000DF91CF9108950F931F936FE771E087EB31
:1005F00092E00E944D2D67EB72E081E993E00E944A
:10060000C90100E010E021E030E04CEB52E060E591
:1006100070E08AE693E00E940B2268EE73E080E0CF
:1006200090E00E94072840E050E06DE171E080E03A
:100630000E94072720E030E040E050E06AE070E0F0
:1006400085EA94E00E94A52680E00E94282769E8B8
:1006500071E087EB92E00E944D2D67EB72E081E93B
:1006600093E00E94C9016091530382E593E01F91DA
:100670000F910C94930BCF93DF9300D000D000D058
:10068000CDB7DEB7E0919103F09192030480F5813C
:10069000E02D81E993E00995181619068CF5E09193
:1006A0009103F09192030680F781E02D81E993E0B8
:1006B00009958A3241F08A3029F3682F85E893E062
:1006C0000E94BD2DDFCF6AE285E893E00E94BD2D38
:1006D00065E873E0CE0101960E94442DBE016F5F74
:1006E0007F4F82E593E00E946C0CCE0101960E9440
:1006F000AC2C6AE072E085E893E00E944D2DC2CFF9
:1007000026960FB6F894DEBF0FBECDBFDF91CF9116
:1007100008950E94942E892F8095881F8827881F0E
:100720000895FF920F931F93CF93DF93809152020E
:10073000882329F080915303813009F457C08EEB50
:1007400092E00E9428188091D302882319F1009129
:10075000C2021091C302D091C402C091C502B091EF
:10076000C602A091C702F091C802F090C902980198
:100770004D2F5C2F6B2F7A2F8F2F9F2D203AE6E87D
:100780003E07E1E04E0751056105710581059105C0
:1007900009F094F48BE592E00E9476158091D402E2
:1007A000882321F0809153038130B9F0DF91CF91FC
:1007B0001F910F91FF9008950E94EC2F20E030E4EC
:1007C0004CE156E40E94532F6093D4037093D503F9
:1007D0008093D6039093D703DDCF8EE292E0DF9132
:1007E000CF911F910F91FF900C944A098BE592E0F5
:1007F0000E947615A4CF4F925F926F927F928F9254
:100800009F92AF92BF92CF92DF92EF92FF920F939F
:100810001F932B013C0149015A01C801B7010E94F5
:10082000F4306B017C01C301B2010E94F22F2B0155
:100830003C01A501940160E070E080E89FE30E9424
:10084000EA2E9B01AC01C301B2010E94F430A70162
:1008500096010E94EB2E0E94BB2F1F910F91FF90DB
:10086000EF90DF90CF90BF90AF909F908F907F9050
:100870006F905F904F90089580EB93E00E94CE07B9
:1008800020E048E067E081E993E00E94EB066AE03F
:1008900072E08BE893E00E940A2D6AE072E085E83E
:1008A00093E00E940A2D8AE693E00E94AB1E82E547
:1008B00093E00E94180B67E78EEB92E00E948D1781
:1008C0006AE072E087EB92E00E940A2D68E28BE515
:1008D00092E00E94F1148EE292E00C943F0987EBC3
:1008E00092E00E94AC2C85E893E00E94AC2C8BE84F
:1008F00093E00E94AC2C81E993E00C948A068FEA85
:1009000094E00E94442918161906DCF48FEA94E05A
:100910000E945D29843241F08A3089F3682F8BE888
:1009200093E00E94BD2DEBCF6BE873E08FEA94E07B
:100930000E949B2B6CE171E08BE893E00E944D2DAF
:10094000DECF08950F931F938091BD02882309F491
:100950004AC00E943B038091BD02882361F18091CF
:100960005202882329F080915303813009F460C03A
:100970004091D9025091DA026091DB027091DC0261
:100980008AE693E00E947C200E9491030E947F04EB
:100990000E94D32700910A0110910B0120910C01B4
:1009A00030910D01601B710B820B930B653F714001
:1009B0008105910530F480EB93E01F910F910C9429
:1009C00001080E941D020E94D32760930A017093C0
:1009D0000B0180930C0190930D0180EB93E01F912C
:1009E0000F910C9401080E94D327613E7E4281053D
:1009F000910508F4AECF81E993E00E94C40740E876
:100A000055E260E070E081E993E00E941B070E94DC
:100A1000A50226E040E855E260E070E08FEA94E04D
:100A20000E94272A81E08093BD028093750291CFB6
:100A300040915302509154026091550270915602B8
:100A40008AE693E00E947C209FCF20915A04309147
:100A50005B0428173907B9F49091D8038091D90322
:100A6000981789F0E091D803F0E0E652FC4F8081BE
:100A70002091D80330E02F5F3F4F2F77332720930B
:100A8000D80390E008958FEF9FEF08951F93CF93C1
:100A9000DF93EC012C8D3D8D2115310509F438C013
:100AA000A989BA894889542F50951FB78E8D81FB2B
:100AB000772770F981FD6095F8948C91711115C0BC
:100AC00085238C93C9010197F1F788E008C0942B26
:100AD0009C93F9013197F1F76695815049F09C910B
:100AE00060FDF5CF95239C93F4CF842B8C93EACFB4
:100AF0008C917723B9F085238C931FBF8C8D9D8DAE
:100B00000197F1F781E090E0DF91CF911F91089577
:100B100081E090E09B838A8380E090E0DF91CF9139
:100B20001F910895842B8C93E8CF089520915A0447
:100B300030915B042817390781F49091D803809194
:100B4000D903981751F0E091D803F0E0E652FC4F3A
:100B50008081992787FD909508958FEF9FEF0895E5
:100B600020915A0430915B042817390719F080E06E
:100B700090E008952091D9038091D80330E0205867
:100B80003F4F281B31092F77307837FD02C0C9014C
:100B900008952150310920683F6F2F5F3F4FF7CFF5
:100BA000DC015396ED91FC915497208155968C91E0
:100BB00080958223808310925B0410925A0481E016
:100BC0000895CF93DF93EC018A8D9B8D892B01F1E2
:100BD00080915A0490915B048C179D07C9F000978F
:100BE00011F00E94D0058E8D8E7F8E8F1092D903CA
:100BF0001092D803D0935B04C0935A04EB89FC890C
:100C000080819D89892B808381E0DF91CF91089538
:100C100080E0DF91CF9108951F920F920FB60F924F
:100C200011242F933F934F935F936F937F938F93F1
:100C30009F93AF93BF93EF93FF93E0915A04F0918A
:100C40005B04309709F449C0868DA685B78581FD80
:100C500055C08C919585892309F03FC0A389B4893B
:100C60009C918589809589238C93868997890197A2
:100C7000F1F7208D318DA685B785758558E060E048
:100C8000C9010197F1F7862F90E095958795682F18
:100C90004C91472309F06068515091F7868D81FD92
:100CA00033C08091D90390E001968F7799272091E6
:100CB000D803281759F1A091D903B0E0A652BC4F30
:100CC0006C938093D903828D938D0197F1F7A3895B
:100CD000B4898C919589892B8C93FF91EF91BF9169
:100CE000AF919F918F917F916F915F914F913F91C4
:100CF0002F910F900FBE0F901F9018958C91958596
:100D0000892309F0ABCFE9CF6095CBCF868D816089
:100D1000868FD9CF22E931E0FC01318320832091F5
:100D20005A0430915B048217930709F008950C94DC
:100D3000D0051F93CF93DF93EC01162F6E8D669530
:100D4000617081E06827812F0E94DB2861E0812F9C
:100D50000E949D28812F90E0FC01E056FF4FE49116
:100D6000E88BFC01EC54FF4FE491F0E0EE0FFF1F25
:100D7000EE52FF4F859194919A8B898BDF91CF91A1
:100D80001F9108951F93CF93DF93EC01162F60E01E
:100D9000812F0E949D288E8D81FD04C061E0812FEE
:100DA0000E94DB281C87612F70E0FB01E056FF4F9B
:100DB000E491ED87FB01EC54FF4FE491F0E0EE0F7E
:100DC000FF1FE853FF4F859194919F878E87DF9196
:100DD000CF911F910895FF920F931F93CF93DF93AD
:100DE000EC01F62E522F1B821A8208EE13E020E04F
:100DF00030E00C831D832E833F8382E991E0998349
:100E000088831F8A1E8A198E188E1B8E1A8E1D8E3D
:100E10001C8E8E8D8E7F50FB81F98E8F642FCE01BC
:100E20000E9499066F2DCE01DF91CF911F910F91F6
:100E3000FF900C94C206CF93DF93EC019A01AB01B3
:100E40001B8E1A8E198E188E1F8A1E8A60E874E80F
:100E50008EE190E00E94E031C9012430310508F4B0
:100E600057C0B901635071097D8F6C8FEC85E631F5
:100E700008F049C0B901769567956431710508F0AD
:100E80004AC061E070E07F8B6E8B069708F047C028
:100E900081E090E0998F888FC901880F991F820F98
:100EA000931F96958795969587958D309105D0F1EE
:100EB0000C979B8F8A8F90916800E830D8F121E0E1
:100EC000EE3008F45CC081E001C0880F2A95EAF793
:100ED000892B809368002C85283098F12E3008F4F7
:100EE00043C0263108F04DC08CE690E09C8B8B8B84
:100EF0002E5081E001C0880F2A95EAF78D8B8C8DEA
:100F00009D8D0197F1F7CE01DF91CF910C94E10512
:100F100061E070E0A9CF635171097F8B6E8BC901CD
:100F20000597B8CF81E090E09B8F8A8F9091680001
:100F3000E83028F684E0892B809368002C852830DF
:100F400068F68DE690E09C8B8B8B81E001C0880F6A
:100F50002A95EAF78D8B8C8D9D8D0197F1F7CE0147
:100F6000DF91CF910C94E1058BE690E09C8B8B8B0D
:100F7000285081E001C0880F2A95EAF7EBCF20E0E6
:100F8000A2CF80E090E0B2CF20915A0430915B0470
:100F90008217930709F008950C94D005FC0184E1B1
:100FA00090E0948383838AEF90E09683858388EE34
:100FB00093E09087878388E893E19287818781E037
:100FC000838784871586168617864FEF5FEFBA01F1
:100FD000408B518B628B738B448B558B668B778BDD
:100FE000108E118E128E138E0895FC01862F608351
:100FF000718391E0452B09F490E0928362E00C94B8
:101000009D288F929F92AF92BF92CF92DF92EF92E4
:10101000FF92CF93DF93EC010E94D3276B017C01F9
:1010200088810E94142921E0019709F020E02B8794
:101030008A812817F1F19C85891709F4CAC048896B
:1010400059896A897B89C41AD50AE60AF70A49854B
:101050005A85662757FD6095762FC416D506E60695
:10106000F70664F42C87DF91CF91FF90EF90DF902B
:10107000CF90BF90AF909F908F9008958A8D8111EF
:10108000F1CF81E0898F888F1E861D868A8F2C87FD
:10109000EAA1FBA1309739F388819981DF91CF9143
:1010A000FF90EF90DF90CF90BF90AF909F908F9088
:1010B00009943C85231739F188899989AA89BB89C4
:1010C000B701A601481B590B6A0B7B0B8B819C81D6
:1010D000AA2797FDA095BA2F84179507A607B707EB
:1010E00094F4888D81110FC0CC8ADD8AEE8AFF8A44
:1010F0008E858111B1C081E08D87812C912C5401A6
:1011000080E090E00CC08C899D89AE89BF89460142
:101110005701881A990AAA0ABB0A80E090E04D811B
:101120005E81662757FD6095762F84169506A60684
:10113000B7067CF04D85442361F04E85411109C00E
:101140004F85442331F08230910519F01D8681E0EE
:1011500090E0231799F1488959896A897B89C41AD3
:10116000D50AE60AF70A4F815885662757FD60952C
:10117000762FC416D506E606F70604F149855A858A
:10118000662757FD6095762FC416D506E606F70646
:10119000ACF43A8D311112C081E0898F888F1E86A0
:1011A0001D868A8F2C8783E090E0039709F05BCF40
:1011B000E8A1F9A1309709F06FCF55CF2C87813086
:1011C000910509F052C0EC8DFD8D309709F064CF88
:1011D0004ACF8C899D89AE89BF89B701A601481B7A
:1011E000590B6A0B7B0BDB01CA014B815C816627C3
:1011F00057FD6095762F481759076A077B07ECF46F
:10120000C88AD98AEA8AFB8A188E198E31E03F870C
:101210001A8E1B8E4D815E81662757FD6095762F55
:1012200084179507A607B7078CF48E8581110EC029
:101230008D85882359F03E870AC088899989AA89B3
:10124000BB89C81AD90AEA0AFB0A01CF1E861D8685
:10125000C12CD12C7601FBCE1E861D861F86812CCB
:10126000912C540182E090E05ACF8230910509F030
:101270009CCFEE8DFF8D309709F00ECFF4CE40E07D
:1012800050E06CE072E4FC0140A351A362A373A39D
:1012900014A208952F923F924F925F926F927F9285
:1012A0008F929F92AF92BF92CF92DF92EF92FF9276
:1012B0000F931F93CF93DF93CDB7DEB72A970FB667
:1012C000F894DEBF0FBECDBF9A878987C0907A029F
:1012D000D0907B02E0907C02F0907D0220E030E034
:1012E000A901C701B6010E94F03018160CF089C19F
:1012F00020E034E640E455E4C701B6010E94F43032
:1013000020915F023091600240916102509162022F
:101310000E94F4302091D4033091D5034091D6033C
:101320005091D7030E94532F6B017C01E985FA8508
:10133000608B718B828B938B6091CB027091CC020E
:101340008091CD029091CE020E94F22F2AE037EDDB
:1013500043E25CE30E94F4304B015C01609168035E
:1013600070916903882777FD8095982F0E94F22F4E
:101370009B01AC01C701B6010E94F4302FE73AE6A9
:101380004CE35CE30E94F4309B01AC01C501B40165
:101390000E94EB2E2B013C01CB01D301E985FA859C
:1013A000848F958FA68FB78FC488D588E688F788F5
:1013B00020E030E0A901B601C7010E944F2F882329
:1013C00009F415C1E985FA85208C318C028D138DC5
:1013D0009601A701B201C3010E94EA2E2BE734E176
:1013E0004EEA5DE30E94F4309601A7010E94EB2EC5
:1013F0004B015C01E985FA85648B758B868B978B35
:101400009101A801B201C3010E94EA2E2DEC3CEC2F
:101410004CEC5DE30E94F4309101A8010E94EB2E98
:10142000E985FA85608F718F828F938FA501940172
:101430000E94EA2E20EB38E54AE059E40E94F4309D
:101440002091D5023091D6024091D7025091D80216
:101450000E94532FE985FA85648375838683978379
:10146000208131814281538129833A834B835C837C
:101470000E94EA2E4B015C0120E030E0A9010E94AD
:10148000F0302401350118160CF0B6C0E985FA8554
:10149000408651866286738620E030E048EC52E454
:1014A000C301B2010E944F2FE985FA85C0A0D1A0E7
:1014B000E2A0F3A01816F4F520E030E040EA52E490
:1014C000C701B6010E94F03087FF34C020E030E051
:1014D0004AE754E4C301B2010E94F03087FF9BC089
:1014E000A701960160E070E080EA92E40E94EA2E93
:1014F0006D837E838F83988720E030E048EC52E450
:10150000C301B2010E94EA2E9B01AC016D817E8174
:101510008F8198850E94F43020E030E041E654E469
:101520000E94532F9B01AC01C701B6010E94EB2E14
:101530006B017C01E985FA85C486D586E686F78647
:10154000A7019601C501B4010E94F4302FE632E1F3
:1015500043E85AE30E94F4309B01AC0169817A812F
:101560008B819C810E94EB2EE985FA8560837183D3
:10157000828393830E94BB2F4B015C01E985FA852E
:1015800065A376A387A390A761A572A583A594A55B
:101590000E94F22F7B018C0123E333E343E75FE3F7
:1015A000C501B4010E94FB03E985FA8561A772A712
:1015B00083A794A781E084A31092D4022A960FB641
:1015C000F894DEBF0FBECDBFDF91CF911F910F9179
:1015D000FF90EF90DF90CF90BF90AF909F908F9053
:1015E0007F906F905F904F903F902F9008951201E1
:1015F000830162017301ECCE77FA709477F87094EE
:1016000045CFC701B601905820E034E640E455E4E8
:101610000E94F43075CE80E090E0A0EAB2E4E98563
:10162000FA8584879587A687B7876C017D0188CF67
:101630000895CF92DF92EF92FF920F931F93CF9373
:10164000DF9300D000D000D0CDB7DEB77B016EE2D3
:1016500071E0CE0101960E940A2DBE016F5F7F4F9F
:10166000C7010E94942E6C01CE0101960E94AC2C01
:101670006EE171E0CE0101960E940A2DBE016F5FFE
:101680007F4FC7010E94942E8C01CE0101960E94CB
:10169000AC2CA6014F5F5F4F9801B701CE010196B8
:1016A0000E94982ECE0101960E94DE2E6B017C01D5
:1016B000CE0101960E94AC2CC60126960FB6F89476
:1016C000DEBF0FBECDBFDF91CF911F910F91FF9075
:1016D000EF90DF90CF900895EF92FF920F931F93BA
:1016E000CF93DF937B0128E1E20EF11CEB018C012B
:1016F00001501109061B170B6991C8018C0F9D1F22
:101700000E94AC35CE15DF05B9F788E190E0DF9196
:10171000CF911F910F91FF90EF900895BC0180E051
:1017200090E00C946C0B0F931F93CF93DF93EC011D
:1017300069836623D9F088EE93E0909380038093C9
:101740007F030AE010E023E030E040EA50E060E987
:1017500071E08AE693E00E940B22BE0180E090E0F7
:10176000DF91CF911F910F910C946C0B80E991E068
:101770009093800380937F030AE010E023E030E041
:1017800040E550E064EF71E08AE693E00E940B22AE
:10179000E4CFFC0185E08083118281E081878CE8C1
:1017A0009AE09387828784EF91E09587848729E088
:1017B00027838AE080878FE090E09383828386E0AE
:1017C0009FEF95838483268384E690E097878687BE
:1017D0002FE530E0318B208B138A128A21E430E030
:1017E000358B248B978B868BBF0180E090E00C9427
:1017F0006C0BEF92FF920F931F93CF93DF937C01BB
:101800008C01C0E0D0E0CE010E94A435F8018193A4
:101810008F012196C831D105B1F7F701808185305C
:1018200049F0C701DF91CF911F910F91FF90EF9089
:101830000C94C90BDF91CF911F910F91FF90EF9006
:101840000895AF92BF92CF92DF92EF92FF920F93E3
:101850001F93CF93DF93EC010E94F90B6C897D8974
:10186000882777FD8095982F1F921F921F9228E757
:101870002F934AE0A42EB12CC12CD12C14E6E12EDA
:10188000F12C00E010E020E030E0A9010E94652C7E
:101890007093E4026093E30281E0809381038E8180
:1018A000809384030F900F900F900F908A3030F444
:1018B0008C859D8590938303809382036981CE01FB
:1018C000DF91CF911F910F91FF90EF90DF90CF901C
:1018D000BF90AF900C94930B3F924F925F926F9298
:1018E0007F928F929F92AF92BF92CF92DF92EF92B0
:1018F000FF920F931F93CF93DF93CDB7DEB7669719
:101900000FB6F894DEBF0FBECDBF8C017B016EE930
:1019100071E0CE0101960E940A2DB701CE01079613
:101920000E94442DBE016F5F7F4FCE0107960E943B
:101930008903D82ECE0107960E94AC2CCE010196C9
:101940000E94AC2CD110BBC065EA71E0CE010196BB
:101950000E940A2DB701CE0107960E94442DBE01B8
:101960006F5F7F4FCE0107960E948903D82ECE016C
:1019700007960E94AC2CCE0101960E94AC2CD1108F
:101980007EC06DEA71E0CE0101960E940A2DB7017A
:10199000CE0107960E94442DBE016F5F7F4FCE019E
:1019A00007960E948903D82ECE0107960E94AC2C80
:1019B000CE0101960E94AC2CD110A7C062EB71E061
:1019C000CE0101960E940A2DB701CE0107960E9412
:1019D000442DBE016F5F7F4FCE0107960E948903A1
:1019E000D82ECE0107960E94AC2CCE0101960E9403
:1019F000AC2CD11070C067EB71E0CE0101960E9453
:101A00000A2DB701CE0107960E94442DBE016F5FDB
:101A10007F4FCE0107960E948903D82ECE010796EC
:101A20000E94AC2CCE0101960E94AC2CDD2009F462
:101A300083C0B701CE0101960E94442DBE016F5FA5
:101A40007F4FC8010E94190B7C01CE0101960E94B4
:101A5000AC2CFCE2EF16F1E0FF060CF4E5C0C70188
:101A600029EBE2162BE0F20614F088EB9BE0F8017C
:101A700093878287909383038093820308C0C80171
:101A80000E94C90BB80180E090E00E946C0B669642
:101A90000FB6F894DEBF0FBECDBFDF91CF911F917F
:101AA0000F91FF90EF90DF90CF90BF90AF909F90FD
:101AB0008F907F906F905F904F903F900895B80106
:101AC00080E090E00E946C0B63E070E08AE693E0B7
:101AD0000E94B724DCCFB701CE0101960E94442DAD
:101AE000BE016F5F7F4FC8010E94190B7C01CE01C0
:101AF00001960E94AC2C9701F7FC9DC03195219571
:101B00003109F80135832483C2CFB701CE01019694
:101B10000E94442DBE016F5F7F4FC8010E94190BC8
:101B20007C01CE0101960E94AC2C9701F7FC7FC08E
:101B3000F80133832283ABCF6CEB71E0CE010196C9
:101B40000E940A2DB701CE0107960E94442DBE01C6
:101B50006F5F7F4FCE0107960E948903D82ECE017A
:101B600007960E94AC2CCE0101960E94AC2CDD2081
:101B7000F9F0B701CE0101960E94442DBE016F5FBE
:101B80007F4FC8010E94190B7C01CE0101960E9473
:101B9000AC2CF0E5EF16F1040CF498C0C7018D38B9
:101BA000910514F08CE890E0F801978B868B6FCF4D
:101BB00062EC71E0CE0101960E940A2DB701CE01C0
:101BC00007960E94442DBE016F5F7F4FCE0107969E
:101BD0000E948903D82ECE0107960E94AC2CCE011C
:101BE00001960E94AC2CDD2051F16E01FDE0CF0E7C
:101BF000D11CB701C6010E94442DB601C8010E9444
:101C0000190B8C3291400CF098C06CE2E62EFF2448
:101C1000F394C6010E94AC2CF801F586E486F0929C
:101C20008303E092820333CF8CE291E020CF3195A1
:101C3000219531097DCF3195219531095FCF68EC30
:101C400071E0CE0101960E940A2DB701CE010796E0
:101C50000E94442DBE016F5F7F4FCE0107960E9408
:101C60008903D82ECE0107960E94AC2CCE01019696
:101C70000E94AC2CDD2069F16E01FDE0CF0ED11C7D
:101C8000B701C6010E94442DB601C8010E94190B7C
:101C9000181619060CF0A0C0B701CE0107960E94D5
:101CA000442DBE01695F7F4FC8010E94190B0A973E
:101CB0000CF411C159E0F52ECE0107960E94AC2C10
:101CC000C6010E94AC2CF801F782E1CE80E590E0DD
:101CD0006BCF6DEC71E0CE0101960E940A2DB70129
:101CE000CE0107960E94442DBE016F5F7F4FCE014B
:101CF00007960E948903D82ECE0107960E94AC2C2D
:101D0000CE0101960E94AC2CDD2079F16E01FDE040
:101D1000CF0ED11CB701C6010E94442DB601C801E7
:101D20000E94190B09970CF0C1C039E0F32EC601CF
:101D30000E94AC2CF801F086AACEB701CE0107961E
:101D40000E94442DBE01695F7F4FC8010E94190B9C
:101D5000893B9B400CF499C078EBE72E7BE0F72E93
:101D6000CE0107960E94AC2C54CF62ED71E0CE01FB
:101D700001960E940A2DB701CE0107960E94442DBC
:101D8000BE016F5F7F4FCE0107960E948903D82E58
:101D9000CE0107960E94AC2CCE0101960E94AC2C7D
:101DA000DD20E9F06E01FDE0CF0ED11CB701C601C8
:101DB0000E94442DB601C8010E94190B863491057A
:101DC0000CF005C196E4E92EF12CC6010E94AC2C62
:101DD000F801F786E6865BCEFF24F39471CF67EDBA
:101DE00071E0CE0101960E940A2DB701CE0107963F
:101DF0000E94442DBE016F5F7F4FCE0107960E9467
:101E00008903D82ECE0107960E94AC2CCE010196F4
:101E10000E94AC2CDD2009F46FC06E01FDE0CF0EF6
:101E2000D11CB701C6010E94442DB601C8010E9411
:101E3000190B97FFB5C0E12CF12CC6010E94AC2C08
:101E4000F801F58AE48AB701882777FD8095982FF5
:101E50001F921F921F9228E72F93AAE0AA2EB12C5F
:101E6000C12CD12C14E6E12EF12C00E010E020E092
:101E700030E0A9010E94652C7093E4026093E302B4
:101E80000F900F900F900F9002CEB701CE010196E8
:101E90000E94442DBE016F5F7F4FC8010E94190B45
:101EA0007C01CE0101960E94AC2C5ACFB701CE0125
:101EB00007960E94442DBE01695F7F4FC8010E94B2
:101EC000190B0B970CF49DC04AE0F42ECE01079637
:101ED0000E94AC2C2CCFB701CE0101960E94442D5C
:101EE000BE016F5F7F4FC8010E94190BF82ECE0113
:101EF00001960E94AC2CE0CE6DED71E0CE01019612
:101F00000E940A2DB701CE0107960E94442DBE0102
:101F10006F5F7F4FCE0107960E948903D82ECE01B6
:101F200007960E94AC2CCE0101960E94AC2CD110D9
:101F300065C063EE71E0CE0101960E940A2DB701E3
:101F4000CE0107960E94442DBE016F5F7F4FCE01E8
:101F500007960E948903D82ECE0107960E94AC2CCA
:101F6000CE0101960E94AC2CDD2009F45BC06E010D
:101F7000FDE0CF0ED11CB701C6010E94442DB60171
:101F8000C8010E94190BC2970CF0FEC0E2E3EE2ECE
:101F9000F12CC6010E94AC2CF801F18AE08A77CDC1
:101FA000B701CE0107960E94442DBE01695F7F4FA5
:101FB000C8010E94190B853691050CF4D4C084E643
:101FC000E82EF12CCE0107960E94AC2C36CFB7013B
:101FD000CE0107960E94442DBE01695F7F4FC80164
:101FE0000E94190B833891050CF454C022E8E22EAC
:101FF000F12CCE0107960E94AC2CE7CE0E94F30292
:1020000046CDB701CE0101960E94442DBE016F5FFF
:102010007F4FC8010E94190BF82ECE0101960E9435
:10202000AC2C54CF69EE71E0CE0101960E940A2DCE
:10203000B701CE0107960E94442DBE016F5F7F4F0E
:10204000CE0107960E948903D82ECE0107960E94E2
:10205000AC2CCE0101960E94AC2CDD2061F16E010A
:10206000FDE0CF0ED11CB701C6010E94442DB60180
:10207000C8010E94190B8C3E9F4F0CF057C16CEEAB
:10208000E62EFF24FA94C6010E94AC2CF801F38AD4
:10209000E28AFDCCB701CE0101960E94442DBE011B
:1020A0006F5F7F4FC8010E94190B7C01CE01019622
:1020B0000E94AC2C9ECF6FEE71E0CE0101960E9483
:1020C0000A2DB701CE0107960E94442DBE016F5F15
:1020D0007F4FCE0107960E948903D82ECE01079626
:1020E0000E94AC2CCE0101960E94AC2CD11063C092
:1020F00064EF71E0CE0101960E940A2DB701CE0176
:1021000007960E94442DBE016F5F7F4FCE01079658
:102110000E948903D82ECE0107960E94AC2CCE01D6
:1021200001960E94AC2CDD2009F4B1CCD090840340
:10213000F801808580938403B701CE0101960E9447
:10214000442DBE016F5F7F4FC8010E94190BBC0177
:102150008AE693E00E94FC24CE0101960E94AC2CFA
:10216000D092840394CCB701CE0101960E94442DF5
:10217000BE016F5F7F4FC8010E94190B7C01CE0129
:1021800001960E94AC2C1ECFB701CE0107960E948B
:10219000442DBE01695F7F4FC8010E94190B87392A
:1021A00091050CF4D8C0F6E9EF2EF12CCE0107967C
:1021B0000E94AC2CEECE30908403F8018085809391
:1021C00084036EE271E0CE0101960E940A2DBE01E9
:1021D0006F5F7F4FC7010E94942E8C01CE01019644
:1021E0000E94AC2C0F5F1F4F6EE271E0CE01019692
:1021F0000E940A2DA801BE016F5F7F4FC7010E9498
:10220000782E6C01CE0101960E94AC2C9601A8019B
:10221000B701CE0101960E94982ECE0101960E9430
:10222000DE2E2B013C01CE0101960E94AC2CFFEF6B
:10223000CF1ADF0A6EE271E0CE0101960E940A2DEC
:10224000A601BE016F5F7F4FC7010E94782E8C01EF
:10225000CE0101960E94AC2C9801A601B701CE01D7
:1022600001960E94982ECE0101960E94DE2E4B010F
:102270005C01CE0101960E94AC2C0F5F1F4F6EE2F5
:1022800071E0CE0101960E940A2DA801BE016F5F88
:102290007F4FC7010E94782E6C01CE0101960E94EB
:1022A000AC2C9601A801B701CE0101960E94982E90
:1022B000CE0101960E94DE2E6B8B7C8B8D8B9E8BCC
:1022C000CE0101960E94AC2C86010F5F1F4F6EE17C
:1022D00071E0CE0101960E940A2DA801BE016F5F38
:1022E0007F4FC7010E94782E6C01CE0101960E949B
:1022F000AC2C9601A801B701CE0101960E94982E40
:10230000CE0101960E94DE2E6B017C01CE0101966A
:102310000E94AC2C86012B893C89A401B2018AE67B
:1023200093E00E940B2230928403B1CBB701CE011F
:1023300007960E94442DBE01695F7F4FC8010E942D
:10234000190B4597CCF074E1E72EF12CCE010796DE
:102350000E94AC2C98CEB701CE0101960E94442D6C
:10236000BE016F5F7F4FC8010E94190B7C01CE0137
:1023700001960E94AC2C1ACFB701CE0101960E94A3
:10238000442DBE016F5F7F4FC8010E94190B7C0175
:10239000CE0101960E94AC2CD9CF449A459AE9EB24
:1023A000F0E080818E7F808380818D7F808380E2DA
:1023B0008093B80084E48093BC00089570938004F7
:1023C00060937F0408953091830420918104231B3E
:1023D00020938204332341F0315030938304FC0175
:1023E000E20FF11D838108951092820480E0089528
:1023F0008F929F92AF92BF92CF92DF92EF92FF9215
:102400000E94D3276B017C0184EA8093BC00209159
:102410007F043091800403C021153105F9F48091C7
:10242000BC0087FFF9CF8091B900887F883079F1AF
:102430008091B900887F803151F18091B900887F07
:10244000883339F18091B900887FFF90EF90DF9059
:10245000CF90BF90AF909F908F9008950E94D32708
:102460006C197D098E099F0920917F0430918004A9
:102470004901A12CB12C681579058A059B0578F2D4
:102480001092BC0084E48093BC0081E0DECF80E049
:10249000DCCF8091B9001092BC0094E49093BC0012
:1024A000887FD3CF8F929F92AF92BF92CF92DF92CD
:1024B000EF92FF92CF93C62F0E94D3276B017C012E
:1024C000CC23D1F184EC8093BC0020917F04309127
:1024D000800403C021153105B1F48091BC0087FF51
:1024E000F9CF8091B900887F883351F18091B9008C
:1024F000887FCF91FF90EF90DF90CF90BF90AF900B
:102500009F908F9008950E94D3276C197D098E09A2
:102510009F0920917F04309180044901A12CB12CA6
:10252000681579058A059B05C0F21092BC0084E409
:102530008093BC0081E0DDCF84E88093BC00C5CFF0
:102540008091B9001092BC0094E49093BC00887F05
:10255000D0CF8F929F92AF92BF92CF92DF92EF92A5
:10256000FF920E94D3276B017C0184E98093BC0019
:1025700020917F043091800403C02115310571F44E
:102580008091BC0084FDF9CF80E0FF90EF90DF9058
:10259000CF90BF90AF909F908F9008950E94D327C7
:1025A0006C197D098E099F0920917F043091800468
:1025B0004901A12CB12C681579058A059B0500F30A
:1025C0001092BC0084E48093BC0081E0DECF8F9247
:1025D0009F92AF92BF92CF92DF92EF92FF921F93A2
:1025E000CF93DF93EC016093BB000E94D3276B0174
:1025F0007C0184E88093BC0020917F0430918004AA
:1026000003C02115310569F58091BC0087FFF9CF22
:102610008091B900887F8831E9F18091B900887F85
:102620008034C1F11091B900187F8091B900887F82
:10263000803291F18091B900887F883469F11092DD
:10264000BC0084E48093BC00812FDF91CF911F9167
:10265000FF90EF90DF90CF90BF90AF909F908F90C2
:1026600008950E94D3276C197D098E099F09209136
:102670007F04309180044901A12CB12C68157905A3
:102680008A059B0508F21092BC0084E48093BC008C
:1026900081E0DBCF80E0D9CFCE010E94A912D4CF58
:1026A000CF92DF92EF92FF920F931F93CF93DF931E
:1026B0001F92CDB7DEB76C01E42E10928304109206
:1026C0008204FC01118269830E94F811F601818362
:1026D0006981882351F00F90DF91CF911F910F9165
:1026E000FF90EF90DF90CF900895660F6F5FC60167
:1026F0000E94E712F6018183811130C0EE2099F12A
:102700008FEF8E0DF601828386010D5F1F4FF12C36
:1027100018C061E0C6010E945212F6018183813027
:1027200079F18035C1F68091BB00F80181938F016A
:10273000F394F0928304F0928104FE14A1F0F60168
:1027400082818F11E6CF60E0C6010E945212F6012D
:1027500081838130A9F0883531F3BDCF813009F014
:10276000BACF85E0B8CFC6010E94A912F6018183D5
:10277000882309F4B0CF813009F0ADCF87E0ABCF2B
:1027800086E0A9CF8F929F92AF92BF92CF92DF92B5
:10279000EF92FF921F93CF93DF93EC016093BB0006
:1027A0000E94D3276B017C0184E88093BC002091B8
:1027B0007F043091800403C02115310519F5809103
:1027C000BC0087FFF9CF8091B900887F883299F1EA
:1027D0001091B900187F9091B900987F903369F1FA
:1027E0001092BC0084E48093BC00812FDF91CF91D4
:1027F0001F91FF90EF90DF90CF90BF90AF909F9090
:102800008F9008950E94D3276C197D098E099F0926
:1028100020917F04309180044901A12CB12C6815CE
:1028200079058A059B0558F21092BC0084E48093D8
:10283000BC0081E0DBCF80E0D9CFCE010E94A9129D
:10284000812FD4CF0F931F93CF93DF93EC01162FDB
:10285000042F19820E94F8118983882329F0DF91BF
:10286000CF911F910F910895612F660FCE010E94A5
:10287000E7128983882341F0813089F782E0DF9174
:10288000CF911F910F910895602FCE010E94C21326
:102890008983882321F0813011F783E0E0CFCE01D6
:1028A0000E94A9128983882321F08130C1F687E034
:1028B000D6CF80E0D4CFEF92FF920F931F93CF93A8
:1028C000DF93EC01162F042FF22E10928304109246
:1028D0008204222389F08FEF820F8A831982CE012E
:1028E0000E94F8118983882391F0DF91CF911F9185
:1028F0000F91FF90EF90089580E0FF24F3948A8376
:102900001982CE010E94F81189838111EECF110F37
:10291000612FCE010E94E7128983882351F0813014
:1029200021F782E0DF91CF911F910F91FF90EF90FF
:102930000895602FCE010E94C2138983882321F05D
:10294000813099F683E0D1CFCE010E94F8118983BE
:10295000882321F0813049F684E0C7CF61E0610F20
:10296000CE010E94E7128983882329F0813009F083
:10297000BCCF85E0BACF8E010D5F1F4FE12C16C092
:1029800061E0CE010E9452128983813041F180358D
:1029900009F0ABCF8091BB00F80181938F01E394E4
:1029A000E0928304E0928104EF1469F08A818E1131
:1029B000E7CF60E0CE010E9452128983813079F026
:1029C000883541F392CFCE010E94A91289838823D2
:1029D00009F48BCF813009F088CF87E086CF86E07D
:1029E00084CFFC0163A740E050E060E87FE343A3AD
:1029F00054A365A376A317A210A611A612A6089544
:102A0000CF93DF93EC011DA61C8A198E81E08A8F7B
:102A1000FE01E85AFF4F80E89CE0A0E0B0E0808330
:102A20009183A283B3838CE594E00E94CD1160E58D
:102A300070E08CE594E00E94DE1144E06BA58CE52B
:102A400094E00E9450138CA78CE594E00E94E3115F
:102A500088AF8CE594E00E94E31189AF8CE594E0A7
:102A60000E94E3118AAF8CE594E00E94E3118BAFE2
:102A700098AD907C59F080E090E0A6E9B3E48C83B7
:102A80009D83AE83BF83DF91CF9108956AAD70E0DF
:102A9000762F6627680F711D882777FD8095982F00
:102AA000607E8827992725E0959587957795679586
:102AB0002A95D1F7FE01E05CFF4F6083718382832A
:102AC00093830E94F22F23E039E148EC5DE30E94FA
:102AD000F43020E030E04FE553E40E94EB2E6C83AD
:102AE0007D838E839F83DF91CF9108954F925F9274
:102AF0006F927F928F929F92AF92BF92CF92DF920E
:102B0000EF92FF920F931F93CF93DF93EC0142E07C
:102B10006BA58CE594E00E9450138CA7882309F4E0
:102B20005EC00E94D327FE01EC5AFF4F6083718381
:102B30008283938334960081118122813381061729
:102B4000170728073907D0F5DC01CB018C599F4FB7
:102B5000AF4FBF4F80839183A283B383CCA8DDA8FE
:102B6000EEA8FFA820E030E046E953E4C701B60133
:102B70000E94F03018160CF493C0188A198A1A8A29
:102B80001B8A1C861D861E861F8681E08C8B8A8D83
:102B90008823A1F08E010C5B1F4F288139814A8167
:102BA0005B81F80160817181828193810E94EB2EAB
:102BB000F80160837183828393831A8EDF91CF91B2
:102BC0001F910F91FF90EF90DF90CF90BF90AF904B
:102BD0009F908F907F906F905F904F9008958CE5BD
:102BE00094E00E94E31188AF8CE594E00E94E31129
:102BF00089AF98AD292F207C09F093CFC92ED12C15
:102C0000DC2CCC24C80ED11C00E2D01AEE24D7FC58
:102C1000E094FE2CCCAEDDAEEEAEFFAE8DA5811104
:102C200062C08EA59FA501969FA78EA7811511E072
:102C3000910709F42AC1803891050CF0FBC0C880C7
:102C4000D980EA80FB8020E030E0A901C701B6010D
:102C50000E94F03018160CF0FAC0C701B6012C81A2
:102C60003D814E815F810E94F4302091D4033091E8
:102C7000D5034091D6035091D7030E94532F0E9451
:102C80005B3126E636E949E155E40E94F430688775
:102C900079878A879B876CAB7DAB8EAB9FAB41CF2F
:102CA000688979898A899B890E94F22F4B015C018E
:102CB000C701B6010E94BB2F850174012DEC3CECCD
:102CC0004CE45FE30E94FB03688B798B8A8B9B8BC0
:102CD0006CA97DA98EA99FA90E94BB2F6C877D87B7
:102CE0008E879F8752CFFE01EC5BFF4F4080518063
:102CF00062807380C701B6010E94F22FA301920186
:102D00000E94EA2E4B015C01FE01E85BFF4F6083ED
:102D10007183828393834091980404E04002F00120
:102D20001124E857FB4F80819181A281B3819701E3
:102D30008601081B190B2A0B3B0BC901B801009136
:102D40008404109185042091860430918704600FDB
:102D5000711F821F931F6093840470938504809376
:102D6000860490938704C082D182E282F3824F5F0F
:102D700044300CF05CC0409398040E94F22F20E095
:102D800030E040E85EE30E94F430A30192010E942B
:102D9000EA2E6F8F78A389A39AA3C880D980EA808E
:102DA000FB80A7019601C501B4010E94EA2E4B01E8
:102DB0005C0120E030E0A9010E94F03024013501DF
:102DC00018160CF07DC0FE01E45BFF4F408251827B
:102DD0006282738220E030E040E251E4C301B2013C
:102DE0000E944F2F1816BCF18FE692E1A3E8BAE3D8
:102DF000FE01E05BFF4F80839183A283B3837FE674
:102E000062E183E89AE3272F362FAC01C501B401B4
:102E10000E94F4309B01AC01C701B6010E94EB2E69
:102E20006B017C01688379838A839B830CCF10922A
:102E30009804A3CF88A999A9AAA9BBA98C0D9D1D07
:102E4000AE1DBF1D88AB99ABAAABBBABF8CEC7011B
:102E5000B601905804CF20E030E048EC52E4C301C2
:102E6000B2010E94F03087FD30C08AE097EDA3E206
:102E7000BCE3FE01E05BFF4F80839183A283B383B9
:102E80007AE067ED83E29CE3BECF8E010C5B1F4FBF
:102E900068A979A98AA99BA90E94F22F20E030E0B5
:102EA00040E05CE30E94F430F80160837183828328
:102EB000938381E08DA7C880D980EA80FB80C3CE50
:102EC00077FA709477F870947ECF20E030E040E29B
:102ED00051E4C301B2010E94EA2E2CEB34E743E136
:102EE0005CE30E94F43020E030E044EB52E40E94C6
:102EF000532F2FE632E143E85AE30E94EB2E362FA0
:102F0000272F462F572FBC01FE01E05BFF4F408368
:102F1000518362837383B90176CFFC0167A714865E
:102F200008958F929F92AF92BF92CF92DF92EF92CD
:102F3000FF920F931F93CF93DF93EC011F921F9289
:102F40001F9288E78F939EE1A92EB12CC12CD12C22
:102F500014E6E12EF12C00E010E020E030E0A901C1
:102F600063E270E080E090E00E94652C7EA36DA398
:102F70001D8A1BA280E090E4ACE9B6E48F8B988FA9
:102F8000A98FBA8F8CE594E00E94CD1160E570E0C6
:102F90008CE594E00E94DE114EE16FA58CE594E093
:102FA0000E9422148EAF1FAE0F900F900F900F90C3
:102FB000882379F081E08FAFDF91CF911F910F913E
:102FC000FF90EF90DF90CF90BF90AF909F908F9049
:102FD000089564E670E080E090E00E9407288E018A
:102FE00082EAB82E7E0182E4E80EF11C6E01E0E474
:102FF000CE0ED11CAA24A39408C0AFAEB394B39450
:103000000E5F1F4FFEEABF16B9F222E04B2D6FA5EF
:103010008CE594E00E945B148EAF8111EECF8CE5BD
:1030200094E00E94E31190E0F701918380838CE5A6
:1030300094E00E94E31190E0F60191838083F70110
:103040009080812C88299929F80193AB82ABD6CF47
:103050002F923F924F925F926F927F928F929F92A8
:10306000AF92BF92CF92DF92EF92FF920F931F9396
:10307000CF93DF93CDB7DEB76A970FB6F894DEBF74
:103080000FBECDBF9A8F898FDC011C968C91813049
:1030900009F48FC3823009F45CC4882351F16A9625
:1030A0000FB6F894DEBF0FBECDBFDF91CF911F9159
:1030B0000F91FF90EF90DF90CF90BF90AF909F90D7
:1030C0008F907F906F905F904F903F902F900895DA
:1030D00023E040E0A98DBA8D9F966C918CE594E039
:1030E0000E945B14882309F44BC5A98DBA8D1C96E8
:1030F0001C9248E4A98DBA8D9F966C918CE594E062
:103100000E942214E98DFA8DEC57FF4FFC8BEB8B5C
:10311000098D1A8D00581F4FF80180819181A2817D
:10312000B381EB89FC8980839183A283B3830E945E
:10313000DF27D8016D937D938D939C931397DC01CA
:10314000CB01B695A79597958795E98DFA8D87A3BD
:1031500090A7A1A7B2A781E08487EC5BFF4FFA8319
:10316000E98311E080819181A281B381181619064B
:103170001A061B060CF01BC40E94D327693E73403D
:103180008105910508F48BCF112309F488CF498D6F
:103190005A8D445B5F4FDA014D905D906D907C904D
:1031A000A98DBA8DA85BBF4F41145104610471040D
:1031B00009F4F8C28D919D910D90BC91A02D480EFF
:1031C000591E6A1E7B1E77FC41C475946794579400
:1031D0004794298D3A8D205B3F4FF90140825182FF
:1031E00062827382FA0180839183A283B383A98D63
:1031F000BA8DDA968D919C91DB97A0E0B0E0BA2F62
:10320000A92F982F8827481A590A6A0A7B0AD301DE
:10321000C201BB0F880B982FDC01E98DFA8DEC5AA7
:10322000FF4F4082518262827382848385838683CA
:103230008783E98DFA8D24AD35AD40E050E0C301C0
:10324000B2010E94783207E10E94CB322053384FFE
:103250004F4F5F4F6F4F7F4F8F4F9F4F0E94EC2F0D
:103260000E94BB2FE98DFA8DE45AFF4F6083718372
:1032700082839383A98DBA8D6D937D938D939C9357
:103280001397D896ED91FC91D997D4968D909C90F8
:10329000D597940140E050E060E070E080E090E07D
:1032A00000E10E94B23279011A014B018D839987A6
:1032B0009F0140E050E0C301B2010E94783207E074
:1032C0000E94CB3259016A01F62FE72F8C0197013A
:1032D000A101B4018D819985EF2EFE2E0E94E93265
:1032E0002D83832E942E5987698B7D871C01E98D50
:1032F000FA8DE05AFF4F20833183428353836483E6
:10330000758386833782A98DBA8DD696ED91FC910F
:10331000D797D2962D913C91D39740E050E060E052
:1033200070E080E090E00FE00E94B232B22EC32E37
:10333000D42EE52EF62E7D8B8F8B988F9F0140E04B
:1033400050E0C301B2010E94783208E00E94CB3203
:10335000A22E732EB42FA52F662E572E8C012B2D47
:103360003C2D4D2D5E2D6F2D7D898F89988DB72C2D
:10337000CB2EDA2EE62CF52C0E94E932E98DFA8D5F
:10338000E859FF4F208331834283538364837583DD
:1033900086839783E981FA81E080F180028113813D
:1033A00027013801770C4408542C32015701680179
:1033B000E42CF42C042D142D0E941F3205E10E94F0
:1033C000CB32AD80B82CC92CD984E988FD84810129
:1033D0000E94F23249013A01B62FA72FF82FE92FA8
:1033E00006E00E94B23254016301EB2EFA2E0F2F39
:1033F0001E2F0E94F23201E00E94B2320F2F0E9473
:10340000F23249013A01B62FA72FF82FE92F02E037
:103410000E94B23259016A017B018C019401A3011F
:103420006B2F7A2F8F2F9E2F0E94E93204E00E948B
:10343000B2320FE00E94CB3259016A017B018C014C
:10344000A98DBA8D14962C9314971596BC92159746
:1034500016964C9316971796DC92179718966C93BE
:1034600018971996FC9219971A968C931A971B968F
:103470001C9320353143464E584361057105810543
:10348000910509F00CF42AC220ED37EF44E65CE325
:1034900060E070E080E090E00E94F2320E94EC2F49
:1034A00025EF3FE94EEA5DE30E94F4300E94BB2F16
:1034B000E98DFA8D658776878787908B69837A8314
:1034C0008B839C83298C3A8CB0E72B0E311CF10145
:1034D0004080518062807380AB89BC892D913D9181
:1034E0004D915C912D833E834F8358874114510445
:1034F0006104710409F4BEC1E98DFA8DEC58FF4FE7
:10350000FE8BED8BC080D180E280F380098D1A8D17
:1035100008581F4FD8018D909D90AD90BC90E98DBB
:10352000FA8DE857FF4FFA8BE98B20813181428178
:10353000538129873A874B875C8769817A818B81A0
:103540009C81681979098A099B090E94F22F2DEC48
:103550003CEC4CEC5DE30E94F4306D877E878F87F6
:10356000988BC501B4010E94F22F9B01AC016D85BF
:103570007E858F8598890E94EB2E0E94BB2F6D87D8
:103580007E878F87988B69817A818B819C816C196A
:103590007D098E099F090E94F22F2BE734E14EEA44
:1035A0005DE30E94F4304B015C01C701B6010E944B
:1035B000F22F9B01AC01C501B4010E94EB2E0E94C9
:1035C000BB2F6B017C016D857E858F8598896C1979
:1035D0007D098E099F090E94F22F2BE735E141EB0F
:1035E00055E40E94F4304B015C0169817A818B8142
:1035F0009C8164197509860997090E94F22F2AE0B7
:1036000037ED43E25DE30E94F43069837A838B8374
:103610009C83C301B2010E94F22F9B01AC0169811E
:103620007A818B819C810E94EB2E0E94BB2FD1015D
:103630006C9311967C93119712968C931297139614
:103640009C9381E0E98DFA8D868BAD89BE89CD9200
:10365000DD92ED92FC9213972D853E854F8558891A
:10366000D8012D933D934D935C9313972D813E810B
:103670004F81588589859A85AB85BC8582179307CC
:10368000A407B50708F4C3C06789708D818D928D3A
:103690009B01AC01C501B4010E94532F4B015C0199
:1036A000E98DFA8DE457FF4F6083718382839383A2
:1036B000098D1A8D00571F4FF801C080D180E2801C
:1036C000F380A98DBA8D95968D919C919697BC01AA
:1036D000882777FD8095982F0E94F22F2B013C01BF
:1036E000A7019601C501B4010E94EA2E9B01AC011D
:1036F000C301B2010E94F4302FE632E143E85AE3FD
:103700000E94F4309B01AC01C701B6010E94EB2E70
:10371000F80160837183828393830E94BB2F4B01E6
:103720005C01A98DBA8D5B966D937D938D939C936F
:103730005E975F966D917D918D919C9192970E947D
:10374000F22F7B018C0123E333E343E75FE3C50101
:10375000B4010E94FB03E98DFA8D678F70A381A3EA
:1037600092A311E013A3D1016D917D918D919C9154
:1037700024E630E040E050E00E94E031E98DFA8D2F
:10378000218B328B438B548B158BEB89FC89808189
:103790009181A281B381E989FA8980839183A2838F
:1037A000B3837DCC4D905D906D907C90D301C20130
:1037B00006CD0E94DF279695879577956795E98DC9
:1037C000FA8DE458FF4F6083718382839383A98DC0
:1037D000BA8D97960D911D912D913C919A976017F6
:1037E00071078207930728F490686083718382834E
:1037F00093830C561E4E2F4F3F4FE98DFA8D0617BF
:1038000017072807390708F427C1848546CCA98DF6
:10381000BA8D5796CD90DD90ED90FC905A976D81C2
:103820007E818F81988529853A854B855C85621BD1
:10383000730B840B950B0E94F02FA70196010E9439
:10384000EA2E2DEC3CEC4CEC5DE30E94F4309B0145
:10385000AC01C701B6010E94EB2E9B01AB01BC017C
:10386000A98DBA8D57964D935D936D937C935A971E
:10387000B9010ECF20523E444109510929873A87A8
:103880004B875C87E98DFA8DE857FF4FFA8BE98B00
:10389000208331834283538369817A818B819C8128
:1038A0000E94F22F20E030E0A9010E94EB2E0E943E
:1038B000BB2F6B017C01C701CD86DE86EF86F88ABF
:1038C000812C912C5401E98DFA8DEC58FF4FFE8B21
:1038D000ED8B098D1A8D08581F4FA9CE9501A601B1
:1038E000B701C80120343D4F414955436105710579
:1038F0008105910509F00CF45CC020E531E346EE4A
:1039000058E360E070E080E090E00E94F2320E94B4
:10391000EC2F27E239E547EB5DE30E94F43020E825
:1039200036E948E95AE40E94EB2E0E94BB2FA98D8C
:10393000BA8D1D966C931D971E967C931E971F96AD
:103940008C931F9750969C9369837A838B839C8377
:10395000B9CD0E94DF279695879577956795E98D74
:10396000FA8DE458FF4F6083718382839383A98D1E
:10397000BA8D97960D911D912D913C919A97601754
:1039800071078207930728F49068608371838283AC
:1039900093830C561E4E2F4F3F4F061717072807CD
:1039A000390708F495CBE98DFA8D848576CB10E044
:1039B000E3CB9501A601B701C8012036314A4C4638
:1039C00052436105710581059105D1F0CCF020E4E9
:1039D0003DEF41E955E360E070E080E090E00E9457
:1039E000F2320E94EC2F2CE433E042EC5DE30E94C3
:1039F000F43020E836E948E15BE40E94EB2E56CD36
:103A00009501A601B701C801203A3E4642465F42F1
:103A1000610571058105910509F00CF44BC020E6A4
:103A200031EA4CE652E360E070E080E090E00E9412
:103A3000F2320E94EC2F29EC38EC48EC5DE30E9456
:103A4000F43020EC31EE44E65BE46DCFEFEF4E1A3C
:103A50005E0A6E0A7E0AB9CB13A614A615A616A690
:103A600023E040E067A58CE594E00E945B14882386
:103A700009F446C0E98DFA8DEC5BFF4F108211828C
:103A80001282138248E5A98DBA8D9F966C918CE5C0
:103A900094E00E9422140E94DF27969587957795DF
:103AA0006795E98DFA8D67A370A781A792A782E039
:103AB0008487F5CA9501A601B701C801203E3D42A1
:103AC00044485C42610571058105910509F00CF4DB
:103AD00097C020EA3EE642E65FE260E070E080E008
:103AE00090E00E94F2320E94EC2F24E23DEC44ED83
:103AF0005DE30E94F43020E836E948E95BE47DCFDD
:103B00008CE594E00E94E31190E0A0E0B0E0BA2FD1
:103B1000A92F982F8827E98DFA8D83A794A7A5A7A9
:103B2000B6A78CE594E00E94E311A98DBA8D9B960F
:103B30004D915D916D917C919E97482B762F652FCD
:103B4000542F4427FD0143A754A765A776A78CE50A
:103B500094E00E94E311A98DBA8D9B964D915D91E1
:103B60006D917C919E97482BFD0143A754A765A7B3
:103B700076A7EC5BFF4F408351836283738382CFD0
:103B80008CE594E00E94E31190E0A0E0B0E0BA2F51
:103B9000A92F982F8827E98DFA8D83A794A7A5A729
:103BA000B6A78CE594E00E94E311A98DBA8D9B968F
:103BB0004D915D916D917C919E97482B762F652F4D
:103BC000542F4427FD0143A754A765A776A78CE58A
:103BD00094E00E94E311A98DBA8D9B964D915D9161
:103BE0006D917C919E97482BFD0143A754A765A733
:103BF00076A7E85BFF4F408351836283738375CA66
:103C00009501A601B701C80121153E434A4C59420E
:103C10006105710581059105C1F0BCF020EE3DE222
:103C200044E85CE260E070E080E090E00E94F23204
:103C30000E94EC2F23EC3FED4FED5DE30E94F4304A
:103C400020E23CEB4EEB5BE46ECE9501A601B701A2
:103C5000C801203836464343574261057105810546
:103C60009105C1F0BCF020E03EE34AEC59E260E08F
:103C700070E080E090E00E94F2320E94EC2F29E395
:103C80003AEB4BEE5DE30E94F43020EC31EE44EE73
:103C90005BE4B3CE9501A601B701C801203D3744CE
:103CA0004E4B54426105710581059105C1F0BCF090
:103CB00020E836E643E357E260E070E080E090E021
:103CC0000E94F2320E94EC2F23EE3CE548EF5DE3C8
:103CD0000E94F43020EB33E845E05CE424CE95010B
:103CE000A601B701C80120353B454946524261054E
:103CF000710581059105C1F0BCF020ED37E44EEB74
:103D000054E260E070E080E090E00E94F2320E94B5
:103D1000EC2F2DE131EE42E05EE30E94F43020E82A
:103D200036E948E15CE469CE20E53BE549E652E24C
:103D300060E070E080E090E00E94F2320E94EC2FA0
:103D400020E734E14AE05EE30E94F43020E539EAFE
:103D50004BE25CE4E8CDFC0186E9868784EF91E0E4
:103D6000908B878788E2818B88E7828B2AE0238B80
:103D700082E3848B80E991E0968B858B81E0878B51
:103D8000228F8CE89AE0918F808F08954F925F92F6
:103D90006F927F928F929F92AF92BF92CF92DF925B
:103DA000EF92FF920F931F93CF93DF93CDB7DEB7C0
:103DB0002C970FB6F894DEBF0FBECDBF4C012A0181
:103DC0003B016091600370916103882777FD8095C6
:103DD000982F0E94F22F20E030E048EC52E40E943D
:103DE000532F6D837E838F839887D40155968D9151
:103DF0009C9156979C01442737FD4095542F298369
:103E00003A834B835C8342165306640675060CF4B2
:103E10005CC0F4018289618970E0680F711D882798
:103E200077FD8095982F0E94F22F2D813E814F8142
:103E300058850E94F4300E94BB2F5B016C01D401B5
:103E400054968C91549753964C9150E0480F511DC5
:103E5000662757FD6095762F7F936F935F934F93FF
:103E600018EEE12E13E0F12E00E010E029813A81F6
:103E70004B815C81C301B2010E94652CF40144892D
:103E8000238930E0240F311DCB010F900F900F904C
:103E90000F9062177307BCF02C960FB6F894DEBF34
:103EA0000FBECDBFDF91CF911F910F91FF90EF908B
:103EB000DF90CF90BF90AF909F908F907F906F904A
:103EC0005F904F900895C901E7CF1E968C911E9781
:103ED0001F966D917C915097680F711D882777FD13
:103EE0008095982F0E94F22F2D813E814F81588519
:103EF0000E94F4300E94BB2F5B016C01809154033F
:103F0000909155039C01442737FD4095542F2987F4
:103F10003A874B875C87D40152968C915297519681
:103F20006C9170E0680F711D882777FD8095982F40
:103F30000E94F22F2D813E814F8158850E94F430DE
:103F40000E94BB2F9F938F937F936F93E980FA809A
:103F50000B811C8129853A854B855C85C301B201A3
:103F60000E94652C0F900F900F900F90CB0194CF73
:103F70004F925F926F927F928F929F92AF92BF9279
:103F8000CF92DF92EF92FF920F931F93CF93DF9325
:103F9000CDB7DEB728970FB6F894DEBF0FBECDBF02
:103FA0004C012A013B0160916003709161038827F5
:103FB00077FD8095982F0E94F22F20E030E048ECAA
:103FC00052E40E94532F9B01AC01D40155968D9170
:103FD0009C9156977C010027F7FC0095102FE982F1
:103FE000FA820B831C834E145F04600671060CF486
:103FF0004EC0F401628970E080E090E02D833E8342
:104000004F8358870E94F22F2D813E814F81588522
:104010000E94F4300E94BB2FD40154962C911F9221
:104020001F921F922F935B016C0118EEE12E13E09B
:10403000F12E00E010E029813A814B815C81C301BF
:10404000B2010E94652CF401248930E0CB010F906D
:104050000F900F900F9062177307BCF028960FB661
:10406000F894DEBF0FBECDBFDF91CF911F910F91AE
:10407000FF90EF90DF90CF90BF90AF909F908F9088
:104080007F906F905F904F900895C901E7CF1F9682
:104090006D917C915097882777FD8095982F2D837F
:1040A0003E834F8358870E94F22F2D813E814F819E
:1040B00058850E94F4300E94BB2F20915403309108
:1040C0005503442737FD4095542FD4015296EC9167
:1040D0001F921F921F92EF935B016C01E980FA809F
:1040E0000B811C81C301B2010E94652C0F900F90BF
:1040F0000F900F90CB01B2CF4F925F926F927F9251
:104100008F929F92AF92BF92CF92DF92EF92FF92E7
:104110000F931F93CF93DF9300D000D0CDB7DEB7BE
:104120004C012A013B010E94D327D4016D937D935A
:104130008D939C93139716960D911D912D913C9103
:1041400019976B017C01C01AD10AE20AF30A1A9688
:104150000D911D912D913C911D970C151D052E055E
:104160003F0508F0E3C0F4012789222309F495C034
:1041700066837783808791874091540350915503DC
:10418000662757FD6095762F441655066606770616
:104190000CF098C0E0905603F09057030027F7FC0E
:1041A0000095102FE414F504060517050CF0C3C0A4
:1041B0000E94D3270091990410919A0420919B04A6
:1041C00030919C04601771078207930708F0DAC0EA
:1041D00080915403909155039C01442737FD4095ED
:1041E000542F29833A834B835C834216530664061B
:1041F00075060CF4C7C0B4E64B1651046104710493
:104200000CF4D6C0D40158964D915C9159975A013F
:10421000CC24B7FCC094DC2C485A5D4F662757FD70
:104220006095762F7F936F935F934F9318EEE12EF7
:1042300013E0F12E00E010E029813A814B815C818E
:10424000C301B2010E94652C0F900F900F900F9048
:10425000683C71050CF4DAC0F401208D318D2454D2
:104260003D4F261737070CF4B901CB01D401159641
:104270007C936E93149760919D0470919E04680FD7
:10428000791F80E090E0EE24E39408E813E120E059
:1042900030E05A964C910E948C250F900F900F9011
:1042A0000F90DF91CF911F910F91FF90EF90DF90D2
:1042B000CF90BF90AF909F908F907F906F905F90C6
:1042C0004F9008951092A00410929F048CE99FEFE4
:1042D00090939E0480939D04B301A201C4010E94A7
:1042E000C61EAC01662757FD6095762FF401428704
:1042F0005387648775870E94D3276B017C01B301C4
:10430000A201C4010E94B81FAC01662757FD609549
:10431000762F4C0D5D1D6E1D7F1D409399045093AB
:104320009A0460939B0470939C04D40157968C91DB
:10433000811130CFB2CF1F921F921F928CED8F93BD
:104340004CE3A42EB12CC12CD12C28E13CEF4FEF33
:104350005FEFC301B2010E94652CF4017583648391
:10436000882777FD8095982FEE24E39408EE13E0DC
:1043700020E030E0428D0E948C250F900F900F902E
:104380000F908BCF0F900F900F900F90DF91CF91E8
:104390001F910F91FF90EF90DF90CF90BF90AF9063
:1043A0009F908F907F906F905F904F900C945526C8
:1043B00020919F043091A0042A3F310508F022CFBC
:1043C000A9014F5F5F4F5093A00440939F049A014F
:1043D000A9E8B8E80E940532929582958F708927E6
:1043E0009F7089276EE1689F9001699F300D1124AD
:1043F0004217530709F006CF80919D0490919E04C7
:10440000019690939E0480939D04FCCE88EC90E0EE
:1044100068EC70E02BCF2F923F924F925F926F9299
:104420007F928F929F92AF92BF92CF92DF92EF9244
:104430000F931F93CF93DF9300D000D000D0CDB760
:10444000DEB71C0169011216130674F5CA01AA270A
:1044500097FDA095BA2F89839A83AB83BC832B01E8
:10446000662457FC6094762C4801AA2497FCA094FB
:10447000BA2CA1E0B0E0BE83AD83E12C09811A81A2
:104480002B813C81F101428DC301B2010E948C2538
:10449000C501B4010E9407288D819E8101969E83EB
:1044A0008D83C816D9064CF726960FB6F894DEBF52
:1044B0000FBECDBFDF91CF911F910F91EF90DF9095
:1044C000CF90BF90AF909F908F907F906F905F90B4
:1044D0004F903F902F9008952F923F924F925F926E
:1044E0006F927F928F929F92AF92BF92CF92DF9204
:1044F000EF920F931F93CF93DF93CDB7DEB728973B
:104500000FB6F894DEBF0FBECDBF9A83898378873C
:104510006F833A016901641775070CF451C046179F
:104520005707ACF1C801AA2797FDA095BA2F8B8336
:104530009C83AD83BE8322243324221A330A44246D
:1045400037FC4094542C4A01AA2497FCA094BA2C1E
:10455000EE24E39408E813E120E030E0A981BA8179
:104560005A964C91C501B4010E948C256B817C81C7
:104570008D819E810E9407286C187D08820C931CF7
:10458000A41CB51CEF81F8856E167F060CF72896E3
:104590000FB6F894DEBF0FBECDBFDF91CF911F9154
:1045A0000F91EF90DF90CF90BF90AF909F908F9042
:1045B0007F906F905F904F903F902F900C94552676
:1045C000C801AA2797FDA095BA2F8B839C83AD8342
:1045D000BE831901442437FC4094542CAF81B88524
:1045E0004D01AA2497FCA094BA2CEE24E39408E889
:1045F00013E120E030E0E981FA81428DC501B40188
:104600000E948C256B817C818D819E810E94072870
:104610008F8198858C0D9D1D98878F83820C931CAC
:10462000A41CB51C6816790604F7B1CF8F929F922F
:10463000AF92BF92EF920F931F93CF93DF93EC0152
:1046400058EE852E53E0952EA12CB12CEE24E39448
:104650000CE310E020E030E04A8DC501B4010E9477
:104660008C2564E070E080E090E00E94072889E1FA
:10467000880E911CA11CB11C81ED88168BE0980658
:10468000A104B10419F7DF91CF911F910F91EF9021
:10469000BF90AF909F908F900C9455268F929F92D1
:1046A000AF92BF92EF920F931F93CF93DF93EC01E2
:1046B00068EB862E6BE0962EA12CB12CEE24E394B1
:1046C0000CE310E020E030E04A8DC501B4010E9407
:1046D0008C2564E070E080E090E00E94072889E18A
:1046E000881A9108A108B1088FEC881683E0980613
:1046F000A104B10419F7DF91CF911F910F91EF90B1
:10470000BF90AF909F908F900C945526CF92DF92E0
:10471000EF920F931F93CF93DF93EC016B018827E8
:1047200077FD8095982FE12C0EE110E020E030E03D
:104730004A8D0E948C25B601660F771F882777FD6A
:104740008095982F0EE110E020E030E04A8D0E9425
:104750008C25DF91CF911F910F91EF90DF90CF903B
:104760000C945526EF920F931F93EE24E39404EFDD
:1047700011E020E030E04AE068E27AE080E090E09A
:104780000E948C2560E273E080E090E00E940728A0
:1047900004EF11E020E030E04AE068E27AE080E0F7
:1047A00090E00E948C2560E273E080E090E00E943F
:1047B000072808EE13E020E030E04AE060ED77E003
:1047C00080E090E00E948C2568EE73E080E090E04D
:1047D0001F910F91EF900C9407288F929F92AF92A8
:1047E000BF92EF920F931F93CF93DF93EC01F8EEFC
:1047F0008F2EF3E09F2EA12CB12CEE24E3940CE33A
:1048000010E020E030E04A8DC501B4010E948C2503
:1048100064E070E080E090E00E94072880E5880E68
:10482000911CA11CB11C88E588168CE09806A10497
:10483000B10419F7DF91CF911F910F91EF90BF90C5
:10484000AF909F908F900C9455268F929F92AF922D
:10485000BF92EF920F931F93CF93DF93EC01ACE1E4
:104860008A2EACE09A2EA12CB12CEE24E3940CE31A
:1048700010E020E030E04A8DC501B4010E948C2593
:1048800064E070E080E090E00E94072880E5881AEC
:104890009108A108B1088CEA881683E09806A10463
:1048A000B10419F7DF91CF911F910F91EF90BF9055
:1048B000AF909F908F900C945526FC01678B81E000
:1048C00080935B038AE693E0611102C00C94252477
:1048D0000C94ED234F925F926F927F92AF92BF92B2
:1048E000CF92DF92EF920F931F93CF93DF93EC0160
:1048F000A62EB12CA114B10459F1C12CD12CB0EDCC
:104900004B2EB7E05B2E612C712CEE24E3940CE36C
:1049100010E020E030E04A8DC301B2010E948C25F6
:104920006FE070E080E090E00E94072884E6480E87
:10493000511C611C711C80EF48168AE05806610406
:10494000710419F78FEFC81AD80ACA14DB04BCF235
:10495000DF91CF911F910F91EF90DF90CF90BF909B
:10496000AF907F906F905F904F900C945526AF92D0
:10497000BF92CF92DF92EF920F931F93CF93DF936B
:10498000EC015B0180E5869F6001879FD00C1124BC
:1049900080EAC81A86EFD80AB601882777FD809585
:1049A000982FEE24E39404E610E020E030E04A8DF6
:1049B0000E948C258FE08A9DB0018B9D700D112483
:1049C000605B7F4F882777FD8095982F0E9407288E
:1049D00001E010E02FE030E040EA5FE0B601CE01F8
:1049E0000E946C22DF91CF911F910F91EF90DF9089
:1049F000CF90BF90AF900895CF93DF93EC016231D9
:104A0000710530F061E0CE01DF91CF910C946A2402
:104A1000FB01EC5CFF4F0C94FF3164E070E0DF9130
:104A2000CF910C94B72465E070E0DF91CF910C94A6
:104A3000B7240E94ED23CE010E94ED23CE010E94F7
:104A4000ED2368EE73E080E090E0DF91CF910C946D
:104A5000072864E670E0DF91CF910C94862368E725
:104A600070E0DF91CF910C9486236CE870E0DF91C9
:104A7000CF910C94862360EA70E0DF91CF910C9483
:104A8000862364EB70E0DF91CF910C9486230E9423
:104A90001623CE010E944E23CE010E941623CE0182
:104AA0000E944E2368EE73E080E090E0DF91CF91AA
:104AB0000C9407280E941623CE010E944E2360E228
:104AC00073E080E090E0DF91CF910C94072862E0E2
:104AD000DF91CF910C946A2464E0DF91CF910C9424
:104AE0006A2465E0DF91CF910C946A24DF91CF9125
:104AF0000C94B22361E070E0DF91CF910C94B72465
:104B000062E070E0DF91CF910C94B72463E070E035
:104B1000DF91CF910C94B7244F925F926F927F9266
:104B20008F929F92AF92BF92CF92DF92EF92FF92BD
:104B30000F931F93CF93DF9300D000D0CDB7DEB794
:104B40004B015C01280139010E2D611571058105AC
:104B5000910509F460C0442309F45DC0142F4B3063
:104B600008F07BC084B1866084B960E079E08DE3B1
:104B700090E0A50194010E94BE3169017A0181E0B3
:104B8000C81AD108E108F108C114D104E1E0EE0629
:104B9000F10408F064C081E1B82EE12FF0E0E35F9A
:104BA000FE4F208130E040E050E0C701B6010E9496
:104BB000BE31411451046104710411F001115BC054
:104BC000D0928700C09286008091840090918500E9
:104BD000A0E0B0E0C816D906EA06FB0620F4D092A1
:104BE0008500C0928400B092810030938B002093A6
:104BF0008A00309389002093880080EB80938000A6
:104C0000411451046104710499F0011111C0C301F0
:104C1000B2010E94072880916F008D7F80936F0002
:104C200082E08093810081E08093800029982A9817
:104C30000F900F900F900F90DF91CF911F910F91D8
:104C4000FF90EF90DF90CF90BF90AF909F908F90AC
:104C50007F906F905F904F9008951AE083CFCD2C96
:104C6000DE2CEF2CFF24F1E0CF1AD108E108F10887
:104C700024E1B22E92CF29833A834B835C830E9436
:104C8000D327640D751D861D971D6093A104709335
:104C9000A2048093A3049093A40480916F00826087
:104CA00080936F003A8129818BCFEFE6F0E080811D
:104CB0008D7F808382E08093810081E080938000FB
:104CC00029982A9808951F920F920FB60F921124D7
:104CD0000F931F932F933F934F935F936F937F9304
:104CE0008F939F93AF93BF93EF93FF930E94D3272C
:104CF0000091A1041091A2042091A3043091A40476
:104D0000601771078207930768F080916F008D7FAD
:104D100080936F0082E08093810081E08093800027
:104D200029982A98FF91EF91BF91AF919F918F9110
:104D30007F916F915F914F913F912F911F910F91B3
:104D40000F900FBE0F901F9018954115510529F433
:104D5000EAE7F0E080818F7780836A307105B1F0F7
:104D600063FF02C088E201C088E06770682B88E1B9
:104D700090E00FB6F894A895809360000FBE609302
:104D80006000E0E6F0E0808180648083232BA1F462
:104D900083B7817F846083BFF89483B7816083BFCA
:104DA00085B7806685BF8F7D85BF7894889583B7EA
:104DB0008E7F83BF78940EC083B7817F846083BF6A
:104DC000F89483B7816083BF7894889583B78E7F8A
:104DD00083BF7894452B29F4EAE7F0E0808180686E
:104DE000808308951F920F920FB60F9211248F9314
:104DF00088E10FB6F89480936000109260000FBEB7
:104E00008F910F900FBE0F901F90189508958230CC
:104E100008F00895E82FF0E0EE0FFF1FE85EFE4F68
:104E200071836083813061F480916900440F551F64
:104E3000440F551F837F842B80936900E99A08955E
:104E4000809169008C7F842B80936900E89A089593
:104E5000823008F00895813061F0E898E82FF0E0A2
:104E6000EE0FFF1FE85EFE4F86E097E2918380839E
:104E70000895E998F3CF1F920F920FB60F92112465
:104E80002F933F934F935F936F937F938F939F9352
:104E9000AF93BF93EF93FF93E0911801F091190145
:104EA0000995FF91EF91BF91AF919F918F917F9164
:104EB0006F915F914F913F912F910F900FBE0F9087
:104EC0001F9018951F920F920FB60F9211242F93D7
:104ED0003F934F935F936F937F938F939F93AF9382
:104EE000BF93EF93FF93E0911A01F0911B01099595
:104EF000FF91EF91BF91AF919F918F917F916F91B2
:104F00005F914F913F912F910F900FBE0F901F9087
:104F100018951F920F920FB60F9211242F933F9363
:104F20008F939F93AF93BF938091A7049091A80410
:104F3000A091A904B091AA043091A60426E0230F01
:104F40002D3768F129E8230F0396A11DB11D209389
:104F5000A6048093A7049093A804A093A904B093F7
:104F6000AA048091AB049091AC04A091AD04B091DF
:104F7000AE040196A11DB11D8093AB049093AC04C7
:104F8000A093AD04B093AE04BF91AF919F918F9168
:104F90003F912F910F900FBE0F901F901895029682
:104FA000A11DB11DD4CF2FB7F8946091A7047091C3
:104FB000A8048091A9049091AA042FBF08953FB737
:104FC000F8948091AB049091AC04A091AD04B091A1
:104FD000AE0426B5A89B05C02F3F19F00196A11D70
:104FE000B11D3FBF6627782F892F9A2F620F711D41
:104FF000811D911D660F771F881F991F660F771FF0
:10500000881F991F660F771F881F991F0895CF92D9
:10501000DF92EF92FF92CF93DF936B017C010E94AE
:10502000DF27EB01C114D104E104F104A9F00E94CF
:10503000E92E0E94DF276C1B7D0B683E734090F3C6
:1050400081E0C81AD108E108F108C851DC4FC11449
:10505000D104E104F10459F7DF91CF91FF90EF9073
:10506000DF90CF900895789484B5826084BD84B534
:10507000816084BD85B5826085BD85B5816085BD53
:10508000EEE6F0E0808181608083E1E8F0E010826C
:10509000808182608083808181608083E0E8F0E0AD
:1050A000808181608083E1EBF0E080818460808397
:1050B000E0EBF0E0808181608083EAE7F0E08081CE
:1050C0008460808380818260808380818E7F808302
:1050D0008081806880831092C10008958330E9F058
:1050E00038F0873069F0883011F1843079F0089514
:1050F0008130C9F0823081F484B58F7D84BD0895FC
:105100008091B0008F778093B000089580918000E7
:105110008F7D8093800008950895809180008F771F
:1051200080938000089584B58F7784BD0895809121
:10513000B0008F7D8093B0000895CF93DF9390E00F
:10514000FC01E056FF4F2491FC01EC54FF4F849189
:105150008823B9F090E0880F991FFC01E452FF4FBB
:10516000A591B4918E529F4FFC01C591D4919FB7E8
:10517000662351F06230A1F0F8948C91822B8C93CD
:105180009FBFDF91CF910895F8948C912095822351
:105190008C938881822388839FBFDF91CF9108956C
:1051A000F8948C91322F309583238C938881822BB5
:1051B00088839FBFE6CF0F931F93CF93DF931F92F8
:1051C000CDB7DEB7282F30E0F901E457FF4F8491C7
:1051D000F901E056FF4F0491F901EC54FF4F14918F
:1051E000112399F081111BC0E12FF0E0EE0FFF1F9A
:1051F000EE52FF4FA591B4918FB7F8949C91611135
:105200000AC0009590239C938FBF0F90DF91CF91A0
:105210001F910F910895902B9C938FBFF6CF6983B8
:105220000E946E286981E0CFCF93DF93282F30E072
:10523000F901E457FF4F8491F901E056FF4FD491F3
:10524000F901EC54FF4FC491CC23B1F0811119C086
:10525000EC2FF0E0EE0FFF1FE853FF4FA591B49144
:105260002C912D2381E090E019F0DF91CF910895EA
:1052700080E0DF91CF91089580E090E0DF91CF91C1
:1052800008950E946E28E4CFFC01818D228D90E06C
:10529000805C9F4F821B91098F7399270895FC01B1
:1052A000918D828D981731F0828DE80FF11D858DDB
:1052B00090E008958FEF9FEF0895FC01918D828D0E
:1052C000981761F0828DDF01A80FB11D5D968C915A
:1052D000928D9F5F9F73928F90E008958FEF9FEF65
:1052E000089581EE9AE2892B49F080E090E0892BC5
:1052F00029F00E94E12A81110C9400000895FC011C
:10530000848DDF01A80FB11DA35ABF4F2C91848D4E
:1053100090E001968F739927848FA689B7892C9383
:10532000A089B1898C9180648C93938D848D98131E
:1053300008950288F389E02D80818F7D8083089510
:10534000CF93DF93EC01888D8823B9F0EA89FB893C
:10535000A889B989808185FF0DC00FB607FCFACFF7
:10536000808185FFF7CF8C9185FFF4CFCE010E941D
:105370007F29ECCF8C9186FFF0CFDF91CF910895FC
:10538000CF92DF92FF920F931F93CF93DF931F92E1
:10539000CDB7DEB76C0181E0D60158968C93589753
:1053A0005B969C915B975C968C915C979817D1F17A
:1053B000F601038D10E00F5F1F4F0F731127F02EC2
:1053C00003C00FB607FE20C0F601848DF816C9F39E
:1053D000838DE80FF11DE35AFF4F6083D6015B9682
:1053E0000C935B975296ED91FC915397808180626C
:1053F000808381E090E00F90DF91CF911F910F911A
:10540000FF90DF90CF900895D6015096ED91FC91DA
:105410005197808185FFD8CFC60169830E947F297B
:105420006981D2CF5096ED91FC915197808185FF93
:10543000BFCFD6015696ED91FC9157976083509659
:10544000ED91FC915197808180648083D2CFBF928F
:10545000CF92DF92EF92FF920F931F93CF93DF9340
:10546000EC016A017B01B22E60E874E88EE190E005
:10547000A70196010E94BE3121503109410951090D
:1054800056954795379527958901E889F98982E0EE
:105490008083211580E13807A0F0E889F98910821E
:1054A00060E472E48FE090E0A70196010E94BE31B3
:1054B000215031094109510956954795379527954E
:1054C0008901EC85FD851083EE85FF850083188EAC
:1054D000EC89FD89B082EA89FB89808180618083C3
:1054E000EA89FB89808188608083EA89FB898081E1
:1054F00080688083EA89FB8980818F7D8083DF914A
:10550000CF911F910F91FF90EF90DF90CF90BF90C0
:1055100008951F920F920FB60F9211242F938F931D
:105520009F93EF93FF93E091BF04F091C0048081BB
:10553000E091C504F091C60482FD1BC020818091DA
:10554000C8048F5F8F739091C904891741F0E0916F
:10555000C804F0E0E155FB4F258F8093C804FF910C
:10556000EF919F918F912F910F900FBE0F901F90F1
:1055700018958081F4CF1F920F920FB60F921124CD
:105580002F933F934F935F936F937F938F939F934B
:10559000AF93BF93EF93FF938FEA94E00E947F292C
:1055A000FF91EF91BF91AF919F918F917F916F91FB
:1055B0005F914F913F912F910F900FBE0F901F90D1
:1055C00018958FEA94E00E94442921E0892B09F480
:1055D00020E0822F08951092B2041092B10488EE58
:1055E00093E0A0E0B0E08093B3049093B404A09360
:1055F000B504B093B6048CEF91E09093B00480931F
:10560000AF0485EC90E09093BC048093BB0484ECE1
:1056100090E09093BE048093BD0480EC90E0909362
:10562000C0048093BF0481EC90E09093C204809307
:10563000C10482EC90E09093C4048093C30486EC90
:1056400090E09093C6048093C5041092C804109211
:10565000C9041092CA041092CB04089580E090E02F
:10566000089508950E9433280E94312B0E948901D9
:105670000E94A20481E799E2892B29F00E947129F6
:105680000E94A204FBCF0E94A2040E94A204FBCFAE
:10569000CF92DF92EF92FF920F931F93CF93DF93FE
:1056A0007C016A0141155105F9F08B01C0E0D0E0A1
:1056B00004C02196CC16DD0669F0D8016D918D01EC
:1056C000D701ED91FC910190F081E02DC701099582
:1056D000892B79F7CE01DF91CF911F910F91FF9028
:1056E000EF90DF90CF900895C0E0D0E0F3CFDC01E1
:1056F000ED91FC91DB0114964D915C9115976D91A4
:105700007C910280F381E02D09946115710581F08F
:10571000DB010D900020E9F7AD0141505109461B16
:10572000570BDC01ED91FC910280F381E02D09948F
:1057300080E090E008950F931F93CF93DF93EC01E7
:10574000E881F981DB0114964D915C9115976D917B
:105750007C910280F381E02D09958C01E881F9812B
:105760000280F381E02D42E050E068E072E0CE017B
:105770000995800F911FDF91CF911F910F9108958F
:105780008F929F92AF92BF92CF92DF92EF92FF9251
:105790000F931F93CF93DF93CDB7DEB7A1970FB6CB
:1057A000F894DEBF0FBECDBF7C01D42EE52FCB0118
:1057B000C22E19A221E02C1508F051C08C2C912C7E
:1057C000A12CB12C8E010F5D1F4F0BC0805DD80145
:1057D0008C932115310541055105C9F0D22EE32FD7
:1057E000CA016D2D7E2FA50194010E94BE318D2D21
:1057F000C29E80191124015011098A303CF3895C42
:10580000D8018C93211531054105510539F7011552
:10581000110569F1F80101900020E9F7AF0141504D
:105820005109401B510BD701ED91FC910280F3818E
:10583000E02DB801C7010995A1960FB6F894DEBF17
:105840000FBECDBFDF91CF911F910F91FF90EF90D1
:10585000DF90CF90BF90AF909F908F9008952AE0F7
:10586000822E912CA12CB12C3AE0C32EABCF80E03C
:1058700090E0E2CF2115310511F00C94C02BDC0132
:10588000ED91FC910190F081E02D642F09940F932C
:105890001F93CF93DF93EC019A01AB0160E070E0BE
:1058A0000E943A2C8C01E881F9810280F381E02D7D
:1058B00042E050E068E072E0CE010995800F911F50
:1058C000DF91CF911F910F9108954F925F926F9248
:1058D0007F92AF92BF92CF92DF92EF92FF920F939F
:1058E0001F93CF93DF93CDB7DEB729013A01621B37
:1058F000730B840B950B29893A894B895C892A198A
:105900003B094C095D09298B3A8B4B8B5C8B9B01C6
:10591000AC0169897A898B899C890E94AE31E4182F
:10592000F50806091709A80197010E94E0312A0D20
:105930003B1D4C1D5D1DCA01B901DF91CF911F9127
:105940000F91FF90EF90DF90CF90BF90AF907F903E
:105950006F905F904F900895FC01808191810C942D
:10596000B4330F931F93CF93DF93EC018B018881A6
:105970009981009729F02A813B812617370788F4FF
:10598000B8016F5F7F4F0E944334009781F0998385
:1059900088831B830A832C813D81232B11F4FC0116
:1059A000108281E0DF91CF911F910F91089580E0E7
:1059B000F9CFEF92FF920F931F93CF93DF93EC01F8
:1059C0007B018A01BA010E94B12C811114C0888127
:1059D0009981009711F00E94B433198218821D82B8
:1059E0001C821B821A82CE01DF91CF911F910F91F1
:1059F000FF90EF9008951D830C83B70188819981F2
:105A00000E943D35CE01DF91CF911F910F91FF9004
:105A1000EF900895FC011182108213821282158288
:105A200014826115710559F0FB0101900020E9F71E
:105A3000AF0141505109461B570B0C94D92C0895C6
:105A4000CF93DF93EC01FB018617970749F0608144
:105A500071816115710541F0448155810E94D92CF5
:105A6000CE01DF91CF91089588819981009711F03F
:105A70000E94B433198218821D821C821B821A82F2
:105A8000CE01DF91CF910895FC0111821082138223
:105A90001282158214820C94202DCF93DF93EC0197
:105AA0006115710579F0FB0101900020E9F7AF0164
:105AB00041505109461B570B0E94D92CCE01DF9152
:105AC000CF91089588819981009711F00E94B43395
:105AD000198218821D821C821B821A82CE01DF91DC
