:100000000C94F3000C9460220C9487220C94FE054F
:100010000C94FE050C94FE050C9417220C941B0105
:100020000C941B010C941B010C941B010C94882153
:100030000C941B010C941B010C941B010C941B01D0
:100040000C94AE220C941B010C94DF250C94112609
:100050000C941B010C941B010C941B010C941B01B0
:100060000C941B010C941B013E204E2054205A205E
:10007000602066206C207F2027208C2091209620F5
:100080009B209F20A520AB203220382000000008B4
:10009000000201000003040700000000000000004F
:1000A000010204081020408001020408102001020F
:1000B00004081020040404040404040402020202DC
:1000C00002020303030303030000000023002600D1
:1000D000290000000000250028002B00000000007F
:1000E000240027002A0000407A10F35A00A0724E24
:1000F00018090010A5D4E80000E87648170000E4CD
:100100000B54020000CA9A3B000000E1F505000014
:1001100080969800000040420F000000A086010079
:100120000000102700000000E80300000000640049
:10013000000000000A0000000000010000000000B4
:100140002C76D888DC674F0823DFC1DFAE59E1B1D8
:10015000B796E5E3E453C63AE651997696E8E6C2E7
:100160008426EB898C9B62ED407C6FFCEFBC9C9FEE
:1001700040F2BAA56FA5F490055A2AF75C936B6C10
:10018000F9676DC11BFCE0E40D47FEF520E6B50004
:10019000D0ED902E0300943577050080841E080072
:1001A00000204E0A000000C80C333333330F986E22
:1001B00012831141EF8D2114893BE65516CFFEE6DF
:1001C000DB18D1844B381BF77C1D901DA4BBE424A5
:1001D000203284725E228100C9F124ECA1E53D2722
:1001E000CA034126F40311241FBECFEFD8E0DEBFBF
:1001F000CDBF12E0A0E0B1E0E6EFF5E602C0059069
:100200000D92A03EB107D9F725E0A0EEB2E001C003
:100210001D92A933B207E1F711E0C4EED1E004C0AA
:100220002297FE010E94982CC03ED107C9F70E9478
:1002300088260C94EE320C940000089586EE92E02D
:100240000C94F82780918F03813029F061E08EE8CB
:1002500093E00C94B60960E08EE893E00C94B60944
:10026000CF93DF93CEEBD3E0688181E0682787EA04
:1002700093E00E94821F8881809397038EE893E029
:10028000DF91CF910C94A9090F931F938091BE0326
:10029000882361F18091C1038A30F9F08AE080936C
:1002A000C10360919803709199037093C0036093A8
:1002B000BF0304E110E022E030E040EA50E087EACA
:1002C00093E00E94301D8091C103809394038EE8D7
:1002D00093E01F910F910C94A9098091950380934D
:1002E000C10360919A0370919B03DFCF61E087EABD
:1002F00093E01F910F910C94821F0F931F93CF9344
:10030000DF938C01EB011092E5021092E40210924F
:10031000E3021092E2028C819D81892B39F160E029
:1003200070E001C0B901CE010E948029FC0140812A
:1003300050E05093E1024093E0022091E4023091BA
:10034000E502242735273093E5022093E40220912B
:10035000E2023091E3022F5F3F4F3093E30220939C
:10036000E2024C815D8124173507E0F26CE171E017
:10037000C8010E94DB26BE01C8010E94CD266EE1A5
:1003800071E0C8010E94DB266091E4027091E502F1
:1003900040E150E0C801DF91CF911F910F910C9483
:1003A00093278091EC0281110DC061ED72E086EE21
:1003B00092E00E94562881E08093EC028EE191E069
:1003C0000E94842660E271E086EE92E00E94992805
:1003D0006EE271E086EE92E00E94F92860910B03D4
:1003E00070910C0380910D0390910E0324E630E090
:1003F00040E050E00E94772CBA01A90186EE92E01D
:100400000E941C2969E271E086EE92E00E94F928C0
:100410006091190370911A0380911B0390911C0342
:100420000E94082B20E030E048EC52E40E94692A48
:10043000AB01BC0186EE92E00E944E296BE271E0B6
:1004400086EE92E00E94F92866EE72E087E994E079
:100450000C947D01CF93DF9300D000D000D0CDB7B6
:10046000DEB761ED72E0CE0101960E94562860E38E
:1004700071E0CE0101960E949928BE016F5F7F4F07
:100480008EEC93E00E947D016FE571E0CE01019654
:100490000E949928BE016F5F7F4F8EEC93E00E940F
:1004A0007D0169E671E0CE0101960E949928BE01A6
:1004B0006F5F7F4F8EEC93E00E947D0163E771E0F8
:1004C000CE0101960E949928BE016F5F7F4F8EEC8E
:1004D00093E00E947D016DE771E0CE0101960E94DC
:1004E0009928BE016F5F7F4F8EEC93E00E947D01E3
:1004F00067E871E0CE0101960E949928BE016F5F06
:100500007F4F8EEC93E00E947D0161E971E0CE01A6
:1005100001960E949928BE016F5F7F4F8EEC93E099
:100520000E947D01CE0101960E94F82726960FB603
:10053000F894DEBF0FBECDBFDF91CF9108950F932A
:100540001F9387EA93E00E94731E6DE971E084EFC8
:1005500092E00E94992864EF72E08EEC93E00E9492
:100560007D0100E010E021E030E04CEB52E060E57E
:1005700070E087EA93E00E94301D68EE73E080E04F
:1005800090E00E94282340E050E06DE171E080E0BF
:100590000E942C2220E030E040E050E06AE070E071
:1005A0008DE894E00E94CA2180E00E944D2267EA13
:1005B00071E084EF92E00E94992864EF72E08EEC83
:1005C00093E00E947D0160918F038EE893E01F917C
:1005D0000F910C94B6090C949F02CF93DF9300D037
:1005E00000D000D0CDB7DEB7E091CE03F091CF03BD
:1005F0000480F581E02D8EEC93E00995181619061C
:100600008CF5E091CE03F091CF030680F781E02DC9
:100610008EEC93E009958A3241F08A3029F3682FF5
:1006200082EC93E00E940929DFCF6AE282EC93E03A
:100630000E94092962EC73E0CE0101960E94902885
:10064000BE016F5F7F4F8EE893E00E94990ACE0152
:1006500001960E94F82761ED72E082EC93E00E941F
:100660009928C2CF26960FB6F894DEBF0FBECDBF35
:10067000DF91CF9108950E94AE29892F8095881F20
:100680008827881F0895FF920F931F93CF93DF93BE
:100690008AEF92E00E944D1380910F03882399F115
:1006A0000091FE021091FF02D0910003C09101035E
:1006B000B0910203A0910303F0910403F0900503AD
:1006C00098014D2F5C2F6B2F7A2F8F2F9F2D203A63
:1006D000E6E83E07E1E04E07510561057105810539
:1006E000910589F084F00E94022B20E030E44CE177
:1006F00056E40E94692A6093110470931204809357
:10070000130490931404DF91CF911F910F91FF90E8
:1007100008954F925F926F927F928F929F92AF92C5
:10072000BF92CF92DF92EF92FF920F931F932B0114
:100730003C0149015A01C801B7010E94E22B6B013B
:100740007C01C301B2010E94082B2B013C01A501D1
:10075000940160E070E080E89FE30E94042A9B011E
:10076000AC01C301B2010E94E22BA70196010E94D5
:10077000052A0E94D12A1F910F91FF90EF90DF90E0
:10078000CF90BF90AF909F908F907F906F905F9031
:100790004F9008958DEE93E00E94C00720E048E05E
:1007A00067E08EEC93E00E94DD0661ED72E088EC7C
:1007B00093E00E94562861ED72E082EC93E00E9483
:1007C000562887EA93E00E94D0198EE893E00E94B1
:1007D000310967E78AEF92E00E94B21261ED72E0A0
:1007E00084EF92E00C94562884EF92E00E94F82760
:1007F00082EC93E00E94F82788EC93E00E94F827AF
:100800008EEC93E00C947C06CF93DF9300D000D065
:1008100000D0CDB7DEB787E994E00E94BD2560E047
:1008200087E00E94CB2361E088E00E94CB2341E077
:1008300050E062E070E08DEE93E00E94E70784E410
:1008400091E090930A048093090482E291E09093EE
:100850000E0480930D048BEE92E09093100480932D
:100860000F0480E391E090930C0480930B0480E8E4
:1008700096EEA5ECB7E48093110490931204A09334
:100880001304B09314048AEF92E00E94B6128EE82B
:1008900093E00E94470A40E05BE460E070E08EEC89
:1008A00093E00E940D0706C00E94ED028091A6030E
:1008B00081115EC00E94F822603E7E428105910552
:1008C00098F38EEC93E00E94B60740E855E260E0B2
:1008D00070E08EEC93E00E940D0761ED72E0CE01B6
:1008E00001960E94562867E472E0CE0101960E94AC
:1008F0009928BE016F5F7F4F8EEC93E00E947D01CF
:100900008EEC93E00E94B60740E056E960E070E0AC
:100910008EEC93E00E940D0726E040E056E960E08F
:1009200070E087E994E00E9455258EEC93E00E94E8
:10093000890587E994E00E94CE2461ED72E082ECA3
:1009400093E00E94992861ED72E088EC93E00E94A8
:1009500099280E942A02CE0101960E94F827269625
:100960000FB6F894DEBF0FBECDBFDF91CF910895D3
:100970001092A603A6CF87E994E00E947224892BE7
:1009800089F087E994E00E948B248A3061F0682F17
:1009900088EC93E00E94092987E994E00E94722480
:1009A000892B79F7089568EC73E087E994E00E9459
:1009B000F12661ED72E088EC93E00E949928DBCF8C
:1009C0000F931F930E94BB040E94ED0240911503F8
:1009D00050911603609117037091180387EA93E012
:1009E0000E94A11B0E9443030E94F82200910A0169
:1009F00010910B0120910C0130910D01601B710BC6
:100A0000820B930B653F71408105910560F00E9458
:100A1000D1010E94F82260930A0170930B01809328
:100A20000C0190930D018DEE93E01F910F910C94AA
:100A3000F307209157043091580428173907B9F467
:100A40009091150480911604981789F0E09115048F
:100A5000F0E0E95EFB4F80812091150430E02F5FCC
:100A60003F4F2F7333272093150490E008958FEFA5
:100A70009FEF08951F93CF93DF93EC012C8D3D8D55
:100A80002115310509F438C0A989BA894889542F3C
:100A900050951FB78E8D81FB772770F981FD60958A
:100AA000F8948C91711115C085238C93C90101971D
:100AB000F1F788E008C0942B9C93F9013197F1F786
:100AC0006695815049F09C9160FDF5CF95239C93EC
:100AD000F4CF842B8C93EACF8C917723B9F08523C4
:100AE0008C931FBF8C8D9D8D0197F1F781E090E075
:100AF000DF91CF911F91089581E090E09B838A83DD
:100B000080E090E0DF91CF911F910895842B8C932A
:100B1000E8CF0895209157043091580428173907D9
:100B200071F49091150480911604981741F0E091AA
:100B30001504F0E0E95EFB4F808190E008958FEFAF
:100B40009FEF0895209157043091580428173907D2
:100B500019F080E090E0089520911604809115042A
:100B600030E0205C3F4F281B31092F73307837FD70
:100B700002C0C901089521503109206C3F6F2F5FD9
:100B80003F4FF7CFDC015396ED91FC9154972081B4
:100B900055968C91809582238083109258041092F0
:100BA000570481E00895CF93DF93EC018A8D9B8DEC
:100BB000892B01F180915704909158048C179D075F
:100BC000C9F0009711F00E94C2058E8D8E7F8E8F26
:100BD0001092160410921504D0935804C093570431
:100BE000EB89FC8980819D89892B808381E0DF915D
:100BF000CF91089580E0DF91CF9108951F920F92D9
:100C00000FB60F9211242F933F934F935F936F93DF
:100C10007F938F939F93AF93BF93EF93FF93E09155
:100C20005704F0915804309709F449C0868DA68581
:100C3000B78581FD55C08C919585892309F03FC00A
:100C4000A389B4899C918589809589238C93868911
:100C500097890197F1F7208D318DA685B785758528
:100C600058E060E0C9010197F1F7862F90E0959573
:100C70008795682F4C91472309F06068515091F790
:100C8000868D81FD33C08091160490E001968F73AC
:100C9000992720911504281759F1A0911604B0E066
:100CA000A95EBB4F6C9380931604828D938D019740
:100CB000F1F7A389B4898C919589892B8C93FF9145
:100CC000EF91BF91AF919F918F917F916F915F91C4
:100CD0004F913F912F910F900FBE0F901F9018953D
:100CE0008C919585892309F0ABCFE9CF6095CBCF67
:100CF000868D8160868FD9CF29E532E0FC01318372
:100D0000208320915704309158048217930709F0EB
:100D100008950C94C2051F93CF93DF93EC01162F17
:100D20006E8D6695617081E06827812F0E9409248D
:100D300061E0812F0E94CB23812F90E0FC01E056DF
:100D4000FF4FE491E88BFC01EC54FF4FE491F0E09D
:100D5000EE0FFF1FEE52FF4F859194919A8B898B76
:100D6000DF91CF911F9108951F93CF93DF93EC01F3
:100D7000162F60E0812F0E94CB238E8D81FD04C051
:100D800061E0812F0E9409241C87612F70E0FB0124
:100D9000E056FF4FE491ED87FB01EC54FF4FE491E7
:100DA000F0E0EE0FFF1FE853FF4F859194919F876E
:100DB0008E87DF91CF911F910895FF920F931F931C
:100DC000CF93DF93EC01F62E522F1B821A8208EE8E
:100DD00013E020E030E00C831D832E833F8389E500
:100DE00092E0998388831F8A1E8A198E188E1B8E23
:100DF0001A8E1D8E1C8E8E8D8E7F50FB81F98E8FEC
:100E0000642FCE010E948B066F2DCE01DF91CF9112
:100E10001F910F91FF900C94B406CF93DF93EC01D8
:100E20009A01AB011B8E1A8E198E188E1F8A1E8A8C
:100E300060E079E08DE390E00E94772CC9012430D6
:100E4000310508F457C0B901635071097D8F6C8F6B
:100E5000EC85E63108F049C0B901769567956431B3
:100E6000710508F04AC061E070E07F8B6E8B0697D9
:100E700008F047C081E090E0998F888FC901880F02
:100E8000991F820F931F96958795969587958D301C
:100E90009105D0F10C979B8F8A8F90916800E83074
:100EA000D8F121E0EE3008F45CC081E001C0880F89
:100EB0002A95EAF7892B809368002C85283098F1D1
:100EC0002E3008F443C0263108F04DC08CE690E087
:100ED0009C8B8B8B2E5081E001C0880F2A95EAF7FE
:100EE0008D8B8C8D9D8D0197F1F7CE01DF91CF9188
:100EF0000C94D30561E070E0A9CF635171097F8B39
:100F00006E8BC9010597B8CF81E090E09B8F8A8FE7
:100F100090916800E83028F684E0892B809368007F
:100F20002C85283068F68DE690E09C8B8B8B81E0D9
:100F300001C0880F2A95EAF78D8B8C8D9D8D0197C6
:100F4000F1F7CE01DF91CF910C94D3058BE690E0C1
:100F50009C8B8B8B285081E001C0880F2A95EAF783
:100F6000EBCF20E0A2CF80E090E0B2CF20915704F9
:100F7000309158048217930709F008950C94C20524
:100F8000FC0184E190E0948383838AEF90E0968370
:100F9000858388EE93E09087878388E893E1928742
:100FA000818781E0838784871586168617864FEFB1
:100FB0005FEFBA01408B518B628B738B448B558BE7
:100FC000668B778B108E118E128E138E0895FC0116
:100FD000862F6083718391E0452B09F490E0928322
:100FE00062E00C94CB238F929F92AF92BF92CF92EC
:100FF000DF92EF92FF92CF93DF93EC010E94F822F1
:101000006B017C0188810E94422421E0019709F054
:1010100020E02B878A812817F1F19C85891709F434
:10102000CAC0488959896A897B89C41AD50AE60ADF
:10103000F70A49855A85662757FD6095762FC416AD
:10104000D506E606F70664F42C87DF91CF91FF9072
:10105000EF90DF90CF90BF90AF909F908F900895CA
:101060008A8D8111F1CF81E0898F888F1E861D8640
:101070008A8F2C87EAA1FBA1309739F38881998167
:10108000DF91CF91FF90EF90DF90CF90BF90AF9026
:101090009F908F9009943C85231739F1888999890D
:1010A000AA89BB89B701A601481B590B6A0B7B0BA8
:1010B0008B819C81AA2797FDA095BA2F841795074D
:1010C000A607B70794F4888D81110FC0CC8ADD8AFA
:1010D000EE8AFF8A8E858111B1C081E08D87812CD7
:1010E000912C540180E090E00CC08C899D89AE89E0
:1010F000BF8946015701881A990AAA0ABB0A80E0EB
:1011000090E04D815E81662757FD6095762F8416AD
:101110009506A606B7067CF04D85442361F04E8502
:10112000411109C04F85442331F08230910519F0F7
:101130001D8681E090E0231799F1488959896A89D1
:101140007B89C41AD50AE60AF70A4F8158856627B3
:1011500057FD6095762FC416D506E606F70604F10E
:1011600049855A85662757FD6095762FC416D506A2
:10117000E606F706ACF43A8D311112C081E0898F92
:10118000888F1E861D868A8F2C8783E090E00397C8
:1011900009F05BCFE8A1F9A1309709F06FCF55CFE7
:1011A0002C878130910509F052C0EC8DFD8D309770
:1011B00009F064CF4ACF8C899D89AE89BF89B70178
:1011C000A601481B590B6A0B7B0BDB01CA014B8143
:1011D0005C81662757FD6095762F481759076A0787
:1011E0007B07ECF4C88AD98AEA8AFB8A188E198EA2
:1011F00031E03F871A8E1B8E4D815E81662757FD39
:101200006095762F84179507A607B7078CF48E850F
:1012100081110EC08D85882359F03E870AC08889C8
:101220009989AA89BB89C81AD90AEA0AFB0A01CF97
:101230001E861D86C12CD12C7601FBCE1E861D86F6
:101240001F86812C912C540182E090E05ACF82308D
:10125000910509F09CCFEE8DFF8D309709F00ECFF0
:10126000F4CEFC01108E0895CF92DF92EF92FF92A0
:101270000F931F93CF93DF9300D000D000D0CDB752
:10128000DEB77B016EE271E0CE0101960E94562826
:10129000BE016F5F7F4FC7010E94AE296C01CE0176
:1012A00001960E94F8276EE171E0CE0101960E943E
:1012B0005628BE016F5F7F4FC7010E94AE298C0187
:1012C000CE0101960E94F827A6014F5F5F4F98015B
:1012D000B701CE0101960E94B229CE0101960E946B
:1012E000F8296B017C01CE0101960E94F827C60106
:1012F00026960FB6F894DEBF0FBECDBFDF91CF911B
:101300001F910F91FF90EF90DF90CF900895EF9293
:10131000FF920F931F93CF93DF937B0128E1E20E9F
:10132000F11CEB018C0101501109061B170B69918F
:10133000C8018C0F9D1F0E944330CE15DF05B9F701
:1013400088E190E0DF91CF911F910F91FF90EF9096
:101350000895CF93DF93EC01BC0180E090E00E9400
:10136000870981E0888FDF91CF9108950F931F93B4
:10137000CF93DF93EC0169836623F1F088EE93E06D
:101380009093BD038093BC030AE010E022E030E0BC
:1013900048EC50E060E273E087EA93E00E94301D81
:1013A000BE0180E090E00E94870981E0888FDF9194
:1013B000CF911F910F91089580E991E09093BD0323
:1013C0008093BC030AE010E024E030E04CE350E0FE
:1013D00060E273E087EA93E00E94301DE1CFFC01F8
:1013E00085E08083118281E081878CE89AE0938791
:1013F000828786E292E09587848729E027838AE0C6
:1014000080878FE090E09383828386E09FEF9583CF
:101410008483268384E690E0978786872FE530E0F3
:10142000318B208B138A128A21E430E0358B248B98
:10143000978B868BBF0180E090E00C948709EF9238
:10144000FF920F931F93CF93DF937C018C01C0E039
:10145000D0E0CE010E943B30F80181938F012196AC
:10146000C831D105B1F7F7018081853049F0C70156
:10147000DF91CF911F910F91FF90EF900C94EF09A6
:10148000DF91CF911F910F91FF90EF900895AF9250
:10149000BF92CF92DF92EF92FF920F931F93CF9361
:1014A000DF93EC010E941F0A6C897D89882777FDF4
:1014B0008095982F1F921F921F9228E72F934AE042
:1014C000A42EB12CC12CD12C14E6E12EF12C00E07D
:1014D00010E020E030E0A9010E94B12770932003C2
:1014E00060931F0389858093BE038E818093C1031F
:1014F0000F900F900F900F908A30A0F08A859B85F7
:101500009093C0038093BF036981CE01DF91CF9197
:101510001F910F91FF90EF90DF90CF90BF90AF9011
:101520000C94B6098C859D859093C0038093BF036E
:10153000EBCF3F924F925F926F927F928F929F92EA
:10154000AF92BF92CF92DF92EF92FF920F931F93D1
:10155000CF93DF93CDB7DEB766970FB6F894DEBFB3
:101560000FBECDBF8C017B0165E672E0CE01019616
:101570000E945628B701CE0107960E949028BE010E
:101580006F5F7F4FCE0107960E943B03D82ECE019E
:1015900007960E94F827CE0101960E94F827D110E5
:1015A000BEC06CE672E0CE0101960E945628B701DB
:1015B000CE0107960E949028BE016F5F7F4FCE013B
:1015C00007960E943B03D82ECE0107960E94F8276B
:1015D000CE0101960E94F827D1107EC064E772E028
:1015E000CE0101960E945628B701CE0107960E94AF
:1015F0009028BE016F5F7F4FCE0107960E943B038C
:10160000D82ECE0107960E94F827CE0101960E949F
:10161000F827D110ADC069E772E0CE0101960E94B3
:101620005628B701CE0107960E949028BE016F5F31
:101630007F4FCE0107960E943B03D82ECE0107961E
:101640000E94F827CE0101960E94F827D11076C09B
:101650006EE772E0CE0101960E945628B701CE01D6
:1016600007960E949028BE016F5F7F4FCE010796BC
:101670000E943B03D82ECE0107960E94F827CE0188
:1016800001960E94F827DD2009F489C0B701CE0138
:1016900001960E949028BE016F5F7F4FC8010E9493
:1016A00034097C01CE0101960E94F827FCE2EF1676
:1016B000F1E0FF060CF4EBC0C70129EBE2162BE0CA
:1016C000F20614F088EB9BE0F801938782879093F1
:1016D000C0038093BF030BC0C8010E94EF09B8018B
:1016E00080E090E00E94870981E0F801808F669693
:1016F0000FB6F894DEBF0FBECDBFDF91CF911F9123
:101700000F91FF90EF90DF90CF90BF90AF909F90A0
:101710008F907F906F905F904F903F900895B801A9
:1017200080E090E00E94870981E0F801808F63E00B
:1017300070E087EA93E00E94DC1FD9CFB701CE01A9
:1017400001960E949028BE016F5F7F4FC8010E94E2
:1017500034097C01CE0101960E94F8279701F7FC1D
:101760009DC0319521953109F80135832483BFCF80
:10177000B701CE0101960E949028BE016F5F7F4F96
:10178000C8010E9434097C01CE0101960E94F8270D
:101790009701F7FC7FC0F80133832283A8CF63E869
:1017A00072E0CE0101960E945628B701CE0107963D
:1017B0000E949028BE016F5F7F4FCE0107960E9466
:1017C0003B03D82ECE0107960E94F827CE01019642
:1017D0000E94F827DD20F9F0B701CE0101960E94A2
:1017E0009028BE016F5F7F4FC8010E9434097C01C1
:1017F000CE0101960E94F827F0E5EF16F1040CF4F3
:1018000098C0C7018D38910514F08CE890E0F8017C
:10181000978B868B6CCF69E872E0CE0101960E94AF
:101820005628B701CE0107960E949028BE016F5F2F
:101830007F4FCE0107960E943B03D82ECE0107961C
:101840000E94F827CE0101960E94F827DD2051F171
:101850006E01FDE0CF0ED11CB701C6010E94902899
:10186000B601C8010E9434098C3291400CF098C036
:101870006CE2E62EFF24F394C6010E94F827F801DB
:10188000F586E486F092C003E092BF0330CF8CE28D
:1018900091E01ACF3195219531097DCF3195219570
:1018A00031095FCF6FE872E0CE0101960E945628A1
:1018B000B701CE0107960E949028BE016F5F7F4F4F
:1018C000CE0107960E943B03D82ECE0107960E94B8
:1018D000F827CE0101960E94F827DD2069F16E01FC
:1018E000FDE0CF0ED11CB701C6010E949028B601C1
:1018F000C8010E943409181619060CF0A0C0B701DF
:10190000CE0107960E949028BE01695F7F4FC801F3
:101910000E9434090A970CF411C159E0F52ECE014A
:1019200007960E94F827C6010E94F827F801F7825F
:10193000DECE80E590E06BCF64E972E0CE010196E7
:101940000E945628B701CE0107960E949028BE013A
:101950006F5F7F4FCE0107960E943B03D82ECE01CA
:1019600007960E94F827CE0101960E94F827DD20F5
:1019700079F16E01FDE0CF0ED11CB701C6010E94C6
:101980009028B601C8010E94340909970CF0C1C023
:1019900039E0F32EC6010E94F827F801F086A7CEA1
:1019A000B701CE0107960E949028BE01695F7F4F64
:1019B000C8010E943409893B9B400CF499C078EB24
:1019C000E72E7BE0F72ECE0107960E94F82754CF32
:1019D00069E972E0CE0101960E945628B701CE0156
:1019E00007960E949028BE016F5F7F4FCE01079639
:1019F0000E943B03D82ECE0107960E94F827CE0105
:101A000001960E94F827DD20E9F06E01FDE0CF0E7F
:101A1000D11CB701C6010E949028B601C8010E94DE
:101A20003409863491050CF005C196E4E92EF12CB9
:101A3000C6010E94F827F801F786E68658CEFF24F3
:101A4000F39471CF6EE972E0CE0101960E945628A0
:101A5000B701CE0107960E949028BE016F5F7F4FAD
:101A6000CE0107960E943B03D82ECE0107960E9416
:101A7000F827CE0101960E94F827DD2009F46FC0F7
:101A80006E01FDE0CF0ED11CB701C6010E94902867
:101A9000B601C8010E94340997FFB5C0E12CF12CB2
:101AA000C6010E94F827F801F58AE48AB701882761
:101AB00077FD8095982F1F921F921F9228E72F93F2
:101AC000AAE0AA2EB12CC12CD12C14E6E12EF12CC7
:101AD00000E010E020E030E0A9010E94B1277093FF
:101AE000200360931F030F900F900F900F90FFCD76
:101AF000B701CE0101960E949028BE016F5F7F4F13
:101B0000C8010E9434097C01CE0101960E94F82789
:101B10005ACFB701CE0107960E949028BE01695F97
:101B20007F4FC8010E9434090B970CF49DC04AE016
:101B3000F42ECE0107960E94F8272CCFB701CE01D4
:101B400001960E949028BE016F5F7F4FC8010E94DE
:101B50003409F82ECE0101960E94F827E0CE64EAFF
:101B600072E0CE0101960E945628B701CE01079679
:101B70000E949028BE016F5F7F4FCE0107960E94A2
:101B80003B03D82ECE0107960E94F827CE0101967E
:101B90000E94F827D11065C06AEA72E0CE01019672
:101BA0000E945628B701CE0107960E949028BE01D8
:101BB0006F5F7F4FCE0107960E943B03D82ECE0168
:101BC00007960E94F827CE0101960E94F827DD2093
:101BD00009F45BC06E01FDE0CF0ED11CB701C60158
:101BE0000E949028B601C8010E943409C2970CF0E7
:101BF000FEC0E2E3EE2EF12CC6010E94F827F801A8
:101C0000F18AE08A74CDB701CE0107960E94902830
:101C1000BE01695F7F4FC8010E9434098536910576
:101C20000CF4D4C084E6E82EF12CCE0107960E9475
:101C3000F82736CFB701CE0107960E949028BE0143
:101C4000695F7F4FC8010E943409833891050CF405
:101C500054C022E8E22EF12CCE0107960E94F8270C
:101C6000E7CE0E949F0243CDB701CE0101960E94AC
:101C70009028BE016F5F7F4FC8010E943409F82E83
:101C8000CE0101960E94F82754CF60EB72E0CE019E
:101C900001960E945628B701CE0107960E9490280F
:101CA000BE016F5F7F4FCE0107960E943B03D82E87
:101CB000CE0107960E94F827CE0101960E94F827D0
:101CC000DD2061F16E01FDE0CF0ED11CB701C60130
:101CD0000E949028B601C8010E9434098C3E9F4F93
:101CE0000CF057C16CEEE62EFF24FA94C6010E9458
:101CF000F827F801F38AE28AFACCB701CE010196FF
:101D00000E949028BE016F5F7F4FC8010E94340976
:101D10007C01CE0101960E94F8279ECF66EB72E00F
:101D2000CE0101960E945628B701CE0107960E9467
:101D30009028BE016F5F7F4FCE0107960E943B0344
:101D4000D82ECE0107960E94F827CE0101960E9458
:101D5000F827D11063C06BEB72E0CE0101960E94B0
:101D60005628B701CE0107960E949028BE016F5FEA
:101D70007F4FCE0107960E943B03D82ECE010796D7
:101D80000E94F827CE0101960E94F827DD2009F471
:101D9000AECCD090C103F80180858093C103B70118
:101DA000CE0101960E949028BE016F5F7F4FC8014F
:101DB0000E943409BC0187EA93E00E942120CE01F1
:101DC00001960E94F827D092C10391CCB701CE01B1
:101DD00001960E949028BE016F5F7F4FC8010E944C
:101DE00034097C01CE0101960E94F8271ECFB7016D
:101DF000CE0107960E949028BE01695F7F4FC801FF
:101E00000E943409873991050CF4D8C0F6E9EF2E09
:101E1000F12CCE0107960E94F827EECE3090C10338
:101E2000F80180858093C1036EE271E0CE010196D6
:101E30000E945628BE016F5F7F4FC7010E94AE29E6
:101E40008C01CE0101960E94F8270F5F1F4F6EE2B2
:101E500071E0CE0101960E945628A801BE016F5F75
:101E60007F4FC7010E9492296C01CE0101960E940A
:101E7000F8279601A801B701CE0101960E94B22968
:101E8000CE0101960E94F8292B013C01CE0101965A
:101E90000E94F827FFEFCF1ADF0A6EE271E0CE0151
:101EA00001960E945628A601BE016F5F7F4FC701B1
:101EB0000E9492298C01CE0101960E94F827980178
:101EC000A601B701CE0101960E94B229CE0101966A
:101ED0000E94F8294B015C01CE0101960E94F8276F
:101EE0000F5F1F4F6EE271E0CE0101960E945628EF
:101EF000A801BE016F5F7F4FC7010E9492296C014C
:101F0000CE0101960E94F8279601A801B701CE01E3
:101F100001960E94B229CE0101960E94F8296B8B8E
:101F20007C8B8D8B9E8BCE0101960E94F8278601BB
:101F30000F5F1F4F6EE171E0CE0101960E9456289F
:101F4000A801BE016F5F7F4FC7010E9492296C01FB
:101F5000CE0101960E94F8279601A801B701CE0193
:101F600001960E94B229CE0101960E94F8296B01C8
:101F70007C01CE0101960E94F82786012B893C89BD
:101F8000A401B20187EA93E00E94301D3092C103A0
:101F9000AECBB701CE0107960E949028BE01695FC3
:101FA0007F4FC8010E9434094597CCF074E1E72EB9
:101FB000F12CCE0107960E94F82798CEB701CE01EA
:101FC00001960E949028BE016F5F7F4FC8010E945A
:101FD00034097C01CE0101960E94F8271ACFB7017F
:101FE000CE0101960E949028BE016F5F7F4FC8010D
:101FF0000E9434097C01CE0101960E94F827D9CFB6
:10200000449A459AE9EBF0E080818E7F808380815D
:102010008D7F808388E48093B80084E48093BC0043
:10202000089570937D0460937C040895309180043A
:1020300020917E04231B20937F04332341F03150F1
:1020400030938004FC01E20FF11D8381089510920A
:102050007F0480E008958F929F92AF92BF92CF92BB
:10206000DF92EF92FF920E94F8226B017C0184EADA
:102070008093BC0020917C0430917D0403C0211525
:102080003105F9F48091BC0087FFF9CF8091B90048
:10209000887F883079F18091B900887F803151F153
:1020A0008091B900887F883339F18091B900887FA9
:1020B000FF90EF90DF90CF90BF90AF909F908F9068
:1020C00008950E94F8226C197D098E099F092091BC
:1020D0007C0430917D044901A12CB12C681579054F
:1020E0008A059B0578F21092BC0084E48093BC00C2
:1020F00081E0DECF80E0DCCF8091B9001092BC009F
:1021000094E49093BC00887FD3CF8F929F92AF923C
:10211000BF92CF92DF92EF92FF92CF93C62F0E9491
:10212000F8226B017C01CC23D1F184EC8093BC00BC
:1021300020917C0430917D0403C021153105B1F458
:102140008091BC0087FFF9CF8091B900887F8833E8
:1021500051F18091B900887FCF91FF90EF90DF908F
:10216000CF90BF90AF909F908F9008950E94F822DB
:102170006C197D098E099F0920917C0430917D04A2
:102180004901A12CB12C681579058A059B05C0F27F
:102190001092BC0084E48093BC0081E0DDCF84E831
:1021A0008093BC00C5CF8091B9001092BC0094E42C
:1021B0009093BC00887FD0CF8F929F92AF92BF92B6
:1021C000CF92DF92EF92FF920E94F8226B017C0186
:1021D00084E98093BC0020917C0430917D0403C08D
:1021E0002115310571F48091BC0084FDF9CF80E0A8
:1021F000FF90EF90DF90CF90BF90AF909F908F9027
:1022000008950E94F8226C197D098E099F0920917A
:102210007C0430917D044901A12CB12C681579050D
:102220008A059B0500F31092BC0084E48093BC00F7
:1022300081E0DECF8F929F92AF92BF92CF92DF92DA
:10224000EF92FF921F93CF93DF93EC016093BB005B
:102250000E94F8226B017C0184E88093BC002091ED
:102260007C0430917D0403C02115310569F580910E
:10227000BC0087FFF9CF8091B900887F8831E9F1F0
:102280008091B900887F8034C1F11091B900187F26
:102290008091B900887F803291F18091B900887F68
:1022A000883469F11092BC0084E48093BC00812FD3
:1022B000DF91CF911F91FF90EF90DF90CF90BF9073
:1022C000AF909F908F9008950E94F8226C197D091D
:1022D0008E099F0920917C0430917D044901A12C35
:1022E000B12C681579058A059B0508F21092BC008F
:1022F00084E48093BC0081E0DBCF80E0D9CFCE01C5
:102300000E94DC10D4CF8F929F92AF92BF92CF9257
:10231000DF92EF92FF921F93CF93DF93EC016093D4
:10232000BB000E94F8226B017C0184E88093BC0012
:1023300020917C0430917D0403C02115310519F5ED
:102340008091BC0087FFF9CF8091B900887F8832E7
:1023500099F11091B900187F9091B900987F90334E
:1023600069F11092BC0084E48093BC00812FDF915E
:10237000CF911F91FF90EF90DF90CF90BF90AF90E3
:102380009F908F9008950E94F8226C197D098E0904
:102390009F0920917C0430917D044901A12CB12C2E
:1023A000681579058A059B0558F21092BC0084E4F3
:1023B0008093BC0081E0DBCF80E0D9CFCE010E94CA
:1023C000DC10812FD4CF0F931F93CF93DF93EC01B9
:1023D000162F042F19820E942B108983882329F03D
:1023E000DF91CF911F910F910895612F660FCE015C
:1023F0000E941A118983882341F0813089F782E095
:10240000DF91CF911F910F910895602FCE010E940F
:1024100083118983882321F0813011F783E0E0CF95
:10242000CE010E94DC108983882321F08130C1F61F
:1024300087E0D6CF80E0D4CFEF92FF920F931F9327
:10244000CF93DF93EC01162F042FF22E109280040D
:1024500010927F04222389F08FEF820F8A831982E2
:10246000CE010E942B108983882391F0DF91CF91B8
:102470001F910F91FF90EF90089580E0FF24F39457
:102480008A831982CE010E942B1089838111EECF9D
:10249000110F612FCE010E941A118983882351F0F8
:1024A000813021F782E0DF91CF911F910F91FF9052
:1024B000EF900895602FCE010E94831189838823B5
:1024C00021F0813099F683E0D1CFCE010E942B100C
:1024D0008983882321F0813049F684E0C7CF61E009
:1024E000610FCE010E941A118983882329F081305F
:1024F00009F0BCCF85E0BACF8E010D5F1F4FE12CF4
:1025000016C061E0CE010E9485108983813041F1BF
:10251000803509F0ABCF8091BB00F80181938F012A
:10252000E394E0928004E0927E04EF1469F08A81E3
:102530008E11E7CF60E0CE010E9485108983813043
:1025400079F0883541F392CFCE010E94DC10898367
:10255000882309F48BCF813009F088CF87E086CFBC
:1025600086E084CFFC0167A7148608958F929F921E
:10257000AF92BF92CF92DF92EF92FF920F931F9391
:10258000CF93DF93EC011F921F921F9288E78F93E6
:102590009EE1A92EB12CC12CD12C14E6E12EF12CF8
:1025A00000E010E020E030E0A90163E270E080E0AC
:1025B00090E00E94B1277EA36DA31D8A1BA280E03C
:1025C00090E4ACE9B6E48F8B988FA98FBA8F89E538
:1025D00094E00E94001060E570E089E594E00E94BC
:1025E00011104EE16FA589E594E00E94E3118EAFD2
:1025F0001FAE0F900F900F900F90882379F081E01D
:102600008FAFDF91CF911F910F91FF90EF90DF90EF
:10261000CF90BF90AF909F908F90089564E670E048
:1026200080E090E00E9428238E0182EAB82E7E018D
:1026300082E4E80EF11C6E01E0E4CE0ED11CAA2467
:10264000A39408C0AFAEB394B3940E5F1F4FFEEADD
:10265000BF16B9F222E04B2D6FA589E594E00E94E8
:102660001C128EAF8111EECF89E594E00E94161006
:1026700090E0F7019183808389E594E00E94161031
:1026800090E0F60191838083F7019080812C882966
:102690009929F80193AB82ABD6CF2F923F924F92FC
:1026A0005F926F927F928F929F92AF92BF92CF92E2
:1026B000DF92EF92FF920F931F93CF93DF93CDB7EB
:1026C000DEB76A970FB6F894DEBF0FBECDBF9A8F04
:1026D000898FDC011C968C91813009F48FC3823084
:1026E00009F45CC4882351F16A960FB6F894DEBFF2
:1026F0000FBECDBFDF91CF911F910F91FF90EF9053
:10270000DF90CF90BF90AF909F908F907F906F9011
:102710005F904F903F902F90089523E040E0A98D67
:10272000BA8D9F966C9189E594E00E941C128823D3
:1027300009F44BC5A98DBA8D1C961C9248E4A98D4D
:10274000BA8D9F966C9189E594E00E94E311E98D22
:10275000FA8DEC57FF4FFC8BEB8B098D1A8D0058CF
:102760001F4FF80180819181A281B381EB89FC899F
:1027700080839183A283B3830E940423D8016D9345
:102780007D938D939C931397DC01CB01B695A79510
:1027900097958795E98DFA8D87A390A7A1A7B2A7F2
:1027A00081E08487EC5BFF4FFA83E98311E080814D
:1027B0009181A281B381181619061A061B060CF026
:1027C0001BC40E94F822693E73408105910508F4FC
:1027D0008BCF112309F488CF498D5A8D445B5F4F0D
:1027E000DA014D905D906D907C90A98DBA8DA85BBB
:1027F000BF4F411451046104710409F4F8C28D9172
:102800009D910D90BC91A02D480E591E6A1E7B1EF5
:1028100077FC41C47594679457944794298D3A8DF9
:10282000205B3F4FF9014082518262827382FA013C
:1028300080839183A283B383A98DBA8DDA968D911B
:102840009C91DB97A0E0B0E0BA2FA92F982F8827A2
:10285000481A590A6A0A7B0AD301C201BB0F880BC6
:10286000982FDC01E98DFA8DEC5AFF4F408251829E
:10287000628273828483858386838783E98DFA8D60
:1028800024AD35AD40E050E0C301B2010E940F2DF0
:1028900007E10E94622D2053384F4F4F5F4F6F4F1B
:1028A0007F4F8F4F9F4F0E94022B0E94D12AE98DAC
:1028B000FA8DE45AFF4F6083718382839383A98DDD
:1028C000BA8D6D937D938D939C931397D896ED91CC
:1028D000FC91D997D4968D909C90D597940140E027
:1028E00050E060E070E080E090E000E10E94492D5F
:1028F00079011A014B018D8399879F0140E050E0D7
:10290000C301B2010E940F2D07E00E94622D590100
:102910006A01F62FE72F8C019701A101B4018D8187
:102920009985EF2EFE2E0E94802D2D83832E942ECE
:102930005987698B7D871C01E98DFA8DE05AFF4F1D
:1029400020833183428353836483758386833782F4
:10295000A98DBA8DD696ED91FC91D797D2962D91EF
:102960003C91D39740E050E060E070E080E090E080
:102970000FE00E94492DB22EC32ED42EE52EF62E46
:102980007D8B8F8B988F9F0140E050E0C301B20197
:102990000E940F2D08E00E94622DA22E732EB42FEC
:1029A000A52F662E572E8C012B2D3C2D4D2D5E2DE7
:1029B0006F2D7D898F89988DB72CCB2EDA2EE62C42
:1029C000F52C0E94802DE98DFA8DE859FF4F208368
:1029D0003183428353836483758386839783E9813C
:1029E000FA81E080F1800281138127013801770CA0
:1029F0004408542C320157016801E42CF42C042DB6
:102A0000142D0E94B62C05E10E94622DAD80B82CD9
:102A1000C92CD984E988FD8481010E94892D49014E
:102A20003A01B62FA72FF82FE92F06E00E94492D73
:102A300054016301EB2EFA2E0F2F1E2F0E94892DB9
:102A400001E00E94492D0F2F0E94892D49013A0172
:102A5000B62FA72FF82FE92F02E00E94492D590128
:102A60006A017B018C019401A3016B2F7A2F8F2FB8
:102A70009E2F0E94802D04E00E94492D0FE00E94AD
:102A8000622D59016A017B018C01A98DBA8D1496C2
:102A90002C9314971596BC92159716964C931697EF
:102AA0001796DC92179718966C9318971996FC92C4
:102AB00019971A968C931A971B961C9320353143BD
:102AC000464E5843610571058105910509F00CF4E6
:102AD0002AC220ED37EF44E65CE360E070E080E07E
:102AE00090E00E94892D0E94022B25EF3FE94EEADB
:102AF0005DE30E94E22B0E94D12AE98DFA8D658761
:102B000076878787908B69837A838B839C83298CD4
:102B10003A8CB0E72B0E311CF1014080518062806D
:102B20007380AB89BC892D913D914D915C912D8332
:102B30003E834F835887411451046104710409F4A2
:102B4000BEC1E98DFA8DEC58FF4FFE8BED8BC08036
:102B5000D180E280F380098D1A8D08581F4FD8016B
:102B60008D909D90AD90BC90E98DFA8DE857FF4F08
:102B7000FA8BE98B208131814281538129873A8701
:102B80004B875C8769817A818B819C81681979097F
:102B90008A099B090E94082B2DEC3CEC4CEC5DE370
:102BA0000E94E22B6D877E878F87988BC501B401C9
:102BB0000E94082B9B01AC016D857E858F859889CD
:102BC0000E94052A0E94D12A6D877E878F87988B65
:102BD00069817A818B819C816C197D098E099F099D
:102BE0000E94082B2BE734E14EEA5DE30E94E22BC2
:102BF0004B015C01C701B6010E94082B9B01AC018F
:102C0000C501B4010E94052A0E94D12A6B017C01F2
:102C10006D857E858F8598896C197D098E099F0940
:102C20000E94082B2BE735E141EB55E40E94E22B93
:102C30004B015C0169817A818B819C8164197509E2
:102C4000860997090E94082B2AE037ED43E25DE3ED
:102C50000E94E22B69837A838B839C83C301B20138
:102C60000E94082B9B01AC0169817A818B819C8138
:102C70000E94052A0E94D12AD1016C9311967C935F
:102C8000119712968C93129713969C9381E0E98D7D
:102C9000FA8D868BAD89BE89CD92DD92ED92FC9244
:102CA00013972D853E854F855889D8012D933D93E7
:102CB0004D935C9313972D813E814F815885898573
:102CC0009A85AB85BC8582179307A407B50708F4DE
:102CD000C3C06789708D818D928D9B01AC01C50148
:102CE000B4010E94692A4B015C01E98DFA8DE45719
:102CF000FF4F6083718382839383098D1A8D005700
:102D00001F4FF801C080D180E280F380A98DBA8D79
:102D100095968D919C919697BC01882777FD80951B
:102D2000982F0E94082B2B013C01A7019601C50199
:102D3000B4010E94042A9B01AC01C301B2010E94AC
:102D4000E22B2FE632E143E85AE30E94E22B9B019B
:102D5000AC01C701B6010E94052AF80160837183A6
:102D6000828393830E94D12A4B015C01A98DBA8D85
:102D70005B966D937D938D939C935E975F966D911B
:102D80007D918D919C9192970E94082B7B018C01E3
:102D900023E333E343E75FE3C501B4010E94890302
:102DA000E98DFA8D678F70A381A392A311E013A31D
:102DB000D1016D917D918D919C9124E630E040E0B0
:102DC00050E00E94772CE98DFA8D218B328B438B5A
:102DD000548B158BEB89FC8980819181A281B38111
:102DE000E989FA8980839183A283B3837DCC4D9056
:102DF0005D906D907C90D301C20106CD0E940423AA
:102E00009695879577956795E98DFA8DE458FF4FEC
:102E10006083718382839383A98DBA8D97960D9178
:102E20001D912D913C919A97601771078207930726
:102E300028F4906860837183828393830C561E4EBE
:102E40002F4F3F4FE98DFA8D0617170728073907CF
:102E500008F427C1848546CCA98DBA8D5796CD90AC
:102E6000DD90ED90FC905A976D817E818F819885E1
:102E700029853A854B855C85621B730B840B950B0A
:102E80000E94062BA70196010E94042A2DEC3CEC1F
:102E90004CEC5DE30E94E22B9B01AC01C701B60143
:102EA0000E94052A9B01AB01BC01A98DBA8D5796E2
:102EB0004D935D936D937C935A97B9010ECF205239
:102EC0003E444109510929873A874B875C87E98D40
:102ED000FA8DE857FF4FFA8BE98B208331834283C9
:102EE000538369817A818B819C810E94082B20E029
:102EF00030E0A9010E94052A0E94D12A6B017C01C1
:102F0000C701CD86DE86EF86F88A812C912C54018C
:102F1000E98DFA8DEC58FF4FFE8BED8B098D1A8DE4
:102F200008581F4FA9CE9501A601B701C80120344A
:102F30003D4F41495543610571058105910509F0F2
:102F40000CF45CC020E531E346EE58E360E070E04D
:102F500080E090E00E94892D0E94022B27E239E553
:102F600047EB5DE30E94E22B20E836E948E95AE4AA
:102F70000E94052A0E94D12AA98DBA8D1D966C93B4
:102F80001D971E967C931E971F968C931F975096A5
:102F90009C9369837A838B839C83B9CD0E9404239D
:102FA0009695879577956795E98DFA8DE458FF4F4B
:102FB0006083718382839383A98DBA8D97960D91D7
:102FC0001D912D913C919A97601771078207930785
:102FD00028F4906860837183828393830C561E4E1D
:102FE0002F4F3F4F061717072807390708F495CBCF
:102FF000E98DFA8D848576CB10E0E3CB9501A601AF
:10300000B701C8012036314A4C465243610571056B
:1030100081059105D1F0CCF020E43DEF41E955E385
:1030200060E070E080E090E00E94892D0E94022B19
:103030002CE433E042EC5DE30E94E22B20E836E929
:1030400048E15BE40E94052A56CD9501A601B7012F
:10305000C801203A3E4642465F426105710581053E
:10306000910509F00CF44BC020E631EA4CE652E33E
:1030700060E070E080E090E00E94892D0E94022BC9
:1030800029EC38EC48EC5DE30E94E22B20EC31EEB9
:1030900044E65BE46DCFEFEF4E1A5E0A6E0A7E0ADD
:1030A000B9CB13A614A615A616A623E040E067A583
:1030B00089E594E00E941C12882309F446C0E98D3A
:1030C000FA8DEC5BFF4F108211821282138248E569
:1030D000A98DBA8D9F966C9189E594E00E94E311C9
:1030E0000E9404239695879577956795E98DFA8DCB
:1030F00067A370A781A792A782E08487F5CA95018C
:10310000A601B701C801203E3D4244485C4261052A
:1031100071058105910509F00CF497C020EA3EE69F
:1031200042E65FE260E070E080E090E00E94892D7E
:103130000E94022B24E23DEC44ED5DE30E94E22B71
:1031400020E836E948E95BE47DCF89E594E00E9418
:10315000161090E0A0E0B0E0BA2FA92F982F882792
:10316000E98DFA8D83A794A7A5A7B6A789E594E072
:103170000E941610A98DBA8D9B964D915D916D910F
:103180007C919E97482B762F652F542F4427FD0165
:1031900043A754A765A776A789E594E00E94161077
:1031A000A98DBA8D9B964D915D916D917C919E9765
:1031B000482BFD0143A754A765A776A7EC5BFF4FFB
:1031C000408351836283738382CF89E594E00E94B8
:1031D000161090E0A0E0B0E0BA2FA92F982F882712
:1031E000E98DFA8D83A794A7A5A7B6A789E594E0F2
:1031F0000E941610A98DBA8D9B964D915D916D918F
:103200007C919E97482B762F652F542F4427FD01E4
:1032100043A754A765A776A789E594E00E941610F6
:10322000A98DBA8D9B964D915D916D917C919E97E4
:10323000482BFD0143A754A765A776A7E85BFF4F7E
:10324000408351836283738375CA9501A601B701D8
:10325000C80121153E434A4C59426105710581055B
:103260009105C1F0BCF020EE3DE244E85CE260E094
:1032700070E080E090E00E94892D0E94022B23ECF8
:103280003FED4FED5DE30E94E22B20E23CEB4EEB85
:103290005BE46ECE9501A601B701C8012038364621
:1032A000434357426105710581059105C1F0BCF0AA
:1032B00020E03EE34AEC59E260E070E080E090E01C
:1032C0000E94892D0E94022B29E33AEB4BEE5DE32D
:1032D0000E94E22B20EC31EE44EE5BE4B3CE95018C
:1032E000A601B701C801203D37444E4B5442610549
:1032F000710581059105C1F0BCF020E836E643E395
:1033000057E260E070E080E090E00E94892D0E942A
:10331000022B23EE3CE548EF5DE30E94E22B20EB1D
:1033200033E845E05CE424CE9501A601B701C8016D
:1033300020353B454946524261057105810591059D
:10334000C1F0BCF020ED37E44EEB54E260E070E0F9
:1033500080E090E00E94892D0E94022B2DE131EE49
:1033600042E05EE30E94E22B20E836E948E15CE4BB
:1033700069CE20E53BE549E652E260E070E080E09E
:1033800090E00E94892D0E94022B20E734E14AE060
:103390005EE30E94E22B20E539EA4BE25CE4E8CDF3
:1033A000FC0186E9868784EF91E0908B878788E22D
:1033B000818B88E7828B2AE0238B82E3848B80E9F0
:1033C00091E0968B858B81E0878B228F8CE89AE049
:1033D000918F808F08954F925F926F927F928F921C
:1033E0009F92AF92BF92CF92DF92EF92FF920F9394
:1033F0001F93CF93DF93CDB7DEB72C970FB6F8941A
:10340000DEBF0FBECDBF4C012A013B0160919C0382
:1034100070919D03882777FD8095982F0E94082B37
:1034200020E030E048EC52E40E94692A6D837E83FC
:103430008F839887D40155968D919C9156979C01C6
:10344000442737FD4095542F29833A834B835C836F
:1034500042165306640675060CF45CC0F4018289BA
:10346000618970E0680F711D882777FD8095982F1E
:103470000E94082B2D813E814F8158850E94E22BAE
:103480000E94D12A5B016C01D40154968C9154970F
:1034900053964C9150E0480F511D662757FD60959B
:1034A000762F7F936F935F934F9318EEE12E13E087
:1034B000F12E00E010E029813A814B815C81C3014B
:1034C000B2010E94B127F4014489238930E0240F1E
:1034D000311DCB010F900F900F900F906217730763
:1034E000BCF02C960FB6F894DEBF0FBECDBFDF91B7
:1034F000CF911F910F91FF90EF90DF90CF90BF90F1
:10350000AF909F908F907F906F905F904F900895B5
:10351000C901E7CF1E968C911E971F966D917C91E5
:103520005097680F711D882777FD8095982F0E940E
:10353000082B2D813E814F8158850E94E22B0E94ED
:10354000D12A5B016C0180919003909191039C01C1
:10355000442737FD4095542F29873A874B875C874E
:10356000D40152968C91529751966C9170E0680FED
:10357000711D882777FD8095982F0E94082B2D813B
:103580003E814F8158850E94E22B0E94D12A9F9351
:103590008F937F936F93E980FA800B811C8129853B
:1035A0003A854B855C85C301B2010E94B1270F901B
:1035B0000F900F900F90CB0194CF4F925F926F922C
:1035C0007F928F929F92AF92BF92CF92DF92EF92B3
:1035D000FF920F931F93CF93DF93CDB7DEB728975A
:1035E0000FB6F894DEBF0FBECDBF4C012A013B01E0
:1035F00060919C0370919D03882777FD8095982F9B
:103600000E94082B20E030E048EC52E40E94692A36
:103610009B01AC01D40155968D919C9156977C01EC
:103620000027F7FC0095102FE982FA820B831C8398
:103630004E145F04600671060CF44EC0F4016289FA
:1036400070E080E090E02D833E834F8358870E9496
:10365000082B2D813E814F8158850E94E22B0E94CC
:10366000D12AD40154962C911F921F921F922F930E
:103670005B016C0118EEE12E13E0F12E00E010E08A
:1036800029813A814B815C81C301B2010E94B1273B
:10369000F401248930E0CB010F900F900F900F9030
:1036A00062177307BCF028960FB6F894DEBF0FBE02
:1036B000CDBFDF91CF911F910F91FF90EF90DF90E1
:1036C000CF90BF90AF909F908F907F906F905F90C2
:1036D0004F900895C901E7CF1F966D917C91509747
:1036E000882777FD8095982F2D833E834F835887B9
:1036F0000E94082B2D813E814F8158850E94E22B2C
:103700000E94D12A2091900330919103442737FDE4
:103710004095542FD4015296EC911F921F921F9204
:10372000EF935B016C01E980FA800B811C81C3017E
:10373000B2010E94B1270F900F900F900F90CB0114
:10374000B2CF4F925F926F927F928F929F92AF9281
:10375000BF92CF92DF92EF92FF920F931F93CF937E
:10376000DF9300D000D0CDB7DEB74C012A013B017A
:103770000E94F822D4016D937D938D939C931397AF
:1037800016960D911D912D913C9119976B017C011D
:10379000C01AD10AE20AF30A1A960D911D912D91D1
:1037A0003C911D970C151D052E053F0508F0E3C043
:1037B000F4012789222309F495C0668377838087E3
:1037C00091874091900350919103662757FD609532
:1037D000762F44165506660677060CF098C0E090E2
:1037E0009203F09093030027F7FC0095102FE41448
:1037F000F504060517050CF0C3C00E94F8220091DD
:103800008104109182042091830430918404601714
:1038100071078207930708F0DAC0809190039091B6
:1038200091039C01442737FD4095542F29833A8307
:103830004B835C8342165306640675060CF4C7C0BE
:10384000B4E64B165104610471040CF4D6C0D401E3
:1038500058964D915C9159975A01CC24B7FCC0946D
:10386000DC2C485A5D4F662757FD6095762F7F9375
:103870006F935F934F9318EEE12E13E0F12E00E06B
:1038800010E029813A814B815C81C301B2010E9421
:10389000B1270F900F900F900F90683C71050CF4BA
:1038A000DAC0F401208D318D24543D4F261737079F
:1038B0000CF4B901CB01D40115967C936E93149747
:1038C0006091850470918604680F791F80E090E014
:1038D000EE24E39408E813E120E030E05A964C919E
:1038E0000E94B1200F900F900F900F90DF91CF9119
:1038F0001F910F91FF90EF90DF90CF90BF90AF900E
:103900009F908F907F906F905F904F90089510924E
:103910008804109287048CE99FEF9093860480932B
:103920008504B301A201C4010E94EB19AC01662712
:1039300057FD6095762FF40142875387648775871A
:103940000E94F8226B017C01B301A201C4010E9414
:10395000DD1AAC01662757FD6095762F4C0D5D1D75
:103960006E1D7F1D409381045093820460938304F5
:1039700070938404D40157968C91811130CFB2CFCB
:103980001F921F921F928CED8F934CE3A42EB12CAB
:10399000C12CD12C28E13CEF4FEF5FEFC301B20106
:1039A0000E94B127F40175836483882777FD809591
:1039B000982FEE24E39408EE13E020E030E0428DEF
:1039C0000E94B1200F900F900F900F908BCF0F900F
:1039D0000F900F900F90DF91CF911F910F91FF905B
:1039E000EF90DF90CF90BF90AF909F908F907F909F
:1039F0006F905F904F900C947A21209187043091C2
:103A000088042A3F310508F022CFA9014F5F5F4F9C
:103A100050938804409387049A01A9E8B8E80E946B
:103A20009C2C929582958F7089279F7089276EE1D3
:103A3000689F9001699F300D11244217530709F0C8
:103A400006CF809185049091860401969093860418
:103A500080938504FCCE88EC90E068EC70E02BCF7E
:103A60002F923F924F925F926F927F928F929F928E
:103A7000AF92BF92CF92DF92EF920F931F93CF93AB
:103A8000DF9300D000D000D0CDB7DEB71C016901B4
:103A90001216130674F5CA01AA2797FDA095BA2F2E
:103AA00089839A83AB83BC832B01662457FC609483
:103AB000762C4801AA2497FCA094BA2CA1E0B0E08F
:103AC000BE83AD83E12C09811A812B813C81F101F8
:103AD000428DC301B2010E94B120C501B4010E9410
:103AE00028238D819E8101969E838D83C816D906D9
:103AF0004CF726960FB6F894DEBF0FBECDBFDF9110
:103B0000CF911F910F91EF90DF90CF90BF90AF902A
:103B10009F908F907F906F905F904F903F902F90ED
:103B200008952F923F924F925F926F927F928F9261
:103B30009F92AF92BF92CF92DF92EF920F931F931B
:103B4000CF93DF93CDB7DEB728970FB6F894DEBFDB
:103B50000FBECDBF9A83898378876F833A0169014D
:103B6000641775070CF451C046175707ACF1C8012C
:103B7000AA2797FDA095BA2F8B839C83AD83BE8324
:103B800022243324221A330A442437FC4094542C30
:103B90004A01AA2497FCA094BA2CEE24E39408E8E6
:103BA00013E120E030E0A981BA815A964C91C50119
:103BB000B4010E94B1206B817C818D819E810E9425
:103BC00028236C187D08820C931CA41CB51CEF8163
:103BD000F8856E167F060CF728960FB6F894DEBFB0
:103BE0000FBECDBFDF91CF911F910F91EF90DF906E
:103BF000CF90BF90AF909F908F907F906F905F908D
:103C00004F903F902F900C947A21C801AA2797FDDE
:103C1000A095BA2F8B839C83AD83BE831901442466
:103C200037FC4094542CAF81B8854D01AA2497FCF1
:103C3000A094BA2CEE24E39408E813E120E030E0ED
:103C4000E981FA81428DC501B4010E94B1206B81E6
:103C50007C818D819E810E9428238F8198858C0D87
:103C60009D1D98878F83820C931CA41CB51C68161D
:103C7000790604F7B1CF8F929F92AF92BF92EF92E5
:103C80000F931F93CF93DF93EC0158EE852E53E0F3
:103C9000952EA12CB12CEE24E3940CE310E020E04F
:103CA00030E04A8DC501B4010E94B12064E070E0AB
:103CB00080E090E00E94282389E1880E911CA11CDD
:103CC000B11C81ED88168BE09806A104B10419F7A8
:103CD000DF91CF911F910F91EF90BF90AF909F9088
:103CE0008F900C947A218F929F92AF92BF92EF9215
:103CF0000F931F93CF93DF93EC0168EB862E6BE05D
:103D0000962EA12CB12CEE24E3940CE310E020E0DD
:103D100030E04A8DC501B4010E94B12064E070E03A
:103D200080E090E00E94282389E1881A9108A10888
:103D3000B1088FEC881683E09806A104B10419F746
:103D4000DF91CF911F910F91EF90BF90AF909F9017
:103D50008F900C947A21CF92DF92EF920F931F9362
:103D6000CF93DF93EC016B01882777FD8095982F27
:103D7000E12C0EE110E020E030E04A8D0E94B120FD
:103D8000B601660F771F882777FD8095982F0EE183
:103D900010E020E030E04A8D0E94B120DF91CF9109
:103DA0001F910F91EF90DF90CF900C947A21EF92BA
:103DB0000F931F93EE24E39404EF11E020E030E032
:103DC0004AE068E27AE080E090E00E94B12060E2A0
:103DD00073E080E090E00E94282304EF11E020E0EF
:103DE00030E04AE068E27AE080E090E00E94B120B2
:103DF00060E273E080E090E00E94282308EE13E088
:103E000020E030E04AE060ED77E080E090E00E9462
:103E1000B12068EE73E080E090E01F910F91EF9089
:103E20000C9428238F929F92AF92BF92EF920F93A0
:103E30001F93CF93DF93EC01F8EE8F2EF3E09F2ECC
:103E4000A12CB12CEE24E3940CE310E020E030E050
:103E50004A8DC501B4010E94B12064E070E080E0A9
:103E600090E00E94282380E5880E911CA11CB11CC3
:103E700088E588168CE09806A104B10419F7DF9153
:103E8000CF911F910F91EF90BF90AF909F908F9027
:103E90000C947A218F929F92AF92BF92EF920F93E0
:103EA0001F93CF93DF93EC01ACE18A2EACE09A2E06
:103EB000A12CB12CEE24E3940CE310E020E030E0E0
:103EC0004A8DC501B4010E94B12064E070E080E039
:103ED00090E00E94282380E5881A9108A108B10883
:103EE0008CEA881683E09806A104B10419F7DF91E3
:103EF000CF911F910F91EF90BF90AF909F908F90B7
:103F00000C947A21FC01678B81E08093970387EA08
:103F100093E0611102C00C944A1F0C94121F4F923F
:103F20005F926F927F92AF92BF92CF92DF92EF92A9
:103F30000F931F93CF93DF93EC01A62EB12CA11406
:103F4000B10459F1C12CD12CB0ED4B2EB7E05B2E52
:103F5000612C712CEE24E3940CE310E020E030E0BF
:103F60004A8DC301B2010E94B1206FE070E080E091
:103F700090E00E94282384E6480E511C611C711CAD
:103F800080EF48168AE058066104710419F78FEF34
:103F9000C81AD80ACA14DB04BCF2DF91CF911F9172
:103FA0000F91EF90DF90CF90BF90AF907F906F9088
:103FB0005F904F900C947A21AF92BF92CF92DF9294
:103FC000EF920F931F93CF93DF93EC015B0180E59A
:103FD000869F6001879FD00C112480EAC81A86EF63
:103FE000D80AB601882777FD8095982FEE24E394B0
:103FF00004E610E020E030E04A8D0E94B1208FE01E
:104000008A9DB0018B9D700D1124605B7F4F8827C6
:1040100077FD8095982F0E94282301E010E02FE083
:1040200030E040EA5FE0B601CE010E94911DDF91D1
:10403000CF911F910F91EF90DF90CF90BF90AF90F5
:104040000895CF93DF93EC016231710530F061E0A8
:10405000CE01DF91CF910C948F1FFB01EC5CFF4FE1
:104060000C94962C64E070E0DF91CF910C94DC1FEF
:1040700065E070E0DF91CF910C94DC1F0E94121F6D
:10408000CE010E94121FCE010E94121F68EE73E043
:1040900080E090E0DF91CF910C94282364E670E0FB
:1040A000DF91CF910C94AB1E68E770E0DF91CF9168
:1040B0000C94AB1E6CE870E0DF91CF910C94AB1EBA
:1040C00060EA70E0DF91CF910C94AB1E64EB70E07E
:1040D000DF91CF910C94AB1E0E943B1ECE010E943B
:1040E000731ECE010E943B1ECE010E94731E68EE1D
:1040F00073E080E090E0DF91CF910C9428230E9440
:104100003B1ECE010E94731E60E273E080E090E0EF
:10411000DF91CF910C94282362E0DF91CF910C9432
:104120008F1F64E0DF91CF910C948F1F65E0DF91CA
:10413000CF910C948F1FDF91CF910C94D71E61E02B
:1041400070E0DF91CF910C94DC1F62E070E0DF91B2
:10415000CF910C94DC1F63E070E0DF91CF910C9461
:10416000DC1F4F925F926F927F928F929F92AF92DD
:10417000BF92CF92DF92EF92FF920F931F93CF9354
:10418000DF9300D000D0CDB7DEB74B015C01280132
:1041900039010E2D611571058105910509F460C085
:1041A000442309F45DC0142F4B3008F07BC084B168
:1041B000866084B960E072E18AE790E0A50194012D
:1041C0000E94552C69017A0181E0C81AD108E108E2
:1041D000F108C114D104E1E0EE06F10408F064C076
:1041E00081E1B82EE12FF0E0E35FFE4F208130E067
:1041F00040E050E0C701B6010E94552C4114510423
:104200006104710411F001115BC0D0928700C0926B
:1042100086008091840090918500A0E0B0E0C816EF
:10422000D906EA06FB0620F4D0928500C0928400ED
:10423000B092810030938B0020938A0030938900E4
:104240002093880080EB8093800041145104610426
:10425000710499F0011111C0C301B2010E94282319
:1042600080916F008D7F80936F0082E0809381004A
:1042700081E08093800029982A980F900F900F90EA
:104280000F90DF91CF911F910F91FF90EF90DF90F2
:10429000CF90BF90AF909F908F907F906F905F90E6
:1042A0004F9008951AE083CFCD2CDE2CEF2CFF2405
:1042B000F1E0CF1AD108E108F10824E1B22E92CF43
:1042C00029833A834B835C830E94F822640D751D19
:1042D000861D971D6093890470938A0480938B04D4
:1042E00090938C0480916F00826080936F003A817C
:1042F00029818BCFEFE6F0E080818D7F808382E0A3
:104300008093810081E08093800029982A98089505
:104310001F920F920FB60F9211240F931F932F939A
:104320003F934F935F936F937F938F939F93AF933D
:10433000BF93EF93FF930E94F8220091890410919C
:104340008A0420918B0430918C04601771078207D6
:10435000930768F080916F008D7F80936F0082E0FB
:104360008093810081E08093800029982A98FF91B2
:10437000EF91BF91AF919F918F917F916F915F91DD
:104380004F913F912F911F910F910F900FBE0F9062
:104390001F9018954115510529F4EAE7F0E0808156
:1043A0008F7780836A307105B1F063FF02C088E2C5
:1043B00001C088E06770682B88E190E00FB6F89440
:1043C000A895809360000FBE60936000E0E6F0E087
:1043D000808180648083232BA1F483B7817F8460F4
:1043E00083BFF89483B7816083BF85B7806685BF3C
:1043F0008F7D85BF7894889583B78E7F83BF7894AF
:104400000EC083B7817F846083BFF89483B78160D7
:1044100083BF7894889583B78E7F83BF7894452B2C
:1044200029F4EAE7F0E080818068808308951F9294
:104430000F920FB60F9211248F9388E10FB6F89464
:1044400080936000109260000FBE8F910F900FBE9E
:104450000F901F9018950895823008F00895E82F66
:10446000F0E0EE0FFF1FE85EFE4F71836083813046
:1044700061F480916900440F551F440F551F837FDD
:10448000842B80936900E99A0895809169008C7F5C
:10449000842B80936900E89A0895823008F008958B
:1044A000813061F0E898E82FF0E0EE0FFF1FE85E42
:1044B000FE4F8BE292E2918380830895E998F3CFD7
:1044C0001F920F920FB60F9211242F933F934F9389
:1044D0005F936F937F938F939F93AF93BF93EF936C
:1044E000FF93E0911801F09119010995FF91EF9167
:1044F000BF91AF919F918F917F916F915F914F91FC
:104500003F912F910F900FBE0F901F9018951F9203
:104510000F920FB60F9211242F933F934F935F93F7
:104520006F937F938F939F93AF93BF93EF93FF937B
:10453000E0911A01F0911B010995FF91EF91BF9154
:10454000AF919F918F917F916F915F914F913F912B
:104550002F910F900FBE0F901F9018951F920F92E2
:104560000FB60F9211242F933F938F939F93AF9386
:10457000BF9380918F0490919004A0919104B09189
:10458000920430918E0423E0230F2D3768F126E842
:10459000230F0296A11DB11D20938E0480938F04DA
:1045A00090939004A0939104B0939204809193040B
:1045B00090919404A0919504B09196040196A11D48
:1045C000B11D8093930490939404A0939504B093A9
:1045D0009604BF91AF919F918F913F912F910F9032
:1045E0000FBE0F901F9018950196A11DB11DD4CF3D
:1045F0002FB7F89460918F0470919004809191048A
:10460000909192042FBF08953FB7F894809193043E
:1046100090919404A0919504B091960426B5A89B1E
:1046200005C02F3F19F00196A11DB11D3FBF6627A0
:10463000782F892F9A2F620F711D811D911D660F92
:10464000771F881F991F660F771F881F991F08956E
:104650008F929F92AF92BF92CF92DF92EF92FF9292
:104660006B017C010E9404234B015C01C114D10445
:10467000E104F104E9F00E94032A0E94042368196E
:1046800079098A099B09683E73408105910570F399
:1046900021E0C21AD108E108F10888EE880E83E013
:1046A000981EA11CB11CC114D104E104F10429F726
:1046B000FF90EF90DF90CF90BF90AF909F908F9042
:1046C0000895789484B5826084BD84B5816084BD8A
:1046D00085B5826085BD85B5816085BDEEE6F0E07B
:1046E000808181608083E1E8F0E0108280818260D7
:1046F0008083808181608083E0E8F0E08081816058
:104700008083E1EBF0E0808184608083E0EBF0E087
:10471000808181608083EAE7F0E08081846080832B
:1047200080818260808380818160808380818068D5
:1047300080831092C10008958330E9F038F087300B
:1047400069F0883011F1843079F008958130C9F032
:10475000823081F484B58F7D84BD08958091B0004E
:104760008F778093B0000895809180008F7D809333
:10477000800008950895809180008F778093800055
:10478000089584B58F7784BD08958091B0008F7DA2
:104790008093B0000895CF93DF9390E0FC01E05642
:1047A000FF4F2491FC01EC54FF4F84918823B9F012
:1047B00090E0880F991FFC01E452FF4FA591B4913E
:1047C0008E529F4FFC01C591D4919FB7662351F043
:1047D0006230A1F0F8948C91822B8C939FBFDF9173
:1047E000CF910895F8948C91209582238C938881A1
:1047F000822388839FBFDF91CF910895F8948C9195
:10480000322F309583238C938881822B88839FBF9E
:10481000E6CF0F931F93CF93DF931F92CDB7DEB7F1
:10482000282F30E0F901E457FF4F8491F901E05659
:10483000FF4F0491F901EC54FF4F1491112399F0AB
:1048400081111BC0E12FF0E0EE0FFF1FEE52FF4F72
:10485000A591B4918FB7F8949C9161110AC000950D
:1048600090239C938FBF0F90DF91CF911F910F9159
:104870000895902B9C938FBFF6CF69830E949C2351
:104880006981E0CFCF93DF93282F30E0F901E4571F
:10489000FF4F8491F901E056FF4FD491F901EC5498
:1048A000FF4FC491CC23B1F0811119C0EC2FF0E07F
:1048B000EE0FFF1FE853FF4FA591B4912C912D23CC
:1048C00081E090E019F0DF91CF91089580E0DF91D1
:1048D000CF91089580E090E0DF91CF9108950E94FC
:1048E0009C23E4CFFC01818D228D90E0805C9F4F62
:1048F000821B91098F7399270895FC01918D828DF8
:10490000981731F0828DE80FF11D858D90E00895A4
:104910008FEF9FEF0895FC01918D828D981761F0C4
:10492000828DDF01A80FB11D5D968C91928D9F5FE6
:104930009F73928F90E008958FEF9FEF089587E324
:1049400096E2892B49F080E090E0892B29F00E94C3
:10495000372681110C9400000895FC01848DDF013D
:10496000A80FB11DA35ABF4F2C91848D90E00196E2
:104970008F739927848FA689B7892C93A089B189D1
:104980008C9180648C93938D848D98130895028804
:10499000F389E02D80818F7D80830895CF93DF930D
:1049A000EC01888D8823B9F0EA89FB89A889B98947
:1049B000808185FF0DC00FB607FCFACF808185FF8F
:1049C000F7CF8C9185FFF4CFCE010E94AD24ECCFC0
:1049D0008C9186FFF0CFDF91CF910895CF92DF9237
:1049E000FF920F931F93CF93DF931F92CDB7DEB744
:1049F0006C0181E0D60158968C9358975B969C91F8
:104A00005B975C968C915C979817D1F1F601038DBA
:104A100010E00F5F1F4F0F731127F02E03C00FB66A
:104A200007FE20C0F601848DF816C9F3838DE80FC8
:104A3000F11DE35AFF4F6083D6015B960C935B97A1
:104A40005296ED91FC91539780818062808381E042
:104A500090E00F90DF91CF911F910F91FF90DF9029
:104A6000CF900895D6015096ED91FC915197808199
:104A700085FFD8CFC60169830E94AD246981D2CF5A
:104A80005096ED91FC915197808185FFBFCFD60163
:104A90005696ED91FC91579760835096ED91FC915D
:104AA0005197808180648083D2CFBF92CF92DF9272
:104AB000EF92FF920F931F93CF93DF93EC016A0164
:104AC0007B01B22EE889F98982E08083411581EE6D
:104AD000580761057105A9F060E079E08DE390E089
:104AE000A70196010E94552C215031094109510915
:104AF00056954795379527958901211580E1380707
:104B0000A0F0E889F989108260E874E88EE190E00D
:104B1000A70196010E94552C2150310941095109E4
:104B200056954795379527958901EC85FD85108326
:104B3000EE85FF850083188EEC89FD89B082EA89B5
:104B4000FB89808180618083EA89FB89808188601C
:104B50008083EA89FB89808180688083EA89FB8978
:104B600080818F7D8083DF91CF911F910F91FF9086
:104B7000EF90DF90CF90BF900895CF93DF93EC013B
:104B8000E881F9810284F385E02D0995EA89FB89A2
:104B900080818F7E8083EA89FB898081877F808303
:104BA000EA89FB8980818F778083EA89FB8980810C
:104BB0008F7D80838A8D898FDF91CF9108951F9299
:104BC0000F920FB60F9211242F938F939F93EF9311
:104BD000FF93E091A704F091A8048081E091AD04D7
:104BE000F091AE0482FD1BC020818091B0048F5FE4
:104BF0008F739091B104891741F0E091B004F0E017
:104C0000E956FB4F258F8093B004FF91EF919F9160
:104C10008F912F910F900FBE0F901F90189580814C
:104C2000F4CF1F920F920FB60F9211242F933F9340
:104C30004F935F936F937F938F939F93AF93BF93A4
:104C4000EF93FF9387E994E00E94AD24FF91EF91E9
:104C5000BF91AF919F918F917F916F915F914F9194
:104C60003F912F910F900FBE0F901F90189587E9DD
:104C700094E00E94722421E0892B09F420E0822F25
:104C8000089510929A041092990488EE93E0A0E09F
:104C9000B0E080939B0490939C04A0939D04B093F8
:104CA0009E0483EC92E0909398048093970485ECA3
:104CB00090E09093A4048093A30484EC90E09093FC
:104CC000A6048093A50480EC90E09093A8048093C0
:104CD000A70481EC90E09093AA048093A90482EC4D
:104CE00090E09093AC048093AB0486EC90E09093BA
:104CF000AE048093AD041092B0041092B1041092EF
:104D0000B2041092B304089580E090E008950895ED
:104D10000E9461230E9487260E9404040E94E004EE
:104D20008FE994E2892B29F00E949F240E94E004DD
:104D3000FBCF0E94E0040E94E004FBCFCF92DF9201
:104D4000EF92FF920F931F93CF93DF937C016A0141
:104D500041155105F9F08B01C0E0D0E004C0219667
:104D6000CC16DD0669F0D8016D918D01D701ED916A
:104D7000FC910190F081E02DC7010995892B79F70D
:104D8000CE01DF91CF911F910F91FF90EF90DF90B7
:104D9000CF900895C0E0D0E0F3CFDC01ED91FC911D
:104DA000DB0114964D915C9115976D917C91028079
:104DB000F381E02D09946115710581F0DB010D90FF
:104DC0000020E9F7AD0141505109461B570BDC01AA
:104DD000ED91FC910280F381E02D099480E090E058
:104DE00008950F931F93CF93DF93EC01E881F9812E
:104DF000DB0114964D915C9115976D917C91028029
:104E0000F381E02D09958C01E881F9810280F3811D
:104E1000E02D42E050E06FEC72E0CE010995800F8A
:104E2000911FDF91CF911F910F9108958F929F92C3
:104E3000AF92BF92DF92EF92FF920F931F93CF93A7
:104E4000DF93CDB7DEB7A1970FB6F894DEBF0FBEE4
:104E5000CDBF7C01F42FD52ECB0119A2223008F44E
:104E60004CC0822E912CA12CB12C8E010F5D1F4FB6
:104E700008C0E0E3E60FD801EC93232B242B252B6D
:104E8000A9F06F2F7D2DA50194010E94552CF22FC2
:104E9000D32ECA01015011096A305CF3E7E3E60F33
:104EA000D801EC93232B242B252B59F70115110541
:104EB00051F1F80101900020E9F7AF01415051098B
:104EC000401B510BD701ED91FC910280F381E02D45
:104ED000B801C7010995A1960FB6F894DEBF0FBEC1
:104EE000CDBFDF91CF911F910F91FF90EF90DF9099
:104EF000BF90AF909F908F9008952AE0822E912CC2
:104F0000A12CB12CB2CF80E090E0E5CF2115310586
:104F100011F00C941627DC01ED91FC910190F081C9
:104F2000E02D642F09940F931F93CF93DF93EC012F
:104F30009A01AB0160E070E00E9486278C01E88155
:104F4000F9810280F381E02D42E050E06FEC72E0E5
:104F5000CE010995800F911FDF91CF911F910F9185
:104F600008954F925F926F927F92AF92BF92CF92CD
:104F7000DF92EF92FF920F931F93CF93DF93CDB702
:104F8000DEB729013A01621B730B840B950B29894B
:104F90003A894B895C892A193B094C095D09298B9F
:104FA0003A8B4B8B5C8B9B01AC0169897A898B892D
:104FB0009C890E94452CE418F50806091709A801E8
:104FC00097010E94772C2A0D3B1D4C1D5D1DCA01C7
:104FD000B901DF91CF911F910F91FF90EF90DF907A
:104FE000CF90BF90AF907F906F905F904F9008955B
:104FF000FC01808191810C944B2E0F931F93CF93D2
:10500000DF93EC018B0188819981009729F02A8137
:105010003B812617370788F4B8016F5F7F4F0E94E6
:10502000DA2E009781F0998388831B830A832C8171
:105030003D81232B11F4FC01108281E0DF91CF919F
:105040001F910F91089580E0F9CFEF92FF920F9397
:105050001F93CF93DF93EC017B018A01BA010E9479
:10506000FD27811114C088819981009711F00E9459
:105070004B2E198218821D821C821B821A82CE013D
:10508000DF91CF911F910F91FF90EF9008951D83B5
:105090000C83B701888199810E94D42FCE01DF91C2
:1050A000CF911F910F91FF90EF900895FC01118215
:1050B000108213821282158214826115710559F0D3
:1050C000FB0101900020E9F7AF0141505109461B57
:1050D000570B0C9425280895CF93DF93EC01FB0127
:1050E0008617970749F0608171816115710541F05C
:1050F000448155810E942528CE01DF91CF910895EA
:1051000088819981009711F00E944B2E1982188294
:105110001D821C821B821A82CE01DF91CF910895DD
:10512000FC011182108213821282158214820C9467
:105130006C28CF93DF93EC016115710579F0FB01C9
:1051400001900020E9F7AF0141505109461B570B70
:105150000E942528CE01DF91CF9108958881998101
:10516000009711F00E944B2E198218821D821C821A
:105170001B821A82CE01DF91CF910895EF92FF92A8
:105180000F931F93CF93DF93EC018B016C817D8193
:105190000115110599F04115510541F481E0DF91A8
:1051A000CF911F910F91FF90EF9008957A01E60E35
:1051B000F71EB7010E94FD27811108C080E0DF9132
:1051C000CF911F910F91FF90EF9008952881398121
:1051D0008C819D81B801820F931F0E94D42FFD8284
:1051E000EC8281E0DF91CF911F910F91FF90EF90C2
:1051F00008956115710559F0FB0101900020E9F750
:10520000AF0141505109461B570B0C94BE2880E05A
:105210000895CF93DF9300D0CDB7DEB769831A82AC
:1052200041E050E0BE016F5F7F4F0E94BE280F90AB
:105230000F90DF91CF910895EF92FF920F931F93FC
:10524000CF93DF93CDB7DEB72E970FB6F894DEBFBE
:105250000FBECDBF7C01CB01BA012AE08E010F5FEA
:105260001F4FA8010E94F52FF80101900020E9F7D7
:10527000AF0141505109401B510BB801C7010E94B9
:10528000BE282E960FB6F894DEBF0FBECDBFDF91BD
:10529000CF911F910F91FF90EF900895EF92FF92A1
:1052A0000F931F93CF93DF93CDB7DEB764970FB6FD
:1052B000F894DEBF0FBECDBF7C01CB01BA018E01D9
:1052C0000F5F1F4F22E044E00E94922DFC010190ED
:1052D0000020E9F7AF0141505109481B590BBC01AF
:1052E000C7010E94BE2864960FB6F894DEBF0FBEB9
:1052F000CDBFDF91CF911F910F91FF90EF90089557
:10530000FC01248135816217730738F48081918113
:10531000009719F0860F971F08951092340584E3C3
:1053200095E00895CF93DF93FC0184819581481720
:10533000590788F4C081D181FB0160817181CE0160
:10534000840F951F0E94DB2F009729F08C1B9D0B6B
:10535000DF91CF9108958FEF9FEFFACF40E050E0BB
:105360000C949229BF92CF92DF92EF92FF920F930B
:105370001F93CF93DF938C016B01EA01790124170E
:10538000350720F48D2FE901E42EF82E61ED72E04F
:10539000C8010E945628D60114968D919C911597AC
:1053A000C817D907C0F48E159F0500F1D601ED91FD
:1053B000FC911197EE0DFF1DB08010826D917C91D4
:1053C0006C0F7D1FC8010E949928D601ED91FC91B8
:1053D000EE0DFF1DB082C801DF91CF911F910F919B
:1053E000FF90EF90DF90CF90BF9008957C01DECFCB
:1053F000FC0180819181009711F00C94A42F60E052
:1054000070E0CB01089508955058BB27AA270ED00D
:105410009FC190D130F095D120F031F49F3F11F42D
:105420001EF475C10EF4E095E7FB6BC1E92FA1D125
:1054300080F3BA17620773078407950718F071F4B1
:105440009EF5B9C10EF4E0950B2EBA2FA02D0B01DD
:10545000B90190010C01CA01A0011124FF27591BB9
:1054600099F0593F50F4503E68F11A16F040A22FBF
:10547000232F342F4427585FF3CF46953795279530
:10548000A795F0405395C9F77EF41F16BA0B620B2F
:10549000730B840BBAF09150A1F0FF0FBB1F661F76
:1054A000771F881FC2F70EC0BA0F621F731F841FB9
:1054B00048F4879577956795B795F7959E3F08F0DF
:1054C000B3CF9395880F08F09927EE0F979587959E
:1054D00008950CD03DC135D140F02CD130F021F4ED
:1054E0005F3F19F00EC1511167C111C142D198F34C
:1054F0009923C9F35523B1F3951B550BBB27AA2755
:1055000062177307840738F09F5F5F4F220F331FC6
:10551000441FAA1FA9F333D00E2E3AF0E0E830D092
:1055200091505040E695001CCAF729D0FE2F27D095
:10553000660F771F881FBB1F261737074807AB0763
:10554000B0E809F0BB0B802DBF01FF2793585F4FD8
:105550002AF09E3F510568F0D4C02EC15F3FECF3A6
:10556000983EDCF3869577956795B795F7959F5F9D
:10557000C9F7880F911D9695879597F90895E1E0F1
:10558000660F771F881FBB1F621773078407BA0750
:1055900020F0621B730B840BBA0BEE1F88F7E095AB
:1055A000089504D06894B11107C10895EAD088F035
:1055B0009F5790F0B92F9927B751A0F0D1F0660FFF
:1055C000771F881F991F1AF0BA95C9F712C0B1301A
:1055D00081F0F1D0B1E00895EEC0672F782F8827D1
:1055E000B85F39F0B93FCCF3869577956795B39559
:1055F000D9F73EF490958095709561957F4F8F4FC8
:105600009F4F089597FB0EF485D03EC0E89409C0E3
:1056100097FB3EF490958095709561957F4F8F4FE5
:105620009F4F9923A9F0F92F96E9BB279395F695FB
:10563000879577956795B795F111F8CFFAF4BB0F79
:1056400011F460FF1BC06F5F7F4F8F4F9F4F16C0DD
:10565000882311F096E911C0772321F09EE8872F67
:10566000762F05C0662371F096E8862F70E060E023
:105670002AF09A95660F771F881FDAF7880F96959C
:10568000879597F90895E894F92F96EBFF2381F019
:10569000121613061406440B9395F6958795779585
:1056A000679557954040FF23B9F71BC09927089588
:1056B000882351F49850D2F7872B762F652F542FDB
:1056C000432F322F20E0B1F3121613061406440BB9
:1056D00088233AF09A95440F551F661F771F881F3D
:1056E000CAF755234AF4440F551F11F460FF04C054
:1056F0006F5F7F4F8F4F9F4F880F9695879597F9D4
:10570000089597F99F6780E870E060E008959FEF43
:1057100080EC089590958095709560955095409592
:10572000309521953F4F4F4F5F4F6F4F7F4F8F4FBA
:105730009F4F089500240A941616170618060906A6
:10574000089500240A9412161306140605060895F7
:10575000092E0394000C11F4882352F0BB0F40F47F
:10576000BF2B11F460FF04C06F5F7F4F8F4F9F4FBF
:10577000089557FD9058440F551F59F05F3F71F041
:105780004795880F97FB991F61F09F3F79F08795A8
:105790000895121613061406551FF2CF4695F1DF31
:1057A00008C0161617061806991FF1CF86957105C1
:1057B000610508940895E894BB2766277727CB01F5
:1057C00097F908950BD0C4CFB5DF28F0BADF18F0F1
:1057D000952309F096CF9BCF1124EECFCADFA0F31B
:1057E000959FD1F3950F50E0551F629FF001729F76
:1057F000BB27F00DB11D639FAA27F00DB11DAA1F95
:10580000649F6627B00DA11D661F829F2227B00DE1
:10581000A11D621F739FB00DA11D621F839FA00D6C
:10582000611D221F749F3327A00D611D231F849FBC
:10583000600D211D822F762F6A2F11249F57504013
:105840008AF0E1F088234AF0EE0FFF1FBB1F661FAE
:10585000771F881F91505040A9F79E3F510570F067
:1058600050CFAACF5F3FECF3983EDCF38695779557
:105870006795B795F795E7959F5FC1F7FE2B880F62
:10588000911D9695879597F90895DB018F939F93C6
:105890000E94AB2CBF91AF91A29F800D911DA39F41
:1058A000900DB29F900D11240895A1E21A2EAA1B0B
:1058B000BB1BFD010DC0AA1FBB1FEE1FFF1FA217C0
:1058C000B307E407F50720F0A21BB30BE40BF50BBD
:1058D000661F771F881F991F1A9469F76095709546
:1058E000809590959B01AC01BD01CF010895052ED7
:1058F00097FB1EF400940E948E2C57FD07D00E9447
:10590000552C07FC03D04EF40C948E2C50954095EA
:10591000309521953F4F4F4F5F4F0895909580955B
:10592000709561957F4F8F4F9F4F0895EE0FFF1F2A
:105930000590F491E02D0994A29FB001B39FC0019E
:10594000A39F700D811D1124911DB29F700D811DAB
:105950001124911D08950E949C2CA59F900DB49F29
:10596000900DA49F800D911D11240895DF93CF9376
:105970001F930F939A9DF02D219FF00D8B9DF00D9D
:105980008A9DE02DF10D039FF00D029FE00DF11DAA
:105990004E9DE00DF11D5E9DF00D4F9DF00D7F932E
:1059A0006F93BF92AF925F934F93D5010E949C2C4F
:1059B0008B01AC01D7010E949C2CEB01E80FF91F71
:1059C000D6010E94062D2F913F91D6010E949C2C5A
:1059D000C60FD71FE81FF91FAF91BF910E94062D78
:1059E0002F913F910E949C2CC60FD71FE81FF91FD3
:1059F000D6010E949C2CE60FF71F9801BE01CF0133
:105A000011240F911F91CF91DF9108950E949C2C3A
:105A1000460F571FC81FD91F08F43196089597FBEA
:105A200057FF0C941F2D9F938F930E941F2D6E1B69
:105A30007F0BAF91BF918A0B9B0B0895E894DF9386
:105A4000CF93FC01DB010E949C2C7F936F93E901B3
:105A50009A01AC01BF93AF933F932F93DF010E9454
:105A60009C2C26F46C1B7D0B820B930B9E01EB018F
:105A7000FC010E94062DAF91BF912F913F910E9492
:105A8000062DBE01CF01F9012F913F91CF91DF91FA
:105A900008950F93083090F0982F872F762F652F59
:105AA000542F432F322F22270850F4CF220F331FB9
:105AB000441F551F661F771F881F991F0A95B2F74D
:105AC0000F91089597FB10F8169400080F93083073
:105AD00098F00850232F342F452F562F672F782FFB
