:100000000C94F3000C941B010C941B010C94080736
:100010000C9408070C9408070C941B010C941B010A
:100020000C941B010C941B010C941B010C94A7272E
:100030000C941B010C941B010C941B010C941B01D0
:100040000C94E9270C941B010C94E92A0C941B2BAB
:100050000C941B010C941B010C941B010C941B01B0
:100060000C941B010C941B015D266D2673267926CA
:100070007F2685268B269E264626AB26B026B526CD
:10008000BA26BE26C426CA265126572600000008D6
:10009000000201000003040700000000000000004F
:1000A000010204081020408001020408102001020F
:1000B00004081020040404040404040402020202DC
:1000C00002020303030303030000000023002600D1
:1000D000290000000000250028002B00000000007F
:1000E000240027002A0000407A10F35A00A0724E24
:1000F00018090010A5D4E80000E87648170000E4CD
:100100000B54020000CA9A3B000000E1F505000014
:1001100080969800000040420F000000A086010079
:100120000000102700000000E80300000000640049
:10013000000000000A0000000000010000000000B4
:100140002C76D888DC674F0823DFC1DFAE59E1B1D8
:10015000B796E5E3E453C63AE651997696E8E6C2E7
:100160008426EB898C9B62ED407C6FFCEFBC9C9FEE
:1001700040F2BAA56FA5F490055A2AF75C936B6C10
:10018000F9676DC11BFCE0E40D47FEF520E6B50004
:10019000D0ED902E0300943577050080841E080072
:1001A00000204E0A000000C80C333333330F986E22
:1001B00012831141EF8D2114893BE65516CFFEE6DF
:1001C000DB18D1844B381BF77C1D901DA4BBE424A5
:1001D000203284725E228100C9F124ECA1E53D2722
:1001E00022054B2B4F0511241FBECFEFD8E0DEBFF9
:1001F000CDBF12E0A0E0B1E0E4EFF2E702C005906D
:100200000D92AA39B107D9F725E0AAE9B2E001C0F9
:100210001D92A53CB207E1F711E0C4EED1E004C0A5
:100220002297FE010E940333C03ED107C9F70E9406
:10023000922B0C946D390C9400008AE992E00C9496
:100240009A2DCF93DF93C6EFD3E0688181E06827D2
:100250008FED93E00E94852388818093D00386EC04
:1002600093E0DF91CF910C94A90C0F931F93E09131
:10027000DD03F091DE03EC38F105C4F021E030E05D
:10028000E0E5F0E0F093DE03E093DD0300EA10E048
:1002900040E550E068EE73E08FED93E00E94242388
:1002A00086EC93E01F910F910C94A90C3A96CF0124
:1002B0006AE070E00E94AC329B0127503109E2CF26
:1002C0008091F603882399F18091F9038A30B9F07F
:1002D0008AE08093F9038091D1039091D2039093A7
:1002E000F8038093F7038FED93E00E943E25809101
:1002F000F9038093CD0386EC93E00C94A90C8091D4
:10030000CE038093F9038091D3039091D40390930B
:10031000F8038093F7038FED93E00E947625809198
:10032000F9038093CD0386EC93E00C94A90C61E073
:100330008FED93E00E94852381E08093D00386ECCB
:1003400093E00C94A90C8091C803813029F061E0FE
:1003500086EC93E00C94AE0C60E086EC93E00C9499
:10036000AE0C8AEF93E00E949A2D80E094E00E9408
:100370009A2D86E094E00C9486078F929F92AF921C
:10038000BF92CF92DF92EF92FF9240E05BE460E099
:1003900070E086E094E00E94170841E050E062E0DF
:1003A00070E085E294E00E94F10880E691E090938D
:1003B00042048093410483EA91E090934604809341
:1003C000450485E391E0909348048093470481E2DB
:1003D00091E0909344048093430482E3C82ED12C8F
:1003E000E12CF12C98EE892E93E0992EA12CB12CC2
:1003F00082E00E947429892B71F548EE53E06CEB82
:1004000072E08FED93E00E940323C701B6010E94C2
:1004100067280E949927C501B4016C197D098E09CE
:100420009F090E94672882E3C80ED11CE11CF11CC1
:1004300086E2C81682E0D806E104F104C9F648EE67
:1004400053E06CED75E08FED93E00E94032386ECA2
:1004500093E00E94320D80E896EEA5ECB7E480931D
:10046000490490934A04A0934B04B0934C0482E354
:1004700093E00E94891885ED92E00E94F81586ECC1
:1004800093E0FF90EF90DF90CF90BF90AF909F9060
:100490008F900C94E40CCF92DF92EF92FF920F9327
:1004A0001F93CF93DF936C018B01FB0184819581B6
:1004B000892B71F1C0E0D0E0E12CF12CBE01C80124
:1004C0000E94542FFC018081E8262196F8012481A6
:1004D0003581C217D30790F368E171E0C6010E942D
:1004E000E52BB801C6010E94D72B6AE171E0C60175
:1004F0000E94E52B40E150E0B701C601DF91CF91AA
:100500001F910F91FF90EF90DF90CF900C94352DBD
:10051000E12CF12CE1CF8091A002882309F46CC07A
:100520006CE171E08AE992E00E943B2E6091E50265
:100530007091E6028091E7029091E8020E94E0301B
:1005400026E636E646E650E40E94E23120E030E05E
:1005500048EC52E40E944130AB01BC018AE992E0D0
:100560000E94222F6AE271E08AE992E00E949B2EAB
:100570006091430370914403809145039091460339
:1005800024E630E040E050E00E94E232BA01A901E6
:100590008AE992E00E94BE2E65E271E08AE992E06B
:1005A0000E949B2E8091CC02882321F08091C80369
:1005B000813081F160915103709152038091530316
:1005C000909154030E94E03020E030E048EC52E487
:1005D0000E944130AB01BC018AE992E00E94F02EFA
:1005E00067E271E08AE992E00E949B2E6AE972E07C
:1005F00083E295E00C944B026BE872E08AE992E0AA
:100600000E94F82D81E08093A0028DE191E00E948C
:100610008E2B86CF6091D1027091D2028091D3024D
:100620009091D402CFCFCF93DF9300D000D000D0F1
:10063000CDB7DEB76BE872E0CE0101960E94F82DCF
:100640006CE271E0CE0101960E943B2EBE016F5F0D
:100650007F4F86E094E00E944B026AE571E0CE0194
:1006600001960E943B2EBE016F5F7F4F86E094E0B3
:100670000E944B02CE0101960E949A2D26960FB63B
:10068000F894DEBF0FBECDBFDF91CF9108950895DE
:10069000CF93DF9300D000D000D0CDB7DEB7E0918C
:1006A0000604F09107040480F581E02D86E094E0D3
:1006B0000995181619068CF5E0910604F0910704C7
:1006C0000680F781E02D86E094E009958A3241F0BA
:1006D0008A3029F3682F8AEF93E00E94AB2EDFCF98
:1006E0006AE28AEF93E00E94AB2E6AEF73E0CE01DC
:1006F00001960E94322EBE016F5F7F4F86EC93E021
:100700000E94640DCE0101960E949A2D6BE872E062
:100710008AEF93E00E943B2EC2CF26960FB6F89444
:10072000DEBF0FBECDBFDF91CF9108950E94822F13
:10073000892F8095881F8827881F0895FF920F931F
:100740001F93CF93DF938091CC02882329F080916F
:10075000C803813009F457C082E393E00E94201956
:1007600080914703882319F10091360310913703D4
:10077000D0913803C0913903B0913A03A0913B0363
:10078000F0913C03F0903D0398014D2F5C2F6B2FAF
:100790007A2F8F2F9F2D203AE6E83E07E1E04E07A3
:1007A0005105610571058105910509F094F485ED08
:1007B00092E00E946E1680914803882321F0809178
:1007C000C8038130B9F0DF91CF911F910F91FF9055
:1007D00008950E94DA3020E030E44CE156E40E94B3
:1007E00041306093490470934A0480934B04909382
:1007F0004C04DDCF88EA92E0DF91CF911F910F91F9
:10080000FF900C94460A85ED92E00E946E16A4CFEC
:100810004F925F926F927F928F929F92AF92BF9210
:10082000CF92DF92EF92FF920F931F932B013C0127
:1008300049015A01C801B7010E94E2316B017C01F4
:10084000C301B2010E94E0302B013C01A5019401DB
:1008500060E070E080E89FE30E94D82F9B01AC012C
:10086000C301B2010E94E231A70196010E94D92F73
:100870000E94A9301F910F91FF90EF90DF90CF90D1
:10088000BF90AF909F908F907F906F905F904F90B0
:10089000089566E671E083E295E00E94E52B6091A1
:1008A000C6037091C7034AE050E083E295E00E94DE
:1008B000E92C6EE671E083E295E00E94E52B4AE0C8
:1008C00050E06091C80383E295E00E94162D64E732
:1008D00071E083E295E00E94E52B6091D00370E027
:1008E0004AE050E083E295E00E94E92C60E871E084
:1008F00083E295E00E94E52B6091D1037091D203D1
:100900004AE050E083E295E00E94E92C6DE771E057
:1009100083E295E00E94E52B6091D3037091D403AC
:100920004AE050E083E295E00E94E92C6AE871E039
:1009300083E295E00E94E52B4AE050E06091CE030F
:1009400083E295E00E94162D62E971E083E295E072
:100950000E94E52B4AE050E06091CD0383E295E0F0
:100960000E94162D6AE971E083E295E00E94E52B72
:100970006091C9037091CA034AE050E083E295E0B8
:100980000E94E92C68EA71E083E295E00E94E52B81
:100990006091CB037091CC034AE050E083E295E094
:1009A0000E94E92C66EB71E083E295E00E94E52B62
:1009B0006091D5037091D6034AE050E083E295E060
:1009C0000E94E92C60EC71E083E295E00E94E52B47
:1009D0006091DB037091DC034AE050E083E295E034
:1009E0000E94E92C6DEC71E083E295E00E94E52B1A
:1009F0006091DD037091DE034AE050E083E295E010
:100A00000E94E92C6BED71E083E295E00E94E52BFA
:100A10006091D7037091D8034AE050E083E295E0FB
:100A20000E94E92C6EEE71E083E295E00E94E52BD6
:100A30006091D9037091DA034AE050E083E295E0D7
:100A40000C94E92C85E294E00E94CA0820E048E07A
:100A500067E086E094E00E94E7076BE872E080E0E0
:100A600094E00E94F82D6BE872E08AEF93E00E9418
:100A7000F82D8FED93E00E94A31F86EC93E00E9477
:100A8000140C67E782E393E00E94851868E285ED25
:100A900092E00E94E91588EA92E00C943B0A0C94DB
:100AA000B10183E295E00E94A42918161906DCF42E
:100AB00083E295E00E94BD29843241F08A3089F3B7
:100AC000682F80E094E00E94AB2EEBCF60E074E0F2
:100AD00083E295E00E94FB2B68E171E080E094E006
:100AE0000E943B2EDECF08950F931F93CF93DF9389
:100AF00000D000D000D0CDB7DEB78091310388237D
:100B000009F44EC00E94480380913103882361F1AB
:100B10008091CC02882329F08091C803813009F4A8
:100B200083C040914D0350914E0360914F037091EB
:100B300050038FED93E00E9474210E949E030E9457
:100B400051050E94332800910A0110910B01209158
:100B50000C0130910D01601B710B820B930B653FF3
:100B600071408105910578F485E294E00E94FD08CA
:100B700026960FB6F894DEBF0FBECDBFDF91CF91A2
:100B80001F910F9108950E948B020E943328609359
:100B90000A0170930B0180930C0190930D01E4CF37
:100BA0000E943328613E7E428105910508F4AACF58
:100BB00086E094E00E94C00840E855E260E070E002
:100BC00086E094E00E9417086BE872E0CE0101967F
:100BD0000E94F82D61E072E0CE0101960E943B2E4A
:100BE000BE016F5F7F4F86E094E00E944B0240E0C1
:100BF0005BE460E070E086E094E00E9417080E94E9
:100C0000130326E040E05BE460E070E083E295E0FF
:100C10000E94872A81E0809331030E944904CE011B
:100C200001960E949A2D6ECF4091CD025091CE0236
:100C30006091CF027091D0028FED93E00E947421F9
:100C40007CCF2091CF043091D00428173907B9F414
:100C500090914D0480914E04981789F0E0914D04D5
:100C6000F0E0E15BFB4F808120914D0430E02F5F8D
:100C70003F4F2F77332720934D0490E008958FEF57
:100C80009FEF08951F93CF93DF93EC012C8D3D8D43
:100C90002115310509F438C0A989BA894889542F2A
:100CA00050951FB78E8D81FB772770F981FD609578
:100CB000F8948C91711115C085238C93C90101970B
:100CC000F1F788E008C0942B9C93F9013197F1F774
:100CD0006695815049F09C9160FDF5CF95239C93DA
:100CE000F4CF842B8C93EACF8C917723B9F08523B2
:100CF0008C931FBF8C8D9D8D0197F1F781E090E063
:100D0000DF91CF911F91089581E090E09B838A83CA
:100D100080E090E0DF91CF911F910895842B8C9318
:100D2000E8CF08952091CF043091D00428173907D7
:100D300081F490914D0480914E04981751F0E09108
:100D40004D04F0E0E15BFB4F8081992787FD909592
:100D500008958FEF9FEF08952091CF043091D00434
:100D60002817390719F080E090E0089520914E048B
:100D700080914D0430E020583F4F281B31092F77D8
:100D8000307837FD02C0C90108952150310920682B
:100D90003F6F2F5F3F4FF7CFDC015396ED91FC91F2
:100DA0005497208155968C91809582238083109250
:100DB000D0041092CF0481E00895CF93DF93EC012B
:100DC0008A8D9B8D892B01F18091CF049091D00465
:100DD0008C179D07C9F0009711F00E94CC068E8DEC
:100DE0008E7F8E8F10924E0410924D04D093D004BB
:100DF000C093CF04EB89FC8980819D89892B8083F6
:100E000081E0DF91CF91089580E0DF91CF91089547
:100E10001F920F920FB60F9211242F933F934F936F
:100E20005F936F937F938F939F93AF93BF93EF9352
:100E3000FF93E091CF04F091D004309709F449C0BA
:100E4000868DA685B78581FD55C08C9195858923B2
:100E500009F03FC0A389B4899C9185898095892335
:100E60008C93868997890197F1F7208D318DA6851E
:100E7000B785758558E060E0C9010197F1F7862FC5
:100E800090E095958795682F4C91472309F060680D
:100E9000515091F7868D81FD33C080914E0490E0D2
:100EA00001968F77992720914D04281759F1A09129
:100EB0004E04B0E0A15BBB4F6C9380934E04828DD7
:100EC000938D0197F1F7A389B4898C919589892B2A
:100ED0008C93FF91EF91BF91AF919F918F917F91F3
:100EE0006F915F914F913F912F910F900FBE0F9097
:100EF0001F9018958C919585892309F0ABCFE9CF88
:100F00006095CBCF868D8160868FD9CF23E132E08B
:100F1000FC01318320832091CF043091D0048217CB
:100F2000930709F008950C94CC061F93CF93DF9399
:100F3000EC01162F6E8D6695617081E06827812F18
:100F40000E943B2961E0812F0E94FD28812F90E0C3
:100F5000FC01E056FF4FE491E88BFC01EC54FF4F9D
:100F6000E491F0E0EE0FFF1FEE52FF4F8591949158
:100F70009A8B898BDF91CF911F9108951F93CF9307
:100F8000DF93EC01162F60E0812F0E94FD288E8DEB
:100F900081FD04C061E0812F0E943B291C87612FE5
:100FA00070E0FB01E056FF4FE491ED87FB01EC544C
:100FB000FF4FE491F0E0EE0FFF1FE853FF4F8591E4
:100FC00094919F878E87DF91CF911F910895FF9213
:100FD0000F931F93CF93DF93EC01F62E522F1B82BA
:100FE0001A8208EE13E020E030E00C831D832E838C
:100FF0003F8383E192E0998388831F8A1E8A198E3A
:10100000188E1B8E1A8E1D8E1C8E8E8D8E7F50FB21
:1010100081F98E8F642FCE010E9495076F2DCE012E
:10102000DF91CF911F910F91FF900C94BE07CF934A
:10103000DF93EC019A01AB011B8E1A8E198E188E6C
:101040001F8A1E8A60E874E88EE190E00E94E23216
:10105000C9012430310508F457C0B9016350710942
:101060007D8F6C8FEC85E63108F049C0B90176952B
:1010700067956431710508F04AC061E070E07F8BCC
:101080006E8B069708F047C081E090E0998F888FBB
:10109000C901880F991F820F931F96958795969582
:1010A00087958D309105D0F10C979B8F8A8F909109
:1010B0006800E830D8F121E0EE3008F45CC081E04F
:1010C00001C0880F2A95EAF7892B809368002C8548
:1010D000283098F12E3008F443C0263108F04DC076
:1010E0008CE690E09C8B8B8B2E5081E001C0880FAA
:1010F0002A95EAF78D8B8C8D9D8D0197F1F7CE01A6
:10110000DF91CF910C94DD0661E070E0A9CF6351CF
:1011100071097F8B6E8BC9010597B8CF81E090E094
:101120009B8F8A8F90916800E83028F684E0892BA5
:10113000809368002C85283068F68DE690E09C8BC3
:101140008B8B81E001C0880F2A95EAF78D8B8C8DFF
:101150009D8D0197F1F7CE01DF91CF910C94DD06C3
:101160008BE690E09C8B8B8B285081E001C0880F30
:101170002A95EAF7EBCF20E0A2CF80E090E0B2CF53
:101180002091CF043091D0048217930709F008957D
:101190000C94CC06FC0184E190E0948383838AEF75
:1011A00090E09683858388EE93E09087878380EA3A
:1011B0009FE09287818781E08387848715861686E2
:1011C00017864FEF5FEFBA01408B518B628B738BA9
:1011D000448B558B668B778B108E118E128E138EEF
:1011E0000895FC01862F6083718391E0452B09F4FB
:1011F00090E0928362E00C94FD288F929F92AF92D0
:10120000BF92CF92DF92EF92FF92CF93DF93EC01E8
:101210000E9433286B017C0188810E94742921E09F
:10122000019709F020E02B878A812817F1F19C852E
:10123000891709F4CAC0488959896A897B89C41AFF
:10124000D50AE60AF70A49855A85662757FD60954B
:10125000762FC416D506E606F70664F42C87DF91D0
:10126000CF91FF90EF90DF90CF90BF90AF909F9085
:101270008F9008958A8D8111F1CF81E0898F888FB9
:101280001E861D868A8F2C87EAA1FBA1309739F331
:1012900088819981DF91CF91FF90EF90DF90CF907F
:1012A000BF90AF909F908F9009943C85231739F1A0
:1012B00088899989AA89BB89B701A601481B590B5E
:1012C0006A0B7B0B8B819C81AA2797FDA095BA2F77
:1012D00084179507A607B70794F4888D81110FC06E
:1012E000CC8ADD8AEE8AFF8A8E858111B1C081E0C9
:1012F0008D87812C912C540180E090E00CC08C896A
:101300009D89AE89BF8946015701881A990AAA0AA0
:10131000BB0A80E090E04D815E81662757FD6095B5
:10132000762F84169506A606B7067CF04D854423D5
:1013300061F04E85411109C04F85442331F0823060
:10134000910519F01D8681E090E0231799F14889F5
:1013500059896A897B89C41AD50AE60AF70A4F8136
:101360005885662757FD6095762FC416D506E60684
:10137000F70604F149855A85662757FD6095762F53
:10138000C416D506E606F706ACF43A8D311112C044
:1013900081E0898F888F1E861D868A8F2C8783E047
:1013A00090E0039709F05BCFE8A1F9A1309709F02D
:1013B0006FCF55CF2C878130910509F052C0EC8D4D
:1013C000FD8D309709F064CF4ACF8C899D89AE8915
:1013D000BF89B701A601481B590B6A0B7B0BDB01C8
:1013E000CA014B815C81662757FD6095762F4817AF
:1013F00059076A077B07ECF4C88AD98AEA8AFB8A0C
:10140000188E198E31E03F871A8E1B8E4D815E81BA
:10141000662757FD6095762F84179507A607B707AF
:101420008CF48E8581110EC08D85882359F03E87FE
:101430000AC088899989AA89BB89C81AD90AEA0A7F
:10144000FB0A01CF1E861D86C12CD12C7601FBCE56
:101450001E861D861F86812C912C540182E090E00F
:101460005ACF8230910509F09CCFEE8DFF8D3097D9
:1014700009F00ECFF4CE40E050E068E472E4FC01E5
:1014800040A351A362A373A314A208952F923F9285
:101490004F925F926F927F928F929F92AF92BF9284
:1014A000CF92DF92EF92FF920F931F93CF93DF9330
:1014B000CDB7DEB72A970FB6F894DEBF0FBECDBF0B
:1014C0009A878987C090F402D090F502E090F602E6
:1014D000F090F70220E030E0A901C701B6010E94B8
:1014E000DE3118160CF089C120E034E640E455E402
:1014F000C701B6010E94E2312091D9023091DA028F
:101500004091DB025091DC020E94E23120914904BB
:1015100030914A0440914B0450914C040E94413058
:101520006B017C01E985FA85608B718B828B938BD3
:1015300060913F0370914003809141039091420379
:101540000E94E0302AE037ED43E25CE30E94E231A2
:101550004B015C016091DD037091DE03882777FD0C
:101560008095982F0E94E0309B01AC01C701B60125
:101570000E94E2312FE73AE64CE35CE30E94E2315D
:101580009B01AC01C501B4010E94D92F2B013C0184
:10159000CB01D301E985FA85848F958FA68FB78F0C
:1015A000C488D588E688F78820E030E0A901B60134
:1015B000C7010E943D30882309F415C1E985FA85E9
:1015C000208C318C028D138D9601A701B201C301CD
:1015D0000E94D82F2BE734E14EEA5DE30E94E2310E
:1015E0009601A7010E94D92F4B015C01E985FA857C
:1015F000648B758B868B978B9101A801B201C30117
:101600000E94D82F2DEC3CEC4CEC5DE30E94E231C3
:101610009101A8010E94D92FE985FA85608F718F09
:10162000828F938FA50194010E94D82F20EB38E57B
:101630004AE059E40E94E2312091490330914A0383
:1016400040914B0350914C030E944130E985FA854B
:10165000648375838683978320813181428153819E
:1016600029833A834B835C830E94D82F4B015C0112
:1016700020E030E0A9010E94DE3124013501181676
:101680000CF0B6C0E985FA8540865186628673867D
:1016900020E030E048EC52E4C301B2010E943D304A
:1016A000E985FA85C0A0D1A0E2A0F3A01816F4F550
:1016B00020E030E046E153E4C701B6010E94DE318C
:1016C00087FF34C020E030E04AE754E4C301B201B0
:1016D0000E94DE3187FF9BC0A701960160E070E0A9
:1016E00086E193E40E94D82F6D837E838F83988751
:1016F00020E030E048EC52E4C301B2010E94D82F50
:101700009B01AC016D817E818F8198850E94E231C1
:1017100020E030E041E654E40E9441309B01AC01FE
:10172000C701B6010E94D92F6B017C01E985FA85BA
:10173000C486D586E686F786A7019601C501B40161
:101740000E94E2312FE632E143E85AE30E94E2319F
:101750009B01AC0169817A818B819C810E94D92F88
:10176000E985FA8560837183828393830E94A9301F
:101770004B015C01E985FA8565A376A387A390A751
:1017800061A572A583A594A50E94E0307B018C0120
:1017900023E333E343E75FE3C501B4010E94080498
:1017A000E985FA8561A772A783A794A781E084A33E
:1017B000109248032A960FB6F894DEBF0FBECDBF35
:1017C000DF91CF911F910F91FF90EF90DF90CF901D
:1017D000BF90AF909F908F907F906F905F904F9051
:1017E0003F902F9008951201830162017301ECCEA6
:1017F00077FA709477F8709445CFC701B601905886
:1018000020E034E640E455E40E94E23175CE80E009
:1018100090E0A6E1B3E4E985FA8584879587A687F9
:10182000B7876C017D0188CF0895CF92DF92EF9248
:10183000FF920F931F93CF93DF9300D000D000D07F
:10184000CDB7DEB77B016AE271E0CE0101960E945E
:10185000F82DBE016F5F7F4FC7010E94822F6C0180
:10186000CE0101960E949A2D6AE171E0CE010196A7
:101870000E94F82DBE016F5F7F4FC7010E94822F2B
:101880008C01CE0101960E949A2DA6014F5F5F4FF9
:101890009801B701CE0101960E94862FCE010196D4
:1018A0000E94CC2F6B017C01CE0101960E949A2DE3
:1018B000C60126960FB6F894DEBF0FBECDBFDF91EE
:1018C000CF911F910F91FF90EF90DF90CF900895EF
:1018D000EF92FF920F931F93CF93DF93EC018B0155
:1018E0007C0189E1E80EF11CCE010E94BA36F801B4
:1018F00081938F012196CE15DF05B1F789E190E044
:10190000DF91CF911F910F91FF90EF900895EF928B
:10191000FF920F931F93CF93DF937B0129E1E20E98
:10192000F11CEB018C0101501109061B170B699189
:10193000C8018C0F9D1F0E94C236CE15DF05B9F776
:1019400089E190E0DF91CF911F910F91FF90EF908F
:101950000895BC0180E090E00C94870C0F931F93D6
:10196000CF93DF93EC016A836623D9F080E293E0A2
:101970009093F5038093F40308E210E023E030E055
:1019800044EB50E064EF71E08FED93E00E9424237C
:10199000BE0180E090E0DF91CF911F910F910C94F8
:1019A000870C80E991E09093F5038093F4030AE0BB
:1019B00010E024E030E040E550E068E572E08FEDB3
:1019C00093E00E942423E4CFAF92BF92CF92DF92A4
:1019D000EF92FF920F931F93CF93DF93EC01BC0123
:1019E00080E090E00E94680C6D897E89882777FDF1
:1019F0008095982F1F921F921F9228E72F934EE1F8
:101A0000A42EB12CC12CD12C14E6E12EF12C00E037
:101A100010E020E030E0A9010E94532D709358039C
:101A2000609357038A858093F6038F818093F9032F
:101A30000F900F900F900F908A3030F48D859E8517
:101A40009093F8038093F7036A81CE01DF91CF91E1
:101A50001F910F91FF90EF90DF90CF90BF90AF90CC
:101A60000C94AE0CFC0185E090E09183808312829F
:101A700081E082878CE89AE09487838784EF91E005
:101A80009687858729E020878AE081878AE090E031
:101A90009483838386E09FEF96838583278384E600
:101AA00090E0908B87872FE530E0328B218B148A72
:101AB000138A21E430E0368B258B908F878BBF0112
:101AC00080E090E00C94870C3F924F925F926F926F
:101AD0007F928F929F92AF92BF92CF92DF92EF92BE
:101AE000FF920F931F93CF93DF93CDB7DEB7669727
:101AF0000FB6F894DEBF0FBECDBF8C017B016FE146
:101B000072E0CE0101960E94F82DB701CE01079632
:101B10000E94322EBE016F5F7F4FCE0107960E945A
:101B20009603D82ECE0107960E949A2DCE010196DB
:101B30000E949A2DD110BBC066E272E0CE010196E0
:101B40000E94F82DB701CE0107960E94322EBE01E9
:101B50006F5F7F4FCE0107960E949603D82ECE016D
:101B600007960E949A2DCE0101960E949A2DD110BF
:101B70007EC06EE272E0CE0101960E94F82DB701A0
:101B8000CE0107960E94322EBE016F5F7F4FCE01BD
:101B900007960E949603D82ECE0107960E949A2D92
:101BA000CE0101960E949A2DD110A7C063E372E086
:101BB000CE0101960E94F82DB701CE0107960E9432
:101BC000322EBE016F5F7F4FCE0107960E949603B3
:101BD000D82ECE0107960E949A2DCE0101960E9422
:101BE0009A2DD11070C068E372E0CE0101960E9478
:101BF000F82DB701CE0107960E94322EBE016F5F0D
:101C00007F4FCE0107960E949603D82ECE010796ED
:101C10000E949A2DCE0101960E949A2DDD2009F492
:101C200083C0B701CE0101960E94322EBE016F5FC4
:101C30007F4FC8010E94150C7C01CE0101960E94C5
:101C40009A2DFEE5EF16F1E0FF060CF4E5C0C701A2
:101C500029EBE2162BE0F20614F088EB9BE0F8018A
:101C6000948783879093F8038093F70308C0C80193
:101C70000E94320DB80180E090E00E94870C6696C9
:101C80000FB6F894DEBF0FBECDBFDF91CF911F918D
:101C90000F91FF90EF90DF90CF90BF90AF909F900B
:101CA0008F907F906F905F904F903F900895B80114
:101CB00080E090E00E94870C63E070E08FED93E09D
:101CC0000E94FB25DCCFB701CE0101960E94322E87
:101CD000BE016F5F7F4FC8010E94150C7C01CE01D1
:101CE00001960E949A2D9701F7FC9DC03195219590
:101CF0003109F80136832583C2CFB701CE010196A1
:101D00000E94322EBE016F5F7F4FC8010E94150CEA
:101D10007C01CE0101960E949A2D9701F7FC7FC0AD
:101D2000F80134832383ABCF6DE372E0CE010196DB
:101D30000E94F82DB701CE0107960E94322EBE01F7
:101D40006F5F7F4FCE0107960E949603D82ECE017B
:101D500007960E949A2DCE0101960E949A2DDD20B1
:101D6000F9F0B701CE0101960E94322EBE016F5FDD
:101D70007F4FC8010E94150C7C01CE0101960E9484
:101D80009A2DF0E5EF16F1040CF498C0C7018D38D8
:101D9000910514F08CE890E0F801908F878B6FCF5D
:101DA00063E472E0CE0101960E94F82DB701CE01E6
:101DB00007960E94322EBE016F5F7F4FCE010796BD
:101DC0000E949603D82ECE0107960E949A2DCE012E
:101DD00001960E949A2DDD2051F16E01FDE0CF0E9B
:101DE000D11CB701C6010E94322EB601C8010E9463
:101DF000150C8E3591400CF098C06EE5E62EFF2450
:101E0000F394C6010E949A2DF801F686E586F092B9
:101E1000F803E092F70333CF8EE591E020CF3195C0
:101E2000219531097DCF3195219531095FCF69E445
:101E300072E0CE0101960E94F82DB701CE010796FF
:101E40000E94322EBE016F5F7F4FCE0107960E9427
:101E50009603D82ECE0107960E949A2DCE010196A8
:101E60000E949A2DDD2069F16E01FDE0CF0ED11C9C
:101E7000B701C6010E94322EB601C8010E94150C9E
:101E8000181619060CF0A0C0B701CE0107960E94E3
:101E9000322EBE01695F7F4FC8010E94150C0A9760
:101EA0000CF411C159E0F52ECE0107960E949A2D2F
:101EB000C6010E949A2DF801F086E1CE80E590E0FF
:101EC0006BCF6EE472E0CE0101960E94F82DB7014F
:101ED000CE0107960E94322EBE016F5F7F4FCE016A
:101EE00007960E949603D82ECE0107960E949A2D3F
:101EF000CE0101960E949A2DDD2079F16E01FDE060
:101F0000CF0ED11CB701C6010E94322EB601C80106
:101F10000E94150C09970CF0C1C039E0F32EC601E0
:101F20000E949A2DF801F186AACEB701CE0107963C
:101F30000E94322EBE01695F7F4FC8010E94150CBE
:101F4000893B9B400CF499C078EBE72E7BE0F72EA1
:101F5000CE0107960E949A2D54CF63E572E0CE0120
:101F600001960E94F82DB701CE0107960E94322EED
:101F7000BE016F5F7F4FCE0107960E949603D82E59
:101F8000CE0107960E949A2DCE0101960E949A2DAD
:101F9000DD20E9F06E01FDE0CF0ED11CB701C601D6
:101FA0000E94322EB601C8010E94150C863491059C
:101FB0000CF005C196E4E92EF12CC6010E949A2D81
:101FC000F801F08AE7865BCEFF24F39471CF68E5D1
:101FD00072E0CE0101960E94F82DB701CE0107965E
:101FE0000E94322EBE016F5F7F4FCE0107960E9486
:101FF0009603D82ECE0107960E949A2DCE01019607
:102000000E949A2DDD2009F46FC06E01FDE0CF0E15
:10201000D11CB701C6010E94322EB601C8010E9430
:10202000150C97FFB5C0E12CF12CC6010E949A2D2A
:10203000F801F68AE58AB701882777FD8095982F01
:102040001F921F921F9228E72F93AEE1AA2EB12C68
:10205000C12CD12C14E6E12EF12C00E010E020E0A0
:1020600030E0A9010E94532D7093580360935703E9
:102070000F900F900F900F9002CEB701CE010196F6
:102080000E94322EBE016F5F7F4FC8010E94150C67
:102090007C01CE0101960E949A2D5ACFB701CE0144
:1020A00007960E94322EBE01695F7F4FC8010E94D1
:1020B000150C0B970CF49DC04AE0F42ECE01079648
:1020C0000E949A2D2CCFB701CE0101960E94322E8C
:1020D000BE016F5F7F4FC8010E94150CF82ECE0124
:1020E00001960E949A2DE0CE6EE572E0CE01019637
:1020F0000E94F82DB701CE0107960E94322EBE0134
:102100006F5F7F4FCE0107960E949603D82ECE01B7
:1021100007960E949A2DCE0101960E949A2DD11009
:1021200065C064E672E0CE0101960E94F82DB70109
:10213000CE0107960E94322EBE016F5F7F4FCE0107
:1021400007960E949603D82ECE0107960E949A2DDC
:10215000CE0101960E949A2DDD2009F45BC06E012C
:10216000FDE0CF0ED11CB701C6010E94322EB60190
:10217000C8010E94150CC2970CF0FEC0E2E3EE2EDF
:10218000F12CC6010E949A2DF801F28AE18A77CDDE
:10219000B701CE0107960E94322EBE01695F7F4FC4
:1021A000C8010E94150C853691050CF4D4C084E654
:1021B000E82EF12CCE0107960E949A2D36CFB7015A
:1021C000CE0107960E94322EBE01695F7F4FC80183
:1021D0000E94150C833891050CF454C022E8E22EBD
:1021E000F12CCE0107960E949A2DE7CE0E9447035C
:1021F00046CDB701CE0101960E94322EBE016F5F1F
:102200007F4FC8010E94150CF82ECE0101960E9446
:102210009A2D54CF6AE672E0CE0101960E94F82D05
:10222000B701CE0107960E94322EBE016F5F7F4F2D
:10223000CE0107960E949603D82ECE0107960E94E3
:102240009A2DCE0101960E949A2DDD2061F16E013A
:10225000FDE0CF0ED11CB701C6010E94322EB6019F
:10226000C8010E94150C8C3E9F4F0CF057C16CEEBC
:10227000E62EFF24FA94C6010E949A2DF801F48AF2
:10228000E38AFDCCB701CE0101960E94322EBE0139
:102290006F5F7F4FC8010E94150C7C01CE01019633
:1022A0000E949A2D9ECF60E772E0CE0101960E94B7
:1022B000F82DB701CE0107960E94322EBE016F5F46
:1022C0007F4FCE0107960E949603D82ECE01079627
:1022D0000E949A2DCE0101960E949A2DD11063C0C2
:1022E00065E772E0CE0101960E94F82DB701CE019C
:1022F00007960E94322EBE016F5F7F4FCE01079678
:102300000E949603D82ECE0107960E949A2DCE01E8
:1023100001960E949A2DDD2009F4B1CCD090F903EA
:10232000F80181858093F903B701CE0101960E94DF
:10233000322EBE016F5F7F4FC8010E94150CBC0199
:102340008FED93E00E944026CE0101960E949A2DC7
:10235000D092F90394CCB701CE0101960E94322E9F
:10236000BE016F5F7F4FC8010E94150C7C01CE013A
:1023700001960E949A2D1ECFB701CE0107960E94AA
:10238000322EBE01695F7F4FC8010E94150C87394C
:1023900091050CF4D8C0F6E9EF2EF12CCE0107968A
:1023A0000E949A2DEECE3090F903F801818580933A
:1023B000F9036AE271E0CE0101960E94F82DBE0198
:1023C0006F5F7F4FC7010E94822F8C01CE01019663
:1023D0000E949A2D0F5F1F4F6AE271E0CE010196B5
:1023E0000E94F82DA801BE016F5F7F4FC7010E94B8
:1023F000662F6C01CE0101960E949A2D9601A801CC
:10240000B701CE0101960E94862FCE0101960E944F
:10241000CC2F2B013C01CE0101960E949A2DFFEF9B
:10242000CF1ADF0A6AE271E0CE0101960E94F82D10
:10243000A601BE016F5F7F4FC7010E94662F8C010E
:10244000CE0101960E949A2D9801A601B701CE01F6
:1024500001960E94862FCE0101960E94CC2F4B013F
:102460005C01CE0101960E949A2D0F5F1F4F6AE218
:1024700071E0CE0101960E94F82DA801BE016F5FA8
:102480007F4FC7010E94662F6C01CE0101960E940A
:102490009A2D9601A801B701CE0101960E94862FC0
:1024A000CE0101960E94CC2F6B8B7C8B8D8B9E8BEB
:1024B000CE0101960E949A2D86010F5F1F4F6AE19F
:1024C00071E0CE0101960E94F82DA801BE016F5F58
:1024D0007F4FC7010E94662F6C01CE0101960E94BA
:1024E0009A2D9601A801B701CE0101960E94862F70
:1024F000CE0101960E94CC2F6B017C01CE0101968A
:102500000E949A2D86012B893C89A401B2018FED8E
:1025100093E00E9424233092F903B1CBB701CE019E
:1025200007960E94322EBE01695F7F4FC8010E944C
:10253000150C4597CCF074E1E72EF12CCE010796EF
:102540000E949A2D98CEB701CE0101960E94322E9C
:10255000BE016F5F7F4FC8010E94150C7C01CE0148
:1025600001960E949A2D1ACFB701CE0101960E94C2
:10257000322EBE016F5F7F4FC8010E94150C7C0197
:10258000CE0101960E949A2DD9CF449A459AE9EB43
:10259000F0E080818E7F808380818D7F808380E2E8
:1025A0008093B80084E48093BC0008957093F50490
:1025B0006093F40408953091F8042091F604231BED
:1025C0002093F704332341F031503093F804FC0199
:1025D000E20FF11D838108951092F70480E00895C1
:1025E0008F929F92AF92BF92CF92DF92EF92FF9223
:1025F0000E9433286B017C0184EA8093BC00209107
:10260000F4043091F50403C021153105F9F48091EB
:10261000BC0087FFF9CF8091B900887F883079F1BD
:102620008091B900887F803151F18091B900887F15
:10263000883339F18091B900887FFF90EF90DF9067
:10264000CF90BF90AF909F908F9008950E943328B5
:102650006C197D098E099F092091F4043091F504CD
:102660004901A12CB12C681579058A059B0578F2E2
:102670001092BC0084E48093BC0081E0DECF80E057
:10268000DCCF8091B9001092BC0094E49093BC0020
:10269000887FD3CF8F929F92AF92BF92CF92DF92DB
:1026A000EF92FF92CF93C62F0E9433286B017C01DB
:1026B000CC23D1F184EC8093BC002091F4043091C0
:1026C000F50403C021153105B1F48091BC0087FFEA
:1026D000F9CF8091B900887F883351F18091B9009A
:1026E000887FCF91FF90EF90DF90CF90BF90AF9019
:1026F0009F908F9008950E9433286C197D098E0950
:102700009F092091F4043091F5044901A12CB12CCA
:10271000681579058A059B05C0F21092BC0084E417
:102720008093BC0081E0DDCF84E88093BC00C5CFFE
:102730008091B9001092BC0094E49093BC00887F13
:10274000D0CF8F929F92AF92BF92CF92DF92EF92B3
:10275000FF920E9433286B017C0184E98093BC00C6
:102760002091F4043091F50403C02115310571F472
:102770008091BC0084FDF9CF80E0FF90EF90DF9066
:10278000CF90BF90AF909F908F9008950E94332874
:102790006C197D098E099F092091F4043091F5048C
:1027A0004901A12CB12C681579058A059B0500F318
:1027B0001092BC0084E48093BC0081E0DECF8F9255
:1027C0009F92AF92BF92CF92DF92EF92FF921F93B0
:1027D000CF93DF93EC016093BB000E9433286B0121
:1027E0007C0184E88093BC002091F4043091F504CE
:1027F00003C02115310569F58091BC0087FFF9CF31
:102800008091B900887F8831E9F18091B900887F93
:102810008034C1F11091B900187F8091B900887F90
:10282000803291F18091B900887F883469F11092EB
:10283000BC0084E48093BC00812FDF91CF911F9175
:10284000FF90EF90DF90CF90BF90AF909F908F90D0
:1028500008950E9433286C197D098E099F092091E3
:10286000F4043091F5044901A12CB12C68157905C7
:102870008A059B0508F21092BC0084E48093BC009A
:1028800081E0DBCF80E0D9CFCE010E94A113D4CF6D
:10289000CF92DF92EF92FF920F931F93CF93DF932C
:1028A0001F92CDB7DEB76C01E42E1092F80410929F
:1028B000F704FC01118269830E94F012F601818302
:1028C0006981882351F00F90DF91CF911F910F9173
:1028D000FF90EF90DF90CF900895660F6F5FC60175
:1028E0000E94DF13F6018183811130C0EE2099F13F
:1028F0008FEF8E0DF601828386010D5F1F4FF12C45
:1029000018C061E0C6010E944A13F601818381303C
:1029100079F18035C1F68091BB00F80181938F0178
:10292000F394F092F804F092F604FE14A1F0F6018C
:1029300082818F11E6CF60E0C6010E944A13F60142
:1029400081838130A9F0883531F3BDCF813009F022
:10295000BACF85E0B8CFC6010E94A113F6018183EA
:10296000882309F4B0CF813009F0ADCF87E0ABCF39
:1029700086E0A9CF8F929F92AF92BF92CF92DF92C3
:10298000EF92FF921F93CF93DF93EC016093BB0014
:102990000E9433286B017C0184E88093BC00209165
:1029A000F4043091F50403C02115310519F5809127
:1029B000BC0087FFF9CF8091B900887F883299F1F8
:1029C0001091B900187F9091B900987F903369F108
:1029D0001092BC0084E48093BC00812FDF91CF91E2
:1029E0001F91FF90EF90DF90CF90BF90AF909F909E
:1029F0008F9008950E9433286C197D098E099F09D4
:102A00002091F4043091F5044901A12CB12C6815F2
:102A100079058A059B0558F21092BC0084E48093E6
:102A2000BC0081E0DBCF80E0D9CFCE010E94A113B2
:102A3000812FD4CF0F931F93CF93DF93EC01162FE9
:102A4000042F19820E94F0128983882329F0DF91D4
:102A5000CF911F910F910895612F660FCE010E94B3
:102A6000DF138983882341F0813089F782E0DF9189
:102A7000CF911F910F910895602FCE010E94BA143B
:102A80008983882321F0813011F783E0E0CFCE01E4
:102A90000E94A1138983882321F08130C1F687E049
:102AA000D6CF80E0D4CFEF92FF920F931F93CF93B6
:102AB000DF93EC01162F042FF22E1092F8041092DF
:102AC000F704222389F08FEF820F8A831982CE01C7
:102AD0000E94F0128983882391F0DF91CF911F919A
:102AE0000F91FF90EF90089580E0FF24F3948A8384
:102AF0001982CE010E94F01289838111EECF110F4D
:102B0000612FCE010E94DF138983882351F0813029
:102B100021F782E0DF91CF911F910F91FF90EF900D
:102B20000895602FCE010E94BA148983882321F072
:102B3000813099F683E0D1CFCE010E94F0128983D3
:102B4000882321F0813049F684E0C7CF61E0610F2E
:102B5000CE010E94DF138983882329F0813009F098
:102B6000BCCF85E0BACF8E010D5F1F4FE12C16C0A0
:102B700061E0CE010E944A138983813041F18035A2
:102B800009F0ABCF8091BB00F80181938F01E394F2
:102B9000E092F804E092F604EF1469F08A818E1155
:102BA000E7CF60E0CE010E944A138983813079F03B
:102BB000883541F392CFCE010E94A11389838823E7
:102BC00009F48BCF813009F088CF87E086CF86E08B
:102BD00084CFFC0163A740E050E060E87FE343A3BB
:102BE00054A365A376A317A210A611A612A6089552
:102BF000CF93DF93EC011DA61C8A198E81E08A8F8A
:102C0000FE01E85AFF4F80E89CE0A0E0B0E080833E
:102C10009183A283B38381ED94E00E94C51260E5A5
:102C200070E081ED94E00E94D61244E06BA581ED46
:102C300094E00E9448148CA781ED94E00E94DB127E
:102C400088AF81ED94E00E94DB1289AF81ED94E0C2
:102C50000E94DB128AAF81ED94E00E94DB128BAF01
:102C600098AD907C59F080E090E0A6E9B3E48C83C5
:102C70009D83AE83BF83DF91CF9108956AAD70E0ED
:102C8000762F6627680F711D882777FD8095982F0E
:102C9000607E8827992725E0959587957795679594
:102CA0002A95D1F7FE01E05CFF4F60837183828338
:102CB00093830E94E03023E039E148EC5DE30E9419
:102CC000E23120E030E04FE553E40E94D92F6C83DD
:102CD0007D838E839F83DF91CF9108954F925F9282
:102CE0006F927F928F929F92AF92BF92CF92DF921C
:102CF000EF92FF920F931F93CF93DF93EC0142E08B
:102D00006BA581ED94E00E9448148CA7882309F4F8
:102D10005EC00E943328FE01EC5AFF4F608371832E
:102D20008283938334960081118122813381061737
:102D3000170728073907D0F5DC01CB018C599F4FC5
:102D4000AF4FBF4F80839183A283B383CCA8DDA80C
:102D5000EEA8FFA820E030E046E953E4C701B60141
:102D60000E94DE3118160CF493C0188A198A1A8A48
:102D70001B8A1C861D861E861F8681E08C8B8A8D91
:102D80008823A1F08E010C5B1F4F288139814A8175
:102D90005B81F80160817181828193810E94D92FCA
:102DA000F80160837183828393831A8EDF91CF91C0
:102DB0001F910F91FF90EF90DF90CF90BF90AF9059
:102DC0009F908F907F906F905F904F90089581EDCE
:102DD00094E00E94DB1288AF81ED94E00E94DB1248
:102DE00089AF98AD292F207C09F093CFC92ED12C23
:102DF000DC2CCC24C80ED11C00E2D01AEE24D7FC67
:102E0000E094FE2CCCAEDDAEEEAEFFAE8DA5811112
:102E100062C08EA59FA501969FA78EA7811511E080
:102E2000910709F42AC1803891050CF0FBC0C880D5
:102E3000D980EA80FB8020E030E0A901C701B6011B
:102E40000E94DE3118160CF0FAC0C701B6012C81C1
:102E50003D814E815F810E94E23120914904309191
:102E60004A0440914B0450914C040E9441300E940E
:102E7000493226E636E949E155E40E94E2316887A5
:102E800079878A879B876CAB7DAB8EAB9FAB41CF3D
:102E9000688979898A899B890E94E0304B015C01AD
:102EA000C701B6010E94A930850174012DEC3CECEC
:102EB0004CE45FE30E940804688B798B8A8B9B8BC0
:102EC0006CA97DA98EA99FA90E94A9306C877D87D6
:102ED0008E879F8752CFFE01EC5BFF4F4080518071
:102EE00062807380C701B6010E94E030A3019201A5
:102EF0000E94D82F4B015C01FE01E85BFF4F60830D
:102F000071838283938340910D0504E04002F001B8
:102F10001124E350FB4F80819181A281B3819701FD
:102F20008601081B190B2A0B3B0BC901B801009144
:102F3000F9041091FA042091FB043091FC04600F15
:102F4000711F821F931F6093F9047093FA0480939A
:102F5000FB049093FC04C082D182E282F3824F5F33
:102F600044300CF05CC040930D050E94E03020E03E
:102F700030E040E85EE30E94E231A30192010E944A
:102F8000D82F6F8F78A389A39AA3C880D980EA80AD
:102F9000FB80A7019601C501B4010E94D82F4B0107
:102FA0005C0120E030E0A9010E94DE3124013501FE
:102FB00018160CF07DC0FE01E45BFF4F4082518289
:102FC0006282738220E030E040E251E4C301B2014A
:102FD0000E943D301816BCF18FE692E1A3E8BAE3F7
:102FE000FE01E05BFF4F80839183A283B3837FE682
:102FF00062E183E89AE3272F362FAC01C501B401C3
:103000000E94E2319B01AC01C701B6010E94D92F99
:103010006B017C01688379838A839B830CCF109238
:103020000D05A3CF88A999A9AAA9BBA98C0D9D1D9F
:10303000AE1DBF1D88AB99ABAAABBBABF8CEC70129
:10304000B601905804CF20E030E048EC52E4C301D0
:10305000B2010E94DE3187FD30C08AE097EDA3E225
:10306000BCE3FE01E05BFF4F80839183A283B383C7
:103070007AE067ED83E29CE3BECF8E010C5B1F4FCD
:1030800068A979A98AA99BA90E94E03020E030E0D4
:1030900040E05CE30E94E231F80160837183828347
:1030A000938381E08DA7C880D980EA80FB80C3CE5E
:1030B00077FA709477F870947ECF20E030E040E2A9
:1030C00051E4C301B2010E94D82F2CEB34E743E155
:1030D0005CE30E94E23120E030E044EB52E40E94E5
:1030E00041302FE632E143E85AE30E94D92F362FD0
:1030F000272F462F572FBC01FE01E05BFF4F408377
:10310000518362837383B90176CFFC0167A714866C
:1031100008958F929F92AF92BF92CF92DF92EF92DB
:10312000FF920F931F93CF93DF93EC011F921F9297
:103130001F9288E78F939EE1A92EB12CC12CD12C30
:1031400014E6E12EF12C00E010E020E030E0A901CF
:1031500062E370E080E090E00E94532D7EA36DA3B7
:103160001D8A1BA280E090E4ACE9B6E48F8B988FB7
:10317000A98FBA8F81ED94E00E94C51260E570E0DE
:1031800081ED94E00E94D6124EE16FA581ED94E0AE
:103190000E941A158EAF1FAE0F900F900F900F90D8
:1031A000882379F081E08FAFDF91CF911F910F914C
:1031B000FF90EF90DF90CF90BF90AF909F908F9057
:1031C000089564E670E080E090E00E9467288E0138
:1031D00082EAB82E7E0182E4E80EF11C6E01E0E482
:1031E000CE0ED11CAA24A39408C0AFAEB394B3945E
:1031F0000E5F1F4FFEEABF16B9F222E04B2D6FA5FE
:1032000081ED94E00E9453158EAF8111EECF81EDD8
:1032100094E00E94DB1290E0F7019183808381EDBE
:1032200094E00E94DB1290E0F60191838083F70125
:103230009080812C88299929F80193AB82ABD6CF55
:103240002F923F924F925F926F927F928F929F92B6
:10325000AF92BF92CF92DF92EF92FF920F931F93A4
:10326000CF93DF93CDB7DEB76A970FB6F894DEBF82
:103270000FBECDBF9A8F898FDC011C968C91813057
:1032800009F48FC3823009F45CC4882351F16A9633
:103290000FB6F894DEBF0FBECDBFDF91CF911F9167
:1032A0000F91FF90EF90DF90CF90BF90AF909F90E5
:1032B0008F907F906F905F904F903F902F900895E8
:1032C00023E040E0A98DBA8D9F966C9181ED94E04A
:1032D0000E945315882309F44BC5A98DBA8D1C96FD
:1032E0001C9248E4A98DBA8D9F966C9181ED94E073
:1032F0000E941A15E98DFA8DEC57FF4FFC8BEB8B72
:10330000098D1A8D00581F4FF80180819181A2818B
:10331000B381EB89FC8980839183A283B3830E946C
:103320003F28D8016D937D938D939C931397DC0177
:10333000CB01B695A79597958795E98DFA8D87A3CB
:1033400090A7A1A7B2A781E08487EC5BFF4FFA8327
:10335000E98311E080819181A281B3811816190659
:103360001A061B060CF01BC40E943328693E7340EA
:103370008105910508F48BCF112309F488CF498D7D
:103380005A8D445B5F4FDA014D905D906D907C905B
:10339000A98DBA8DA85BBF4F41145104610471041B
:1033A00009F4F8C28D919D910D90BC91A02D480E0D
:1033B000591E6A1E7B1E77FC41C47594679457940E
:1033C0004794298D3A8D205B3F4FF901408251820D
:1033D00062827382FA0180839183A283B383A98D71
:1033E000BA8DDA968D919C91DB97A0E0B0E0BA2F70
:1033F000A92F982F8827481A590A6A0A7B0AD301ED
:10340000C201BB0F880B982FDC01E98DFA8DEC5AB5
:10341000FF4F4082518262827382848385838683D8
:103420008783E98DFA8D24AD35AD40E050E0C301CE
:10343000B2010E947A3307E10E94CD332053384F06
:103440004F4F5F4F6F4F7F4F8F4F9F4F0E94DA302C
:103450000E94A930E98DFA8DE45AFF4F6083718391
:1034600082839383A98DBA8D6D937D938D939C9365
:103470001397D896ED91FC91D997D4968D909C9006
:10348000D597940140E050E060E070E080E090E08B
:1034900000E10E94B43379011A014B018D839987B1
:1034A0009F0140E050E0C301B2010E947A3307E07F
:1034B0000E94CD3359016A01F62FE72F8C01970145
:1034C000A101B4018D819985EF2EFE2E0E94EB3370
:1034D0002D83832E942E5987698B7D871C01E98D5E
:1034E000FA8DE05AFF4F20833183428353836483F4
:1034F000758386833782A98DBA8DD696ED91FC911E
:10350000D797D2962D913C91D39740E050E060E060
:1035100070E080E090E00FE00E94B433B22EC32E42
:10352000D42EE52EF62E7D8B8F8B988F9F0140E059
:1035300050E0C301B2010E947A3308E00E94CD330B
:10354000A22E732EB42FA52F662E572E8C012B2D55
:103550003C2D4D2D5E2D6F2D7D898F89988DB72C3B
:10356000CB2EDA2EE62CF52C0E94EB33E98DFA8D6A
:10357000E859FF4F208331834283538364837583EB
:1035800086839783E981FA81E080F180028113814B
:1035900027013801770C4408542C32015701680187
:1035A000E42CF42C042D142D0E94213305E10E94FB
:1035B000CD33AD80B82CC92CD984E988FD84810134
:1035C0000E94F43349013A01B62FA72FF82FE92FB3
:1035D00006E00E94B43354016301EB2EFA2E0F2F44
:1035E0001E2F0E94F43301E00E94B4330F2F0E947B
:1035F000F43349013A01B62FA72FF82FE92F02E043
:103600000E94B43359016A017B018C019401A3012A
:103610006B2F7A2F8F2F9E2F0E94EB3304E00E9496
:10362000B4330FE00E94CD3359016A017B018C0154
:10363000A98DBA8D14962C9314971596BC92159754
:1036400016964C9316971796DC92179718966C93CC
:1036500018971996FC9219971A968C931A971B969D
:103660001C9320353143464E584361057105810551
:10367000910509F00CF42AC220ED37EF44E65CE333
:1036800060E070E080E090E00E94F4330E94DA3065
:1036900025EF3FE94EEA5DE30E94E2310E94A93046
:1036A000E98DFA8D658776878787908B69837A8322
:1036B0008B839C83298C3A8CB0E72B0E311CF10153
:1036C0004080518062807380AB89BC892D913D918F
:1036D0004D915C912D833E834F8358874114510453
:1036E0006104710409F4BEC1E98DFA8DEC58FF4FF5
:1036F000FE8BED8BC080D180E280F380098D1A8D26
:1037000008581F4FD8018D909D90AD90BC90E98DC9
:10371000FA8DE857FF4FFA8BE98B20813181428186
:10372000538129873A874B875C8769817A818B81AE
:103730009C81681979098A099B090E94E0302DEC67
:103740003CEC4CEC5DE30E94E2316D877E878F8715
:10375000988BC501B4010E94E0309B01AC016D85DE
:103760007E858F8598890E94D92F0E94A9306D8708
:103770007E878F87988B69817A818B819C816C1978
:103780007D098E099F090E94E0302BE734E14EEA63
:103790005DE30E94E2314B015C01C701B6010E946A
:1037A000E0309B01AC01C501B4010E94D92F0E94F9
:1037B000A9306B017C016D857E858F8598896C1998
:1037C0007D098E099F090E94E0302BE735E141EB2E
:1037D00055E40E94E2314B015C0169817A818B8161
:1037E0009C8164197509860997090E94E0302AE0D6
:1037F00037ED43E25DE30E94E23169837A838B8394
:103800009C83C301B2010E94E0309B01AC0169813D
:103810007A818B819C810E94D92F0E94A930D1018D
:103820006C9311967C93119712968C931297139622
:103830009C9381E0E98DFA8D868BAD89BE89CD920E
:10384000DD92ED92FC9213972D853E854F85588928
:10385000D8012D933D934D935C9313972D813E8119
:103860004F81588589859A85AB85BC8582179307DA
:10387000A407B50708F4C3C06789708D818D928D48
:103880009B01AC01C501B4010E9441304B015C01B8
:10389000E98DFA8DE457FF4F6083718382839383B0
:1038A000098D1A8D00571F4FF801C080D180E2802A
:1038B000F380A98DBA8D95968D919C919697BC01B8
:1038C000882777FD8095982F0E94E0302B013C01DE
:1038D000A7019601C501B4010E94D82F9B01AC013C
:1038E000C301B2010E94E2312FE632E143E85AE31C
:1038F0000E94E2319B01AC01C701B6010E94D92FA1
:10390000F80160837183828393830E94A9304B0105
:103910005C01A98DBA8D5B966D937D938D939C937D
:103920005E975F966D917D918D919C9192970E948B
:10393000E0307B018C0123E333E343E75FE3C50120
:10394000B4010E940804E98DFA8D678F70A381A3EA
:1039500092A311E013A3D1016D917D918D919C9162
:1039600024E630E040E050E00E94E232E98DFA8D3A
:10397000218B328B438B548B158BEB89FC89808197
:103980009181A281B381E989FA8980839183A2839D
:10399000B3837DCC4D905D906D907C90D301C2013E
:1039A00006CD0E943F289695879577956795E98D76
:1039B000FA8DE458FF4F6083718382839383A98DCE
:1039C000BA8D97960D911D912D913C919A97601704
:1039D00071078207930728F490686083718382835C
:1039E00093830C561E4E2F4F3F4FE98DFA8D0617CD
:1039F00017072807390708F427C1848546CCA98D05
:103A0000BA8D5796CD90DD90ED90FC905A976D81D0
:103A10007E818F81988529853A854B855C85621BDF
:103A2000730B840B950B0E94DE30A70196010E9458
:103A3000D82F2DEC3CEC4CEC5DE30E94E2319B0175
:103A4000AC01C701B6010E94D92F9B01AB01BC019B
:103A5000A98DBA8D57964D935D936D937C935A972C
:103A6000B9010ECF20523E444109510929873A87B6
:103A70004B875C87E98DFA8DE857FF4FFA8BE98B0E
:103A8000208331834283538369817A818B819C8136
:103A90000E94E03020E030E0A9010E94D92F0E946E
:103AA000A9306B017C01C701CD86DE86EF86F88ADE
:103AB000812C912C5401E98DFA8DEC58FF4FFE8B2F
:103AC000ED8B098D1A8D08581F4FA9CE9501A601BF
:103AD000B701C80120343D4F414955436105710587
:103AE0008105910509F00CF45CC020E531E346EE58
:103AF00058E360E070E080E090E00E94F4330E94C0
:103B0000DA3027E239E547EB5DE30E94E23120E855
:103B100036E948E95AE40E94D92F0E94A930A98DBC
:103B2000BA8D1D966C931D971E967C931E971F96BB
:103B30008C931F9750969C9369837A838B839C8385
:103B4000B9CD0E943F289695879577956795E98D21
:103B5000FA8DE458FF4F6083718382839383A98D2C
:103B6000BA8D97960D911D912D913C919A97601762
:103B700071078207930728F49068608371838283BA
:103B800093830C561E4E2F4F3F4F061717072807DB
:103B9000390708F495CBE98DFA8D848576CB10E052
:103BA000E3CB9501A601B701C8012036314A4C4646
:103BB00052436105710581059105D1F0CCF020E4F7
:103BC0003DEF41E955E360E070E080E090E00E9465
:103BD000F4330E94DA302CE433E042EC5DE30E94DF
:103BE000E23120E836E948E15BE40E94D92F56CD66
:103BF0009501A601B701C801203A3E4642465F4200
:103C0000610571058105910509F00CF44BC020E6B2
:103C100031EA4CE652E360E070E080E090E00E9420
:103C2000F4330E94DA3029EC38EC48EC5DE30E9472
:103C3000E23120EC31EE44E65BE46DCFEFEF4E1A5B
:103C40005E0A6E0A7E0AB9CB13A614A615A616A69E
:103C500023E040E067A581ED94E00E94531588239E
:103C600009F446C0E98DFA8DEC5BFF4F108211829A
:103C70001282138248E5A98DBA8D9F966C9181EDD1
:103C800094E00E941A150E943F2896958795779593
:103C90006795E98DFA8D67A370A781A792A782E047
:103CA0008487F5CA9501A601B701C801203E3D42AF
:103CB00044485C42610571058105910509F00CF4E9
:103CC00097C020EA3EE642E65FE260E070E080E016
:103CD00090E00E94F4330E94DA3024E23DEC44ED9F
:103CE0005DE30E94E23120E836E948E95BE47DCFFC
:103CF00081ED94E00E94DB1290E0A0E0B0E0BA2FEA
:103D0000A92F982F8827E98DFA8D83A794A7A5A7B7
:103D1000B6A781ED94E00E94DB12A98DBA8D9B9627
:103D20004D915D916D917C919E97482B762F652FDB
:103D3000542F4427FD0143A754A765A776A781ED1B
:103D400094E00E94DB12A98DBA8D9B964D915D91F6
:103D50006D917C919E97482BFD0143A754A765A7C1
:103D600076A7EC5BFF4F408351836283738382CFDE
:103D700081ED94E00E94DB1290E0A0E0B0E0BA2F69
:103D8000A92F982F8827E98DFA8D83A794A7A5A737
:103D9000B6A781ED94E00E94DB12A98DBA8D9B96A7
:103DA0004D915D916D917C919E97482B762F652F5B
:103DB000542F4427FD0143A754A765A776A781ED9B
:103DC00094E00E94DB12A98DBA8D9B964D915D9176
:103DD0006D917C919E97482BFD0143A754A765A741
:103DE00076A7E85BFF4F408351836283738375CA74
:103DF0009501A601B701C80121153E434A4C59421D
:103E00006105710581059105C1F0BCF020EE3DE230
:103E100044E85CE260E070E080E090E00E94F4330F
:103E20000E94DA3023EC3FED4FED5DE30E94E2317A
:103E300020E23CEB4EEB5BE46ECE9501A601B701B0
:103E4000C801203836464343574261057105810554
:103E50009105C1F0BCF020E03EE34AEC59E260E09D
:103E600070E080E090E00E94F4330E94DA3029E3B1
:103E70003AEB4BEE5DE30E94E23120EC31EE44EE92
:103E80005BE4B3CE9501A601B701C801203D3744DC
:103E90004E4B54426105710581059105C1F0BCF09E
:103EA00020E836E643E357E260E070E080E090E02F
:103EB0000E94F4330E94DA3023EE3CE548EF5DE3E4
:103EC0000E94E23120EB33E845E05CE424CE95012A
:103ED000A601B701C80120353B454946524261055C
:103EE000710581059105C1F0BCF020ED37E44EEB82
:103EF00054E260E070E080E090E00E94F4330E94C1
:103F0000DA302DE131EE42E05EE30E94E23120E85A
:103F100036E948E15CE469CE20E53BE549E652E25A
:103F200060E070E080E090E00E94F4330E94DA30BC
:103F300020E734E14AE05EE30E94E23120E539EA1D
:103F40004BE25CE4E8CDFC0186E9868784EF91E0F2
:103F5000908B878788E2818B88E7828B2AE0238B8E
:103F600082E3848B80E991E0968B858B81E0878B5F
:103F7000228F8CE89AE0918F808F08954F925F9204
:103F80006F927F928F929F92AF92BF92CF92DF9269
:103F9000EF92FF920F931F93CF93DF93CDB7DEB7CE
:103FA0002C970FB6F894DEBF0FBECDBF4C012A018F
:103FB0003B016091D5037091D603882777FD8095EA
:103FC000982F0E94E03020E030E048EC52E40E945C
:103FD00041306D837E838F839887D40155968D9170
:103FE0009C9156979C01442737FD4095542F298377
:103FF0003A834B835C8342165306640675060CF4C1
:104000005CC0F4018289618970E0680F711D8827A6
:1040100077FD8095982F0E94E0302D813E814F8161
:1040200058850E94E2310E94A9305B016C01D401E5
:1040300054968C91549753964C9150E0480F511DD3
:10404000662757FD6095762F7F936F935F934F930D
:1040500010E2E12E13E0F12E00E010E029813A8118
:104060004B815C81C301B2010E94532DF40144894C
:10407000238930E0240F311DCB010F900F900F905A
:104080000F9062177307BCF02C960FB6F894DEBF42
:104090000FBECDBFDF91CF911F910F91FF90EF9099
:1040A000DF90CF90BF90AF909F908F907F906F9058
:1040B0005F904F900895C901E7CF1E968C911E978F
:1040C0001F966D917C915097680F711D882777FD21
:1040D0008095982F0E94E0302D813E814F81588538
:1040E0000E94E2310E94A9305B016C018091C903FA
:1040F0009091CA039C01442737FD4095542F29878E
:104100003A874B875C87D40152968C91529751968F
:104110006C9170E0680F711D882777FD8095982F4E
:104120000E94E0302D813E814F8158850E94E2310E
:104130000E94A9309F938F937F936F93E980FA80B9
:104140000B811C8129853A854B855C85C301B201B1
:104150000E94532D0F900F900F900F90CB0194CF92
:104160004F925F926F927F928F929F92AF92BF9287
:10417000CF92DF92EF92FF920F931F93CF93DF9333
:10418000CDB7DEB728970FB6F894DEBF0FBECDBF10
:104190004C012A013B016091D5037091D603882719
:1041A00077FD8095982F0E94E03020E030E048ECC9
:1041B00052E40E9441309B01AC01D40155968D918F
:1041C0009C9156977C010027F7FC0095102FE982FF
:1041D000FA820B831C834E145F04600671060CF494
:1041E0004EC0F401628970E080E090E02D833E8350
:1041F0004F8358870E94E0302D813E814F81588542
:104200000E94E2310E94A930D40154962C911F9251
:104210001F921F922F935B016C0110E2E12E13E0BD
:10422000F12E00E010E029813A814B815C81C301CD
:10423000B2010E94532DF401248930E0CB010F908C
:104240000F900F900F9062177307BCF028960FB66F
:10425000F894DEBF0FBECDBFDF91CF911F910F91BC
:10426000FF90EF90DF90CF90BF90AF909F908F9096
:104270007F906F905F904F900895C901E7CF1F9690
:104280006D917C915097882777FD8095982F2D838D
:104290003E834F8358870E94E0302D813E814F81BD
:1042A00058850E94E2310E94A9302091C9033091C3
:1042B000CA03442737FD4095542FD4015296EC9100
:1042C0001F921F921F92EF935B016C01E980FA80AD
:1042D0000B811C81C301B2010E94532D0F900F90DE
:1042E0000F900F90CB01B2CF4F925F926F927F925F
:1042F0008F929F92AF92BF92CF92DF92EF92FF92F6
:104300000F931F93CF93DF9300D000D0CDB7DEB7CC
:104310004C012A013B010E943328D4016D937D9307
:104320008D939C93139716960D911D912D913C9111
:1043300019976B017C01C01AD10AE20AF30A1A9696
:104340000D911D912D913C911D970C151D052E056C
:104350003F0508F0E3C0F4012789222309F495C042
:1043600066837783808791874091C9035091CA0300
:10437000662757FD6095762F441655066606770624
:104380000CF098C0E090CB03F090CC030027F7FC32
:104390000095102FE414F504060517050CF0C3C0B2
:1043A0000E94332800910E0510910F0520911005F1
:1043B00030911105601771078207930708F0DAC082
:1043C0008091C9039091CA039C01442737FD409511
:1043D000542F29833A834B835C8342165306640629
:1043E00075060CF4C7C0B4E64B16510461047104A1
:1043F0000CF4D6C0D40158964D915C9159975A014E
:10440000CC24B7FCC094DC2C485A5D4F662757FD7E
:104410006095762F7F936F935F934F9310E2E12E19
:1044200013E0F12E00E010E029813A814B815C819C
:10443000C301B2010E94532D0F900F900F900F9067
:10444000683C71050CF4DAC0F401208D318D2454E0
:104450003D4F261737070CF4B901CB01D40115964F
:104460007C936E9314976091120570911305680FF9
:10447000791F80E090E0EE24E39408E813E120E067
:1044800030E05A964C910E94D0260F900F900F90DA
:104490000F90DF91CF911F910F91FF90EF90DF90E0
:1044A000CF90BF90AF909F908F907F906F905F90D4
:1044B0004F90089510921505109214058CE99FEF06
:1044C0009093130580931205B301A201C4010E94C9
:1044D000BE1FAC01662757FD6095762FF401428719
:1044E0005387648775870E9433286B017C01B30171
:1044F000A201C4010E94B020AC01662757FD60955F
:10450000762F4C0D5D1D6E1D7F1D40930E05509343
:104510000F056093100570931105D40157968C9187
:10452000811130CFB2CF1F921F921F928CED8F93CB
:104530004CE3A42EB12CC12CD12C20EE3CEF4FEF3C
:104540005FEFC301B2010E94532DF40175836483B0
:10455000882777FD8095982FEE24E39408EE13E0EA
:1045600020E030E0428D0E94D0260F900F900F90F7
:104570000F908BCF0F900F900F900F90DF91CF91F6
:104580001F910F91FF90EF90DF90CF90BF90AF9071
:104590009F908F907F906F905F904F900C94992791
:1045A00020911405309115052A3F310508F022CFDE
:1045B000A9014F5F5F4F50931505409314059A0171
:1045C000A9E8B8E80E940733929582958F708927F1
:1045D0009F7089276EE1689F9001699F300D1124BB
:1045E0004217530709F006CF8091120590911305E9
:1045F00001969093130580931205FCCE88EC90E011
:1046000068EC70E02BCF8F929F92AF92BF92EF92A7
:104610000F931F938A01222717FD2095322F4B01FC
:10462000AA2497FCA094BA2CEE24E394FC01428DBA
:10463000C501B4010E94D0261F910F91EF90BF9049
:10464000AF909F908F9008952F923F924F925F92DC
:104650006F927F928F929F92AF92BF92CF92DF9292
:10466000EF920F931F93CF93DF9300D000D000D031
:10467000CDB7DEB71C0169011216130674F5CA0125
:10468000AA2797FDA095BA2F89839A83AB83BC8311
:104690002B01662457FC6094762C4801AA2497FCD1
:1046A000A094BA2CA1E0B0E0BE83AD83E12C0981D7
:1046B0001A812B813C81F101428DC301B2010E941C
:1046C000D026C501B4010E9467288D819E81019684
:1046D0009E838D83C816D9064CF726960FB6F8949C
:1046E000DEBF0FBECDBFDF91CF911F910F91EF9035
:1046F000DF90CF90BF90AF909F908F907F906F9002
:104700005F904F903F902F900895EF920F931F93DB
:10471000CF93DF93EC016F8B611124C0EE24E394FF
:104720000EE511E020E030E04A8D62EC71E080E0BF
:1047300090E00E94D0266EE571E080E090E00E945B
:10474000672804EF11E020E030E04A8D64EB70E070
:1047500080E090E00E94D026DF91CF911F910F91D1
:10476000EF90089504E610E022E030E046E950E0E2
:1047700068EE73E00E942423DF91CF911F910F9187
:10478000EF9008952F923F924F925F926F927F9297
:104790008F929F92AF92BF92CF92DF92EF920F9340
:1047A0001F93CF93DF93CDB7DEB728970FB6F8945A
:1047B000DEBF0FBECDBF9A83898378876F833A01AE
:1047C0006901641775070CF451C046175707ACF11F
:1047D000C801AA2797FDA095BA2F8B839C83AD8330
:1047E000BE8322243324221A330A442437FC409403
:1047F000542C4A01AA2497FCA094BA2CEE24E394EA
:1048000008E813E120E030E0A981BA815A964C9182
:10481000C501B4010E94D0266B817C818D819E816F
:104820000E9467286C187D08820C931CA41CB51C80
:10483000EF81F8856E167F060CF728960FB6F89470
:10484000DEBF0FBECDBFDF91CF911F910F91EF90D3
:10485000DF90CF90BF90AF909F908F907F906F90A0
:104860005F904F903F902F900C949927C801AA27F2
:1048700097FDA095BA2F8B839C83AD83BE831901CE
:10488000442437FC4094542CAF81B8854D01AA24B0
:1048900097FCA094BA2CEE24E39408E813E120E0FE
:1048A00030E0E981FA81428DC501B4010E94D02631
:1048B0006B817C818D819E810E9467288F81988584
:1048C0008C0D9D1D98878F83820C931CA41CB51C96
:1048D0006816790604F7B1CF8F929F92AF92BF927C
:1048E000EF920F931F93CF93DF93EC0158EE852E39
:1048F00053E0952EA12CB12CEE24E3940CE310E0B0
:1049000020E030E04A8DC501B4010E94D02664E069
:1049100070E080E090E00E94672889E1880E911C99
:10492000A11CB11C81ED88168BE09806A104B1048E
:1049300019F7DF91CF911F910F91EF90BF90AF903A
:104940009F908F900C9499278F929F92AF92BF92D5
:10495000EF920F931F93CF93DF93EC0168EB862EBA
:104960006BE0962EA12CB12CEE24E3940CE310E026
:1049700020E030E04A8DC501B4010E94D02664E0F9
:1049800070E080E090E00E94672889E1881A910831
:10499000A108B1088FEC881683E09806A104B10441
:1049A00019F7DF91CF911F910F91EF90BF90AF90CA
:1049B0009F908F900C9499278F929F92AF92BF9265
:1049C000EF920F931F934B01AA2497FCA094BA2C4B
:1049D000EE24E39409E110E020E030E0FC01428D98
:1049E000C501B4010E94D02669E170E080E090E04A
:1049F0000E9467281F910F91EF90BF90AF909F90FA
:104A00008F900C949927EF920F931F93EE24E394C9
:104A100004EF11E020E030E04AE068E27AE080E074
:104A200090E00E94D02660E273E080E090E00E9477
:104A3000672804EF11E020E030E04AE068E27AE025
:104A400080E090E00E94D02660E273E080E090E099
:104A50000E94672808EE13E020E030E04AE060EDB5
:104A600077E080E090E00E94D02668EE73E080E07E
:104A700090E01F910F91EF900C9467288F929F9276
:104A8000AF92BF92EF920F931F93CF93DF93EC01FE
:104A900078EE872E73E0972EA12CB12CEE24E394B0
:104AA0000CE310E020E030E04A8DC501B4010E9423
:104AB000D02664E070E080E090E00E94672880E506
:104AC000880E911CA11CB11C88E588168CE0980604
:104AD000A104B10419F7DF91CF911F910F91EF90CD
:104AE000BF90AF909F908F900C9499278F929F9238
:104AF000AF92BF92EF920F931F93CF93DF93EC018E
:104B0000ECE18E2EECE09E2EA12CB12CEE24E39451
:104B10000CE310E020E030E04A8DC501B4010E94B2
:104B2000D02664E070E080E090E00E94672880E595
:104B3000881A9108A108B1088CEA881683E09806C3
:104B4000A104B10419F7DF91CF911F910F91EF905C
:104B5000BF90AF909F908F900C9499274F925F9247
:104B60006F927F92AF92BF92CF92DF92EF920F93AC
:104B70001F93CF93DF93EC01A62EB12CA114B104A7
:104B800059F1C12CD12CF0ED4F2EF7E05F2E612CA6
:104B9000712CEE24E3940CE310E020E030E04A8D29
:104BA000C301B2010E94D0266FE070E080E090E087
:104BB0000E94672884E6480E511C611C711C80EF1E
:104BC00048168AE058066104710419F78FEFC81A75
:104BD000D80ACA14DB04BCF2DF91CF911F910F9168
:104BE000EF90DF90CF90BF90AF907F906F905F90ED
:104BF0004F900C949927AF92BF92CF92DF92EF9291
:104C00000F931F93CF93DF93EC015B0180E5869FA9
:104C10006001879FD00C112480EAC81A86EFD80A59
:104C2000B601882777FD8095982FEE24E39404E65B
:104C300010E020E030E04A8D0E94D0268FE08A9D6F
:104C4000B0018B9D700D1124605B7F4F882777FD2D
:104C50008095982F0E94672801E010E02FE030E057
:104C600040EA5FE0B601CE010E94C223DF91CF91FE
:104C70001F910F91EF90DF90CF90BF90AF9008956C
:104C8000CF93DF93EC016231710530F061E0CE012A
:104C9000DF91CF910C94AE25FB01EC5CFF4F0C949F
:104CA000013364E070E0DF91CF910C94FB2565E067
:104CB00070E0DF91CF910C94FB250E943E25CE0140
:104CC0000E943E25CE010E943E2568EE73E080E002
:104CD00090E0DF91CF910C94672868EC70E0DF9151
:104CE000CF910C94DC246AEF70E0DF91CF910C94AB
:104CF000DC246CE271E0DF91CF910C94DC2460E95C
:104D000071E0DF91CF910C94DC2464EF71E0DF91CE
:104D1000CF910C94DC240E946C24CE010E94A42428
:104D2000CE010E946C24CE010E94A42468EE73E0A0
:104D300080E090E0DF91CF910C9467280E946C2472
:104D4000CE010E94A42460E273E080E090E0DF9155
:104D5000CF910C94672862E0DF91CF910C94AE253F
:104D600064E0DF91CF910C94AE2565E0DF91CF91A7
:104D70000C94AE25DF91CF910C94032561E070E097
:104D8000DF91CF910C94FB2562E070E0DF91CF9131
:104D90000C94FB2563E070E0DF91CF910C94FB2530
:104DA0004F925F926F927F928F929F92AF92BF923B
:104DB000CF92DF92EF92FF920F931F93CF93DF93E7
:104DC00000D000D0CDB7DEB74B015C01280139011E
:104DD0000E2D611571058105910509F460C044230C
:104DE00009F45DC0142F4B3008F07BC084B186609D
:104DF00084B960E079E08DE390E0A50194010E9420
:104E0000C03269017A0181E0C81AD108E108F108CD
:104E1000C114D104E1E0EE06F10408F064C081E1C0
:104E2000B82EE12FF0E0E35FFE4F208130E040E05C
:104E300050E0C701B6010E94C03241145104610420
:104E4000710411F001115BC0D0928700C0928600FE
:104E50008091840090918500A0E0B0E0C816D9064A
:104E6000EA06FB0620F4D0928500C0928400B0923E
:104E7000810030938B0020938A0030938900209327
:104E8000880080EB80938000411451046104710418
:104E900099F0011111C0C301B2010E9467288091ED
:104EA0006F008D7F80936F0082E08093810081E0AE
:104EB0008093800029982A980F900F900F900F9060
:104EC000DF91CF911F910F91FF90EF90DF90CF90E6
:104ED000BF90AF909F908F907F906F905F904F901A
:104EE00008951AE083CFCD2CDE2CEF2CFF24F1E0C7
:104EF000CF1AD108E108F10824E1B22E92CF29831C
:104F00003A834B835C830E943328640D751D861D94
:104F1000971D60931605709317058093180590935D
:104F2000190580916F00826080936F003A8129811A
:104F30008BCFEFE6F0E080818D7F808382E08093ED
:104F4000810081E08093800029982A9808951F921B
:104F50000F920FB60F9211240F931F932F933F932D
:104F60004F935F936F937F938F939F93AF93BF9371
:104F7000EF93FF930E9433280091160510911705B7
:104F80002091180530911905601771078207930762
:104F900068F080916F008D7F80936F0082E0809336
:104FA000810081E08093800029982A98FF91EF91F9
:104FB000BF91AF919F918F917F916F915F914F9131
:104FC0003F912F911F910F910F900FBE0F901F9047
:104FD00018951F920F920FB60F9211242F933F93A3
:104FE0008F939F93AF93BF9380911B0590911C0566
:104FF000A0911D05B0911E0530911A0526E0230FE2
:105000002D3768F129E8230F0396A11DB11D2093C8
:105010001A0580931B0590931C05A0931D05B09362
:105020001E0580911F0590912005A0912105B0914A
:1050300022050196A11DB11D80931F0590932005A7
:10504000A0932105B0932205BF91AF919F918F91BD
:105050003F912F910F900FBE0F901F9018950296C1
:10506000A11DB11DD4CF2FB7F89460911B0570918D
:105070001C0580911D0590911E052FBF08953FB717
:10508000F89480911F0590912005A0912105B09181
:10509000220526B5A89B05C02F3F19F00196A11D3A
:1050A000B11D3FBF6627782F892F9A2F620F711D80
:1050B000811D911D660F771F881F991F660F771F2F
:1050C000881F991F660F771F881F991F0895CF9219
:1050D000DF92EF92FF92CF93DF936B017C010E94EE
:1050E0003F28EB01C114D104E104F104A9F00E94AE
:1050F000D72F0E943F286C1B7D0B683E734090F3B6
:1051000081E0C81AD108E108F108C851DC4FC11488
:10511000D104E104F10459F7DF91CF91FF90EF90B2
:10512000DF90CF900895789484B5826084BD84B573
:10513000816084BD85B5826085BD85B5816085BD92
:10514000EEE6F0E0808181608083E1E8F0E01082AB
:10515000808182608083808181608083E0E8F0E0EC
:10516000808181608083E1EBF0E0808184608083D6
:10517000E0EBF0E0808181608083EAE7F0E080810D
:105180008460808380818260808380818E7F808341
:105190008081806880831092C10008958330E9F097
:1051A00038F0873069F0883011F1843079F0089553
:1051B0008130C9F0823081F484B58F7D84BD08953B
:1051C0008091B0008F778093B00008958091800027
:1051D0008F7D8093800008950895809180008F775F
:1051E00080938000089584B58F7784BD0895809161
:1051F000B0008F7D8093B0000895CF93DF9390E04F
:10520000FC01E056FF4F2491FC01EC54FF4F8491C8
:105210008823B9F090E0880F991FFC01E452FF4FFA
:10522000A591B4918E529F4FFC01C591D4919FB727
:10523000662351F06230A1F0F8948C91822B8C930C
:105240009FBFDF91CF910895F8948C912095822390
:105250008C938881822388839FBFDF91CF910895AB
:10526000F8948C91322F309583238C938881822BF4
:1052700088839FBFE6CF0F931F93CF93DF931F9237
:10528000CDB7DEB7282F30E0F901E457FF4F849106
:10529000F901E056FF4F0491F901EC54FF4F1491CE
:1052A000112399F081111BC0E12FF0E0EE0FFF1FD9
:1052B000EE52FF4FA591B4918FB7F8949C91611174
:1052C0000AC0009590239C938FBF0F90DF91CF91E0
:1052D0001F910F910895902B9C938FBFF6CF6983F8
:1052E0000E94CE286981E0CFCF93DF93282F30E052
:1052F000F901E457FF4F8491F901E056FF4FD49133
:10530000F901EC54FF4FC491CC23B1F0811119C0C5
:10531000EC2FF0E0EE0FFF1FE853FF4FA591B49183
:105320002C912D2381E090E019F0DF91CF91089529
:1053300080E0DF91CF91089580E090E0DF91CF9100
:1053400008950E94CE28E4CFFC01818D228D90E04B
:10535000805C9F4F821B91098F7399270895FC01F0
:10536000918D828D981731F0828DE80FF11D858D1A
:1053700090E008958FEF9FEF0895FC01918D828D4D
:10538000981761F0828DDF01A80FB11D5D968C9199
:10539000928D9F5F9F73928F90E008958FEF9FEFA4
:1053A000089581E49BE2892B49F080E090E0892B0D
:1053B00029F00E94412B81110C9400000895FC01FA
:1053C000848DDF01A80FB11DA35ABF4F2C91848D8E
:1053D00090E001968F739927848FA689B7892C93C3
:1053E000A089B1898C9180648C93938D848D98135E
:1053F00008950288F389E02D80818F7D8083089550
:10540000CF93DF93EC01888D8823B9F0EA89FB897B
:10541000A889B989808185FF0DC00FB607FCFACF36
:10542000808185FFF7CF8C9185FFF4CFCE010E945C
:10543000DF29ECCF8C9186FFF0CFDF91CF910895DB
:10544000CF92DF92FF920F931F93CF93DF931F9220
:10545000CDB7DEB76C0181E0D60158968C93589792
:105460005B969C915B975C968C915C979817D1F1B9
:10547000F601038D10E00F5F1F4F0F731127F02E01
:1054800003C00FB607FE20C0F601848DF816C9F3DD
:10549000838DE80FF11DE35AFF4F6083D6015B96C1
:1054A0000C935B975296ED91FC91539780818062AB
:1054B000808381E090E00F90DF91CF911F910F9159
:1054C000FF90DF90CF900895D6015096ED91FC911A
:1054D0005197808185FFD8CFC60169830E94DF295B
:1054E0006981D2CF5096ED91FC915197808185FFD3
:1054F000BFCFD6015696ED91FC9157976083509699
:10550000ED91FC915197808180648083D2CFBF92CE
:10551000CF92DF92EF92FF920F931F93CF93DF937F
:10552000EC016A017B01B22E60E874E88EE190E044
:10553000A70196010E94C032215031094109510949
:1055400056954795379527958901E889F98982E02D
:105550008083211580E13807A0F0E889F98910825D
:1055600060E472E48FE090E0A70196010E94C032EF
:10557000215031094109510956954795379527958D
:105580008901EC85FD851083EE85FF850083188EEB
:10559000EC89FD89B082EA89FB8980818061808302
:1055A000EA89FB89808188608083EA89FB89808120
:1055B00080688083EA89FB8980818F7D8083DF9189
:1055C000CF911F910F91FF90EF90DF90CF90BF9000
:1055D00008951F920F920FB60F9211242F938F935D
:1055E0009F93EF93FF93E0913305F0913405808111
:1055F000E0913905F0913A0582FD1BC02081809130
:105600003C058F5F8F7390913D05891741F0E091C4
:105610003C05F0E0ED5DFA4F258F80933C05FF914E
:10562000EF919F918F912F910F900FBE0F901F9030
:1056300018958081F4CF1F920F920FB60F9211240C
:105640002F933F934F935F936F937F938F939F938A
:10565000AF93BF93EF93FF9383E295E00E94DF291E
:10566000FF91EF91BF91AF919F918F917F916F913A
:105670005F914F913F912F910F900FBE0F901F9010
:10568000189583E295E00E94A42921E0892B09F472
:1056900020E0822F0895109226051092250588EEAD
:1056A00093E0A0E0B0E08093270590932805A093B5
:1056B0002905B0932A058DE792E090932405809305
:1056C000230585EC90E09093300580932F0584ECC2
:1056D00090E0909332058093310580EC90E09093B8
:1056E00034058093330581EC90E0909336058093E8
:1056F000350582EC90E0909338058093370586EC71
:1057000090E090933A058093390510923C051092F1
:105710003D0510923E0510923F05089580E090E00F
:10572000089508950E9493280E94912B0E94BD0124
:105730000E94740581ED99E2892B29F00E94D129FC
:105740000E947405FBCF0E9474050E947405FBCF74
:10575000CF92DF92EF92FF920F931F93CF93DF933D
:105760007C016A0141155105F9F08B01C0E0D0E0E0
:1057700004C02196CC16DD0669F0D8016D918D012B
:10578000D701ED91FC910190F081E02DC7010995C1
:10579000892B79F7CE01DF91CF911F910F91FF9067
:1057A000EF90DF90CF900895C0E0D0E0F3CFDC0120
:1057B000ED91FC91DB0114964D915C9115976D91E3
:1057C0007C910280F381E02D09946115710581F0CF
:1057D000DB010D900020E9F7AD0141505109461B56
:1057E000570BDC01ED91FC910280F381E02D0994CF
:1057F00080E090E008950F931F93CF93DF93EC0127
:10580000E881F981DB0114964D915C9115976D91BA
:105810007C910280F381E02D09958C01E881F9816A
:105820000280F381E02D42E050E069E872E0CE01B1
:105830000995800F911FDF91CF911F910F910895CE
:105840008F929F92AF92BF92CF92DF92EF92FF9290
:105850000F931F93CF93DF93CDB7DEB7A1970FB60A
:10586000F894DEBF0FBECDBF7C01D42EE52FCB0157
:10587000C22E19A221E02C1508F051C08C2C912CBD
:10588000A12CB12C8E010F5D1F4F0BC0805DD80184
:105890008C932115310541055105C9F0D22EE32F16
:1058A000CA016D2D7E2FA50194010E94C0328D2D5D
:1058B000C29E80191124015011098A303CF3895C81
:1058C000D8018C93211531054105510539F7011592
:1058D000110569F1F80101900020E9F7AF0141508D
:1058E0005109401B510BD701ED91FC910280F381CE
:1058F000E02DB801C7010995A1960FB6F894DEBF57
:105900000FBECDBFDF91CF911F910F91FF90EF9010
:10591000DF90CF90BF90AF909F908F9008952AE036
:10592000822E912CA12CB12C3AE0C32EABCF80E07B
:1059300090E0E2CFCF92DF92EF92FF920F931F930E
:10594000CF93DF93EC016A017B0121153105A1F0B2
:105950002A30310569F0B701A601CE01DF91CF9160
:105960001F910F91FF90EF90DF90CF900C94202C1F
:1059700077FD11C02AE0EFCFE881F9810190F08135
:10598000E02D642FDF91CF911F910F91FF90EF9049
:10599000DF90CF900994E881F9810190F081E02DAA
:1059A0006DE209958C0144275527BA014C195D0910
:1059B0006E097F092AE0CE010E94202C800F911FE2
:1059C000DF91CF911F910F91FF90EF90DF90CF90DB
:1059D00008950F931F93CF93DF93EC019A01AB01CE
:1059E000662757FD6095762F0E949A2C8C01E881DE
:1059F000F9810280F381E02D42E050E069E872E035
:105A0000CE010995800F911FDF91CF911F910F91CA
:105A100008952115310511F00C94202CDC01ED9135
:105A2000FC910190F081E02D642F09940F931F9356
:105A3000CF93DF93EC019A01462F50E060E070E0D5
:105A40000E94092D8C01E881F9810280F381E02D0B
:105A500042E050E069E872E0CE010995800F911FA5
:105A6000DF91CF911F910F9108950F931F93CF93C3
:105A7000DF93EC019A01AB0160E070E00E94092D18
:105A80008C01E881F9810280F381E02D42E050E051
:105A900069E872E0CE010995800F911FDF91CF91E7
:105AA0001F910F9108954F925F926F927F92AF92E4
:105AB000BF92CF92DF92EF92FF920F931F93CF93FB
:105AC000DF93CDB7DEB729013A01621B730B840B5C
:105AD000950B29893A894B895C892A193B094C091C
