:100000000C94F3000C941B010C941B010C947305CD
:100010000C9473050C9473050C941B010C941B0138
:100020000C941B010C941B010C941B010C940E21CD
:100030000C941B010C941B010C941B010C941B01D0
:100040000C9450210C941B010C9452240C94842485
:100050000C941B010C941B010C941B010C941B01B0
:100060000C941B010C941B01C41FD41FDA1FE01F4A
:10007000E61FEC1FF21F0520AD1F122017201C20C9
:10008000212025202B203120B81FBE1F0000000892
:10009000000201000003040700000000000000004F
:1000A000010204081020408001020408102001020F
:1000B00004081020040404040404040402020202DC
:1000C00002020303030303030000000023002600D1
:1000D000290000000000250028002B00000000007F
:1000E000240027002A0000407A10F35A00A0724E24
:1000F00018090010A5D4E80000E87648170000E4CD
:100100000B54020000CA9A3B000000E1F505000014
:1001100080969800000040420F000000A086010079
:100120000000102700000000E80300000000640049
:10013000000000000A0000000000010000000000B4
:100140002C76D888DC674F0823DFC1DFAE59E1B1D8
:10015000B796E5E3E453C63AE651997696E8E6C2E7
:100160008426EB898C9B62ED407C6FFCEFBC9C9FEE
:1001700040F2BAA56FA5F490055A2AF75C936B6C10
:10018000F9676DC11BFCE0E40D47FEF520E6B50004
:10019000D0ED902E0300943577050080841E080072
:1001A00000204E0A000000C80C333333330F986E22
:1001B00012831141EF8D2114893BE65516CFFEE6DF
:1001C000DB18D1844B381BF77C1D901DA4BBE424A5
:1001D000203284725E228100C9F124ECA1E53D2722
:1001E000AE03B424D20311241FBECFEFD8E0DEBF8C
:1001F000CDBF12E0A0E0B1E0E0EFF2E602C0059072
:100200000D92A832B107D9F724E0A8E2B2E001C00C
:100210001D92A43BB207E1F711E0C4EED1E004C0A7
:100220002297FE010E94152BC03ED107C9F70E94FC
:10023000FB240C946B310C940000089588E292E04A
:100240000C947526CF93DF93CAEFD2E0688181E0EA
:10025000682783EE92E00E94EC1C88818093D40290
:100260008BEC92E0DF91CF910C941C098091FA0203
:10027000882399F18091FD028A30B9F08AE0809359
:10028000FD028091D5029091D6029093FC0280935A
:10029000FB0283EE92E00E94A51E8091FD028093F6
:1002A000D1028BEC92E00C941C098091D2028093D5
:1002B000FD028091D7029091D8029093FC02809326
:1002C000FB0283EE92E00E94DD1E8091FD0280938E
:1002D000D1028BEC92E00C941C0961E083EE92E079
:1002E0000E94EC1C81E08093D4028BEC92E00C9491
:1002F0001C098091CC02813029F061E08BEC92E006
:100300000C94210960E08BEC92E00C9421098EEFB3
:1003100092E00E94752684E093E00E9475268AE0B0
:1003200093E00C94F10540E05BE460E070E08AE06B
:1003300093E00E94820641E050E062E070E089E2D2
:1003400093E00E945C0786E391E0909346038093DC
:10035000450389E791E090934A03809349038DE137
:1003600091E090934C0380934B0382E291E0909351
:1003700048038093470380E896EEA5ECB7E48093AA
:100380004D0390934E03A0934F03B093500387E324
:1003900092E00E9411128BEC92E00C94AF09CF9284
:1003A000DF92EF92FF920F931F93CF93DF936C0135
:1003B0008B01FB0184819581892B71F1C0E0D0E034
:1003C000E12CF12CBE01C8010E94FD27FC018081B7
:1003D000E8262196F80124813581C217D30790F3CE
:1003E00068E171E0C6010E944E25B801C6010E9475
:1003F00040256AE171E0C6010E944E2540E150E0CF
:10040000B701C601DF91CF911F910F91FF90EF903F
:10041000DF90CF900C941026E12CF12CE1CF80914D
:100420002E0281110DC069E172E088E292E00E9423
:10043000D32681E080932E028EE191E00E94F72482
:100440006CE171E088E292E00E9416276AE271E0B6
:1004500088E292E00E9476276091480270914902FA
:1004600080914A0290914B0224E630E040E050E057
:100470000E94F42ABA01A90188E292E00E94992719
:1004800065E271E088E292E00E9476276091560270
:100490007091570280915802909159020E948529CB
:1004A00020E030E048EC52E40E94E628AB01BC01B9
:1004B00088E292E00E94CB2767E271E088E292E056
:1004C0000E94762768E272E082E194E00C94CF010A
:1004D000CF93DF9300D000D000D0CDB7DEB769E175
:1004E00072E0CE0101960E94D3266CE271E0CE014B
:1004F00001960E941627BE016F5F7F4F8AE093E04E
:100500000E94CF016BE571E0CE0101960E94162793
:10051000BE016F5F7F4F8AE093E00E94CF0165E6E6
:1005200071E0CE0101960E941627BE016F5F7F4FDA
:100530008AE093E00E94CF016FE671E0CE01019660
:100540000E941627BE016F5F7F4F8AE093E00E94F2
:10055000CF0169E771E0CE0101960E941627BE0126
:100560006F5F7F4F8AE093E00E94CF0163E871E004
:10057000CE0101960E941627BE016F5F7F4F8AE071
:1005800093E00E94CF01CE0101960E947526269627
:100590000FB6F894DEBF0FBECDBFDF91CF910895A7
:1005A0000895CF93DF9300D000D000D0CDB7DEB751
:1005B000E0910A03F0910B030480F581E02D8AE0BD
:1005C00093E00995181619068CF5E0910A03F0914D
:1005D0000B030680F781E02D8AE093E009958A32CB
:1005E00041F08A3029F3682F8EEF92E00E9486272F
:1005F000DFCF6AE28EEF92E00E9486276EEF72E014
:10060000CE0101960E940D27BE016F5F7F4F8BECDC
:1006100092E00E94FA09CE0101960E94752669E1D6
:1006200072E08EEF92E00E941627C2CF26960FB698
:10063000F894DEBF0FBECDBFDF91CF9108950E9429
:100640002B28892F8095881F8827881F0895FF925F
:100650000F931F93CF93DF9387E392E00E94A8123A
:1006600080914C02882399F100913B0210913C0249
:10067000D0913D02C0913E02B0913F02A091400254
:10068000F0914102F090420298014D2F5C2F6B2FA8
:100690007A2F8F2F9F2D203AE6E83E07E1E04E07A4
:1006A0005105610571058105910589F084F00E946D
:1006B0007F2920E030E44CE156E40E94E628609374
:1006C0004D0370934E0380934F0390935003DF913B
:1006D000CF911F910F91FF9008954F925F926F926B
:1006E0007F928F929F92AF92BF92CF92DF92EF92C2
:1006F000FF920F931F932B013C0149015A01C8013E
:10070000B7010E945F2A6B017C01C301B2010E9404
:1007100085292B013C01A501940160E070E080E88F
:100720009FE30E9481289B01AC01C301B2010E949A
:100730005F2AA70196010E9482280E944E291F91DC
:100740000F91FF90EF90DF90CF90BF90AF909F9070
:100750008F907F906F905F904F90089589E293E023
:100760000E94350720E048E067E08AE093E00E94BD
:10077000520669E172E084E093E00E94D32669E1C9
:1007800072E08EEF92E00E94D32683EE92E00E9408
:100790002B198BEC92E00E94A60867E787E392E0B2
:1007A0000C940D120C94870182E194E00E940723BF
:1007B00018161906DCF482E194E00E9420238432AA
:1007C00041F08A3089F3682F84E093E00E94862705
:1007D000EBCF64E073E082E194E00E94642568E17D
:1007E00071E084E093E00E941627DECF08950F9316
:1007F0001F93CF93DF9300D000D000D0CDB7DEB7EA
:1008000080913602882309F445C00E94D10280916C
:10081000360281110FC089E293E00E946807269694
:100820000FB6F894DEBF0FBECDBFDF91CF911F9101
:100830000F910895409152025091530260915402D9
:100840007091550283EE92E00E94FC1A0E942703E9
:100850000E94D4030E949A2100910A0110910B0179
:1008600020910C0130910D01601B710B820B930BD9
:10087000653F71408105910570F20E940F020E9450
:100880009A2160930A0170930B0180930C0190935D
:100890000D01C1CF0E949A21613E7E4281059105E2
:1008A00008F4B3CF8AE093E00E942B0740E855E2BA
:1008B00060E070E08AE093E00E94820669E172E005
:1008C000CE0101960E94D3266FE871E0CE01019619
:1008D0000E941627BE016F5F7F4F8AE093E00E945F
:1008E000CF0140E05BE460E070E08AE093E00E94CA
:1008F00082060E94680226E040E05BE460E070E06F
:1009000082E194E00E94EA2381E080933602CE01E6
:1009100001960E94752679CF2091D3033091D4039C
:1009200028173907B9F49091510380915203981711
:1009300089F0E0915103F0E0ED5AFC4F8081209165
:10094000510330E02F5F3F4F2F7733272093510320
:1009500090E008958FEF9FEF08951F93CF93DF935B
:10096000EC012C8D3D8D2115310509F438C0A98984
:10097000BA894889542F50951FB78E8D81FB7727F0
:1009800070F981FD6095F8948C91711115C08523E3
:100990008C93C9010197F1F788E008C0942B9C93D0
:1009A000F9013197F1F76695815049F09C9160FD0E
:1009B000F5CF95239C93F4CF842B8C93EACF8C9125
:1009C0007723B9F085238C931FBF8C8D9D8D019764
:1009D000F1F781E090E0DF91CF911F91089581E0E0
:1009E00090E09B838A8380E090E0DF91CF911F911C
:1009F0000895842B8C93E8CF08952091D3033091F0
:100A0000D4032817390781F4909151038091520340
:100A1000981751F0E0915103F0E0ED5AFC4F8081BE
:100A2000992787FD909508958FEF9FEF0895209166
:100A3000D3033091D4032817390719F080E090E0F0
:100A40000895209152038091510330E020583F4F88
:100A5000281B31092F77307837FD02C0C90108956E
:100A60002150310920683F6F2F5F3F4FF7CFDC01E6
:100A70005396ED91FC915497208155968C918095D9
:100A8000822380831092D4031092D30381E00895CF
:100A9000CF93DF93EC018A8D9B8D892B01F180919F
:100AA000D3039091D4038C179D07C9F0009711F0E0
:100AB0000E9437058E8D8E7F8E8F1092520310927A
:100AC0005103D093D403C093D303EB89FC89808175
:100AD0009D89892B808381E0DF91CF91089580E00B
:100AE000DF91CF9108951F920F920FB60F921124AC
:100AF0002F933F934F935F936F937F938F939F9326
:100B0000AF93BF93EF93FF93E091D303F091D4039E
:100B1000309709F449C0868DA685B78581FD55C0FB
:100B20008C919585892309F03FC0A389B4899C9154
:100B30008589809589238C93868997890197F1F718
:100B4000208D318DA685B785758558E060E0C90197
:100B50000197F1F7862F90E095958795682F4C9136
:100B6000472309F06068515091F7868D81FD33C0AD
:100B70008091520390E001968F779927209151033D
:100B8000281759F1A0915203B0E0AD5ABC4F6C93B5
:100B900080935203828D938D0197F1F7A389B489D5
:100BA0008C919589892B8C93FF91EF91BF91AF9197
:100BB0009F918F917F916F915F914F913F912F9175
:100BC0000F900FBE0F901F9018958C9195858923DB
:100BD00009F0ABCFE9CF6095CBCF868D8160868F52
:100BE000D9CF21EA31E0FC01318320832091D30366
:100BF0003091D4038217930709F008950C943705B8
:100C00001F93CF93DF93EC01162F6E8D6695617065
:100C100081E06827812F0E949E2261E0812F0E943F
:100C20006022812F90E0FC01E056FF4FE491E88BB9
:100C3000FC01EC54FF4FE491F0E0EE0FFF1FEE5289
:100C4000FF4F859194919A8B898BDF91CF911F9162
:100C500008951F93CF93DF93EC01162F60E0812F4F
:100C60000E9460228E8D81FD04C061E0812F0E9470
:100C70009E221C87612F70E0FB01E056FF4FE4913C
:100C8000ED87FB01EC54FF4FE491F0E0EE0FFF1F06
:100C9000E853FF4F859194919F878E87DF91CF9185
:100CA0001F910895FF920F931F93CF93DF93EC0151
:100CB000F62E522F1B821A8208EE13E020E030E05D
:100CC0000C831D832E833F8381EA91E0998388837F
:100CD0001F8A1E8A198E188E1B8E1A8E1D8E1C8ED0
:100CE0008E8D8E7F50FB81F98E8F642FCE010E94F6
:100CF00000066F2DCE01DF91CF911F910F91FF90D4
:100D00000C942906CF93DF93EC019A01AB011B8E63
:100D10001A8E198E188E1F8A1E8A60E079E08DE384
:100D200090E00E94F42AC9012430310508F457C02C
:100D3000B901635071097D8F6C8FEC85E63108F045
:100D400049C0B901769567956431710508F04AC0CC
:100D500061E070E07F8B6E8B069708F047C081E002
:100D600090E0998F888FC901880F991F820F931F78
:100D700096958795969587958D309105D0F10C972E
:100D80009B8F8A8F90916800E830D8F121E0EE3097
:100D900008F45CC081E001C0880F2A95EAF7892B2E
:100DA000809368002C85283098F12E3008F443C0D9
:100DB000263108F04DC08CE690E09C8B8B8B2E503A
:100DC00081E001C0880F2A95EAF78D8B8C8D9D8D6F
:100DD0000197F1F7CE01DF91CF910C94480561E0C6
:100DE00070E0A9CF635171097F8B6E8BC9010597A4
:100DF000B8CF81E090E09B8F8A8F90916800E830B7
:100E000028F684E0892B809368002C85283068F6CA
:100E10008DE690E09C8B8B8B81E001C0880F2A953A
:100E2000EAF78D8B8C8D9D8D0197F1F7CE01DF91C7
:100E3000CF910C9448058BE690E09C8B8B8B2850CF
:100E400081E001C0880F2A95EAF7EBCF20E0A2CF1E
:100E500080E090E0B2CF2091D3033091D403821789
:100E6000930709F008950C943705FC0184E190E0A4
:100E7000948383838AEF90E09683858388EE93E062
:100E80009087878380EA9FE09287818781E08387CC
:100E900084871586168617864FEF5FEFBA01408B61
:100EA000518B628B738B448B558B668B778B108E3B
:100EB000118E128E138E0895FC01862F608371832C
:100EC00091E0452B09F490E0928362E00C9460225B
:100ED0008F929F92AF92BF92CF92DF92EF92FF924A
:100EE000CF93DF93EC010E949A216B017C018881F2
:100EF0000E94D72221E0019709F020E02B878A8108
:100F00002817F1F19C85891709F4CAC048895989C5
:100F10006A897B89C41AD50AE60AF70A49855A857F
:100F2000662757FD6095762FC416D506E606F706A8
:100F300064F42C87DF91CF91FF90EF90DF90CF90FA
:100F4000BF90AF909F908F9008958A8D8111F1CFBF
:100F500081E0898F888F1E861D868A8F2C87EAA163
:100F6000FBA1309739F388819981DF91CF91FF9070
:100F7000EF90DF90CF90BF90AF909F908F900994AB
:100F80003C85231739F188899989AA89BB89B701DA
:100F9000A601481B590B6A0B7B0B8B819C81AA27EE
:100FA00097FDA095BA2F84179507A607B70794F465
:100FB000888D81110FC0CC8ADD8AEE8AFF8A8E85EA
:100FC0008111B1C081E08D87812C912C540180E08A
:100FD00090E00CC08C899D89AE89BF89460157017C
:100FE000881A990AAA0ABB0A80E090E04D815E81C6
:100FF000662757FD6095762F84169506A606B706D8
:101000007CF04D85442361F04E85411109C04F8528
:10101000442331F08230910519F01D8681E090E083
:10102000231799F1488959896A897B89C41AD50A95
:10103000E60AF70A4F815885662757FD6095762F97
:10104000C416D506E606F70604F149855A856627D3
:1010500057FD6095762FC416D506E606F706ACF464
:101060003A8D311112C081E0898F888F1E861D86CE
:101070008A8F2C8783E090E0039709F05BCFE8A18B
:10108000F9A1309709F06FCF55CF2C8781309105AA
:1010900009F052C0EC8DFD8D309709F064CF4ACF36
:1010A0008C899D89AE89BF89B701A601481B590B60
:1010B0006A0B7B0BDB01CA014B815C81662757FD04
:1010C0006095762F481759076A077B07ECF4C88AA2
:1010D000D98AEA8AFB8A188E198E31E03F871A8EE8
:1010E0001B8E4D815E81662757FD6095762F841794
:1010F0009507A607B7078CF48E8581110EC08D85E4
:10110000882359F03E870AC088899989AA89BB89B2
:10111000C81AD90AEA0AFB0A01CF1E861D86C12C0D
:10112000D12C7601FBCE1E861D861F86812C912C2C
:10113000540182E090E05ACF8230910509F09CCFB3
:10114000EE8DFF8D309709F00ECFF4CE0895CF923B
:10115000DF92EF92FF920F931F93CF93DF9300D014
:1011600000D000D0CDB7DEB77B016AE271E0CE01DE
:1011700001960E94D326BE016F5F7F4FC7010E9478
:101180002B286C01CE0101960E9475266AE171E060
:10119000CE0101960E94D326BE016F5F7F4FC7012B
:1011A0000E942B288C01CE0101960E947526A60173
:1011B0004F5F5F4F9801B701CE0101960E942F2823
:1011C000CE0101960E9475286B017C01CE0101962B
:1011D0000E947526C60126960FB6F894DEBF0FBE94
:1011E000CDBFDF91CF911F910F91FF90EF90DF90D6
:1011F000CF900895EF92FF920F931F93CF93DF93B9
:101200007B0128E1E20EF11CEB018C010150110978
:10121000061B170B6991C8018C0F9D1F0E94C02EE1
:10122000CE15DF05B9F788E190E0DF91CF911F91EE
:101230000F91FF90EF900895BC0180E090E00C9436
:10124000FA080F931F93CF93DF93EC016983662312
:10125000D9F080E293E09093F9028093F80208E2DB
:1012600010E023E030E044EB50E064EF71E083EE07
:1012700092E00E948B1CBE0180E090E0DF91CF9154
:101280001F910F910C94FA0880E991E09093F90274
:101290008093F80204E110E024E030E040E550E003
:1012A00068E572E083EE92E00E948B1CE4CFFC01C3
:1012B00085E08083118281E081878CE89AE09387C2
:1012C000828784EF91E09587848729E027838AE0ED
:1012D00080878FE090E09383828386E09FEF958301
:1012E0008483268384E690E0978786872FE530E025
:1012F000318B208B138A128A21E430E0358B248BCA
:10130000978B868BBF0180E090E00C94FA08EF92F7
:10131000FF920F931F93CF93DF937C018C01C0E06A
:10132000D0E0CE010E94B82EF80181938F01219662
:10133000C831D105B1F7F7018081853049F0C70187
:10134000DF91CF911F910F91FF90EF900C9457096F
:10135000DF91CF911F910F91FF90EF900895AF9281
:10136000BF92CF92DF92EF92FF920F931F93CF9392
:10137000DF93EC010E9487096C897D89882777FDBE
:101380008095982F1F921F921F9228E72F934AE073
:10139000A42EB12CC12CD12C14E6E12EF12C00E0AE
:1013A00010E020E030E0A9010E942E2670935D023B
:1013B00060935C0289858093FA028E818093FD029E
:1013C0000F900F900F900F908A3030F48C859D8590
:1013D0009093FC028093FB026981CE01DF91CF9153
:1013E0001F910F91FF90EF90DF90CF90BF90AF9043
:1013F0000C9421093F924F925F926F927F928F924D
:101400009F92AF92BF92CF92DF92EF92FF920F9393
:101410001F93CF93DF93CDB7DEB766970FB6F894DF
:10142000DEBF0FBECDBF8C017B016DEA71E0CE0146
:1014300001960E94D326B701CE0107960E940D2780
:10144000BE016F5F7F4FCE0107960E941F03D82E0B
:10145000CE0107960E947526CE0101960E94752640
:10146000D110BBC064EB71E0CE0101960E94D3267F
:10147000B701CE0107960E940D27BE016F5F7F4F17
:10148000CE0107960E941F03D82ECE0107960E9418
:101490007526CE0101960E947526D1107EC06CEB98
:1014A00071E0CE0101960E94D326B701CE010796C6
:1014B0000E940D27BE016F5F7F4FCE0107960E94ED
:1014C0001F03D82ECE0107960E947526CE010196E5
:1014D0000E947526D110A7C061EC71E0CE01019683
:1014E0000E94D326B701CE0107960E940D27BE01A8
:1014F0006F5F7F4FCE0107960E941F03D82ECE014B
:1015000007960E947526CE0101960E947526D1107D
:1015100070C066EC71E0CE0101960E94D326B7013F
:10152000CE0107960E940D27BE016F5F7F4FCE014F
:1015300007960E941F03D82ECE0107960E9475269B
:10154000CE0101960E947526DD2009F483C0B70103
:10155000CE0101960E940D27BE016F5F7F4FC8012B
:101560000E94A7087C01CE0101960E947526FEE527
:10157000EF16F1E0FF060CF4E5C0C70129EBE21617
:101580002BE0F20614F088EB9BE0F801938782874A
:101590009093FC028093FB0208C0C8010E94570987
:1015A000B80180E090E00E94FA0866960FB6F894C1
:1015B000DEBF0FBECDBFDF91CF911F910F91FF9086
:1015C000EF90DF90CF90BF90AF909F908F907F90E3
:1015D0006F905F904F903F900895B80180E090E049
:1015E0000E94FA0863E070E083EE92E00E94621FBE
:1015F000DCCFB701CE0101960E940D27BE016F5FBF
:101600007F4FC8010E94A7087C01CE0101960E946D
:1016100075269701F7FC9DC0319521953109F80198
:1016200035832483C2CFB701CE0101960E940D27D6
:10163000BE016F5F7F4FC8010E94A7087C01CE01E9
:1016400001960E9475269701F7FC7FC0F80133834D
:101650002283ABCF6BEC71E0CE0101960E94D326C2
:10166000B701CE0107960E940D27BE016F5F7F4F25
:10167000CE0107960E941F03D82ECE0107960E9426
:101680007526CE0101960E947526DD20F9F0B7017E
:10169000CE0101960E940D27BE016F5F7F4FC801EA
:1016A0000E94A7087C01CE0101960E947526F0E5F4
:1016B000EF16F1040CF498C0C7018D38910514F0B1
:1016C0008CE890E0F801978B868B6FCF61ED71E02D
:1016D000CE0101960E94D326B701CE0107960E9443
:1016E0000D27BE016F5F7F4FCE0107960E941F033B
:1016F000D82ECE0107960E947526CE0101960E9433
:101700007526DD2051F16E01FDE0CF0ED11CB70131
:10171000C6010E940D27B601C8010E94A7088E3598
:1017200091400CF098C06EE5E62EFF24F394C601BC
:101730000E947526F801F586E486F092FC02E0929C
:10174000FB0233CF8EE591E020CF31952195310911
:101750007DCF3195219531095FCF67ED71E0CE01E5
:1017600001960E94D326B701CE0107960E940D274D
:10177000BE016F5F7F4FCE0107960E941F03D82ED8
:10178000CE0107960E947526CE0101960E9475260D
:10179000DD2069F16E01FDE0CF0ED11CB701C6015D
:1017A0000E940D27B601C8010E94A7081816190645
:1017B0000CF0A0C0B701CE0107960E940D27BE0114
:1017C000695F7F4FC8010E94A7080A970CF411C1F6
:1017D00059E0F52ECE0107960E947526C6010E949B
:1017E0007526F801F782E1CE80E590E06BCF6CEDD5
:1017F00071E0CE0101960E94D326B701CE01079673
:101800000E940D27BE016F5F7F4FCE0107960E9499
:101810001F03D82ECE0107960E947526CE01019691
:101820000E947526DD2079F16E01FDE0CF0ED11CFE
:10183000B701C6010E940D27B601C8010E94A70882
:1018400009970CF0C1C039E0F32EC6010E9475263D
:10185000F801F086AACEB701CE0107960E940D27A7
:10186000BE01695F7F4FC8010E94A708893B9B406A
:101870000CF499C078EBE72E7BE0F72ECE010796AB
:101880000E94752654CF61EE71E0CE0101960E9450
:10189000D326B701CE0107960E940D27BE016F5FC8
:1018A0007F4FCE0107960E941F03D82ECE010796C8
:1018B0000E947526CE0101960E947526DD20E9F072
:1018C0006E01FDE0CF0ED11CB701C6010E940D27AD
:1018D000B601C8010E94A708863491050CF005C125
:1018E00096E4E92EF12CC6010E947526F801F786D0
:1018F000E6865BCEFF24F39471CF66EE71E0CE01F5
:1019000001960E94D326B701CE0107960E940D27AB
:10191000BE016F5F7F4FCE0107960E941F03D82E36
:10192000CE0107960E947526CE0101960E9475266B
:10193000DD2009F46FC06E01FDE0CF0ED11CB701B0
:10194000C6010E940D27B601C8010E94A70897FF93
:10195000B5C0E12CF12CC6010E947526F801F58A6C
:10196000E48AB701882777FD8095982F1F921F92F0
:101970001F9228E72F93AAE0AA2EB12CC12CD12CBC
:1019800014E6E12EF12C00E010E020E030E0A901A7
:101990000E942E2670935D0260935C020F900F9060
:1019A0000F900F9002CEB701CE0101960E940D2735
:1019B000BE016F5F7F4FC8010E94A7087C01CE0166
:1019C00001960E9475265ACFB701CE0107960E9454
:1019D0000D27BE01695F7F4FC8010E94A7080B97C2
:1019E0000CF49DC04AE0F42ECE0107960E947526A5
:1019F0002CCFB701CE0101960E940D27BE016F5F6B
:101A00007F4FC8010E94A708F82ECE0101960E94C0
:101A10007526E0CE6CEE71E0CE0101960E94D326D1
:101A2000B701CE0107960E940D27BE016F5F7F4F61
:101A3000CE0107960E941F03D82ECE0107960E9462
:101A40007526CE0101960E947526D11065C062EF01
:101A500071E0CE0101960E94D326B701CE01079610
:101A60000E940D27BE016F5F7F4FCE0107960E9437
:101A70001F03D82ECE0107960E947526CE0101962F
:101A80000E947526DD2009F45BC06E01FDE0CF0EDB
:101A9000D11CB701C6010E940D27B601C8010E94E2
:101AA000A708C2970CF0FEC0E2E3EE2EF12CC601AF
:101AB0000E947526F801F18AE08A77CDB701CE0140
:101AC00007960E940D27BE01695F7F4FC8010E94E3
:101AD000A708853691050CF4D4C084E6E82EF12CD5
:101AE000CE0107960E94752636CFB701CE01079624
:101AF0000E940D27BE01695F7F4FC8010E94A708A1
:101B0000833891050CF454C022E8E22EF12CCE016A
:101B100007960E947526E7CE0E94D00246CDB701F7
:101B2000CE0101960E940D27BE016F5F7F4FC80155
:101B30000E94A708F82ECE0101960E94752654CF68
:101B400068EF71E0CE0101960E94D326B701CE0165
:101B500007960E940D27BE016F5F7F4FCE0107964B
:101B60000E941F03D82ECE0107960E947526CE0133
:101B700001960E947526DD2061F16E01FDE0CF0E19
:101B8000D11CB701C6010E940D27B601C8010E94F1
:101B9000A7088C3E9F4F0CF057C16CEEE62EFF2439
:101BA000FA94C6010E947526F801F38AE28AFDCCF8
:101BB000B701CE0101960E940D27BE016F5F7F4FD6
:101BC000C8010E94A7087C01CE0101960E947526DB
:101BD0009ECF6EEF71E0CE0101960E94D326B70131
:101BE000CE0107960E940D27BE016F5F7F4FCE0189
:101BF00007960E941F03D82ECE0107960E947526D5
:101C0000CE0101960E947526D11063C063E072E098
:101C1000CE0101960E94D326B701CE0107960E94FD
:101C20000D27BE016F5F7F4FCE0107960E941F03F5
:101C3000D82ECE0107960E947526CE0101960E94ED
:101C40007526DD2009F4B1CCD090FD02F801808525
:101C50008093FD02B701CE0101960E940D27BE01BF
:101C60006F5F7F4FC8010E94A708BC0183EE92E01E
:101C70000E94A71FCE0101960E947526D092FD02F8
:101C800094CCB701CE0101960E940D27BE016F5F73
:101C90007F4FC8010E94A7087C01CE0101960E94D7
:101CA00075261ECFB701CE0107960E940D27BE01F3
:101CB000695F7F4FC8010E94A708873991050CF41E
:101CC000D8C0F6E9EF2EF12CCE0107960E947526BA
:101CD000EECE3090FD02F80180858093FD026AE22D
:101CE00071E0CE0101960E94D326BE016F5F7F4F47
:101CF000C7010E942B288C01CE0101960E947526F7
:101D00000F5F1F4F6AE271E0CE0101960E94D32659
:101D1000A801BE016F5F7F4FC7010E940F286C01B1
:101D2000CE0101960E9475269601A801B701CE0149
:101D300001960E942F28CE0101960E9475282B0142
:101D40003C01CE0101960E947526FFEFCF1ADF0AF3
:101D50006AE271E0CE0101960E94D326A601BE017F
:101D60006F5F7F4FC7010E940F288C01CE01019643
:101D70000E9475269801A601B701CE0101960E9426
:101D80002F28CE0101960E9475284B015C01CE01DF
:101D900001960E9475260F5F1F4F6AE271E0CE0127
:101DA00001960E94D326A801BE016F5F7F4FC70135
:101DB0000E940F286C01CE0101960E9475269601A3
:101DC000A801B701CE0101960E942F28CE010196ED
:101DD0000E9475286B8B7C8B8D8B9E8BCE01019620
:101DE0000E94752686010F5F1F4F6AE171E0CE01E8
:101DF00001960E94D326A801BE016F5F7F4FC701E5
:101E00000E940F286C01CE0101960E947526960152
:101E1000A801B701CE0101960E942F28CE0101969C
:101E20000E9475286B017C01CE0101960E947526E7
:101E300086012B893C89A401B20183EE92E00E94C5
:101E40008B1C3092FD02B1CBB701CE0107960E94E8
:101E50000D27BE01695F7F4FC8010E94A708459703
:101E6000CCF074E1E72EF12CCE0107960E94752686
:101E700098CEB701CE0101960E940D27BE016F5F7B
:101E80007F4FC8010E94A7087C01CE0101960E94E5
:101E900075261ACFB701CE0101960E940D27BE010B
:101EA0006F5F7F4FC8010E94A7087C01CE01019699
:101EB0000E947526D9CF449A459AE9EBF0E08081DB
:101EC0008E7F808380818D7F808388E48093B800BB
:101ED00084E48093BC0008957093F9036093F80341
:101EE00008953091FC032091FA03231B2093FB03F8
:101EF000332341F031503093FC03FC01E20FF11D1C
:101F0000838108951092FB0380E008958F929F9241
:101F1000AF92BF92CF92DF92EF92FF920E949A21EE
:101F20006B017C0184EA8093BC002091F80330911E
:101F3000F90303C021153105F9F48091BC0087FF36
:101F4000F9CF8091B900887F883079F18091B9000C
:101F5000887F803151F18091B900887F883339F1D1
:101F60008091B900887FFF90EF90DF90CF90BF9075
:101F7000AF909F908F9008950E949A216C197D09CF
:101F80008E099F092091F8033091F9034901A12C92
:101F9000B12C681579058A059B0578F21092BC0072
:101FA00084E48093BC0081E0DECF80E0DCCF8091D0
:101FB000B9001092BC0094E49093BC00887FD3CF0A
:101FC0008F929F92AF92BF92CF92DF92EF92FF9249
:101FD000CF93C62F0E949A216B017C01CC23D1F1B3
:101FE00084EC8093BC002091F8033091F90303C086
:101FF00021153105B1F48091BC0087FFF9CF8091A4
:10200000B900887F883351F18091B900887FCF91E2
:10201000FF90EF90DF90CF90BF90AF909F908F9008
:1020200008950E949A216C197D098E099F092091BB
:10203000F8033091F9034901A12CB12C68157905F9
:102040008A059B05C0F21092BC0084E48093BC001A
:1020500081E0DDCF84E88093BC00C5CF8091B900DA
:102060001092BC0094E49093BC00887FD0CF8F92F4
:102070009F92AF92BF92CF92DF92EF92FF920E9417
:102080009A216B017C0184E98093BC002091F803C4
:102090003091F90303C02115310571F48091BC0022
:1020A00084FDF9CF80E0FF90EF90DF90CF90BF905C
:1020B000AF909F908F9008950E949A216C197D098E
:1020C0008E099F092091F8033091F9034901A12C51
:1020D000B12C681579058A059B0500F31092BC00A8
:1020E00084E48093BC0081E0DECF8F929F92AF9218
:1020F000BF92CF92DF92EF92FF921F93CF93DF9325
:10210000EC016093BB000E949A216B017C0184E882
:102110008093BC002091F8033091F90303C021158E
:10212000310569F58091BC0087FFF9CF8091B90036
:10213000887F8831E9F18091B900887F8034C1F1CE
:102140001091B900187F8091B900887F803291F199
:102150008091B900887F883469F11092BC0084E4D2
:102160008093BC00812FDF91CF911F91FF90EF9062
:10217000DF90CF90BF90AF909F908F9008950E9476
:102180009A216C197D098E099F092091F8033091DD
:10219000F9034901A12CB12C681579058A059B0525
:1021A00008F21092BC0084E48093BC0081E0DBCF95
:1021B00080E0D9CFCE010E943710D4CF8F929F926A
:1021C000AF92BF92CF92DF92EF92FF921F93CF9385
:1021D000DF93EC016093BB000E949A216B017C01AC
:1021E00084E88093BC002091F8033091F90303C088
:1021F0002115310519F58091BC0087FFF9CF809139
:10220000B900887F883299F11091B900187F9091B8
:10221000B900987F903369F11092BC0084E48093F8
:10222000BC00812FDF91CF911F91FF90EF90DF9045
:10223000CF90BF90AF909F908F9008950E949A2169
:102240006C197D098E099F092091F8033091F903DB
:102250004901A12CB12C681579058A059B0558F216
:102260001092BC0084E48093BC0081E0DBCF80E06E
:10227000D9CFCE010E943710812FD4CF0F931F9357
:10228000CF93DF93EC01162F042F19820E94860F43
:102290008983882329F0DF91CF911F910F910895B1
:1022A000612F660FCE010E9475108983882341F04B
:1022B000813089F782E0DF91CF911F910F910895CE
:1022C000602FCE010E94DE108983882321F08130A7
:1022D00011F783E0E0CFCE010E9437108983882375
:1022E00021F08130C1F687E0D6CF80E0D4CFEF92E5
:1022F000FF920F931F93CF93DF93EC01162F042FC0
:10230000F22E1092FC031092FB03222389F08FEF30
:10231000820F8A831982CE010E94860F89838823C7
:1023200091F0DF91CF911F910F91FF90EF90089561
:1023300080E0FF24F3948A831982CE010E94860FE5
:1023400089838111EECF110F612FCE010E9475108C
:102350008983882351F0813021F782E0DF91CF918A
:102360001F910F91FF90EF900895602FCE010E9472
:10237000DE108983882321F0813099F683E0D1CF64
:10238000CE010E94860F8983882321F0813049F68F
:1023900084E0C7CF61E0610FCE010E947510898390
:1023A000882329F0813009F0BCCF85E0BACF8E01B7
:1023B0000D5F1F4FE12C16C061E0CE010E94E00FBF
:1023C0008983813041F1803509F0ABCF8091BB002A
:1023D000F80181938F01E394E092FC03E092FA0309
:1023E000EF1469F08A818E11E7CF60E0CE010E9480
:1023F000E00F8983813079F0883541F392CFCE01A7
:102400000E9437108983882309F48BCF813009F02B
:1024100088CF87E086CF86E084CFFC0167A714864B
:1024200008958F929F92AF92BF92CF92DF92EF92D8
:10243000FF920F931F93CF93DF93EC011F921F9294
:102440001F9288E78F939EE1A92EB12CC12CD12C2D
:1024500014E6E12EF12C00E010E020E030E0A901CC
:1024600063E270E080E090E00E942E267EA36DA3E0
:102470001D8A1BA280E090E4ACE9B6E48F8B988FB4
:10248000A98FBA8F85ED93E00E945B0F60E570E045
:1024900085ED93E00E946C0F4EE16FA585ED93E012
:1024A0000E943E118EAF1FAE0F900F900F900F90B5
:1024B000882379F081E08FAFDF91CF911F910F9149
:1024C000FF90EF90DF90CF90BF90AF909F908F9054
:1024D000089564E670E080E090E00E94CA218E01D9
:1024E00082EAB82E7E0182E4E80EF11C6E01E0E47F
:1024F000CE0ED11CAA24A39408C0AFAEB394B3945B
:102500000E5F1F4FFEEABF16B9F222E04B2D6FA5FA
:1025100085ED93E00E9477118EAF8111EECF85EDAE
:1025200093E00E94710F90E0F7019183808385ED25
:1025300093E00E94710F90E0F60191838083F70190
:102540009080812C88299929F80193AB82ABD6CF52
:102550002F923F924F925F926F927F928F929F92B3
:10256000AF92BF92CF92DF92EF92FF920F931F93A1
:10257000CF93DF93CDB7DEB76A970FB6F894DEBF7F
:102580000FBECDBF9A8F898FDC011C968C91813054
:1025900009F48FC3823009F45CC4882351F16A9630
:1025A0000FB6F894DEBF0FBECDBFDF91CF911F9164
:1025B0000F91FF90EF90DF90CF90BF90AF909F90E2
:1025C0008F907F906F905F904F903F902F900895E5
:1025D00023E040E0A98DBA8D9F966C9185ED93E044
:1025E0000E947711882309F44BC5A98DBA8D1C96DA
:1025F0001C9248E4A98DBA8D9F966C9185ED93E06D
:102600000E943E11E98DFA8DEC57FF4FFC8BEB8B4E
:10261000098D1A8D00581F4FF80180819181A28188
:10262000B381EB89FC8980839183A283B3830E9469
:10263000A621D8016D937D938D939C931397DC0114
:10264000CB01B695A79597958795E98DFA8D87A3C8
:1026500090A7A1A7B2A781E08487EC5BFF4FFA8324
:10266000E98311E080819181A281B3811816190656
:102670001A061B060CF01BC40E949A21693E734087
:102680008105910508F48BCF112309F488CF498D7A
:102690005A8D445B5F4FDA014D905D906D907C9058
:1026A000A98DBA8DA85BBF4F411451046104710418
:1026B00009F4F8C28D919D910D90BC91A02D480E0A
:1026C000591E6A1E7B1E77FC41C47594679457940B
:1026D0004794298D3A8D205B3F4FF901408251820A
:1026E00062827382FA0180839183A283B383A98D6E
:1026F000BA8DDA968D919C91DB97A0E0B0E0BA2F6D
:10270000A92F982F8827481A590A6A0A7B0AD301E9
:10271000C201BB0F880B982FDC01E98DFA8DEC5AB2
:10272000FF4F4082518262827382848385838683D5
:102730008783E98DFA8D24AD35AD40E050E0C301CB
:10274000B2010E948C2B07E10E94DF2B2053384FEF
:102750004F4F5F4F6F4F7F4F8F4F9F4F0E947F298B
:102760000E944E29E98DFA8DE45AFF4F60837183F0
:1027700082839383A98DBA8D6D937D938D939C9362
:102780001397D896ED91FC91D997D4968D909C9003
:10279000D597940140E050E060E070E080E090E088
:1027A00000E10E94C62B79011A014B018D839987A4
:1027B0009F0140E050E0C301B2010E948C2B07E072
:1027C0000E94DF2B59016A01F62FE72F8C01970138
:1027D000A101B4018D819985EF2EFE2E0E94FD2B63
:1027E0002D83832E942E5987698B7D871C01E98D5B
:1027F000FA8DE05AFF4F20833183428353836483F1
:10280000758386833782A98DBA8DD696ED91FC911A
:10281000D797D2962D913C91D39740E050E060E05D
:1028200070E080E090E00FE00E94C62BB22EC32E35
:10283000D42EE52EF62E7D8B8F8B988F9F0140E056
:1028400050E0C301B2010E948C2B08E00E94DF2BF4
:10285000A22E732EB42FA52F662E572E8C012B2D52
:102860003C2D4D2D5E2D6F2D7D898F89988DB72C38
:10287000CB2EDA2EE62CF52C0E94FD2BE98DFA8D5D
:10288000E859FF4F208331834283538364837583E8
:1028900086839783E981FA81E080F1800281138148
:1028A00027013801770C4408542C32015701680184
:1028B000E42CF42C042D142D0E94332B05E10E94EE
:1028C000DF2BAD80B82CC92CD984E988FD84810127
:1028D0000E94062C49013A01B62FA72FF82FE92FA5
:1028E00006E00E94C62B54016301EB2EFA2E0F2F37
:1028F0001E2F0E94062C01E00E94C62B0F2F0E9463
:10290000062C49013A01B62FA72FF82FE92F02E034
:102910000E94C62B59016A017B018C019401A3011D
:102920006B2F7A2F8F2F9E2F0E94FD2B04E00E9489
:10293000C62B0FE00E94DF2B59016A017B018C013D
:10294000A98DBA8D14962C9314971596BC92159751
:1029500016964C9316971796DC92179718966C93C9
:1029600018971996FC9219971A968C931A971B969A
:102970001C9320353143464E58436105710581054E
:10298000910509F00CF42AC220ED37EF44E65CE330
:1029900060E070E080E090E00E94062C0E947F29B9
:1029A00025EF3FE94EEA5DE30E945F2A0E944E292F
:1029B000E98DFA8D658776878787908B69837A831F
:1029C0008B839C83298C3A8CB0E72B0E311CF10150
:1029D0004080518062807380AB89BC892D913D918C
:1029E0004D915C912D833E834F8358874114510450
:1029F0006104710409F4BEC1E98DFA8DEC58FF4FF2
:102A0000FE8BED8BC080D180E280F380098D1A8D22
:102A100008581F4FD8018D909D90AD90BC90E98DC6
:102A2000FA8DE857FF4FFA8BE98B20813181428183
:102A3000538129873A874B875C8769817A818B81AB
:102A40009C81681979098A099B090E9485292DECC6
:102A50003CEC4CEC5DE30E945F2A6D877E878F879C
:102A6000988BC501B4010E9485299B01AC016D853D
:102A70007E858F8598890E9482280E944E296D87C5
:102A80007E878F87988B69817A818B819C816C1975
:102A90007D098E099F090E9485292BE734E14EEAC2
:102AA0005DE30E945F2A4B015C01C701B6010E94F1
:102AB00085299B01AC01C501B4010E9482280E94B6
:102AC0004E296B017C016D857E858F8598896C19F7
:102AD0007D098E099F090E9485292BE735E141EB8D
:102AE00055E40E945F2A4B015C0169817A818B81E8
:102AF0009C8164197509860997090E9485292AE035
:102B000037ED43E25DE30E945F2A69837A838B831A
:102B10009C83C301B2010E9485299B01AC0169819C
:102B20007A818B819C810E9482280E944E29D1014A
:102B30006C9311967C93119712968C93129713961F
:102B40009C9381E0E98DFA8D868BAD89BE89CD920B
:102B5000DD92ED92FC9213972D853E854F85588925
:102B6000D8012D933D934D935C9313972D813E8116
:102B70004F81588589859A85AB85BC8582179307D7
:102B8000A407B50708F4C3C06789708D818D928D45
:102B90009B01AC01C501B4010E94E6284B015C0118
:102BA000E98DFA8DE457FF4F6083718382839383AD
:102BB000098D1A8D00571F4FF801C080D180E28027
:102BC000F380A98DBA8D95968D919C919697BC01B5
:102BD000882777FD8095982F0E9485292B013C013D
:102BE000A7019601C501B4010E9481289B01AC0197
:102BF000C301B2010E945F2A2FE632E143E85AE3A3
:102C00000E945F2A9B01AC01C701B6010E94822885
:102C1000F80160837183828393830E944E294B0164
:102C20005C01A98DBA8D5B966D937D938D939C937A
:102C30005E975F966D917D918D919C9192970E9488
:102C400085297B018C0123E333E343E75FE3C5017F
:102C5000B4010E946D03E98DFA8D678F70A381A383
:102C600092A311E013A3D1016D917D918D919C915F
:102C700024E630E040E050E00E94F42AE98DFA8D2D
:102C8000218B328B438B548B158BEB89FC89808194
:102C90009181A281B381E989FA8980839183A2839A
:102CA000B3837DCC4D905D906D907C90D301C2013B
:102CB00006CD0E94A6219695879577956795E98D13
:102CC000FA8DE458FF4F6083718382839383A98DCB
:102CD000BA8D97960D911D912D913C919A97601701
:102CE00071078207930728F4906860837183828359
:102CF00093830C561E4E2F4F3F4FE98DFA8D0617CA
:102D000017072807390708F427C1848546CCA98D01
:102D1000BA8D5796CD90DD90ED90FC905A976D81CD
:102D20007E818F81988529853A854B855C85621BDC
:102D3000730B840B950B0E948329A70196010E94B7
:102D400081282DEC3CEC4CEC5DE30E945F2A9B015A
:102D5000AC01C701B6010E9482289B01AB01BC01F6
:102D6000A98DBA8D57964D935D936D937C935A9729
:102D7000B9010ECF20523E444109510929873A87B3
:102D80004B875C87E98DFA8DE857FF4FFA8BE98B0B
:102D9000208331834283538369817A818B819C8133
:102DA0000E94852920E030E0A9010E9482280E942B
:102DB0004E296B017C01C701CD86DE86EF86F88A3D
:102DC000812C912C5401E98DFA8DEC58FF4FFE8B2C
:102DD000ED8B098D1A8D08581F4FA9CE9501A601BC
:102DE000B701C80120343D4F414955436105710584
:102DF0008105910509F00CF45CC020E531E346EE55
:102E000058E360E070E080E090E00E94062C0E94B1
:102E10007F2927E239E547EB5DE30E945F2A20E83E
:102E200036E948E95AE40E9482280E944E29A98D79
:102E3000BA8D1D966C931D971E967C931E971F96B8
:102E40008C931F9750969C9369837A838B839C8382
:102E5000B9CD0E94A6219695879577956795E98DBE
:102E6000FA8DE458FF4F6083718382839383A98D29
:102E7000BA8D97960D911D912D913C919A9760175F
:102E800071078207930728F49068608371838283B7
:102E900093830C561E4E2F4F3F4F061717072807D8
:102EA000390708F495CBE98DFA8D848576CB10E04F
:102EB000E3CB9501A601B701C8012036314A4C4643
:102EC00052436105710581059105D1F0CCF020E4F4
:102ED0003DEF41E955E360E070E080E090E00E9462
:102EE000062C0E947F292CE433E042EC5DE30E9433
:102EF0005F2A20E836E948E15BE40E94822856CD4B
:102F00009501A601B701C801203A3E4642465F42FC
:102F1000610571058105910509F00CF44BC020E6AF
:102F200031EA4CE652E360E070E080E090E00E941D
:102F3000062C0E947F2929EC38EC48EC5DE30E94C6
:102F40005F2A20EC31EE44E65BE46DCFEFEF4E1AE2
:102F50005E0A6E0A7E0AB9CB13A614A615A616A69B
:102F600023E040E067A585ED93E00E947711882378
:102F700009F446C0E98DFA8DEC5BFF4F1082118297
:102F80001282138248E5A98DBA8D9F966C9185EDCA
:102F900093E00E943E110E94A62196958795779511
:102FA0006795E98DFA8D67A370A781A792A782E044
:102FB0008487F5CA9501A601B701C801203E3D42AC
:102FC00044485C42610571058105910509F00CF4E6
:102FD00097C020EA3EE642E65FE260E070E080E013
:102FE00090E00E94062C0E947F2924E23DEC44EDF3
:102FF0005DE30E945F2A20E836E948E95BE47DCF83
:1030000085ED93E00E94710F90E0A0E0B0E0BA2F50
:10301000A92F982F8827E98DFA8D83A794A7A5A7B4
:10302000B6A785ED93E00E94710FA98DBA8D9B968E
:103030004D915D916D917C919E97482B762F652FD8
:10304000542F4427FD0143A754A765A776A785ED14
:1030500093E00E94710FA98DBA8D9B964D915D9161
:103060006D917C919E97482BFD0143A754A765A7BE
:1030700076A7EC5BFF4F408351836283738382CFDB
:1030800085ED93E00E94710F90E0A0E0B0E0BA2FD0
:10309000A92F982F8827E98DFA8D83A794A7A5A734
:1030A000B6A785ED93E00E94710FA98DBA8D9B960E
:1030B0004D915D916D917C919E97482B762F652F58
:1030C000542F4427FD0143A754A765A776A785ED94
:1030D00093E00E94710FA98DBA8D9B964D915D91E1
:1030E0006D917C919E97482BFD0143A754A765A73E
:1030F00076A7E85BFF4F408351836283738375CA71
:103100009501A601B701C80121153E434A4C594219
:103110006105710581059105C1F0BCF020EE3DE22D
:1031200044E85CE260E070E080E090E00E94062C01
:103130000E947F2923EC3FED4FED5DE30E945F2A63
:1031400020E23CEB4EEB5BE46ECE9501A601B701AD
:10315000C801203836464343574261057105810551
:103160009105C1F0BCF020E03EE34AEC59E260E09A
:1031700070E080E090E00E94062C0E947F2929E305
:103180003AEB4BEE5DE30E945F2A20EC31EE44EE19
:103190005BE4B3CE9501A601B701C801203D3744D9
:1031A0004E4B54426105710581059105C1F0BCF09B
:1031B00020E836E643E357E260E070E080E090E02C
:1031C0000E94062C0E947F2923EE3CE548EF5DE338
:1031D0000E945F2A20EB33E845E05CE424CE9501B1
:1031E000A601B701C80120353B4549465242610559
:1031F000710581059105C1F0BCF020ED37E44EEB7F
:1032000054E260E070E080E090E00E94062C0E94B2
:103210007F292DE131EE42E05EE30E945F2A20E843
:1032200036E948E15CE469CE20E53BE549E652E257
:1032300060E070E080E090E00E94062C0E947F2910
:1032400020E734E14AE05EE30E945F2A20E539EAA4
:103250004BE25CE4E8CDFC0186E9868784EF91E0EF
:10326000908B878788E2818B88E7828B2AE0238B8B
:1032700082E3848B80E991E0968B858B81E0878B5C
:10328000228F8CE89AE0918F808F08954F925F9201
:103290006F927F928F929F92AF92BF92CF92DF9266
:1032A000EF92FF920F931F93CF93DF93CDB7DEB7CB
:1032B0002C970FB6F894DEBF0FBECDBF4C012A018C
:1032C0003B016091D9027091DA02882777FD8095E1
:1032D000982F0E94852920E030E048EC52E40E94BB
:1032E000E6286D837E838F839887D40155968D91D0
:1032F0009C9156979C01442737FD4095542F298374
:103300003A834B835C8342165306640675060CF4BD
:103310005CC0F4018289618970E0680F711D8827A3
:1033200077FD8095982F0E9485292D813E814F81C0
:1033300058850E945F2A0E944E295B016C01D401CE
:1033400054968C91549753964C9150E0480F511DD0
:10335000662757FD6095762F7F936F935F934F930A
:1033600010E2E12E13E0F12E00E010E029813A8115
:103370004B815C81C301B2010E942E26F401448975
:10338000238930E0240F311DCB010F900F900F9057
:103390000F9062177307BCF02C960FB6F894DEBF3F
:1033A0000FBECDBFDF91CF911F910F91FF90EF9096
:1033B000DF90CF90BF90AF909F908F907F906F9055
:1033C0005F904F900895C901E7CF1E968C911E978C
:1033D0001F966D917C915097680F711D882777FD1E
:1033E0008095982F0E9485292D813E814F81588597
:1033F0000E945F2A0E944E295B016C018091CD02E0
:103400009091CE029C01442737FD4095542F298787
:103410003A874B875C87D40152968C91529751968C
:103420006C9170E0680F711D882777FD8095982F4B
:103430000E9485292D813E814F8158850E945F2AF7
:103440000E944E299F938F937F936F93E980FA8018
:103450000B811C8129853A854B855C85C301B201AE
:103460000E942E260F900F900F900F90CB0194CFBB
:103470004F925F926F927F928F929F92AF92BF9284
:10348000CF92DF92EF92FF920F931F93CF93DF9330
:10349000CDB7DEB728970FB6F894DEBF0FBECDBF0D
:1034A0004C012A013B016091D9027091DA02882710
:1034B00077FD8095982F0E94852920E030E048EC28
:1034C00052E40E94E6289B01AC01D40155968D91EF
:1034D0009C9156977C010027F7FC0095102FE982FC
:1034E000FA820B831C834E145F04600671060CF491
:1034F0004EC0F401628970E080E090E02D833E834D
:103500004F8358870E9485292D813E814F815885A0
:103510000E945F2A0E944E29D40154962C911F923A
:103520001F921F922F935B016C0110E2E12E13E0BA
:10353000F12E00E010E029813A814B815C81C301CA
:10354000B2010E942E26F401248930E0CB010F90B5
:103550000F900F900F9062177307BCF028960FB66C
:10356000F894DEBF0FBECDBFDF91CF911F910F91B9
:10357000FF90EF90DF90CF90BF90AF909F908F9093
:103580007F906F905F904F900895C901E7CF1F968D
:103590006D917C915097882777FD8095982F2D838A
:1035A0003E834F8358870E9485292D813E814F811C
:1035B00058850E945F2A0E944E292091CD023091A9
:1035C000CE02442737FD4095542FD4015296EC91FA
:1035D0001F921F921F92EF935B016C01E980FA80AA
:1035E0000B811C81C301B2010E942E260F900F9007
:1035F0000F900F90CB01B2CF4F925F926F927F925C
:103600008F929F92AF92BF92CF92DF92EF92FF92F2
:103610000F931F93CF93DF9300D000D0CDB7DEB7C9
:103620004C012A013B010E949A21D4016D937D93A4
:103630008D939C93139716960D911D912D913C910E
:1036400019976B017C01C01AD10AE20AF30A1A9693
:103650000D911D912D913C911D970C151D052E0569
:103660003F0508F0E3C0F4012789222309F495C03F
:1036700066837783808791874091CD025091CE02F7
:10368000662757FD6095762F441655066606770621
:103690000CF098C0E090CF02F090D0020027F7FC29
:1036A0000095102FE414F504060517050CF0C3C0AF
:1036B0000E949A210091FD031091FE032091FF03C7
:1036C00030910004601771078207930708F0DAC091
:1036D0008091CD029091CE029C01442737FD409508
:1036E000542F29833A834B835C8342165306640626
:1036F00075060CF4C7C0B4E64B165104610471049E
:103700000CF4D6C0D40158964D915C9159975A014A
:10371000CC24B7FCC094DC2C485A5D4F662757FD7B
:103720006095762F7F936F935F934F9310E2E12E16
:1037300013E0F12E00E010E029813A814B815C8199
:10374000C301B2010E942E260F900F900F900F9090
:10375000683C71050CF4DAC0F401208D318D2454DD
:103760003D4F261737070CF4B901CB01D40115964C
:103770007C936E9314976091010470910204680F1A
:10378000791F80E090E0EE24E39408E813E120E064
:1037900030E05A964C910E9437200F900F900F9076
:1037A0000F90DF91CF911F910F91FF90EF90DF90DD
:1037B000CF90BF90AF909F908F907F906F905F90D1
:1037C0004F90089510920404109203048CE99FEF27
:1037D0009093020480930104B301A201C4010E94EA
:1037E0004619AC01662757FD6095762FF401428794
:1037F0005387648775870E949A216B017C01B3010E
:10380000A201C4010E94381AAC01662757FD6095D9
:10381000762F4C0D5D1D6E1D7F1D4093FD03509353
:10382000FE036093FF0370930004D40157968C91BC
:10383000811130CFB2CF1F921F921F928CED8F93C8
:103840004CE3A42EB12CC12CD12C20EE3CEF4FEF39
:103850005FEFC301B2010E942E26F40175836483D9
:10386000882777FD8095982FEE24E39408EE13E0E7
:1038700020E030E0428D0E9437200F900F900F9093
:103880000F908BCF0F900F900F900F90DF91CF91F3
:103890001F910F91FF90EF90DF90CF90BF90AF906E
:1038A0009F908F907F906F905F904F900C9400212D
:1038B00020910304309104042A3F310508F022CFFF
:1038C000A9014F5F5F4F50930404409303049A0192
:1038D000A9E8B8E80E94192B929582958F708927E4
:1038E0009F7089276EE1689F9001699F300D1124B8
:1038F0004217530709F006CF80910104909102040A
:1039000001969093020480930104FCCE88EC90E031
:1039100068EC70E02BCF2F923F924F925F926F92A4
:103920007F928F929F92AF92BF92CF92DF92EF924F
:103930000F931F93CF93DF9300D000D000D0CDB76B
:10394000DEB71C0169011216130674F5CA01AA2715
:1039500097FDA095BA2F89839A83AB83BC832B01F3
:10396000662457FC6094762C4801AA2497FCA09406
:10397000BA2CA1E0B0E0BE83AD83E12C09811A81AD
:103980002B813C81F101428DC301B2010E9437209D
:10399000C501B4010E94CA218D819E8101969E833A
:1039A0008D83C816D9064CF726960FB6F894DEBF5D
:1039B0000FBECDBFDF91CF911F910F91EF90DF90A0
:1039C000CF90BF90AF909F908F907F906F905F90BF
:1039D0004F903F902F900895EF920F931F93CF93A6
:1039E000DF93EC016F8B611124C0EE24E3940EE5AC
:1039F00011E020E030E04A8D62EC71E080E090E080
:103A00000E9437206EE571E080E090E00E94CA21BC
:103A100004EF11E020E030E04A8D64EB70E080E0DC
:103A200090E00E943720DF91CF911F910F91EF908E
:103A3000089504E610E022E030E046E950E068EE48
:103A400073E00E948B1CDF91CF911F910F91EF903B
:103A500008952F923F924F925F926F927F928F9232
:103A60009F92AF92BF92CF92DF92EF920F931F93EC
:103A7000CF93DF93CDB7DEB728970FB6F894DEBFAC
:103A80000FBECDBF9A83898378876F833A0169011E
:103A9000641775070CF451C046175707ACF1C801FD
:103AA000AA2797FDA095BA2F8B839C83AD83BE83F5
:103AB00022243324221A330A442437FC4094542C01
:103AC0004A01AA2497FCA094BA2CEE24E39408E8B7
:103AD00013E120E030E0A981BA815A964C91C501EA
:103AE000B4010E9437206B817C818D819E810E9470
:103AF000CA216C187D08820C931CA41CB51CEF8194
:103B0000F8856E167F060CF728960FB6F894DEBF80
:103B10000FBECDBFDF91CF911F910F91EF90DF903E
:103B2000CF90BF90AF909F908F907F906F905F905D
:103B30004F903F902F900C940021C801AA2797FD29
:103B4000A095BA2F8B839C83AD83BE831901442437
:103B500037FC4094542CAF81B8854D01AA2497FCC2
:103B6000A094BA2CEE24E39408E813E120E030E0BE
:103B7000E981FA81428DC501B4010E9437206B8131
:103B80007C818D819E810E94CA218F8198858C0DB8
:103B90009D1D98878F83820C931CA41CB51C6816EE
:103BA000790604F7B1CF8F929F92AF92BF92EF92B6
:103BB0000F931F93CF93DF93EC0158EE852E53E0C4
:103BC000952EA12CB12CEE24E3940CE310E020E020
:103BD00030E04A8DC501B4010E94372064E070E0F6
:103BE00080E090E00E94CA2189E1880E911CA11C0E
:103BF000B11C81ED88168BE09806A104B10419F779
:103C0000DF91CF911F910F91EF90BF90AF909F9058
:103C10008F900C9400218F929F92AF92BF92EF925F
:103C20000F931F93CF93DF93EC0168EB862E6BE02D
:103C3000962EA12CB12CEE24E3940CE310E020E0AE
:103C400030E04A8DC501B4010E94372064E070E085
:103C500080E090E00E94CA2189E1881A9108A108B9
:103C6000B1088FEC881683E09806A104B10419F717
:103C7000DF91CF911F910F91EF90BF90AF909F90E8
:103C80008F900C9400218F929F92AF92BF92EF92EF
:103C90000F931F934B01AA2497FCA094BA2CEE24F7
:103CA000E39409E110E020E030E0FC01428DC50121
:103CB000B4010E94372069E170E080E090E00E944A
:103CC000CA211F910F91EF90BF90AF909F908F905E
:103CD0000C940021EF920F931F93EE24E39404EFD2
:103CE00011E020E030E04AE068E27AE080E090E035
:103CF0000E94372060E273E080E090E00E94CA21D9
:103D000004EF11E020E030E04AE068E27AE080E091
:103D100090E00E94372060E273E080E090E00E9433
:103D2000CA2108EE13E020E030E04AE060ED77E0E1
:103D300080E090E00E94372068EE73E080E090E041
:103D40001F910F91EF900C94CA218F929F92AF9286
:103D5000BF92EF920F931F93CF93DF93EC0178EE16
:103D6000872E73E0972EA12CB12CEE24E3940CE364
:103D700010E020E030E04A8DC501B4010E943720F8
:103D800064E070E080E090E00E94CA2180E5880E47
:103D9000911CA11CB11C88E588168CE09806A10432
:103DA000B10419F7DF91CF911F910F91EF90BF9060
:103DB000AF909F908F900C9400218F929F92AF9222
:103DC000BF92EF920F931F93CF93DF93EC01ECE13F
:103DD0008E2EECE09E2EA12CB12CEE24E3940CE36D
:103DE00010E020E030E04A8DC501B4010E94372088
:103DF00064E070E080E090E00E94CA2180E5881ACB
:103E00009108A108B1088CEA881683E09806A104FD
:103E1000B10419F7DF91CF911F910F91EF90BF90EF
:103E2000AF909F908F900C9400214F925F926F9271
:103E30007F92AF92BF92CF92DF92EF920F931F9338
:103E4000CF93DF93EC01A62EB12CA114B10459F14C
:103E5000C12CD12CF0ED4F2EF7E05F2E612C712C90
:103E6000EE24E3940CE310E020E030E04A8DC3013F
:103E7000B2010E9437206FE070E080E090E00E9485
:103E8000CA2184E6480E511C611C711C80EF481643
:103E90008AE058066104710419F78FEFC81AD80A2E
:103EA000CA14DB04BCF2DF91CF911F910F91EF9008
:103EB000DF90CF90BF90AF907F906F905F904F90CA
:103EC0000C940021AF92BF92CF92DF92EF920F93AA
:103ED0001F93CF93DF93EC015B0180E5869F600128
:103EE000879FD00C112480EAC81A86EFD80AB60141
:103EF000882777FD8095982FEE24E39404E610E060
:103F000020E030E04A8D0E9437208FE08A9DB0018A
:103F10008B9D700D1124605B7F4F882777FD809506
:103F2000982F0E94CA2101E010E02FE030E040EA23
:103F30005FE0B601CE010E94291DDF91CF911F9154
:103F40000F91EF90DF90CF90BF90AF900895CF93F7
:103F5000DF93EC016231710530F061E0CE01DF9159
:103F6000CF910C94151FFB01EC5CFF4F0C94132BAD
:103F700064E070E0DF91CF910C94621F65E070E027
:103F8000DF91CF910C94621F0E94A51ECE010E946A
:103F9000A51ECE010E94A51E68EE73E080E090E0B1
:103FA000DF91CF910C94CA2168EC70E0DF91CF9142
:103FB0000C94431E6AEF70E0DF91CF910C94431E86
:103FC0006CE271E0DF91CF910C94431E60E971E0E7
:103FD000DF91CF910C94431E64EF71E0DF91CF919C
:103FE0000C94431E0E94D31DCE010E940B1ECE01D5
:103FF0000E94D31DCE010E940B1E68EE73E080E08C
:1040000090E0DF91CF910C94CA210E94D31DCE0184
:104010000E940B1E60E273E080E090E0DF91CF91A0
:104020000C94CA2162E0DF91CF910C94151F64E0DB
:10403000DF91CF910C94151F65E0DF91CF910C9427
:10404000151FDF91CF910C946A1E61E070E0DF9143
:10405000CF910C94621F62E070E0DF91CF910C94DD
:10406000621F63E070E0DF91CF910C94621F4F926A
:104070005F926F927F928F929F92AF92BF92CF92F8
:10408000DF92EF92FF920F931F93CF93DF9300D0B5
:1040900000D0CDB7DEB74B015C01280139010E2DF0
:1040A000611571058105910509F460C0442309F487
:1040B0005DC0142F4B3008F07BC084B1866084B99A
:1040C00060E072E18AE790E0A50194010E94D22AA3
:1040D00069017A0181E0C81AD108E108F108C11428
:1040E000D104E1E0EE06F10408F064C081E1B82EED
:1040F000E12FF0E0E35FFE4F208130E040E050E050
:10410000C701B6010E94D22A41145104610471040E
:1041100011F001115BC0D0928700C092860080919F
:10412000840090918500A0E0B0E0C816D906EA06A8
:10413000FB0620F4D0928500C0928400B0928100EA
:1041400030938B0020938A0030938900209388005D
:1041500080EB80938000411451046104710499F054
:10416000011111C0C301B2010E94CA2180916F00E8
:104170008D7F80936F0082E08093810081E0809347
:10418000800029982A980F900F900F900F90DF9140
:10419000CF911F910F91FF90EF90DF90CF90BF9044
:1041A000AF909F908F907F906F905F904F90089509
:1041B0001AE083CFCD2CDE2CEF2CFF24F1E0CF1AB8
:1041C000D108E108F10824E1B22E92CF29833A8385
:1041D0004B835C830E949A21640D751D861D971D7B
:1041E0006093050470930604809307049093080479
:1041F00080916F00826080936F003A8129818BCF1C
:10420000EFE6F0E080818D7F808382E08093810003
:1042100081E08093800029982A9808951F920F9238
:104220000FB60F9211240F931F932F933F934F9329
:104230005F936F937F938F939F93AF93BF93EF930E
:10424000FF930E949A210091050410910604209189
:10425000070430910804601771078207930768F01C
:1042600080916F008D7F80936F0082E0809381004A
:1042700081E08093800029982A98FF91EF91BF9167
:10428000AF919F918F917F916F915F914F913F91EE
:104290002F911F910F910F900FBE0F901F901895A7
:1042A0001F920F920FB60F9211242F933F938F936B
:1042B0009F93AF93BF9380910A0490910B04A091B8
:1042C0000C04B0910D043091090423E0230F2D3725
:1042D00068F126E8230F0296A11DB11D2093090461
:1042E00080930A0490930B04A0930C04B0930D04E4
:1042F00080910E0490910F04A0911004B0911104CC
:104300000196A11DB11D80930E0490930F04A093FC
:104310001004B0931104BF91AF919F918F913F9181
:104320002F910F900FBE0F901F9018950196A11D11
:10433000B11DD4CF2FB7F89460910A0470910B048B
:1043400080910C0490910D042FBF08953FB7F8940D
:1043500080910E0490910F04A0911004B09111046B
:1043600026B5A89B05C02F3F19F00196A11DB11DD0
:104370003FBF6627782F892F9A2F620F711D811DED
:10438000911D660F771F881F991F660F771F881F63
:10439000991F0895CF92DF92EF92FF92CF93DF9310
:1043A0006B017C010E94A621EB01C114D104E10440
:1043B000F104A9F00E9480280E94A6216C1B7D0BAD
:1043C000683E734090F381E0C81AD108E108F10813
:1043D000C851DC4FC114D104E104F10459F7DF9155
:1043E000CF91FF90EF90DF90CF900895789484B5AF
:1043F000826084BD84B5816084BD85B5826085BDE1
:1044000085B5816085BDEEE6F0E0808181608083C6
:10441000E1E8F0E0108280818260808380818160A9
:104420008083E0E8F0E0808181608083E1EBF0E070
:10443000808184608083E0EBF0E080818160808314
:10444000EAE7F0E0808184608083808182608083FD
:104450008081816080838081806880831092C10028
:1044600008958330E9F038F0873069F0883011F131
:10447000843079F008958130C9F0823081F484B5B8
:104480008F7D84BD08958091B0008F778093B000B8
:104490000895809180008F7D809380000895089515
:1044A000809180008F7780938000089584B58F7706
:1044B00084BD08958091B0008F7D8093B0000895F1
:1044C000CF93DF9390E0FC01E056FF4F2491FC0175
:1044D000EC54FF4F84918823B9F090E0880F991F26
:1044E000FC01E452FF4FA591B4918E529F4FFC0105
:1044F000C591D4919FB7662351F06230A1F0F89432
:104500008C91822B8C939FBFDF91CF910895F8946B
:104510008C91209582238C938881822388839FBFEE
:10452000DF91CF910895F8948C91322F30958323A9
:104530008C938881822B88839FBFE6CF0F931F9334
:10454000CF93DF931F92CDB7DEB7282F30E0F9016C
:10455000E457FF4F8491F901E056FF4F0491F901B0
:10456000EC54FF4F1491112399F081111BC0E12FDE
:10457000F0E0EE0FFF1FEE52FF4FA591B4918FB701
:10458000F8949C9161110AC0009590239C938FBF71
:104590000F90DF91CF911F910F910895902B9C93D5
:1045A0008FBFF6CF69830E9431226981E0CFCF931C
:1045B000DF93282F30E0F901E457FF4F8491F90190
:1045C000E056FF4FD491F901EC54FF4FC491CC2336
:1045D000B1F0811119C0EC2FF0E0EE0FFF1FE8538E
:1045E000FF4FA591B4912C912D2381E090E019F01B
:1045F000DF91CF91089580E0DF91CF91089580E021
:1046000090E0DF91CF9108950E943122E4CFFC0128
:10461000818D228D90E0805C9F4F821B91098F736A
:1046200099270895FC01918D828D981731F0828D24
:10463000E80FF11D858D90E008958FEF9FEF0895AD
:10464000FC01918D828D981761F0828DDF01A80F9A
:10465000B11D5D968C91928D9F5F9F73928F90E0BC
:1046600008958FEF9FEF08958AEA94E2892B49F02D
:1046700080E090E0892B29F00E94AA2481110C94FB
:1046800000000895FC01848DDF01A80FB11DA35A1D
:10469000BF4F2C91848D90E001968F739927848F62
:1046A000A689B7892C93A089B1898C9180648C9359
:1046B000938D848D981308950288F389E02D80816D
:1046C0008F7D80830895CF93DF93EC01888D8823BD
:1046D000B9F0EA89FB89A889B989808185FF0DC075
:1046E0000FB607FCFACF808185FFF7CF8C9185FF4D
:1046F000F4CFCE010E944223ECCF8C9186FFF0CF05
:10470000DF91CF910895CF92DF92FF920F931F9385
:10471000CF93DF931F92CDB7DEB76C0181E0D60156
:1047200058968C9358975B969C915B975C968C916E
:104730005C979817D1F1F601038D10E00F5F1F4FC2
:104740000F731127F02E03C00FB607FE20C0F6012D
:10475000848DF816C9F3838DE80FF11DE35AFF4FDE
:104760006083D6015B960C935B975296ED91FC911A
:10477000539780818062808381E090E00F90DF9189
:10478000CF911F910F91FF90DF90CF900895D601A8
:104790005096ED91FC915197808185FFD8CFC6014D
:1047A00069830E9442236981D2CF5096ED91FC919A
:1047B0005197808185FFBFCFD6015696ED91FC9130
:1047C000579760835096ED91FC915197808180645A
:1047D0008083D2CFBF92CF92DF92EF92FF920F935E
:1047E0001F93CF93DF93EC016A017B01B22EE8891E
:1047F000F98982E08083411581EE580761057105D2
:10480000A9F060E079E08DE390E0A70196010E94B5
:10481000D22A2150310941095109569547953795BA
:1048200027958901211580E13807A0F0E889F989E9
:10483000108260E874E88EE190E0A70196010E9482
:10484000D22A21503109410951095695479537958A
:1048500027958901EC85FD851083EE85FF85008312
:10486000188EEC89FD89B082EA89FB89808180619C
:104870008083EA89FB89808188608083EA89FB895B
:10488000808180688083EA89FB8980818F7D808335
:10489000DF91CF911F910F91FF90EF90DF90CF901C
:1048A000BF9008951F920F920FB60F9211242F936D
:1048B0008F939F93EF93FF93E0912204F091230451
:1048C0008081E0912804F091290482FD1BC02081A1
:1048D00080912B048F5F8F7390912C04891741F086
:1048E000E0912B04F0E0EE5EFB4F258F80932B04CC
:1048F000FF91EF919F918F912F910F900FBE0F908D
:104900001F9018958081F4CF1F920F920FB60F92CF
:1049100011242F933F934F935F936F937F938F93C4
:104920009F93AF93BF93EF93FF9382E194E00E9434
:104930004223FF91EF91BF91AF919F918F917F9112
:104940006F915F914F913F912F910F900FBE0F90FC
:104950001F90189582E194E00E94072321E0892BA3
:1049600009F420E0822F0895109215041092140487
:1049700088EE93E0A0E0B0E08093160490931704D3
:10498000A0931804B09319048BE092E09093130461
:104990008093120485EC90E090931F0480931E0492
:1049A00084EC90E0909321048093200480EC90E0CC
:1049B000909323048093220481EC90E0909325044B
:1049C0008093240482EC90E0909327048093260443
:1049D00086EC90E0909329048093280410922B0495
:1049E00010922C0410922D0410922E04089580E051
:1049F00090E0089508950E94F6210E94FA240E94F2
:104A000093010E94F70384E393E2892B29F00E942B
:104A100034230E94F703FBCF0E94F7030E94F703A1
:104A2000FBCFCF92DF92EF92FF920F931F93CF9322
:104A3000DF937C016A0141155105F9F08B01C0E05B
:104A4000D0E004C02196CC16DD0669F0D8016D9146
:104A50008D01D701ED91FC910190F081E02DC7010E
:104A60000995892B79F7CE01DF91CF911F910F9195
:104A7000FF90EF90DF90CF900895C0E0D0E0F3CFAB
:104A8000DC01ED91FC91DB0114964D915C91159741
:104A90006D917C910280F381E02D0994611571057F
:104AA00081F0DB010D900020E9F7AD014150510983
:104AB000461B570BDC01ED91FC910280F381E02D48
:104AC000099480E090E008950F931F93CF93DF93B4
:104AD000EC01E881F981DB0114964D915C91159709
:104AE0006D917C910280F381E02D09958C01E88124
:104AF000F9810280F381E02D42E050E067E172E04D
:104B0000CE010995800F911FDF91CF911F910F91D9
:104B100008958F929F92AF92BF92CF92DF92EF92C1
:104B2000FF920F931F93CF93DF93CDB7DEB7A1977B
:104B30000FB6F894DEBF0FBECDBF7C01D42EE52F9B
:104B4000CB01C22E19A221E02C1508F051C08C2CEB
:104B5000912CA12CB12C8E010F5D1F4F0BC0805DDD
:104B6000D8018C932115310541055105C9F0D22E8C
:104B7000E32FCA016D2D7E2FA50194010E94D22A38
:104B80008D2DC29E80191124015011098A303CF3E9
:104B9000895CD8018C93211531054105510539F700
:104BA0000115110569F1F80101900020E9F7AF0145
:104BB00041505109401B510BD701ED91FC910280EE
:104BC000F381E02DB801C7010995A1960FB6F894BD
:104BD000DEBF0FBECDBFDF91CF911F910F91FF9030
:104BE000EF90DF90CF90BF90AF909F908F900895FF
:104BF0002AE0822E912CA12CB12C3AE0C32EABCF0F
:104C000080E090E0E2CF2115310511F00C94892568
:104C1000DC01ED91FC910190F081E02D642F09946D
:104C20000F931F93CF93DF93EC019A01AB0160E0E8
:104C300070E00E9403268C01E881F9810280F381F3
:104C4000E02D42E050E067E172E0CE010995800F6F
:104C5000911FDF91CF911F910F9108954F925F9215
:104C60006F927F92AF92BF92CF92DF92EF92FF92BC
:104C70000F931F93CF93DF93CDB7DEB729013A018E
:104C8000621B730B840B950B29893A894B895C89CC
:104C90002A193B094C095D09298B3A8B4B8B5C8B9C
:104CA0009B01AC0169897A898B899C890E94C22AFF
:104CB000E418F50806091709A80197010E94F42ACB
:104CC0002A0D3B1D4C1D5D1DCA01B901DF91CF911D
:104CD0001F910F91FF90EF90DF90CF90BF90AF901A
:104CE0007F906F905F904F900895FC01808191813B
:104CF0000C94C82C0F931F93CF93DF93EC018B017F
:104D000088819981009729F02A813B8126173707EE
:104D100088F4B8016F5F7F4F0E94572D009781F094
:104D2000998388831B830A832C813D81232B11F473
:104D3000FC01108281E0DF91CF911F910F910895C6
:104D400080E0F9CFEF92FF920F931F93CF93DF9301
:104D5000EC017B018A01BA010E947A26811114C0FC
:104D600088819981009711F00E94C82C19821882BD
:104D70001D821C821B821A82CE01DF91CF911F916E
:104D80000F91FF90EF9008951D830C83B7018881E8
:104D900099810E94512ECE01DF91CF911F910F91E9
:104DA000FF90EF900895FC0111821082138212820D
:104DB000158214826115710559F0FB0101900020E4
:104DC000E9F7AF0141505109461B570B0C94A2263D
:104DD0000895CF93DF93EC01FB018617970749F005
:104DE000608171816115710541F0448155810E9496
:104DF000A226CE01DF91CF910895888199810097F5
:104E000011F00E94C82C198218821D821C821B82FC
:104E10001A82CE01DF91CF910895FC011182108298
:104E200013821282158214820C94E926CF93DF93A9
:104E3000EC016115710579F0FB0101900020E9F7A3
:104E4000AF0141505109461B570B0E94A226CE01CB
:104E5000DF91CF91089588819981009711F00E9488
:104E6000C82C198218821D821C821B821A82CE01D4
:104E7000DF91CF910895EF92FF920F931F93CF93FD
:104E8000DF93EC018B016C817D810115110599F097
:104E90004115510541F481E0DF91CF911F910F91B0
:104EA000FF90EF9008957A01E60EF71EB7010E9479
:104EB0007A26811108C080E0DF91CF911F910F9178
:104EC000FF90EF900895288139818C819D81B801F0
:104ED000820F931F0E94512EFD82EC8281E0DF91B0
:104EE000CF911F910F91FF90EF900895611571057B
:104EF00059F0FB0101900020E9F7AF014150510941
:104F0000461B570B0C943B2780E00895CF93DF930B
:104F100000D0CDB7DEB769831A8241E050E0BE0110
:104F20006F5F7F4F0E943B270F900F90DF91CF91D3
:104F30000895EF92FF920F931F93CF93DF93CDB716
:104F4000DEB72E970FB6F894DEBF0FBECDBF7C0143
:104F5000CB01BA012AE08E010F5F1F4FA8010E940A
:104F6000722EF80101900020E9F7AF01415051097C
:104F7000401B510BB801C7010E943B272E960FB66C
:104F8000F894DEBF0FBECDBFDF91CF911F910F917F
:104F9000FF90EF900895EF92FF920F931F93CF939E
:104FA000DF93CDB7DEB764970FB6F894DEBF0FBEC0
:104FB000CDBF7C01CB01BA018E010F5F1F4F22E0F4
:104FC00044E00E940F2CFC0101900020E9F7AF01A2
:104FD00041505109481B590BBC01C7010E943B2796
:104FE00064960FB6F894DEBF0FBECDBFDF91CF91B0
:104FF0001F910F91FF90EF900895FC01248135815E
:105000006217730738F480819181009719F0860F39
:10501000971F08951092AF048FEA94E00895CF93FC
:10502000DF93FC01848195814817590788F4C0817A
:10503000D181FB0160817181CE01840F951F0E9497
:10504000582E009729F08C1B9D0BDF91CF9108956E
:105050008FEF9FEFFACF40E050E00C940F28BF9203
:10506000CF92DF92EF92FF920F931F93CF93DF9334
:105070008C016B01EA0179012417350720F48D2F8B
:10508000E901E42EF82E69E172E0C8010E94D326FE
:10509000D60114968D919C911597C817D907C0F425
:1050A0008E159F0500F1D601ED91FC911197EE0D43
:1050B000FF1DB08010826D917C916C0F7D1FC80127
:1050C0000E941627D601ED91FC91EE0DFF1DB082D6
:1050D000C801DF91CF911F910F91FF90EF90DF906A
:1050E000CF90BF9008957C01DECFFC01808191813B
:1050F000009711F00C94212E60E070E0CB01089530
:1051000008955058BB27AA270ED09FC190D130F0E8
:1051100095D120F031F49F3F11F41EF475C10EF4C7
:10512000E095E7FB6BC1E92FA1D180F3BA176207C5
:1051300073078407950718F071F49EF5B9C10EF452
:10514000E0950B2EBA2FA02D0B01B90190010C0197
:10515000CA01A0011124FF27591B99F0593F50F4AF
:10516000503E68F11A16F040A22F232F342F442707
:10517000585FF3CF469537952795A795F0405395FF
:10518000C9F77EF41F16BA0B620B730B840BBAF0CF
:105190009150A1F0FF0FBB1F661F771F881FC2F73A
:1051A0000EC0BA0F621F731F841F48F4879577954E
:1051B0006795B795F7959E3F08F0B3CF9395880F05
:1051C00008F09927EE0F9795879508950CD03DC16B
:1051D00035D140F02CD130F021F45F3F19F00EC1F1
:1051E000511167C111C142D198F39923C9F35523D5
:1051F000B1F3951B550BBB27AA27621773078407CA
:1052000038F09F5F5F4F220F331F441FAA1FA9F37F
:1052100033D00E2E3AF0E0E830D091505040E69571
:10522000001CCAF729D0FE2F27D0660F771F881FD2
:10523000BB1F261737074807AB07B0E809F0BB0BC1
:10524000802DBF01FF2793585F4F2AF09E3F5105E5
:1052500068F0D4C02EC15F3FECF3983EDCF3869536
:1052600077956795B795F7959F5FC9F7880F911D5B
:105270009695879597F90895E1E0660F771F881F47
:10528000BB1F621773078407BA0720F0621B730BFA
:10529000840BBA0BEE1F88F7E095089504D068944C
:1052A000B11107C10895EAD088F09F5790F0B92F47
:1052B0009927B751A0F0D1F0660F771F881F991F6B
:1052C0001AF0BA95C9F712C0B13081F0F1D0B1E04F
:1052D0000895EEC0672F782F8827B85F39F0B93F5F
:1052E000CCF3869577956795B395D9F73EF490956D
:1052F0008095709561957F4F8F4F9F4F089597FBD5
:105300000EF485D03EC0E89409C097FB3EF490951A
:105310008095709561957F4F8F4F9F4F9923A9F08E
:10532000F92F96E9BB279395F6958795779567951D
:10533000B795F111F8CFFAF4BB0F11F460FF1BC061
:105340006F5F7F4F8F4F9F4F16C0882311F096E9F4
:1053500011C0772321F09EE8872F762F05C06623A2
:1053600071F096E8862F70E060E02AF09A95660F5B
:10537000771F881FDAF7880F9695879597F9089514
:10538000E894F92F96EBFF2381F01216130614060A
:10539000440B9395F695879577956795579540407B
:1053A000FF23B9F71BC099270895882351F498501B
:1053B000D2F7872B762F652F542F432F322F20E0E3
:1053C000B1F3121613061406440B88233AF09A958B
:1053D000440F551F661F771F881FCAF755234AF4CD
:1053E000440F551F11F460FF04C06F5F7F4F8F4F54
:1053F0009F4F880F9695879597F9089597F99F671E
:1054000080E870E060E008959FEF80EC089590954B
:1054100080957095609550954095309521953F4FBA
:105420004F4F5F4F6F4F7F4F8F4F9F4F0895002417
:105430000A941616170618060906089500240A94F9
:1054400012161306140605060895092E0394000C7F
:1054500011F4882352F0BB0F40F4BF2B11F460FF0E
:1054600004C06F5F7F4F8F4F9F4F089557FD905837
:10547000440F551F59F05F3F71F04795880F97FB18
:10548000991F61F09F3F79F08795089512161306D2
:105490001406551FF2CF4695F1DF08C01616170601
:1054A0001806991FF1CF8695710561050894089536
:1054B000E894BB2766277727CB0197F908950BD08F
:1054C000C4CFB5DF28F0BADF18F0952309F096CFE6
:1054D0009BCF1124EECFCADFA0F3959FD1F3950F98
:1054E00050E0551F629FF001729FBB27F00DB11D68
:1054F000639FAA27F00DB11DAA1F649F6627B00DF8
:10550000A11D661F829F2227B00DA11D621F739FE0
:10551000B00DA11D621F839FA00D611D221F749FEE
:105520003327A00D611D231F849F600D211D822F35
:10553000762F6A2F11249F5750408AF0E1F088237C
:105540004AF0EE0FFF1FBB1F661F771F881F915089
:105550005040A9F79E3F510570F050CFAACF5F3F52
:10556000ECF3983EDCF3869577956795B795F795BC
:10557000E7959F5FC1F7FE2B880F911D9695879544
:1055800097F90895DB018F939F930E94282BBF9179
:10559000AF91A29F800D911DA39F900DB29F900D82
:1055A00011240895A1E21A2EAA1BBB1BFD010DC0F8
:1055B000AA1FBB1FEE1FFF1FA217B307E407F507C3
:1055C00020F0A21BB30BE40BF50B661F771F881F9F
:1055D000991F1A9469F760957095809590959B0135
:1055E000AC01BD01CF010895052E97FB1EF4009478
:1055F0000E940B2B57FD07D00E94D22A07FC03D034
:105600004EF40C940B2B50954095309521953F4FBF
:105610004F4F5F4F089590958095709561957F4F9E
:105620008F4F9F4F0895EE0FFF1F0590F491E02DCF
:105630000994A29FB001B39FC001A39F700D811D6B
:105640001124911DB29F700D811D1124911D08958B
:105650000E94192BA59F900DB49F900DA49F800DC3
:10566000911D11240895DF93CF931F930F939A9D5B
:10567000F02D219FF00D8B9DF00D8A9DE02DF10DF9
:10568000039FF00D029FE00DF11D4E9DE00DF11DF9
:105690005E9DF00D4F9DF00D7F936F93BF92AF9283
:1056A0005F934F93D5010E94192B8B01AC01D70159
:1056B0000E94192BEB01E80FF91FD6010E94832BE2
:1056C0002F913F91D6010E94192BC60FD71FE81FBB
:1056D000F91FAF91BF910E94832B2F913F910E94A0
:1056E000192BC60FD71FE81FF91FD6010E94192BCF
:1056F000E60FF71F9801BE01CF0111240F911F91F2
:10570000CF91DF9108950E94192B460F571FC81F94
:10571000D91F08F43196089597FB57FF0C949C2BE2
:105720009F938F930E949C2B6E1B7F0BAF91BF9119
:105730008A0B9B0B0895E894DF93CF93FC01DB0168
:105740000E94192B7F936F93E9019A01AC01BF93DB
:10575000AF933F932F93DF010E94192B26F46C1B0C
:105760007D0B820B930B9E01EB01FC010E94832BAE
:10577000AF91BF912F913F910E94832BBE01CF012A
:10578000F9012F913F91CF91DF9108950F93083048
:1057900090F0982F872F762F652F542F432F322F7D
:1057A00022270850F4CF220F331F441F551F661FB6
:1057B000771F881F991F0A95B2F70F91089597FBDD
:1057C00010F8169400080F93083098F00850232F13
:1057D000342F452F562F672F782F892F902DF4CFF8
:1057E000059497958795779567955795479537953C
:1057F00027950A95AAF70F9108952A0D3B1D4C1D78
:105800005D1D6E1D7F1D801F911F08952A193B0984
:105810004C095D096E097F09800B910B0895EF9289
:105820000F931F93CF93DF93E80147FF02C034E14A
:1058300001C034E0E42FFF27E7FDF095F7FF03C038
:10584000F195E195F109E32E022F2E2FAE010E9472
:10585000CE2ECE01DF91CF911F910F91EF90089541
:10586000CF93DF938230910510F482E090E0E091D5
:10587000B204F091B30420E030E0A0E0B0E0309753
:1058800039F14081518148175907B8F04817590735
:1058900071F482819381109729F013969C938E93D3
:1058A00012972CC09093B3048093B20427C02115A3
:1058B000310531F04217530718F0A901DB0101C08F
:1058C000EF019A01BD01DF010280F381E02DD7CF06
:1058D00021153105F9F0281B390B2430310580F4EE
:1058E0008A819B816115710521F0FB01938382837D
:1058F00004C09093B3048093B204FE01329644C076
:10590000FE01E20FF31F81939193225031093983F5
:1059100028833AC02091B0043091B104232B41F484
:1059200020910201309103013093B1042093B0041F
:1059300020910001309101012115310541F42DB76D
:105940003EB74091040150910501241B350BE091B5
:10595000B004F091B104E217F307A0F42E1B3F0B43
:105960002817390778F0AC014E5F5F4F24173507D1
:1059700048F04E0F5F1F5093B1044093B0048193E1
:10598000919302C0E0E0F0E0CF01DF91CF91089564
:10599000CF93DF93009709F487C0FC0132971382FD
:1059A0001282C091B204D091B304209781F4208177
:1059B0003181280F391F8091B0049091B104821772
:1059C000930779F5F093B104E093B0046DC0DE0164
:1059D00020E030E0AE17BF0750F412964D915C9175
:1059E00013979D014115510509F1DA01F3CFB383F6
:1059F000A28340815181840F951F8A179B0771F400
:105A00008D919C911197840F951F029691838083AD
:105A100012968D919C911397938382832115310562
:105A200029F4F093B304E093B2043EC0D901139675
:105A3000FC93EE9312974D915D91A40FB51FEA1759
:105A4000FB0779F480819181840F951F0296D9011B
:105A500011969C938E938281938113969C938E933F
:105A60001297E0E0F0E08A819B81009719F0FE0137
:105A7000EC01F9CFCE01029628813981820F931F64
:105A80002091B0043091B1042817390769F4309798
:105A900029F41092B3041092B20402C0138212824D
:105AA000D093B104C093B004DF91CF910895A0E0EA
:105AB000B0E0EDE5FDE20C943831EC01CB0120972C
:105AC00019F40E94302CB8C0FE01E60FF71F9E01AA
:105AD00022503109E217F30708F4ACC0D9010D9147
